:100000006FA0F02713000000130000001300000091
:100010001300000013000000130000001300000094
:100020001300000013000000130000001300000084
:08003000130000007300100032
:10003800000000000000000062A7000072A7000096
:1000480000000000C4A9000000000000000000003B
:10005800C6A90000C8A900000000000000000000B8
:10006800CAA9000000000000CCA9000000000000A0
:10007800CEA90000D0A90000D2A90000D4A9000090
:10008800D6A90000D8A900004A960000FE960000F4
:10009800B2970000669800001A990000E4A90000D1
:1000A800E6A90000E8A90000EAA90000ECA9000000
:1000B800EEA90000F0A90000F2A90000F4A90000D0
:1000C800F6A90000F8A90000FAA90000CE990000DE
:1000D800FEA90000129C000002AA000004AA000069
:1000E800D29C00008A9D00009A9E00000CAA000085
:1000F8000EAA000010AA000012AA000014AA00000C
:1001080016AA00002C8F0000F08F0000B4900000A9
:10011800E69A000020AA000022AA000024AA0000F3
:100128002AA5000028AA00002AAA00002CAA00007C
:100138002EAA000030AA00005A9F000034AA00002E
:10014800789100003C92000046A300006AA40000D9
:100158003EAA000040AA000042AA000044AA0000EB
:1001680046AA000048AA00004AAA00004CAA0000BB
:100178004EAA000050AA000052AA00004CD300006A
:1001880056AA000058AA00007A950000FE920000C6
:10019800C2930000BA94000062AA0000EAA5000019
:1001A80066AA000068AA00006AAA0000AAA60000C1
:1001B8006EAA000070AA000072AA000074AA0000CB
:1001C80076AA000078AA00007AAA00007CAA00009B
:1001D8000000000000000000000000000000000017
:1001E8000000000000000000000000000000000007
:0801F8000000000000000000FF
:100200003D432A876373C3029377F700BDEFADE5E3
:10021000937606FF3D8ABA960CC34CC30CC74CC7F5
:100220004107E36BD7FE11E28280B306C3408A0622
:100230009702000096966780A6002307B700A306E2
:10024000B7002306B700A305B7002305B700A30432
:10025000B7002304B700A303B7002303B700A3022A
:10026000B7002302B700A301B7002301B700A30022
:10027000B7002300B700828093F5F50F93968500B1
:10028000D58D93960501D58D61B79396270097027A
:10029000000096968682E78086FA9680C1171D8FA9
:1002A0003E96E374C3F8A5B7797106D622D4001838
:1002B000232EA4FC8327C4FDB18393F7F70FBD8BD6
:1002C000A307F4FE8327C4FDA18393F7F70FBD8B2B
:1002D0002307F4FE0347F4FEB70700200A079387BD
:1002E0000739BA979C430347E4FE91460546BA8511
:1002F0003E85EFA0F0290347F4FEB70700200A0768
:1003000093870739BA979C4385453E85EFA0102413
:1003100001000347F4FEB70700200A079387073957
:10032000BA979C4389453E85EFA0104BAA87F5D329
:100330000347F4FEB70700200A0793870739BA97E7
:100340009C43FC478346F4FE1387018D3697034791
:100350000700B3D7E700C207C1833E85B2502254DD
:10036000456182805D7186C6A2C48008232EA4FAEE
:10037000232CB4FA232604FC232804FC232A04FC9F
:10038000232C04FC232E04FC232004FE232204FE41
:10039000232404FE8327C4FBB18393F7F70FBD8B9F
:1003A000A307F4FE8327C4FB93F7F70F81460146AA
:1003B00081453E85EF0070728347F4FE99E78545DD
:1003C00013050020EFB0100D19A80347F4FE854770
:1003D0006317F700854513050040EFB0B00B31659A
:1003E000EFB020560347F4FEB70700200A079387B3
:1003F0000739BA979C433E85EFA00071232604FC81
:10040000232804FC232A04FCB7070E00232CF4FC49
:10041000232E04FC85472300F4FE0347F4FEB707B0
:1004200000200A0793870739BA979C431307C4FC37
:10043000BA853E85EFA040730347F4FEB70700205E
:100440000A0793870739BA979C4385453E85EFA0F5
:10045000D0010347F4FEB70700200A079387073946
:10046000BA979C4381453E85EFA0B03A0347F4FE1E
:10047000B70700200A0793870739BA979C433E8540
:10048000EFA0900201000347F4FEB70700200A071F
:1004900093870739BA979C433E85EFA01003AA873C
:1004A000FDF30347F4FEB70700200A0793870739D7
:1004B000BA979C433E85EFA0500401000347F4FE29
:1004C000B70700200A0793870739BA979C433E85F0
:1004D000EFA0D004AA87FDF38346F4FE832784FBB4
:1004E00013F7F70F9387018DB6972380E70001007C
:1004F000B640264461618280011122CE001023267D
:10050000A4FE37F500E08328450037F500E093F8B6
:10051000E8FF2322150183A8C1830965130505F4AB
:1005200033D5A802AA8601470325C4FEAA8701483D
:1005300037F500E03303F702B308D8029A98338303
:10054000F60233B6F6029A85B387C8003E860CC918
:1005500050C9B7F700E09843B7F700E01367070109
:1005600098C3B7F700E09843B7F700E013671702A6
:1005700098C30100B7F700E0DC4313F71700854785
:10058000E31AF7FEB7F700E09843B7F700E0799B6E
:1005900098C30100724405618280011122CE0010CF
:1005A0002326A4FE37F500E08328450037F500E058
:1005B00093F8E8FF2322150183A8C18337157A0039
:1005C0001305052033D5A802AA8601470325C4FEDA
:1005D000AA87014837F500E03303F702B308D802D1
:1005E0009A983383F60233B6F6029A85B387C80029
:1005F0003E860CC950C9B7F700E09843B7F700E052
:100600001367070198C3B7F700E09843B7F700E016
:100610001367170298C30100B7F700E0DC4313F734
:1006200017008547E31AF7FEB7F700E09843B7F7DE
:1006300000E0799B98C3010072440561828001113A
:1006400006CE22CC0010AA8E2E8E32833685BA8535
:100650003E86C2864687F687A307F4FEF287230705
:10066000F4FE9A87A306F4FEAA872306F4FEAE875B
:10067000A305F4FEB2872305F4FEB687A304F4FEB7
:10068000BA872304F4FE8347F4FE930680040146F0
:1006900081453E85EF0070448347E4FE9306800465
:1006A000014681453E85EF0050438347D4FE9306C3
:1006B0008004014681453E85EF0030428347C4FEF9
:1006C00093068004014681453E85EF001041834733
:1006D000B4FE93068004014681453E85EF00F03F5D
:1006E0008347A4FE93068004014681453E85EF00C2
:1006F000D03E834794FE93068004014681453E85A3
:10070000EF00B03D834784FE930680040146814597
:100710003E85EF00903C83474400930680040146E9
:1007200081453E85EF00703B8347040093068004BB
:10073000014681453E85EF00503A83478400930689
:100740008004014681453E85EF0030390100F240CA
:10075000624405618280011106CE22CC001023265E
:10076000A4FE2324B4FEB28736872313F4FEBA878F
:100770002312F4FE85450965EFB0604DB7070550BB
:1007800083C7070013F7F70FB70705501377F7FC78
:100790001377F70F2380E700B707055083C70700DB
:1007A00013F7F70FB7070550136727041377F70FF1
:1007B0002380E700B707055083C7170013F7F70F2B
:1007C000B7070550659B1377F70FA380E700B707BE
:1007D0000550035744FE2392E700B707055003571F
:1007E00064FE2393E700B70705500327C4FE98C7AC
:1007F000B7070550032784FED8C7B707055083C73E
:10080000170013F7F70FB70705501377F7031377A0
:10081000F70FA380E70037070550B70705500347D8
:1008200017001377F70FA380E700B707055083C7BA
:10083000270013F7F70FB707055013674700137723
:10084000F70F2381E700B707055083C7170013F799
:10085000F70FB7070550136717001377F70FA3803B
:10086000E700B707055083C7070013F7F70FB7076F
:100870000550136717001377F70F2380E7008D45A6
:1008800013056005EF80806013056005EF80405C14
:100890000100F240624405618280797106D622D45B
:1008A0000018232EA4FC231704FE231604FE03279E
:1008B000C4FDA54763E1E70C8327C4FD1397270018
:1008C000B70702009387872BBA979C438287B73775
:1008D0000140938707C083D74702C207C18323170C
:1008E000F4FE69A8B707004083D74702C207C18357
:1008F0002317F4FE61A0B70700409387074083D712
:100900004702C207C1832317F4FE8DA8B717004022
:100910009387078083D74702C207C1832317F4FE5A
:10092000B1A8B7170040938707C083D74702C20713
:10093000C1832317F4FE99A0B7370140938707407E
:1009400083D74702C207C1832317F4FE05A8B75710
:100950000140938707C083D74702C207C18323178B
:10096000F4FE29A8B757014083D74702C207C183C5
:100970002317F4FE21A0231704FE0100B70700206F
:10098000138707008327C4FDBA9783C7070013F7AF
:10099000F70F9307F00F6317F7008357E4FE231652
:1009A000F4FE35A8B7070020138707008327C4FD8E
:1009B000BA9783C7070093F7F70F3E85EF00D00D76
:1009C000AA8791EB8357E4FEB307F040C207C183C7
:1009D0002316F4FE29A08357E4FE2316F4FE8317A2
:1009E000C4FE3E85B250225445618280011122CE60
:1009F00000102326A4FE0327C4FEA54763E1E708F1
:100A00008327C4FE13972700B70702009387072E9A
:100A1000BA979C438287B7370140938707C02392D8
:100A20000702B9A8B70700402392070291A8B707A9
:100A30000040938707402392070299A0B717004010
:100A4000938707802392070225A8B7170040938752
:100A500007C0239207022DA0B737014093870740B4
:100A60002392070231A8B7570140938707C023920A
:100A7000070239A0B75701402392070211A00100D5
:100A80000100724405618280397106DE22DC80003B
:100A90002326A4FC2324B4FC2322C4FC232604FE26
:100AA00091450325C4FCEF204055AA873E871306D5
:100AB000100DB7F70100938587423A85EF70C02B80
:100AC0008327C4FC1397C700832784FC7D8F83276B
:100AD000C4FCB207B307F74093B7170093F7F70FBB
:100AE0003E871306200DB7F70100938587423A85AC
:100AF000EF7080288327C4FC1397C700832744FC2A
:100B00007D8F8327C4FCB207B307F74093B7170064
:100B100093F7F70F3E871306300DB7F70100938563
:100B200087423A85EF7040250325C4FCEF204053EF
:100B3000832784FC93F7F70F9306800401468145D1
:100B40003E85EF008079832744FC93F7F70F9306E7
:100B50008004014681453E85EF002078832784FC90
:100B600013F7F70FB7070020938607008327C4FC0D
:100B7000B6972380E7000327C4FCA54763E1E70895
:100B80008327C4FC13972700B70702009387873099
:100B9000BA979C438287B7370140938707C02324C5
:100BA000F4FE8DA0B70700402324F4FEA1A8B707E8
:100BB0000040938707402324F4FEA9A0B717004004
:100BC000938707802324F4FE35A8B7170040938746
:100BD00007C02324F4FE3DA0B737014093870740A8
:100BE0002324F4FE05A0B7570140938707C02324B0
:100BF000F4FE09A8B75701402324F4FE21A085473D
:100C00002326F4FE85450545EFB0C008832784FC04
:100C100013D787008D47631AF7008545B70716007D
:100C20001385070CEFA0502BE5A8832784FC13D76E
:100C30008700C547631AF7008545B7071800138575
:100C40000710EFA07029E9A8832784FC13D7870039
:100C500093072002631AF7008545B7171A0013851A
:100C60000780EFA070276DA8832784FC13D7870027
:100C700093073002631AF7008545B7171A001385EA
:100C800007C0EFA0702569A8832784FC13D78700CD
:100C9000930710036317F70085450565EFA0D02380
:100CA00041A0832784FC13D7870093071007631A9A
:100CB000F7008545B707008013854700EFA0D021D6
:100CC00085A0832784FC13D7870093073008631A15
:100CD000F7008545B707138013850701EFA0D01FE4
:100CE00081A0832784FC13D7870093071009631A18
:100CF000F7008545B707158013850702EFA0D01DC3
:100D000005A0832784FC13D7870093073009631954
:100D1000F7008545B707158013850704EFA0D01BA2
:100D20008327C4FEA9EB232E04FC232004FE2312F8
:100D300004FE9307C4FD3E85EFB0B028231E04FCDB
:100D4000FD572310F4FE231104FE231F04FC23028D
:100D500004FE9307C4FDBE85032584FEEFB0802109
:100D600093050006032584FEEFB0F03B854503257F
:100D700084FEEFB0D0280100F250625421618280DD
:100D8000797106D622D40018232EA4FC232CB4FC9F
:100D900085450545EFA01070930680040546814502
:100DA0000325C4FD1D2B8327C4FD958313F7F70F7F
:100DB0008327C4FD93F7F70FFD8B93F7F70FBE85DD
:100DC0003A85EFA0F02D232004FE232204FE2324E5
:100DD00004FE232604FE8327C4FDFD8B0547B317BD
:100DE000F7002320F4FE232204FE832784FD23241E
:100DF000F4FE85472326F4FE930704FE3E85EFA00C
:100E000080258327C4FDFD8B89E75945EF80400489
:100E1000BDA08327C4FDF98B89E75D45EF804003C2
:100E2000B9A88327C4FD13F7F701894763E6E700F4
:100E30006145EF80E001A1A08327C4FDF18B89E724
:100E40006545EF80E00025A88327C4FD13F7F7016F
:100E5000914763E6E7006945EF70907F0DA0832717
:100E6000C4FD13F7F701A54763E7E7001305700218
:100E7000EF70107E29A013058003EF70707D0100D4
:100E8000B250225445618280797106D622D400186E
:100E9000232EA4FC232CB4FC8327C4FD93B70704A2
:100EA00093F7F70F3E8713068003B7F7010093858A
:100EB00087483A85EF60506C832784FD93B74700DD
:100EC00093F7F70F3E8713069003B7F7010093855A
:100ED00087483A85EF60506AA30704FE0327C4FDE4
:100EE000A167BA9713972700832784FDBA97AA07AB
:100EF0002324F4FEEF70507F2322A4FEEF6060579E
:100F0000B7172707138507E0EF60005E231604FE7E
:100F100035A00357C4FE832784FEBA979843B7E7EA
:100F200039E3938797336306F7008547A307F4FEF9
:100F300021A88357C4FE91072316F4FE0357C4FE6D
:100F40009307F03FE3F7E7FCEF60A05283A7C1836C
:100F50003E85EF606059032544FEEF70D0758347EE
:100F6000F4FE3E85B250225445618280797106D6E6
:100F700022D40018232EA4FC232CB4FC8327C4FD08
:100F800093B7070493F7F70F3E871306F005B7F7FB
:100F90000100938587483A85EF60105E832784FDC2
:100FA00093B7470093F7F70F3E8713060006B7F78E
:100FB0000100938587483A85EF60105CA30704FE23
:100FC0000327C4FDA167BA9713972700832784FDE1
:100FD000BA97AA072324F4FEEF7010712322A4FE0F
:100FE000EF602049B7172707138507E0EF60C04F70
:100FF000EFA0C02413054003EFA0003B032584FEAF
:10100000EFA040282A8723A4E18013050002EFA067
:10101000A039EFA0402503A7818091476305F70021
:101020008547A307F4FEEF60C04483A7C1833E85D4
:10103000EF60804B032544FEEF70F0678347F4FEBA
:101040003E85B250225445618280797106D622D401
:101050000018232EA4FC232CB4FC8327C4FD93B7D3
:10106000070493F7F70F3E871306800DB7F70100CB
:10107000938587483A85EF603050832784FD93B786
:10108000470093F7F70F3E871306900DB7F701005F
:10109000938587483A85EF60304E0327C4FDA167EA
:1010A000BA9713972700832784FDBA97AA072324AA
:1010B000F4FE231704FE3DA08357E4FE8A073E8713
:1010C000832784FEBA978356E4FE9843B70700202F
:1010D0008A0693874765B69798C38357E4FE8507CA
:1010E0002317F4FE0357E4FE9307F00FE3F6E7FC43
:1010F0000100B250225445618280797106D622D413
:101100000018232EA4FC232CB4FC8327C4FD93B722
:10111000070493F7F70F3E871306100FB7F7010088
:10112000938587483A85EF603045832784FD93B7E0
:10113000470093F7F70F3E871306200FB7F701001C
:10114000938587483A85EF603043A30704FE232444
:1011500004FE231304FE0327C4FDA167BA97139767
:101160002700832784FDBA97AA072324F4FE83254A
:1011700084FD0325C4FD093BAA8791C7832584FD0F
:101180000325C4FDE533EF7030562320A4FEEF6045
:10119000402EB7172707138507E0EF60E034EFA074
:1011A000E009A9A0035764FEB70700200A07938748
:1011B0004765BA979C43BE85032584FEEFA0E013E4
:1011C0002A8723A6E18003A7C18091476306F70021
:1011D0008547A307F4FE0DA0835764FE85072313FC
:1011E000F4FE832784FE91072324F4FE035764FE54
:1011F0009307F00FE3F8E7FAEFA0E006EF6060274F
:1012000083A7C1833E85EF60202E032504FEEF7087
:10121000904A8347F4FE3E85B25022544561828055
:10122000011122CE00102326A4FEAE87A305F4FEF2
:101230008347B4FE85CB8327C4FEBD8B0547B31718
:10124000F70093960701C1828327C4FE13D7570086
:10125000B70700200A079387C700BA979C433687D1
:1012600098CB3DA08327C4FEBD8B0547B317F7007D
:1012700093960701C1828327C4FE13D75700B7078F
:1012800000200A079387C700BA979C433687D8CBBC
:101290000100724405618280011122CE00102326D4
:1012A000A4FE8327C4FE958313F77700B7070020B9
:1012B0000A079387C700BA979C439C470327C4FE3D
:1012C0007D8B85463397E600F98FB337F00093F7AF
:1012D000F70F3E85724405618280797106D622D46B
:1012E0000018232EA4FC232CB4FCB2872328D4FCA2
:1012F000A30BF4FC232004FE232204FE232404FE7B
:101300008327C4FD958393F7F70F9D8BA307F4FE06
:101310008327C4FD93F7F70FFD8B2307F4FE834764
:10132000F4FE91E785451145EFA0D01691A803473B
:10133000F4FE85476317F70085452145EFA090151A
:1013400081A00347F4FE89476317F70085454145AF
:10135000EFA0501435A00347F4FE8D476318F70043
:10136000854513050002EFA0F01219A80347F4FE0B
:1013700091476317F700854513050004EFA090110E
:101380008347E4FE0547B317F700C207C183231064
:10139000F4FE032784FD85476317F702832704FDC6
:1013A000C207C183A183C207C18389E78D47232276
:1013B000F4FE11A8832704FDC207C183A183C207DD
:1013C000C1832322F4FE832704FDC207C18393F760
:1013D000F70F2324F4FE0347F4FEB70700200A07A3
:1013E0009387C700BA979C43130704FEBA853E85CE
:1013F000EFA06008032784FD85476319F7020347C0
:10140000F4FEB70700200A079387C700BA979443F2
:101410008347E4FE0547B317F700C207C1830347BC
:1014200074FD3A86BE853685EFA080270100B25054
:101430002254456182801D7186CEA2CC8010232665
:10144000A4FA2324B4FA85450325C4FAEF10F03A30
:10145000AA873E871306D006B7F701009385075188
:101460003A85EF607011832784FAB337F00093F761
:10147000F70F3E871306F006B7F701009385075173
:101480003A85EF60700F832784FABD832315F4FE3D
:101490008357A4FE85073E87832784FAB3D7E702E4
:1014A0002314F4FE0325C4FAEF10903BB737014034
:1014B000938707C02326F4FE0327C4FAA54763EDEC
:1014C000E7088327C4FA13972700B707020093871A
:1014D0000733BA979C438287B7370140938707C089
:1014E0002326F4FE95A8B70700402326F4FEADA0FE
:1014F000B7070040938707402326F4FEB1A8B7172B
:101500000040938707802326F4FEB9A0B717004058
:10151000938707C02326F4FE81A0B7170040232637
:10152000F4FE1DA8B7170040938707402326F4FE5A
:1015300025A0B7370140938707402326F4FE29A84A
:10154000B7570140938707C02326F4FE31A0B75751
:1015500001402326F4FE0100232E04FC232004FE78
:10156000231204FE835784FE2310F4FE8357A4FE47
:10157000231EF4FC231104FE231F04FC230204FE9B
:101580009307C4FDBE850325C4FEEFA0B01E05462B
:1015900085450325C4FEEFB0003285450325C4FE12
:1015A000EFB0A071B7F7010003AE874E1387874EE7
:1015B000032347001387874E832887001387874EAE
:1015C0000328C7001387874E084B1387874E4C4B61
:1015D0001387874E104F1387874E544F1387874EBC
:1015E00018539387874EDC53232AC4FB232C64FAB9
:1015F000232E14FB232004FD2322A4FC2324B4FC6B
:101600002326C4FC2328D4FC232AE4FC232CF4FC4A
:101610008327C4FA93F7F70F8A07130704FFBA97D3
:1016200083A747FC8D453E85EF7050068327C4FA9B
:101630008A07130704FFBA9783A747FC3E85EF701C
:10164000300185450325C4FEEFB0601B0100F64064
:10165000664425618280797106D622D40018232E33
:10166000A4FC232CB4FC032784FD8967938717719E
:10167000B337F70093F7F70F3E8713065003B7F71A
:1016800001009385C7563A85EF60006FB737014078
:10169000938707C02326F4FE8327C4FDC183BD8B37
:1016A0002547636FF70613972700B7070200938754
:1016B0008735BA979C438287B7370140938707C025
:1016C0002326F4FEB1A8B70700402326F4FE89A81C
:1016D000B7070040938707402326F4FE91A0B71771
:1016E0000040938707802326F4FE1DA8B71700400B
:1016F000938707C02326F4FE25A0B73701409387C0
:1017000007402326F4FE29A8B7570140938707C056
:101710002326F4FE31A0B75701402326F4FE010032
:101720008327C4FE83D7C7022315F4FE0357A4FE04
:10173000832784FD3307F702896793870771B357BF
:10174000F7022314F4FE8327C4FDA1838D8B81EB64
:101750008327C4FE035784FE239AE702A9A88327A0
:10176000C4FDA18313F7370085476319F70083276A
:10177000C4FE035784FE239CE70235A88327C4FDDB
:10178000A18313F7370089476319F7008327C4FE45
:10179000035784FE239EE70239A88327C4FDA18353
:1017A00013F737008D476318F7008327C4FE0357EC
:1017B00084FE2390E7040100B250225445618280E8
:1017C0005D7186C6A2C48008232EA4FA232CB4FA25
:1017D000232AC4FA8327C4FBC1838D453E85EF10BD
:1017E000D001AA873E871306D00AB7F70100938578
:1017F000C7563A85EF604058032744FB89679387B3
:101800001771B337F70093F7F70F3E871306F00A07
:10181000B7F701009385C7563A85EF60E055232E50
:1018200004FC232004FE231204FE232604FC2328A8
:1018300004FC232A04FC232C04FC231504FE832728
:10184000C4FBC183BD8B3E85EF1090018327C4FB91
:1018500093F7F70F93068031014685453E85B53CE9
:1018600085450545EFA00043B7370140938707C082
:101870002326F4FE8327C4FBC183BD8B2547636FFA
:10188000F70613972700B707020093870738BA9720
:101890009C438287B7370140938707C02326F4FE15
:1018A000B1A8B70700402326F4FE89A8B707004077
:1018B000938707402326F4FE91A0B7170040938733
:1018C00007802326F4FE1DA8B7170040938707C0A2
:1018D0002326F4FE25A0B73701409387074023262F
:1018E000F4FE29A8B7570140938707C02326F4FECA
:1018F00031A0B75701402326F4FE01008327C4FB23
:1019000013D7C7008D47631AF7008545B707160040
:101910001385070CEF90505C15AA8327C4FB13D7DF
:10192000C700C547631AF7008545B7071800138538
:101930000710EF90705A19AA8327C4FB13D7C7006A
:10194000C947631AF7008545B707180013850720B4
:10195000EF909058E5A88327C4FB13D7C700CD4765
:10196000631AF7008545B707180013850730EF9015
:10197000B056E9A88327C4FB13D7C70093072002FA
:10198000631AF7008545B7171A0013850780EF9093
:10199000B0546DA88327C4FB13D7C7009307300248
:1019A000631AF7008545B7171A00138507C0EF9033
:1019B000B05269A88327C4FB13D7C700930710034D
:1019C0006317F70085450565EF90105141A0832707
:1019D000C4FB13D7C70093071007631AF7008545A8
:1019E000B707008013854700EF90104F85A083272D
:1019F000C4FB13D7C70093073008631AF700854567
:101A0000B707138013850701EF90104D81A083273E
:101A1000C4FB13D7C70093071009631AF700854565
:101A2000B707158013850702EF90104B05A0832799
:101A3000C4FB13D7C700930730096319F700854526
:101A4000B707158013850704EF90104903A7C183DA
:101A5000832784FBB357F702C1832315F4FE03A742
:101A6000C1838357A4FE8507BE86832784FBB38783
:101A7000F602B357F7022314F4FE035784FE8327BC
:101A800044FB3307F702896793870771B357F7025F
:101A90002313F4FE835784FEFD17C207C18323106E
:101AA000F4FE8357A4FE231EF4FC231104FE231F1F
:101AB00004FC230204FE9307C4FDBE850325C4FE77
:101AC000EFA0404B930700072316F4FC854723172C
:101AD000F4FC231804FC835764FE2319F4FC8947A3
:101AE000231AF4FC8947231BF4FC231C04FC231D4C
:101AF00004FC8327C4FBA1838D8B9DE39307C4FC67
:101B0000BE850325C4FEEFA0C05EA1450325C4FE2B
:101B1000EFA0B06A91450325C4FEEFA0D07E45A09A
:101B20008327C4FBA18313F7370085476315F702AA
:101B30009307C4FCBE850325C4FEEFA04075A145F4
:101B40000325C4FEEFA0306C930500400325C4FEBE
:101B5000EFB02000ADA08327C4FBA18313F73700AB
:101B600089476314F7029307C4FCBE850325C4FEAE
:101B7000EFA01010A1450325C4FEEFA0706E9145A3
:101B80000325C4FEEFB040021DA88327C4FBA18338
:101B900013F737008D476314F7029307C4FCBE8523
:101BA0000325C4FEEFA0902AA1450325C4FEEFA0A3
:101BB000F06F930500400325C4FEEFB0A0038545F8
:101BC0000325C4FEEFA0304985450325C4FEEFA0E0
:101BD00010430100B640264461618280797106D6C7
:101BE00022D40018232EA4FC8327C4FDB337F000B1
:101BF00093F7F70F3E8713061004B7F7010093859C
:101C0000875C3A85EF6040178327C4FD9C43BD8BFA
:101C10000547B317F70093960701C1828327C4FDD8
:101C20009C4313D75700B70700200A079387C700C4
:101C3000BA979C43368798CB8327C4FDDC43BD8B82
:101C40000547B317F70093960701C1828327C4FDA8
:101C5000DC4313D75700B70700200A079387C70054
:101C6000BA979C43368798CB8327C4FDDC4723264D
:101C7000F4FE01008327C4FE1387F7FF2326E4FE4A
:101C8000F5FB8327C4FDDC43BD8B0547B317F70085
:101C900093960701C1828327C4FDDC4313D7570005
:101CA000B70700200A079387C700BA979C43368777
:101CB000D8CB8327C4FDDC472324F4FE010083270F
:101CC00084FE1387F7FF2324E4FEF5FB8327C4FD7E
:101CD0009C43BD8B0547B317F70093960701C1825C
:101CE0008327C4FD9C4313D75700B70700200A077A
:101CF0009387C700BA979C433687D8CB0100B25070
:101D0000225445618280797106D622D40018232E90
:101D1000A4FC8327C4FDB337F00093F7F70F3E8789
:101D200013064005B7F701009385875C3A85EF609D
:101D3000A0048327C4FDDC43BD8B0547B317F70020
:101D400093960701C1828327C4FDDC4313D7570054
:101D5000B70700200A079387C700BA979C433687C6
:101D6000D8CB8327C4FD9C43BD8B0547B317F70031
:101D700093960701C1828327C4FD9C4313D7570064
:101D8000B70700200A079387C700BA979C43368796
:101D9000D8CB8327C4FDDC472326F4FE010083272C
:101DA000C4FE1387F7FF2326E4FEF5FB8327C4FD5B
:101DB0009C43BD8B0547B317F70093960701C1827B
:101DC0008327C4FD9C4313D75700B70700200A0799
:101DD0009387C700BA979C43368798CB8327C4FD67
:101DE000DC472324F4FE0100832784FE1387F7FFDA
:101DF0002324E4FEF5FB8327C4FDDC43BD8B0547AC
:101E0000B317F70093960701C1828327C4FDDC4313
:101E100013D75700B70700200A079387C700BA9760
:101E20009C43368798CB8327C4FDDC472322F4FEEE
:101E30000100832744FE1387F7FF2322E4FEF5FB0E
:101E40000100B250225445618280797106D622D4B5
:101E50000018232EA4FCAE87A30DF4FC8327C4FD39
:101E6000B337F00093F7F70F3E8713069006B7F7E6
:101E700001009385875C3A85EF5010708327C4FD7D
:101E80009C43BD8B0547B317F70093960701C182AA
:101E90008327C4FD9C4313D75700B70700200A07C8
:101EA0009387C700BA979C433687D8CB8347B4FD46
:101EB00095CB8327C4FDDC43BD8B0547B317F700E3
:101EC00093960701C1828327C4FDDC4313D75700D3
:101ED000B70700200A079387C700BA979C43368745
:101EE00098CB0DA88327C4FDDC43BD8B0547B317F2
:101EF000F70093960701C1828327C4FDDC4313D703
:101F00005700B70700200A079387C700BA979C437A
:101F10003687D8CB8327C4FDDC472326F4FE010097
:101F20008327C4FE1387F7FF2326E4FEF5FB8327F0
:101F3000C4FD9C43BD8B0547B317F700939607017B
:101F4000C1828327C4FD9C4313D75700B7070020E5
:101F50000A079387C700BA979C43368798CB832795
:101F6000C4FDDC472324F4FE0100832784FE13878D
:101F7000F7FF2324E4FEF5FB8327C4FD9C43BD8BC0
:101F80000547B317F70093960701C1828327C4FD65
:101F90009C4313D75700B70700200A079387C70051
:101FA000BA979C433687D8CB8327C4FDDC43BD8BCF
:101FB0000547B317F70093960701C1828327C4FD35
:101FC000DC4313D75700B70700200A079387C700E1
:101FD000BA979C43368798CB0100B2502254456192
:101FE0008280797106D622D40018232EA4FC832780
:101FF000C4FDB337F00093F7F70F3E871306500880
:10200000B7F701009385875C3A85EF50F056A30738
:1020100004FE8327C4FD9C43BD8B0547B317F7001F
:1020200093960701C1828327C4FD9C4313D75700B1
:10203000B70700200A079387C700BA979C433687E3
:10204000D8CB8327C4FDDC43BD8B0547B317F7000E
:1020500093960701C1828327C4FDDC4313D7570041
:10206000B70700200A079387C700BA979C433687B3
:1020700098CB8327C4FDDC472324F4FE010083278B
:1020800084FE1387F7FF2324E4FEF5FB8327C4FDBA
:102090009C43BD8B0547B317F70093960701C18298
:1020A0008327C4FD9C4313D75700B70700200A07B6
:1020B0009387C700BA979C43368798CB8327C4FD84
:1020C000DC472322F4FE0100832744FE1387F7FF39
:1020D0002322E4FEF5FB8327C4FDDC433E85EFF0BD
:1020E000AF9BAA8781C78547A307F4FE8327C4FD5A
:1020F0009C43BD8B0547B317F70093960701C18238
:102100008327C4FD9C4313D75700B70700200A0755
:102110009387C700BA979C433687D8CB8327C4FDE3
:10212000DC472320F4FE0100832704FE1387F7FF1A
:102130002320E4FEF5FB8347F4FE3E85B250225493
:1021400045618280797106D622D40018232EA4FC22
:10215000AE87A30DF4FC8327C4FDB337F00093F7DB
:10216000F70F3E871306700AB7F701009385875C67
:102170003A85EF507040930700F8A307F4FE09AAD0
:102180000347B4FD8347F4FEF98F93F7F70F95CB20
:102190008327C4FDDC43BD8B0547B317F700939637
:1021A0000701C1828327C4FDDC4313D75700B7075B
:1021B00000200A079387C700BA979C43368798CBBD
:1021C0000DA88327C4FDDC43BD8B0547B317F7007B
:1021D00093960701C1828327C4FDDC4313D75700C0
:1021E000B70700200A079387C700BA979C43368732
:1021F000D8CB8347F4FE8583A307F4FE8327C4FD71
:10220000DC472324F4FE0100832784FE1387F7FFB5
:102210002324E4FEF5FB8327C4FD9C43BD8B0547C7
:10222000B317F70093960701C1828327C4FD9C432F
:1022300013D75700B70700200A079387C700BA973C
:102240009C43368798CB8327C4FDDC472322F4FECA
:102250000100832744FE1387F7FF2322E4FEF5FBEA
:102260008327C4FD9C43BD8B0547B317F7009396A6
:102270000701C1828327C4FD9C4313D75700B707CA
:1022800000200A079387C700BA979C433687D8CBAC
:102290008347F4FEE39607EE0325C4FD9933AA872E
:1022A000FD17B337F00093F7F70F3E85B250225475
:1022B00045618280397106DE22DC26DA8000232621
:1022C000A4FCAE87A305F4FC8327C4FCB337F0005D
:1022D00093F7F70F3E871306000CB7F701009385BD
:1022E000875C3A85EF505029A30704FEA1472307D6
:1022F000F4FE8327C4FC9C43BD8B0547B317F7004E
:1023000093960701C1828327C4FC9C4313D75700CF
:10231000B70700200A079387C700BA979C43368700
:10232000D8CB8327C4FCDC472324F4FE0100832799
:1023300084FE1387F7FF2324E4FEF5FB8327C4FC08
:10234000DC43BD8B0547B317F70093960701C182A5
:102350008327C4FCDC4313D75700B70700200A07C4
:102360009387C700BA979C43368798CB7DA883276D
:10237000C4FC9C43BD8B0547B317F7009396070138
:10238000C1828327C4FC9C4313D75700B7070020A2
:102390000A079387C700BA979C433687D8CB832711
:1023A000C4FCDC472322F4FE0100832744FE13878C
:1023B000F7FF2322E4FEF5FB8327C4FC9C43BD8B7F
:1023C0000547B317F70093960701C1828327C4FC22
:1023D0009C4313D75700B70700200A079387C7000D
:1023E000BA979C43368798CB8327C4FCDC472320CD
:1023F000F4FE0100832704FE1387F7FF2320E4FE89
:10240000F5FB8347F4FE860793948701E1848327D5
:10241000C4FCDC433E85EFE03FE8AA87E207E187A2
:10242000C58FE207E187A307F4FE8347E4FE138725
:10243000F7FF2307E4FE85FF8327C4FC9C43BD8B85
:102440000547B317F70093960701C1828327C4FCA1
:102450009C4313D75700B70700200A079387C7008C
:10246000BA979C433687D8CB8327C4FCDC47232EFE
:10247000F4FC01008327C4FD1387F7FF232EE4FC3F
:10248000F5FB8347B4FCBE850325C4FCEFF0FF9B3E
:102490008347F4FE3E85F2506254D254216182801B
:1024A000011106CE22CC00102326A4FE2324B4FE64
:1024B0002322C4FE8327C4FEB337F00093F7F70F3F
:1024C0003E871306700FB7F701009385875C3A8546
:1024D000EF50900A832784FEB337F00093F7F70F8D
:1024E0003E871306800FB7F701009385875C3A8516
:1024F000EF5090080325C4FEEFF04FEE8327C4FE93
:1025000083C78700860793F7F70FBE850325C4FEB0
:10251000153929A8832784FE138717002324E4FE96
:1025200083C70700BE850325C4FE2939832744FEDF
:102530001387F7FF2322E4FEF1FF0325C4FEEFF02B
:102540008FFC0100F240624405618280011106CED9
:1025500022CC00102326A4FEAE873287A305F4FE0A
:10256000BA872305F4FE8327C4FEB337F00093F740
:10257000F70F3E8713066013B7F701009385875C5A
:102580003A85EF50607F0325C4FEEFF02FE58327E7
:10259000C4FE83C78700860793F7F70FBE85032520
:1025A000C4FE4D368347B4FEBE850325C4FE593EA6
:1025B0008347A4FEBE850325C4FE69360325C4FEF9
:1025C000EFF06FF40100F24062440561828079719E
:1025D00006D622D40018232EA4FCAE87A30DF4FC4B
:1025E0008327C4FDB337F00093F7F70F3E87130638
:1025F000401EB7F701009385875C3A85EF50C0779E
:10260000A30704FE0325C4FDEFF04FDD8327C4FDBF
:1026100083C78700860793F7F70FBE850325C4FDA0
:1026200015368347B4FDBE850325C4FD213E032531
:10263000C4FDEFF0AFDA8327C4FD83C787008607A8
:10264000E207E18793E71700E207E18793F7F70FC7
:10265000BE850325C4FDEFF0FFAE85450325C4FD0F
:102660009139AA87A307F4FE0325C4FDEFF0AFE973
:102670008347F4FE3E85B2502254456182800111A9
:1026800006CE22CC26CA00102326A4FEAE87232223
:10269000C4FE2320D4FEA305F4FE8327C4FEB33773
:1026A000F00093F7F70F3E871306C01FB7F701003E
:1026B0009385875C3A85EF50206C832744FEB337BF
:1026C000F00093F7F70F3E871306D01FB7F701000E
:1026D0009385875C3A85EF50206A0325C4FEEFF0AE
:1026E000EFCF8327C4FE83C78700860793F7F70FD2
:1026F000BE850325C4FEEFF0FFA48347B4FEBE856C
:102700000325C4FEEFF01FA40325C4FEEFF00FCD98
:102710008327C4FE83C787008607E207E18793E724
:102720001700E207E18793F7F70FBE850325C4FE84
:10273000EFF05FA12DA0832704FE93B7170093F756
:10274000F70F3E87832444FE938714002322F4FE70
:10275000BA850325C4FEB93EAA872380F4008327E7
:1027600004FE1387F7FF2320E4FEF1F70325C4FEE0
:10277000EFF06FD90100F2406244D24405618280DB
:10278000011106CE22CC00102326A4FEAE8732878C
:10279000A305F4FEBA872305F4FE8327C4FEB337EE
:1027A000F00093F7F70F3E871306B028B7F7010044
:1027B0009385875C3A85EF50205C0325C4FEEFF0DB
:1027C000EFC18327C4FE83C78700860793F7F70FFF
:1027D000BE850325C4FEEFF0FF968347B4FEBE8599
:1027E0000325C4FEEFF01F968347A4FEBE85032594
:1027F000C4FEEFF03F950325C4FEEFF0CFD00100FB
:10280000F240624405618280797106D622D40018B4
:10281000232EA4FCAE87A30DF4FC8327C4FDB3379D
:10282000F00093F7F70F3E871306D029B7F70100A2
:102830009385875C3A85EF502054A30704FE032557
:10284000C4FDEFF0AFB98327C4FD83C787008607B7
:1028500093F7F70FBE850325C4FDEFF0BF8E8347C6
:10286000B4FDBE850325C4FDEFF0DF8D0325C4FD57
:10287000EFF06FC90325C4FDEFF04FB68327C4FD09
:1028800083C787008607E207E18793E71700E2071F
:10289000E18793F7F70FBE850325C4FDEFF09F8A0C
:1028A00085450325C4FDEFF0FFA0AA87A307F4FE2A
:1028B0000325C4FDEFF02FC58347F4FE3E85B250DB
:1028C000225445618280797106D622D400182326CD
:1028D000A4FEAE872322C4FE2320D4FE232EE4FCD4
:1028E000A305F4FE8327C4FEB337F00093F7F70F78
:1028F0003E871306802BB7F701009385875C3A85E6
:10290000EF508047032704FE8327C4FDB307F74039
:10291000B337F00093F7F70F3E871306902BB7F706
:1029200001009385875C3A85EF5000458327C4FEFC
:10293000032704FE98C38327C4FE0327C4FDD8C31E
:102940008327C4FE0347B4FE2384E7008327C4FE25
:10295000032744FED8C7C14605468545032504FE26
:10296000EFE0BF97D146054685450325C4FDEFE05E
:10297000DF960100B250225445618280011122CEBF
:1029800000102326A4FEAE87A305F4FEB7070200BD
:102990000327C4FE0A079387873ABA979C433E876A
:1029A0008347B4FEC207C1832316F7000100B707AF
:1029B00002000327C4FE0A079387873ABA979C430D
:1029C00083D78700C207C18393F70708EDF3B707E2
:1029D00002000327C4FE0A079387873ABA979C43ED
:1029E00083D7C7000100724405618280011122CEA5
:1029F00000102326A4FEAE872315F4FE8357A4FE01
:102A0000A183C207C18393F6F70FB707020003271C
:102A1000C4FE0A079387873ABA979C433E879397E9
:102A20000601C1832316F7000100B7070200032740
:102A3000C4FE0A079387873ABA979C4383D78700D7
:102A4000C207C18393F70708EDF38357A4FE93F6FB
:102A5000F70FB70702000327C4FE0A079387873AD8
:102A6000BA979C433E8793970601C1832316F700CC
:102A70000100B70702000327C4FE0A079387873ABD
:102A8000BA979C4383D78700C207C18393F707088F
:102A9000EDF30100724405618280011122CE001025
:102AA0002326A4FEAE873287A305F4FEBA8723054A
:102AB000F4FEB70702000327C4FE0A079387873A8C
:102AC000BA979C433E878347B4FEC207C18323164F
:102AD000F7000100B70702000327C4FE0A07938727
:102AE000873ABA979C4383D78700C207C18393F77D
:102AF0000708EDF3B70702000327C4FE0A07938710
:102B0000873ABA979C4383D7C700B70702000327C9
:102B1000C4FE0A079387873ABA979C433E87834748
:102B2000A4FEC207C1832316F7000100B707020005
:102B30000327C4FE0A079387873ABA979C4383D733
:102B40008700C207C18393F70708EDF3B7070200B8
:102B50000327C4FE0A079387873ABA979C4383D713
:102B6000C7000100724405618280011122CE00106D
:102B70002326A4FEAE872322C4FE2320D4FEA30571
:102B8000F4FEB70702000327C4FE0A079387873ABB
:102B9000BA979C433E878347B4FEC207C18323167E
:102BA000F7000100B70702000327C4FE0A07938756
:102BB000873ABA979C4383D78700C207C18393F7AC
:102BC0000708EDF389A8832744FE13871700232203
:102BD000E4FE83C60700B70702000327C4FE0A0706
:102BE0009387873ABA979C433E8793970601C183A0
:102BF0002316F7000100B70702000327C4FE0A07E7
:102C00009387873ABA979C4383D78700C207C183CB
:102C100093F70708EDF3832704FE1387F7FF2320BC
:102C2000E4FED5F30100724405618280011122CED9
:102C300000102326A4FEAE872322C4FE2320D4FE48
:102C4000A305F4FEB70702000327C4FE0A07938713
:102C5000873ABA979C433E878347B4FEC207C18335
:102C60002316F7000100B70702000327C4FE0A0776
:102C70009387873ABA979C4383D78700C207C1835B
:102C800093F70708EDF3B70702000327C4FE0A070E
:102C90009387873ABA979C4383D7C700ADA0B707FD
:102CA00002000327C4FE0A079387873ABA979C431A
:102CB000239607000100B70702000327C4FE0A0796
:102CC0009387873ABA979C4383D78700C207C1830B
:102CD00093F70708EDF3B70702000327C4FE0A07BE
:102CE0009387873ABA979C4383D7C7009396070187
:102CF000C182832744FE138717002322E4FE13F7C3
:102D0000F60F2380E700832704FE1387F7FF2320B5
:102D1000E4FED1F701007244056182805D7186C6D0
:102D2000A2C480082326A4FC2324B4FC2322C4FCD0
:102D30002320D4FC232EE4FA232CF4FA232A04FBC8
:102D4000B70702000327C4FC0A079387873ABA979C
:102D50009C433E85EF90800585450545EF80907347
:102D6000032704FC93073012631DF7000327C4FBFD
:102D7000930750126317F70085450545EF80D0157E
:102D800025A0032704FC89679387A714631EF70017
:102D90000327C4FB89679387C7146317F70085452A
:102DA00037152000EF8050138327C4FC91E7854539
:102DB0000565EF80306E25A00327C4FC85476317A7
:102DC000F70085451165EF80507111A80327C4FCF9
:102DD00089476316F70085452165EF8010708327CA
:102DE00004FC93F7F70F93068031054685453E8531
:102DF000EFE0AFCE8327C4FB93F7F70F9306803144
:102E0000054685453E85EFE04FCD032784FBC1672E
:102E1000F917630DF700832784FB93F7F70F9306E9
:102E20008034054681453E85EFE02FCB032744FBE8
:102E30009307F00F630DF700832744FB93F7F70F19
:102E400093060031014685453E85EFE00FC9232EEC
:102E500004FC232004FE232204FE232404FE231664
:102E600004FE231E04FC93074010231FF4FC2310D0
:102E700004FE032784FC85476305F702832784FC4F
:102E800081CF032784FC89476303F702032784FC6F
:102E90008D476304F7020DA8231104FE231204FEDC
:102EA00025A0231104FE85472312F4FE31A889478B
:102EB0002311F4FE231204FE01A889472311F4FE16
:102EC00085472312F4FE0100231704FE03A7C183E4
:102ED000832744FCB357F7022317F4FE03A7C183EB
:102EE000832744FCB377F70291E78357E4FEFD178D
:102EF0002317F4FE0357E4FE9307F00763F7E70098
:102F0000930780032317F4FE51A80357E4FE9307A9
:102F1000F00363F7E700930700032317F4FEBDA84F
:102F20000357E4FEFD4763F7E7009307800223178A
:102F3000F4FEADA00357E4FEBD4763F7E700930737
:102F400000022317F4FE99A80357E4FE9D4763F699
:102F5000E700E1472317F4FE91A00357E4FE8D47F5
:102F600063F6E700C1472317F4FE0DA80357E4FEFC
:102F7000854763F6E700A1472317F4FE05A08357B2
:102F8000E4FE81C7231704FE11A813067021B7F7CA
:102F900001009385C7620145EF40105E8357E4FE50
:102FA0002314F4FE930700202313F4FE231504FEDC
:102FB0009D472316F4FEB70702000327C4FC0A0747
:102FC0009387873ABA979C433E879307C4FDBE8593
:102FD0003A85EF801065B70702000327C4FC0A0793
:102FE0009387873ABA979C4385453E85EF80F07278
:102FF0000100B640264461618280797122D60018B2
:10300000232EA4FC232CB4FC8547A307F4FE03273E
:10301000C4FD0A07938741ECBA979C4399EB0327B9
:10302000C4FD0A07938741ECBA97032784FD98C330
:1030300015A00327C4FD0A07938741ECBA979C4368
:10304000032784FD6316F7008547A307F4FE19A044
:10305000A30704FE8347F4FE3E8532544561828017
:10306000011106CE22CC00102326A4FE8327C4FE25
:1030700081EB8545856713850780EF80B0416DA89A
:103080000327C4FE85476317F70085450545EF8094
:10309000D0445DA00327C4FE89476317F700854528
:1030A0000945EF80904349A80327C4FE8D47631765
:1030B000F70085451145EF805042BDA80327C4FEA7
:1030C00091476317F70085452145EF801041ADA07A
:1030D0000327C4FE95476317F70085454145EF80F8
:1030E000D03F99A80327C4FE99476318F700854588
:1030F00013050002EF80703E81A00327C4FE9D47A8
:103100006317F70085450965EF80D03835A00327A0
:10311000C4FEA1476318F700854537050800EF8016
:10312000703719A80327C4FEA5476317F700854524
:1031300037051000EF8010360100F240624405614F
:103140008280797106D622D40018232EA4FCB737CA
:103150000140938707C02326F4FE0327C4FDA5473B
:1031600063EDE7088327C4FD13972700B707020024
:103170009387473BBA979C438287B7370140938731
:1031800007C02326F4FE95A8B70700402326F4FEC7
:10319000ADA0B7070040938707402326F4FEB1A8EF
:1031A000B7170040938707802326F4FEB9A0B7170E
:1031B0000040938707C02326F4FE81A0B717004084
:1031C0002326F4FE1DA8B717004093870740232647
:1031D000F4FE25A0B7370140938707402326F4FE6D
:1031E00029A8B7570140938707C02326F4FE31A0D2
:1031F000B75701402326F4FE010085450325C4FE90
:10320000EF90E05F0100B2502254456182807971F5
:1032100022D60018232EA4FCB7370140938707C09D
:103220002326F4FE231504FE0327C4FDA54763ED02
:10323000E7088327C4FD13972700B7070200938789
:10324000C73DBA979C438287B7370140938707C031
:103250002326F4FE95A8B70700402326F4FEADA070
:10326000B7070040938707402326F4FEB1A8B7179D
:103270000040938707802326F4FEB9A0B7170040CB
:10328000938707C02326F4FE81A0B71700402326AA
:10329000F4FE1DA8B7170040938707402326F4FECD
:1032A00025A0B7370140938707402326F4FE29A8BD
:1032B000B7570140938707C02326F4FE31A0B757C4
:1032C00001402326F4FE01000327C4FD0A0793876B
:1032D000C1EEBA9798438947631FF7008327C4FE5E
:1032E00083D747021397070141838D47B357F702EE
:1032F0002315F4FE39A08327C4FE83D74702231584
:10330000F4FE8357A4FE3E85325445618280797174
:1033100022D60018232EA4FCB7370140938707C09C
:103320002326F4FE0327C4FDA54763EDE7088327A2
:10333000C4FD13972700B707020093874740BA9749
:103340009C438287B7370140938707C02326F4FE4A
:1033500095A8B70700402326F4FEADA0B7070040AC
:10336000938707402326F4FEB1A8B7170040938740
:1033700007802326F4FEB9A0B7170040938707C043
:103380002326F4FE81A0B71700402326F4FE1DA8D3
:10339000B7170040938707402326F4FE25A0B737D0
:1033A0000140938707402326F4FE29A8B757014020
:1033B000938707C02326F4FE31A0B7570140232688
:1033C000F4FE01008327C4FE239207020100325459
:1033D00045618280797106D622D40018232EA4FC80
:1033E000232CB4FC85450325C4FD0139AA873E87FB
:1033F0001306200FB7F70100938587683A85EF40E1
:10340000B0170327C4FD0A07938741ECBA97054715
:1034100098C3B7370140938707C02326F4FE0327DC
:10342000C4FDA54763EDE7088327C4FD1397270074
:10343000B70702009387C742BA979C438287B73782
:103440000140938707C02326F4FE95A8B7070040E4
:103450002326F4FEADA0B70700409387074023263C
:10346000F4FEB1A8B7170040938707802326F4FE27
:10347000B9A0B7170040938707C02326F4FE81A0A8
:10348000B71700402326F4FE1DA8B7170040938706
:1034900007402326F4FE25A0B73701409387074055
:1034A0002326F4FE29A8B7570140938707C0232697
:1034B000F4FE31A0B75701402326F4FE0100032596
:1034C000C4FDEFF0FFB90327C4FD0A079387C1EEDF
:1034D000BA97032784FD98C3232004FE232204FE09
:1034E000231404FE032784FD85476315F702FD5767
:1034F0002312F4FE03A7C183B7470F009387072465
:10350000B357F702C207C183FD17C207C183231057
:10351000F4FE2DA8032784FD89476314F702FD57A5
:103520002312F4FE03A7C1838567938787BBB35734
:10353000F702C207C183FD17C207C1832310F4FE3F
:1035400031A0FD572312F4FE231004FE231304FEC2
:10355000231104FE230404FE930704FEBE85032505
:10356000C4FEEF80302185450325C4FEEF9020295D
:103570000100B250225445618280011122CE001018
:103580002326A4FEAE87A305F4FE0100B7070200C0
:103590000327C4FE0A0793874745BA979C4383D7FE
:1035A0000700C207C18393F70708EDD3B7070200EE
:1035B0000327C4FE0A0793874745BA979C433E8773
:1035C0008347B4FEC207C1832312F700010072448F
:1035D00005618280011106CE22CC00102326A4FEB4
:1035E0002324B4FE2322C4FE832784FEB337F000D5
:1035F00093F7F70F3E8713061004B7F70100938582
:10360000876E3A85EF40407729A8832784FE138789
:1036100017002324E4FE83C70700BE850325C4FEEC
:10362000A93F832744FE1387F7FF2322E4FEF1FF1F
:103630000100F240624405618280011106CE22CC75
:1036400000102326A4FE2324B4FE832784FEB33770
:10365000F00093F7F70F3E8713060005B7F7010058
:103660009385876E3A85EF40207139A8832784FEC1
:10367000138717002324E4FE8387070093F7F70FCF
:10368000BE850325C4FED53D832784FE83870700BE
:10369000F1FF0100F240624405618280011106CE13
:1036A00022CC00102326A4FEAE87A305F4FEB707A4
:1036B00002000327C4FE0A0793874745BA979C4335
:1036C0003E878347B4FE3E86930550523A85EF907D
:1036D000F00A1387C18B8327C4FEBA9783C70700FC
:1036E00081453E85EF50807A8347B4FE81CF1387B2
:1036F000C18B8327C4FEBA9783C707003E85EF506E
:10370000207519A81387C18B8327C4FEBA9783C776
:1037100007003E85EF50A0750100F240624405614C
:103720008280011122CE00102326A4FE2324B4FEA1
:10373000B70702000327C4FE0A0793874745BA97D5
:103740009C4383D70700C207C18393F7070295C73D
:10375000B70702000327C4FE0A0793874745BA97B5
:103760009C4383D74700C207C18313F7F70F832712
:1037700084FE2380E700854711A081473E8572447F
:1037800005618280797106D622D40018232EA4FC0C
:10379000232CB4FC232AC4FC2328D4FC032744FD97
:1037A000832704FD3D8F8327C4FDB207F98F93B7AC
:1037B000170093F7F70F3E871306A00AB7F701002B
:1037C0009385876E3A85EF40205B832744FD13D7AE
:1037D0008700832704FDA183B307F74093B7170041
:1037E00093F7F70F3E871306B00AB7F701009385EA
:1037F000876E3A85EF404058832744FD93F7F70FD3
:10380000E146014685453E85EFD03FAD832704FD67
:1038100093F7F70F93068004014681453E85EFD06C
:10382000DFAB85450545EF80E046032744FDC167D2
:10383000FD17F98F0D67130707386387E7200D67BA
:10384000130707386369F704056713075716638181
:10385000E716056713075716636FF7001307F02283
:10386000638AE70C130760306381E7101307601267
:103870006388E70865A6096713078736638BE71631
:103880000D67130707126387E71809671307A71463
:103890006380E71461A615671307A738638EE726D0
:1038A00015671307A7386362F70211671307873894
:1038B0006380E7201567130787126385E722116786
:1038C00013074712638CE71A91AE19671307C738BD
:1038D0006388E72A19671307C7386368F700196711
:1038E000130767106384E72615AE1D671307E710FB
:1038F0006382E72C1D671307E7386387E72E39AE2D
:10390000B7070140D44FB7070140370700FC7D17C8
:10391000758FD8CFB7070140D843B70701406D9BDB
:10392000D8C3B7070140D843B70701401367470022
:10393000D8C3EDA4B7070140D44FB70701403707FC
:1039400000FC7D17758FD8CFB7070140D44FB7075C
:10395000014037070004558FD8CFB7070140D8433F
:10396000B70701406D9BD8C355ACB7070140D44F92
:10397000B7070140370700FC7D17758FD8CFB70711
:103980000140D44FB707014037070004558FD8CF07
:10399000B7070140D843B70701406D9BD8C3B707AD
:1039A0000140D843B707014013674700D8C3BDA4FF
:1039B000B7070140D843B70701405D9BD8C3B7079D
:1039C0000140D843B707014013678700D8C3B9A4A3
:1039D000B7070140D843B70701401377F7FCD8C3B6
:1039E000B7070140D843B707014013670701D8C3A1
:1039F00035A4B7070140D843B70701401377F7FC58
:103A0000D8C3B7070140D843B7070140136707037E
:103A1000D8C329A4B7070140D44FB70701403707DF
:103A2000FDFF7D17758FD8CFB7070140D44F83278F
:103A300044FDA18313970701B70703007D8FB707E4
:103A40000140558FD8CFD9AAB7070140D44FB70747
:103A500001403707FDFF7D17758FD8CFB7070140AD
:103A6000D44F832744FDA18313970701B7070300B1
:103A70007D8FB7070140558FD8CF4DA2B7070140C2
:103A8000D44FB70701403707F4FF7D17758FD8CFA4
:103A9000B7070140D44F832744FDA1831397270123
:103AA000B7070C007D8FB7070140558FD8CFBDA257
:103AB000B7070140D44FB70701403707F4FF7D1720
:103AC000758FD8CFB7070140D44F832744FDA1831A
:103AD00013972701B7070C007D8FB7070140558F5B
:103AE000D8CF2DAAB7070140D44FB70701403707F9
:103AF000D0FF7D17758FD8CFB7070140D44F8327EC
:103B000044FDA18313974701B70730007D8FB707A6
:103B10000140558FD8CF19A2B7070140D44FB7073E
:103B200001403707D0FF7D17758FD8CFB707014009
:103B3000D44F832744FDA18313974701B707300073
:103B40007D8FB7070140558FD8CFC9A8B70701406F
:103B5000D44FB7070140370740FF7D17758FD8CF87
:103B6000B7070140D44F832744FDA1831397670112
:103B7000B707C0007D8FB7070140558FD8CF79A810
:103B8000B7070140D44FB7070140370740FF7D1703
:103B9000758FD8CFB7070140D44F832744FDA18349
:103BA00013976701B707C0007D8FB7070140558F96
:103BB000D8CFADA0B7070140D44FB70701403707B2
:103BC00000FD7D17758FD8CFB7070140D44F8327ED
:103BD00044FDA18313978701B70700037D8FB707C3
:103BE0000140558FD8CF1DA8B7070140D44FB70764
:103BF0000140370700FD7D17758FD8CFB70701400B
:103C0000D44F832744FDA18313978701B70700038F
:103C10007D8FB7070140558FD8CF01008327C4FDA2
:103C200091E785451165EF80E00669A80327C4FD8B
:103C300085476318F700854537050200EF80E009E6
:103C400051A00327C4FD89476318F7008545370550
:103C50000400EF808008BDA00327C4FD8D476318D2
:103C6000F700854537050800EF802007A1A8032746
:103C7000C4FD91476318F700854537051000EF80B4
:103C8000C00589A00327C4FD95476318F700854543
:103C900013050004EF80600435A00327C4FD994795
:103CA0006318F700854513050008EF80000319A885
:103CB0000327C4FD9D476317F700854513050010D2
:103CC000EF80A001232004FE232204FE232404FE0F
:103CD000232604FE832784FD2320F4FE231204FE02
:103CE000231304FE231404FE231604FEB1472315F8
:103CF000F4FEB70702000327C4FD0A079387474570
:103D0000BA979C433E87930704FEBE853A85EF80B1
:103D1000B07DB70702000327C4FD0A079387474514
:103D2000BA979C4385453E85EF90401F0100B250F5
:103D3000225445618280411106C622C40008A14672
:103D40001386418D8145138541F1EF40D03101004B
:103D5000B240224441018280797106D622D40018F3
:103D6000232EA4FC232CB4FC230704FEA30704FE8B
:103D7000231604FE054693050008138501F3EFE0C2
:103D8000EFFC05469305F00F138501F3EFE00FFC00
:103D900001468145138501F3EFE04FFB194693057A
:103DA000F00F138501F3EFE06FFA9307E4FE854609
:103DB0003E8693053008138501F3EFE05F8C83475F
:103DC000E4FE93E7470093F7F70F3E86930530082C
:103DD000138501F3EFE08FF71D469305F00F138570
:103DE00001F3EFE0AFF6054693051008138501F3E4
:103DF000EFE0CFF5054693050008138501F3EFE0EA
:103E0000EFF41306B00693054009138501F3EFE0C4
:103E1000EFF3014693053008138501F3EFE00FF34C
:103E2000230704FE81A00545EFC00FED9307E4FED4
:103E300085463E8693053008138501F3EFE03F8405
:103E40008357C4FEC207C18313871700420741830B
:103E50002316E4FE1307F00F6376F7008547A307E8
:103E6000F4FE11A88347E4FEDDDF0347E4FE930779
:103E7000F00FE30AF7FA8347F4FE6393070C054655
:103E800093053008138501F3EFE04FEC9307E4FE50
:103E900085463E8693052009138501F3EFE02FFE4A
:103EA0008347E4FE93F7F70713F7F70F8327C4FD63
:103EB0002380E7008347E4FE9D8313F7F70F8327F2
:103EC00084FD2380E700014693051008138501F364
:103ED000EFE0CFE719469305F00F138501F3EFE00C
:103EE000EFE69307E4FE85463E869305300813858A
:103EF00001F3EFE0CFF88347E4FE3E8693053008F8
:103F0000138501F3EFE08FE405469305F00F138569
:103F100001F3EFE0AFE305468145138501F3EFE0E0
:103F2000EFE201469305F00F138501F3EFE00FE296
:103F3000014693050008138501F3EFE02FE111A07E
:103F400001008347F4FE3E85B250225445618280D1
:103F5000797122D60018AA872E87231FF4FCBA870E
:103F6000A30EF4FC0347D4FDB7373A00938707F05C
:103F7000B307F7021387471F9307803EB357F70233
:103F80002326F4FE0357E4FD8327C4FE3307F7021C
:103F90008327C4FE85833E979307803EB357F7027D
:103FA0003E85325445618280797122D60018232ED5
:103FB000A4FCAE87A30DF4FC0347B4FDB7373A0069
:103FC000938707F0B307F7021387471F9307803ED5
:103FD000B357F7022326F4FE0327C4FD9307803E60
:103FE0003307F7028327C4FE85833E978327C4FEE9
:103FF000B357F7023E85325445618280011122CECB
:104000000010AA872317F4FE8357E4FE93F7F70FF7
:104010000357E4FE218342074183B397E700C207B9
:10402000C1838507C207C1833E85724405618280D2
:10403000797122D60018AA87231FF4FC232604FED8
:10404000231504FE231404FE8357E4FDA9CB8357F4
:10405000E4FDFD172326F4FE19A88327C4FE8583FB
:104060002326F4FE8357A4FE85072315F4FE832739
:10407000C4FE93F707F0F5F38357A4FEA207139746
:10408000070141878327C4FEC207C18793F7F70F53
:10409000C207C187D98FC207C1872314F4FE835793
:1040A00084FE3E85325445618280797106D622D4E1
:1040B0000018232EA4FCA30704FE9307F4FE8546F4
:1040C0003E868545138501F3EFE06FDB8347F4FE01
:1040D000918393F7F70F858B13F7F70F8327C4FDB1
:1040E0002380E7008347F4FE8D8393F7F70F858BDA
:1040F00013F7F70F8327C4FD2381E7008347F4FEFE
:10410000898393F7F70F858B13F7F70F8327C4FD88
:10411000A380E7008347F4FE998393F7F70F858B1D
:1041200013F7F70F8327C4FDA381E7008347F4FE4D
:104130009D8313F7F70F8327C4FD2382E700010057
:10414000B250225445618280797106D622D400187B
:10415000232EA4FCA30704FE8327C4FD95E7930741
:10416000F4FE85463E8693050005138501F3EFE0D6
:104170000FD18347F4FE850793F7F70F860793F770
:10418000F70FA307F4FE35A80327C4FD854763177F
:10419000F7029307F4FE85463E86930500071385D4
:1041A00001F3EFE0CFCD8347F4FE850793F7F70FD8
:1041B000860793F7F70FA307F4FE21A0FD57A30787
:1041C000F4FE8347F4FE3E85B2502254456182805E
:1041D000797106D622D40018232EA4FC232CB4FC1B
:1041E000231704FE01458D37AA87139707014183E2
:1041F000832784FD2390E7009307C4FE85463E860F
:1042000093056004138501F3EFE06FC78347C4FE95
:10421000C207C1838507139707014183832784FD64
:104220002392E700832784FD03D74700832784FD7B
:1042300083D7070093F7F70FBE853A85EFF05FD17C
:104240002A87832784FDD8C79307C4FE89463E8604
:1042500093051005138501F3EFE06FC28347C4FE99
:10426000A2071397070141878347D4FEC207C1877E
:10427000D98FC207C1872317F4FE8357E4FE3E851A
:10428000B53BAA873E87832784FD2393E7008327D6
:1042900084FD03D76700832784FD83D7070093F746
:1042A000F70FBE853A85EFF0BFCA2A87832784FDC2
:1042B00098CB0545513DAA87139707014183832772
:1042C00084FD2391E7009307C4FE89463E8693054B
:1042D0001007138501F3EFE08FBA8347C4FEA207EE
:1042E0001397070141878347D4FEC207C187D98F3F
:1042F000C207C1872317F4FE8357E4FE3E85EFF023
:10430000FFCFAA873E87832784FD2394E700832776
:10431000C4FD83C7370095C3832784FD03D7870077
:10432000832784FD83D76700B307F74013970701FE
:104330004183832784FD2394E700832784FD03D7EB
:104340008700832784FD83D7270093F7F70FBE8567
:104350003A85EFF0FFBF2A87832784FDD8CB010081
:10436000B250225445618280797106D622D4001859
:10437000AA87A30FF4FCA30704FE230704FE231659
:1043800004FE8347F4FD93E7170093F7F70F3E868B
:104390008145138501F3EFE06F9B9307E4FE8546AB
:1043A0003E8693056004138501F3EFE04FAD81A0D5
:1043B0000545EFC06F949307E4FE85463E8693055E
:1043C0006004138501F3EFE08FAB8357C4FEC2078F
:1043D000C18313871700420741832316E4FE1307A6
:1043E000F00F6376F7008547A307F4FE29A0834703
:1043F000E4FE9D8BD5DF8347F4FE91EF0546AD4586
:10440000138501F3EFE08F9401468145138501F395
:10441000EFE0CF9311A001008347F4FE3E85B25038
:104420002254456182801D7186CEA2CC8010232645
:10443000A4FAA30704FE231204FE0327C4FA956717
:104440009387F7E163E6E7008547A307F4FE0DAA2B
:1044500085679387878E2324F4FE930744FD3E856A
:10446000EFF0BFC41307C4FB930744FDBA853E8534
:10447000EFF01FD6834744FD91CB032784FC8327AD
:1044800084FEBA979387E7242324F4FE834764FDD0
:1044900081CF832784FC9387272B8607032784FEFD
:1044A000BA972324F4FE29A8834754FD91CB032710
:1044B00084FC832784FEBA97938747292324F4FE3C
:1044C000834774FD91CB0327C4FC832784FEBA97EE
:1044D000938747292324F4FE834784FDD5C383278C
:1044E00084FE938767222324F4FE032784FE832718
:1044F000C4FA63F6E7008547A307F4FE51A003273B
:10450000C4FA832784FEB307F7402320F4FE8357C1
:10451000E4FB93F7F70FBE85032504FEEFF0DFA859
:10452000AA872313F4FE834774FD81CB035724FC31
:10453000835764FEBA972313F4FE835764FE3E85C7
:10454000EFF01FAFAA872312F4FE93071007230E84
:10455000F4FC835744FEA183C207C18393F7F70F8E
:10456000A30EF4FC835744FE93F7F70F230FF4FCDC
:104570009307C4FD0D46BE85138501F3EFD05FF2AE
:104580008347F4FE3E85F64066442561828039719A
:1045900006DE22DC80008567938767B32326F4FE5E
:1045A000930744FE3E85EFF05FB01307C4FC93070A
:1045B00044FEBA853E85EFF0BFC1834744FE91CBF0
:1045C000032784FD8327C4FEBA979387E724232615
:1045D000F4FE834764FE81CF832784FD9387272BD6
:1045E00086070327C4FEBA972326F4FE29A883472B
:1045F00054FE91CB032784FD8327C4FEBA9793878B
:1046000047292326F4FE834774FE91CB0327C4FD7C
:104610008327C4FEBA97938747292326F4FE83474E
:1046200084FE91CB032704FE8327C4FEBA979387A9
:1046300067222326F4FE8327C4FE3E85F25062548F
:1046400021618280797106D622D40018272EA4FC1D
:104650008727C4FD530700F0D307F7A085E307259C
:10466000C4FDEF702134B7F7010003A6877F83A64E
:10467000C77FEF50316DAA876344F000854711A0D2
:10468000814713F7F70F1306801EB7F701009385D4
:1046900087743A85EF30406E0727C4FDB7070200E4
:1046A00087A70780D377F710D39717C02317F4FE97
:1046B000930740042304F4FE8357E4FEA183C2075A
:1046C000C18393F7F70FA304F4FE8357E4FE93F737
:1046D000F70F2305F4FE930784FE0D46BE85138570
:1046E00001F3EFD0FFDB0100B2502254456182801C
:1046F000011106CE22CC00109307C4FE85463E86EB
:10470000CD45138501F3EFD09FF78347C4FE9D8B02
:10471000B1CB9307C4FE89463E86F945138501F364
:10472000EFD0FFF58347C4FEC207C183A2071397EA
:10473000070141832398E1808347D4FE1397070143
:10474000418383D70181D98F139707014183239830
:10475000E1800546AD45138501F3EFD03FDF054706
:10476000238EE18C8347C4FEC18B85C39307C4FEAF
:1047700089463E86F945138501F3EFD05FF0054683
:10478000AD45138501F3EFD07FDC0100F2406244B8
:1047900005618280797106D622D40018A30304FE35
:1047A000A30704FEA30604FE230704FE930704FEEA
:1047B000194681453E85EFB0BFA4930784FD1D4691
:1047C00081453E85EFB0DFA31307500693066006D0
:1047D000294693059002138501F3EFE0CF8EC14681
:1047E000054685451305A008EFC03FAF13054006F9
:1047F000EFB09FD0B70700209387C7009C4B1307EB
:104800000040D8CB13052003EFB01FCFB70700201F
:104810009387C7009C4B1307004098CB13054006B5
:10482000EFB09FCD93059008138501F3EFD03FDAE9
:10483000AA87A306F4FE8347D4FE93E7170093F7F5
:10484000F70F3E8693059008138501F3EFD01FD034
:10485000014693058008138501F3EFD03FCF05464D
:1048600093050008138501F3EFD05FCE054693054D
:10487000F00F138501F3EFD07FCD014681451385FD
:1048800001F3EFD0BFCC930774FE85463E869305B7
:104890001009138501F3EFD09FDE0546814513858E
:1048A00001F3EFD0BFCA01469305F00F138501F362
:1048B000EFD0DFC9014693050008138501F3EFD05F
:1048C000FFC893050006138501F3EFD05FD0AA87D8
:1048D000A306F4FE8347D4FE93E7270193F7F70F6F
:1048E0003E8693050006138501F3EFD03FC6B70758
:1048F000020087A747805385F720EFF0BFD4130647
:10490000F00F8545138501F3EFD05FC4930784FD55
:1049100013871700930784FDBA853E85EFF0CFC358
:10492000AA879DC38547A307F4FE9306B025B7F772
:10493000010013868774B7F701009385877A0145D4
:10494000EF30204A6F00E073930704FE99463E86DD
:104950009305000B138501F3EFD07FD20546930535
:10496000F00F138501F3EFD07FBE01469305F004ED
:10497000138501F3EFD09FBD1306C0029305E00439
:10498000138501F3EFD09FBC01469305F00F13850B
:1049900001F3EFD0BFBB1306400B9305600B1385EB
:1049A00001F3EFD0BFBA834794FD99C3B14711A07B
:1049B0008147230DF4FC230704FE55A08347A4FD83
:1049C0000347E4FE6368F7000347B4FD834784FDB3
:1049D0006319F7048347E4FE8D8313F6F70FB2875C
:1049E000130704FFBA9783C707FF139787016187EF
:1049F0008347E4FE9D8B8546B397F600E207E18787
:104A000093C7F7FFE207E187F98F13978701618763
:104A1000B2871377F70F930604FFB6972388E7FE54
:104A200015A88347E4FE8D8393F7F70F130704FF60
:104A3000BA9783C707FF3E878347E4FE9D8BB35732
:104A4000F740858B81CB8347B4FD850793F7F70F3C
:104A5000A30DF4FC8347E4FE85072307F4FE034718
:104A6000E4FE9307F002E3FBE7F4930700FB230C5B
:104A7000F4FC85472307F4FE05A08347E4FEFD17F9
:104A8000130704FFBA9783C707FFA30CF4FC8347FF
:104A9000E4FE85072307F4FE0347E4FE9947E3FE9F
:104AA000E7FC930784FD1D46BE85138501F3EFD017
:104AB0003F9F05469305F00F138501F3EFD01FA923
:104AC00001468145138501F3EFD05FA801469305A8
:104AD000F00F138501F3EFD07FA70146A54513859D
:104AE00001F3EFD0BFA60146C145138501F3EFD016
:104AF000FFA50146C545138501F3EFD03FA5054647
:104B000093054002138501F3EFD05FA41306F00F65
:104B100093055002138501F3EFD05FA3014693057F
:104B20005007138501F3EFD07FA205469305F00FE0
:104B3000138501F3EFD09FA11306C0029305E00493
:104B4000138501F3EFD09FA00146930580041385E0
:104B500001F3EFD0BF9F13060002930500031385F6
:104B600001F3EFD0BF9E01469305F00F138501F3CB
:104B7000EFD0DF9D254693050003138501F3EFD0A9
:104B8000FF9C014693054005138501F3EFD01F9C60
:104B9000114693051003138501F3EFD03F9B0D469B
:104BA00093052003138501F3EFD05F9A13063008B5
:104BB00093050004138501F3EFD05F9913065002AB
:104BC00093056004138501F3EFD05F9801469305C8
:104BD0000006138501F3EFD07F970146930570021D
:104BE000138501F3EFD09F961946930500051385B1
:104BF00001F3EFD0BF95014693051005138501F32E
:104C0000EFD0DF941306600993052005138501F3A7
:104C1000EFD0DF93214693056005138501F3EFD0B4
:104C2000FF921306000393057005138501F3EFD07F
:104C3000FF91014693051006138501F3EFD01F91F4
:104C4000014693052006138501F3EFD03F900146FE
:104C500093054006138501F3EFD05F8F014693055E
:104C60005006138501F3EFD07F8E1306000A9305DB
:104C70006006138501F3EFD07F8D05469305F00F95
:104C8000138501F3EFD09F8C1306200393052002B8
:104C9000138501F3EFD09F8B514693057004138564
:104CA00001F3EFD0BF8A1306F00F9305900413852C
:104CB00001F3EFD0BF8901469305A004138501F3EA
:104CC000EFD0DF8801469305F00F138501F3EFD095
:104CD000FF8729469305A007138501F3EFD01F87AF
:104CE00001469305B007138501F3EFD03F86130605
:104CF000100293058007138501F3EFD03F85054629
:104D00009305F00F138501F3EFD05F841306400382
:104D100093053002138501F3EFD05F8301469305BD
:104D20002004138501F3EFD07F821306F00F930563
:104D30004004138501F3EFD07F81130660029305D1
:104D40005004138501F3EFD07F801546930560046E
:104D5000138501F3EFD08FFF1306000493050004C1
:104D6000138501F3EFD08FFE1946B945138501F382
:104D7000EFD0CFFD694693050002138501F3EFD014
:104D8000EFFC1306000493053004138501F3EFD004
:104D9000EFFB01469305F00F138501F3EFD00FFBF6
:104DA0000D4693054003138501F3EFD02FFA130648
:104DB000400493055003138501F3EFD02FF9054606
:104DC0009305F00F138501F3EFD04FF811469305CB
:104DD0001003138501F3EFD06FF725469305B00458
:104DE000138501F3EFD08FF615469305C0041385A4
:104DF00001F3EFD0AFF511469305D004138501F30D
:104E0000EFD0CFF401469305F00F138501F3EFD0F7
:104E1000EFF3014693054004138501F3EFD00FF340
:104E20001306000293055004138501F3EFD00FF22F
:104E3000214693057004138501F3EFD02FF113067B
:104E4000800293058004138501F3EFD02FF0014613
:104E500093057006138501F3EFD04FEF11469305CC
:104E60000007138501F3EFD06FEE05469305100799
:104E7000138501F3EFD08FED1306E00F93052007A4
:104E8000138501F3EFD08FEC01469305600713857E
:104E900001F3EFD0AFEB014693057007138501F3E3
:104EA000EFD0CFEA05469305F00F138501F3EFD05D
:104EB000EFE90546B545138501F3EFD02FE901462B
:104EC0009305F00F138501F3EFD04FE805469305E6
:104ED0000008138501F3EFD06FE71306800F8545B7
:104EE000138501F3EFD08FE605469305F00F138588
:104EF00001F3EFD0AFE505469305E008138501F314
:104F0000EFD0CFE405468145138501F3EFD00FE4E0
:104F100001469305F00F138501F3EFD02FE301460F
:104F200093050008138501F3EFD04FE21146A94520
:104F3000138501F3EFD08FE193054008138501F34A
:104F4000EFD0EFE8AA87A306F4FE8347D4FEBD9B0B
:104F500093F7F70F3E8693054008138501F3EFD0D2
:104F6000EFDE0546AD45138501F3EFD02FDEEFF000
:104F70000FE22324A4FE1306800E8545138501F35A
:104F8000EFD0CFDC032584FEEFF0EFC90546854561
:104F9000138501F3EFD08FDB13050004EFF0CFBCD6
:104FA000AA8795C38547A307F4FE9306402EB7F75B
:104FB000010013868774B7F701009385077C0145CC
:104FC000EF2030627DA809468545138501F3EFD0B7
:104FD000EFD70145EFF04FB9AA8795C38547A307DF
:104FE000F4FE9306B02EB7F7010013868774B7F767
:104FF00001009385077C0145EF20B05E59A01306A0
:10500000800E8545138501F3EFD04FD4130540067C
:10501000EFB08FCE054693050008138501F3EFD05E
:10502000EFD205469305F00F138501F3EFD00FD2B1
:1050300001468145138501F3EFD04FD1834774FEBC
:105040003E8693051009138501F3EFD02FD0054656
:105050008145138501F3EFD06FCF01469305F00F23
:10506000138501F3EFD08FCE014693050008138519
:1050700001F3EFD0AFCD09468145138501F3EFD0A1
:10508000EFCC8347F4FE3E85B250225445618280C6
:10509000411106C622C4000883A7418E0547638BD1
:1050A000E7006387070C0947638DE7000D47638FAF
:1050B000E702E1A083A7018E1387170023A0E18EEA
:1050C0006DA883A7018E1387170023A0E18E03A785
:1050D000018EA54763F0E70AB70700209387C70052
:1050E0009C4B1167D8CB23A0018E69A003A7818EAA
:1050F00085476313F7081305F008EFC0EF99AA87F7
:10510000A5C31945EFE0AF90AA873E8783A7018E1C
:105110001D8F9307600963F1E7061945EFE02F9FA4
:1051200083A7018ED3F717D05385F720EF6091073F
:10513000B707020003A6878083A6C780EF50E14B24
:10514000AA872E883E85C285EF60816EAA87139755
:10515000070141832399E180094723A4E18E29A80F
:105160001945EFE0CF8AAA873E8723A0E18E29A0C8
:10517000010021A0010011A001000100B240224461
:1051800041018280411106C622C4000883A7418ED6
:105190000947637CF7000D47639AE7001945EFE084
:1051A0000F97054723A4E18E11A001000100B24032
:1051B000224441018280411122C60008B707002025
:1051C0009387C7009C4B116798CB01003244410183
:1051D0008280011106CE22CC0010232604FE2399E2
:1051E0000180054723A2E18E930680020146814596
:1051F0001305F008EFC06F8E9306800201468145CB
:105200001305E008EFC06F8D930740062315F4FEE9
:1052100099A81305F008EFC02F88AA87A9C3130522
:10522000E008EFC06F87AA879DCB0D4723A2E18ED0
:1052300023A4018EC1451305F008EFB07FB4B1453A
:105240001305E008EFB0DFB385451945EFE08F980F
:105250001945EFE0CF8B1945EFD0BFEE05A0130540
:105260004006EFB08FB38317A4FE13970701418365
:105270007D17420741832315E4FEC1FF8317A4FE77
:1052800063D80706B1451305F008EFB07FAFC146FC
:10529000014685451305E008EFC02F8423A0018E49
:1052A000B70700209387C7009C4B116798CB130565
:1052B000200DEFB08FAEB70700209387C7009C4B3F
:1052C0001167D8CB03A7018E994763FDE70003A7B9
:1052D000018EA54763E8E700094723A2E18E23A0DA
:1052E000018E39A023A2018E85472326F4FE0100FA
:1052F0008327C4FE3E85F24062440561828001112D
:1053000006CE22CC0010232204FE83C7D18E638CEC
:10531000070E09A8930734FE0546BE85138501F4E0
:10532000EF20D075930734FEBE851D45EFE06FBFBB
:10533000AA87EDF3034734FEA9476316F70C994794
:105340002322F4FE130744FE930784FE85463A8623
:10535000BE85138501F4EF30C022930784FE1387C6
:1053600037000D46B7070200938507813A85EF7035
:105370000160AA879DEB03A7418F8947630EF7065B
:10538000054723AAE18E138501F4EF203059AA873F
:105390002322F4FE930744FE81463E869385C1FD99
:1053A000138501F4EF30E01D81A8930784FE138775
:1053B00037000D46B7070200938547813A85EF70A5
:1053C000015BAA8795EB03A7018F89476306F70264
:1053D000054723A8E18E138501F4EF203054AA87F6
:1053E0002322F4FE930744FE81463E869385C1F551
:1053F000138501F4EF30E018138501F4EF20F0413C
:1054000005472386E18E0100F240624405618280F7
:10541000011106CE22CC0010AA872E87A307F4FE26
:10542000BA872307F4FEB70700209387C7009C477D
:1054300013070040D8CB0347E4FE8347F4FE3A86C7
:10544000BE850945EFD06FE5B70700209387C700F9
:105450009C471307004098CB0100F240624405616D
:105460008280011106CE22CC0010AA872324B4FE2C
:105470002322C4FEA307F4FEB70700209387C700CA
:105480009C4713070040D8CB8347F4FE832644FE95
:10549000032684FEBE850945EFD02FEDB707002017
:1054A0009387C7009C471307004098CB0100F24048
:1054B000624405618280797106D622D40018AA87D9
:1054C000A30FF4FCB70700209387C7009C4713077E
:1054D0000040D8CB8347F4FD93E707F893F7F70F25
:1054E0001307C4FE89463A86BE850945EFD00FF4FE
:1054F000B70700209387C7009C471307004098CB4D
:105500008347D4FE3E85B250225445618280797132
:1055100006D622D40018AA87232CB4FC232AC4FC64
:10552000A30FF4FCB70700209387C7009C4713071D
:105530000040D8CB8347F4FD93E707F813F7F70F44
:10554000832744FD93861700930744FE3E86BA8561
:105550000945EFD0AFEDB70700209387C7009C4700
:105560001307004098CB232604FE3DA08327C4FEEA
:1055700013871700832784FD93861700232CD4FC00
:10558000930604FF3697034747FF2380E7008327EE
:10559000C4FE85072326F4FE8327C4FE032744FDAB
:1055A000E3E6E7FC0100B25022544561828001111C
:1055B00006CE22CC0010A30504FEA30704FE23168A
:1055C00004FE8357C4FE138717002316E4FE130757
:1055D000F00F6376F7008547A307F4FE05A00145A9
:1055E000EFF07FEDAA87A305F4FE0545EFA0DFF0FD
:1055F0000347B4FE93074002E315F7FC8347F4FE2C
:105600003E85F240624405618280011106CE22CCC3
:105610000010930784FE1946BE854945EFF03FEF21
:10562000834794FEA207139707014187834784FEAF
:10563000C207C187D98F139707014187239CE18E49
:105640008347B4FEA2071397070141878347A4FE4F
:10565000C207C187D98F139707014187239DE18E28
:105660008347D4FEA2071397070141878347C4FEEF
:10567000C207C187D98F139707014187239EE18E07
:105680000100F240624405618280011106CE22CC05
:105690000010A30704FE5145EFA01FE61308F00F0A
:1056A00089679387470209671307570289669386BC
:1056B0003602379698001306066881450945EFD0F3
:1056C000EFE5C146054685451305A004EFB0FFC0D0
:1056D0000145EFF05FDEEFF09FEDAA8795C39306DB
:1056E000600EB707020013860790B7070200938584
:1056F00047960145EF20E06E8547A307F4FED1A849
:1057000081451305C007EFF0BFD00545EFA0DFDEF0
:10571000814513059005EFF0BFCF0966B71702006A
:10572000938587FE1305E005EFF0BFD3854513058C
:105730009005EFF0FFCD5145EFA01FDC13051002DF
:10574000EFF07FD7AA873E8785476303F70293066A
:10575000500FB707020013860790B7070200938522
:1057600007980145EF20E0678547A307F4FE95A061
:10577000B9451305D007EFF0BFC99305700A1305AB
:105780000004EFF0FFC89305900A13052004EFF022
:105790003FC8894513051004EFF09FC73707020083
:1057A0008727879927AAF18001000347F4FE8547E0
:1057B0006300F702814513053004EFF07FC593873E
:1057C0004181370702008727C799DCE3010011A058
:1057D00001008347F4FE3E85F24062440561828009
:1057E000011122CE0010AA87A307F4FE8346F4FE1F
:1057F000B727014093870780DC4713F707F0B727E7
:10580000014093870780558FD8C701007244056116
:105810008280011106CE22CC0010AA87A307F4FED5
:1058200083A701906391070E83A70183BD8B054772
:10583000B317F70093960701C18283A7018313D79B
:105840005700B70700200A079387C700BA979C4301
:10585000368798CB83A70183BD8B0547B317F70025
:1058600093960701C18283A7018313D75700B70717
:1058700000200A079387C700BA979C433687D8CB86
:10588000B70700209387C700DC4713070008D8CB71
:105890008347F4FEBE850545EFD04F8EB707002045
:1058A0009387C700DC471307000898CB83A70183C1
:1058B000BD8B0547B317F70093960701C18283A7F5
:1058C000018313D75700B70700200A079387C70043
:1058D000BA979C43368798CB83A70183BD8B054736
:1058E000B317F70093960701C18283A7018313D7EB
:1058F0005700B70700200A079387C700BA979C4351
:105900003687D8CB4DA8B70700209387C700DC4364
:1059100013070008D8CBB70700209387C700DC43E4
:10592000096798CB8346F4FEB72701409387078029
:10593000DC4713F707F0B727014093870780558F9F
:10594000D8C783A70183BD8B0547B317F70093968C
:105950000701C18283A7018313D75700B70700202F
:105960000A079387C700BA979C433687D8CBB707F7
:1059700000209387C700DC432167D8CBB7070020FE
:105980009387C700DC43216798CB83A70183BD8B36
:105990000547B317F70093960701C18283A70183D8
:1059A00013D75700B70700200A079387C700BA9795
:1059B0009C43368798CB0100F240624405618280A7
:1059C000011106CE22CC0010AA87A307F4FE83A7FC
:1059D000019081EB8347F4FEBE850545EFC01FFAB9
:1059E00079A8B70700209387C700DC431307000896
:1059F00098CBB70700209387C700DC43096798CB93
:105A00008347F4FE3E85EFF0BFDD83A70183BD8BA6
:105A10000547B317F70093960701C18283A7018357
:105A200013D75700B70700200A079387C700BA9714
:105A30009C433687D8CBB70700209387C700DC4349
:105A40002167D8CBB70700209387C700DC432167C5
:105A500098CB83A70183BD8B0547B317F7009396B7
:105A60000701C18283A7018313D75700B70700201E
:105A70000A079387C700BA979C43368798CB0100E3
:105A8000F240624405618280011106CE22CC0010F2
:105A9000AA872317F4FE83A7019081EB8357E4FEC6
:105AA000BE850545EFC09FF4FDA8B707002093878A
:105AB000C700DC431307000898CBB7070020938783
:105AC000C700DC43096798CB8357E4FEA183C20774
:105AD000C18393F7F70F3E85EFF09FD083A7018333
:105AE000BD8B0547B317F70093960701C18283A7C3
:105AF000018313D75700B70700200A079387C70011
:105B0000BA979C433687D8CBB70700209387C70046
:105B1000DC432167D8CBB70700209387C700DC435D
:105B2000216798CB8357E4FE93F7F70F3E85EFF09C
:105B30003FCB83A70183BD8B0547B317F70093962F
:105B40000701C18283A7018313D75700B70700203D
:105B50000A079387C700BA979C433687D8CBB70705
:105B600000209387C700DC432167D8CBB70700200C
:105B70009387C700DC43216798CB83A70183BD8B44
:105B80000547B317F70093960701C18283A70183E6
:105B900013D75700B70700200A079387C700BA97A3
:105BA0009C43368798CB0100F240624405618280B5
:105BB000011106CE22CC0010AA8736872317F4FEE7
:105BC000AE872316F4FEB2872315F4FEBA8723149A
:105BD000F4FE83D741820357E4FEB337F70093F70F
:105BE000F70F3E871306100FB70702009385079A39
:105BF0003A85EF20601883D761820357C4FEB3371C
:105C0000F70093F7F70F3E871306200FB707020040
:105C10009385079A3A85EF20201683D74182035750
:105C2000A4FEB337F70093F7F70F3E871306300F44
:105C3000B70702009385079A3A85EF20E01383D7D0
:105C40006182035784FEB337F70093F7F70F3E875F
:105C50001306400FB70702009385079A3A85EF2095
:105C6000A0111305A002EFF0DFBA8357E4FE3E85D2
:105C7000EFF09FE18357A4FE3E85EFF0FFE01305B0
:105C8000B002EFF01FB98357C4FE3E85EFF0DFDFAF
:105C9000835784FE3E85EFF03FDF1305C002EFF02F
:105CA0005FB70100F240624405618280797106D6D7
:105CB00022D400189307C4FD3E85EF208017854746
:105CC000231EF4FC83D74182231FF4FC83D7618217
:105CD0002310F4FE83A701820547638AE70099EF4A
:105CE00099472301F4FEA147A301F4FE09A8A147A7
:105CF0002301F4FEC147A301F4FE11A00100B76720
:105D000000009387E7142324F4FEB767000093870D
:105D1000A7D22326F4FE9307C4FD3E85EF2000178B
:105D20000100B250225445618280011106CE22CC7E
:105D3000001083A701909DE783A70183BD8B0547D2
:105D4000B317F70093960701C18283A7018313D786
:105D50005700B70700200A079387C700BA979C43EC
:105D60003687D8CB83D74182FD171397070141832C
:105D700083D76182FD17C207C183BE863A868145FB
:105D80000145EFF0FFE2231704FE0DA8231604FEE1
:105D900019A883D7E1813E85EFF01FCF8357C4FE5A
:105DA00085072316F4FE83D761820357C4FEE3629E
:105DB000F7FE8357E4FE85072317F4FE83D741825D
:105DC0000357E4FEE364F7FC83A701909DE783A7F4
:105DD0000183BD8B0547B317F70093960701C18276
:105DE00083A7018313D75700B70700200A079387BB
:105DF000C700BA979C43368798CB0100F2406244B3
:105E000005618280011122CE00102326A4FE032703
:105E1000C4FE23A2E1900327C4FE854763EBE7009D
:105E20001307000F2392E182130700142393E182EA
:105E300009A8130700142392E1821307000F23938C
:105E4000E1820100724405618280011122CE0010BE
:105E5000AA872E872317F4FEBA872316F4FE03576A
:105E6000E4FE239EE1800357C4FE239FE1800100EE
:105E7000724405618280797106D622D40018AA87FF
:105E8000AE863287231FF4FCB687231EF4FCBA8744
:105E9000A30DF4FC83D741820357E4FDB337F70029
:105EA00093F7F70F3E871306401FB707020093854D
:105EB000079A3A85EF10506C83D761820357C4FD6F
:105EC000B337F70093F7F70F3E871306501FB70756
:105ED00002009385079A3A85EF10106A83A7019014
:105EE0009DE783A70183BD8B0547B317F700939602
:105EF0000701C18283A7018313D75700B70700208A
:105F00000A079387C700BA979C433687D8CB83A7E5
:105F1000018205476389E70C639C071EA30704FE03
:105F20006DA88347F4FE1397070141838357E4FD6F
:105F3000BA971395070141818347F4FE1397070130
:105F400041838357E4FDBA97139707014183835731
:105F5000C4FDA10793960701C1828357C4FD3A8609
:105F6000BE85EFF0FFC48307B4FD138707FE8346A9
:105F7000F4FE37160200BA878607BA97860713071A
:105F800046A6BA97B69783C70700A306F4FE230771
:105F900004FE15A88347D4FE858B99C783D7C1819A
:105FA0003E85EFF07FAE31A083D7E1813E85EFF0F3
:105FB000BFAD8347D4FE8583A306F4FE8347E4FE8A
:105FC00085072307F4FE0347E4FE9D47E3F4E7FC5F
:105FD0008347F4FE8507A307F4FE0347F4FE9547C5
:105FE000E3F1E7F43DA2A30704FE29AA8347F4FEE8
:105FF0001397070141838357E4FDBA97139507016F
:1060000041818347F4FE1397070141838357E4FDE1
:10601000BA971397070141838357C4FDBD07939631
:106020000701C1828357C4FD3A86BE85EFF05FB891
:106030008307B4FD938607FE8347F4FE370702000B
:106040009206130747473697BA9783C70700230678
:10605000F4FE8307B4FD938607FE8347F4FEA10791
:10606000370702009206130747473697BA9783C748
:106070000700A305F4FE230704FE15A88347C4FE0A
:10608000858B99C783D7C1813E85EFF0FF9F31A0F3
:1060900083D7E1813E85EFF03F9F8347C4FE858330
:1060A0002306F4FE8347E4FE85072307F4FE034737
:1060B000E4FE9D47E3F4E7FC230704FE15A88347AD
:1060C000B4FE858B99C783D7C1813E85EFF0DF9BF6
:1060D00031A083D7E1813E85EFF01F9B8347B4FE5B
:1060E0008583A305F4FE8347E4FE85072307F4FEBA
:1060F0000347E4FE9D47E3F4E7FC8347F4FE85078E
:10610000A307F4FE0347F4FE9D47E3F1E7EE11A079
:10611000010083A701909DE783A70183BD8B0547FD
:10612000B317F70093960701C18283A7018313D7A2
:106130005700B70700200A079387C700BA979C4308
:10614000368798CB0100B250225445618280797124
:1061500006D622D40018AA872E87232CC4FC231F1E
:10616000F4FCBA87231EF4FC83D741820357E4FD75
:10617000B337F70093F7F70F3E871306B024B7073E
:1061800002009385079A3A85EF10103F83D761820A
:106190000357C4FDB337F70093F7F70F3E87130695
:1061A000C024B70702009385079A3A85EF10D03CC8
:1061B000231704FE79A883A701820547638AE704B1
:1061C00089C709476386E70869A00357E4FEBA87D1
:1061D0008607BA9786071397070141838357E4FD23
:1061E000BA9793960701C1828357E4FE032784FD83
:1061F000BA97038707008357C4FD3A86BE85368564
:10620000EFF07FC78357E4FE85072317F4FE91A0C4
:106210008357E4FE8E071397070141838357E4FDFC
:10622000BA9793960701C1828357E4FE032784FD42
:10623000BA97038707008357C4FD3A86BE85368523
:10624000EFF07FC38357E4FE85072317F4FE11A008
:1062500001008357E4FE032784FDBA978387070074
:10626000B9FB0100B250225445618280397106DECB
:1062700022DC8000AA872324C4FC36872317F4FC81
:10628000AE872316F4FCBA87A303F4FC83D74182BC
:106290000357E4FCB337F70093F7F70F3E87130675
:1062A0000027B70702009385079A3A85EF10D02C94
:1062B00083D761820357C4FCB337F70093F7F70F16
:1062C0003E8713061027B70702009385079A3A8581
:1062D000EF10902A834774FCB337F00093F7F70F61
:1062E0003E8713062027B70702009385079A3A8551
:1062F000EF109028834774FC93B7B70093F7F70F1C
:106300003E8713063027B70702009385079A3A8520
:10631000EF109026832784FC2326F4FE8547232450
:10632000F4FE9307C4FD314681453E85EF905FED55
:10633000834774FC85073E879307C4FD3A8693051F
:1063400000023E85EF90DFEB034774FCA54763EB4B
:10635000E70231A8032784FEBA878A07BA9786071F
:106360002324F4FE834774FCFD17A303F4FC834746
:1063700074FCEDF30327C4FE832784FEB367F702A2
:106380002326F4FE9307C4FD8325C4FE3E85EF203B
:1063900000579306C4FD0357C4FC8357E4FC3686BC
:1063A000BA853E85EFF0BFDA0100F25062542161F8
:1063B0008280397106DE22DC8000AA872324C4FC97
:1063C00036872317F4FCAE872316F4FCBA87A303A1
:1063D000F4FC83D741820357E4FCB337F70093F70B
:1063E000F70F3E8713066029B70702009385079AC7
:1063F0003A85EF10701883D761820357C4FCB33716
:10640000F70093F7F70F3E8713067029B7070200CE
:106410009385079A3A85EF103016834774FCB3379B
:10642000F00093F7F70F3E8713068029B7070200A5
:106430009385079A3A85EF103014834774FC93B71D
:10644000B70093F7F70F3E8713069029B7070200AE
:106450009385079A3A85EF103012832784FC232610
:10646000F4FE85472324F4FE9307C4FD314681459D
:106470003E85EF90FFD8034774FC9307C4FD3A862E
:10648000930500023E85EF90BFD7034774FCA547F4
:1064900063EBE70231A8032784FEBA878A07BA971D
:1064A00086072324F4FE834774FCFD17A303F4FC42
:1064B000834774FCEDF3832784FE0327C4FEB37780
:1064C000F7022326F4FE9307C4FD8325C4FE3E8510
:1064D000EF2060549306C4FD0357C4FC8357E4FCCB
:1064E0003686BA853E85EFF09FC60100F2506254B1
:1064F000216182805D7186C6A2C4A6C2800823285D
:10650000C4FA232AD4FABA863E87AA87231FF4FA4C
:10651000AE87231EF4FAB687A30DF4FABA87230DCB
:10652000F4FA83D741820357E4FBB337F70093F7BC
:10653000F70F3E871306F02BB70702009385079AE3
:106540003A85EF10700383D761820357C4FBB337DA
:10655000F70093F7F70F3E871306002CB7070200EA
:106560009385079A3A85EF1030018347B4FBB33720
:10657000F00093F7F70F3E871306102CB7070200C1
:106580009385079A3A85EF10207F8347B4FB93B732
:10659000970093F7F70F3E871306202CB7070200EA
:1065A0009385079A3A85EF10207D8347A4FBB33784
:1065B000F00093F7F70F3E871306302CB707020061
:1065C0009385079A3A85EF10207B8347A4FB93B706
:1065D000770093F7F70F3E871306402CB7070200AA
:1065E0009385079A3A85EF102079832704FB0328C7
:1065F00044FB2324F4FE232604FFB707020003A86C
:1066000047A083A707A02320F4FE232204FF9307BB
:10661000C4FC454681453E85EF909FBE0347B4FBD1
:106620008347A4FBBA9789073E879307C4FC3A8641
:10663000930500023E85EF90BFBC0347B4FBA5471E
:1066400063EAE70805A8B707020003A687A083A6A8
:10665000C7A0032504FE832544FEEF30117AAA87E4
:106660002E882320F4FE232204FF8347B4FBFD176A
:10667000A30DF4FA8347B4FBF9F7032584FE8325C1
:10668000C4FEEF50610DAA84032504FE832544FE59
:10669000EF50810CAA87B3C7F4023E85EF50212347
:1066A000AA872E88032604FE832644FE3E85C285E3
:1066B000EF30B174AA872E883E86C286032584FEF9
:1066C0008325C4FEEF40C158AA872E882324F4FEF8
:1066D000232604FF0347A4FB9307C4FCBA86832543
:1066E00084FE0326C4FE3E85EF2080409306C4FC52
:1066F0000357C4FB8357E4FB3686BA853E85EFF02B
:106700001FA50100B64026449644616182805D71F8
:1067100086C6A2C480082A8E2E832324C4FC368514
:10672000BA853E86C2864687F2872317F4FC9A878D
:106730002316F4FCAA872313F4FCAE872312F4FC7F
:10674000B2872311F4FCB6872310F4FCBA87A30F99
:10675000F4FA83D741820357E4FCB337F70093F789
:10676000F70F3E8713060032B70702009385079A9A
:106770003A85EF10606083D761820357C4FCB3375A
:10678000F70093F7F70F3E8713061032B7070200A2
:106790009385079A3A85EF10205E832784FCB337F0
:1067A000F00093F7F70F3E8713062032B707020079
:1067B0009385079A3A85EF10205C232604FE232454
:1067C00004FE231304FE231204FE232004FE232EC2
:1067D00004FC83A701909DE783A70183BD8B054738
:1067E000B317F70093960701C18283A7018313D7DC
:1067F0005700B70700200A079387C700BA979C4342
:106800003687D8CB0357E4FC835724FCBA97C207DA
:10681000C183FD171396070141820357C4FC8357B8
:1068200004FCBA97C207C183FD1793960701C18282
:106830000357C4FC8357E4FCBA853E85EFF04FB79D
:10684000232404FE01A2035744FC832784FE33075C
:10685000F702835704FCB357F702232EF4FC2326D8
:1068600004FEF1A0035764FC8327C4FE3307F7023C
:10687000835724FCB357F7022320F4FE035764FC2C
:106880008327C4FD3307F702832704FEBA97032743
:1068900084FCBA9783C707002312F4FE8347F4FBF6
:1068A000ADE3835744FE8D83C207C183AE07231334
:1068B000F4FE835744FE8983C207C1839607C2074B
:1068C000C18793F7077E139707014187831764FEFB
:1068D000D98FC207C1872313F4FE835744FE8D83EB
:1068E000C207C183FD8B139707014183835764FE61
:1068F000D98F2313F4FE835764FE3E85EFF0CF98C3
:1069000015A08347F4FBC207C183035744FE637697
:10691000F7000145EFF04F9731A0C1671385F7FFEE
:10692000EFF08F968327C4FE85072326F4FE835756
:1069300024FC0327C4FEE367F7F2832784FE850760
:106940002324F4FE835704FC032784FEE36DF7EE53
:1069500083A701909DE783A70183BD8B0547B317EC
:10696000F70093960701C18283A7018313D75700CD
:10697000B70700200A079387C700BA979C4336875A
:1069800098CB0100B640264461618280797106D6B9
:1069900022D40018232EA4FC8327C4FDC1E323A026
:1069A00001901307700223A4E1821307000623A6B7
:1069B000E1821307400623A8E1821308F00FC167A4
:1069C000F91705671307F70285669386D60237A67F
:1069D0004A041306062081450545EFC02FB4C14681
:1069E0000146854513057006EFA03F8F83A781827E
:1069F000C146014685453E85EFA03F8EC146014612
:106A0000854513054006EFA05F8D83A7C182C1466F
:106A1000054685453E85EFA05F8C45A8054723A028
:106A2000E1901307700623A4E1821307000623A652
:106A3000E1821307400623A8E182C1460546854549
:106A40001305D002EFA07F89C14605468545130591
:106A5000F002EFA09F88C1460546854513057002E8
:106A6000EFA0BF87C1460546854513057006EFA018
:106A7000DF86C1460546854513054006EFA0FF8524
:106A8000C1460546854513050006EFA01F85A307EF
:106A900004FE930700F82307F4FEA30704FE0DA0ED
:106AA0000347E4FE8347F4FEBA97C1460146854595
:106AB0003E85EFA09F828347F4FE8507A307F4FE7F
:106AC0000347F4FE9D47E3FDE7FC83A741903E8525
:106AD000EFF04FB303D7C18183D7E181BE853A85FB
:106AE000EFF0AFB6EFF08F9C83A7C182BD8B054757
:106AF000B317F70093960701C18283A7C18213D70A
:106B00005700B70700200A079387C700BA979C432E
:106B1000368798CB83A78182BD8B0547B317F700D3
:106B200093960701C18283A7818213D75700B707C5
:106B300000200A079387C700BA979C433687D8CBB3
:106B40001545EF907F9B83A78182BD8B0547B317C7
:106B5000F70093960701C18283A7818213D757005C
:106B6000B70700200A079387C700BA979C43368768
:106B700098CB13058007EF903F9883A701909DE77E
:106B800083A70183BD8B0547B317F70093960701D1
:106B9000C18283A7018313D75700B70700200A07D4
:106BA0009387C700BA979C433687D8CB4545EFE01B
:106BB0005FC613058007EF903F9413056003EFE075
:106BC0005FC583A7419089E70145EFE07FDF0DA80E
:106BD00003A7419085476317F7001305000CEFE00A
:106BE0003FDE39A803A7419089476317F7001305D3
:106BF0000007EFE0FFDC29A01305000AEFE05FDCEF
:106C00001305A003EFE0FFC01545EFE07FDB1305A0
:106C1000200BEFE01FC03145EFE09FDA3145EFE098
:106C20003FDA0145EFE0DFD913053003EFE05FD92C
:106C300013053003EFE0DFD81305700BEFE07FBDE5
:106C400013055003EFE0DFD71305B00BEFE07FBC77
:106C500013059002EFE0DFD61305200CEFE07FBBB9
:106C60000545EFE0FFD51305300CEFE09FBA654511
:106C7000EFE01FD51305400CEFE0BFB9130500028C
:106C8000EFE01FD41305500CEFE0BFB86945EFE00B
:106C90003FD31305600CEFE0DFB77D45EFE05FD237
:106CA0001305000DEFE0FFB61305400AEFE05FD1DA
:106CB0001305100AEFE0DFD01305000EEFE07FB5FB
:106CC0001305000DEFE0DFCF2145EFE07FCF394521
:106CD000EFE01FCF2545EFE0BFCE2545EFE05FCECB
:106CE0001545EFE0FFCD13051003EFE07FCD130551
:106CF0003003EFE0FFCC13058004EFE07FCC5D456F
:106D0000EFE01FCC5145EFE0BFCB5545EFE05FCB47
:106D100013051003EFE0DFCA13054003EFE05FCA7D
:106D20001305100EEFE0FFAE1305000DEFE05FC995
:106D30002145EFE0FFC83945EFE09FC82545EFE06A
:106D40003FC82545EFE0DFC75545EFE07FC7130596
:106D50001003EFE0FFC613053003EFE07FC6130515
:106D60008004EFE0FFC55D45EFE09FC55145EFE0D2
:106D70003FC55545EFE0DFC413051003EFE05FC4E6
:106D800013054003EFE0DFC313051002EFE07FA817
:106D900013059002EFE0FFA783A701909DE783A76B
:106DA0000183BD8B0547B317F70093960701C18296
:106DB00083A7018313D75700B70700200A079387DB
:106DC000C700BA979C43368798CBEFE01FF60100C7
:106DD000B250225445618280397106DE22DC800087
:106DE0002326A4FC8547A307F4FE231604FE2324D0
:106DF00004FE232E04FC83D701913E8793070023D2
:106E00006316F700A5472324F4FE29A0A1472324F5
:106E1000F4FE01008DA8930750FA2300F4FE8327A7
:106E200084FE8A070327C4FCBA978397070093F769
:106E3000F70FA300F4FE832784FE8A070327C4FC10
:106E4000BA97839727002313F4FE835764FEA18328
:106E5000C207C18393F7F70F2301F4FE835764FE43
:106E600093F7F70FA301F4FE930704FE1146BE85C6
:106E70001145EFC02FF60945EF900FE8832784FEF8
:106E8000FD172324F4FE032784FE9307E00FE3F4A9
:106E9000E7F8138541F1EF1060282A87894763FFDF
:106EA000E7028D47232EF4FC1307C4FD930704FE6D
:106EB00081463A86BE85138541F1EF10806C034709
:106EC00014FE9307F00F6308F700034724FE9307AF
:106ED000F00F6315F700A30704FE31A80545EF90F6
:106EE000AFE18357C4FE138717002316E4FE130790
:106EF000F007E370F7FA8347F4FE3E85F2506254E0
:106F000021618280397106DE22DC80002326A4FC08
:106F1000A30704FE231604FE232404FE232E04FCF0
:106F200083D701913E87930700236316F700A54797
:106F30002324F4FE29A0A1472324F4FE0100832783
:106F400084FEFD172324F4FE29A203D701919307A1
:106F5000F02263EDE700832784FE8A070327C4FC41
:106F6000BA9703970700A547630FF70C930750FAEA
:106F70002300F4FEC557A300F4FE832784FE8A078E
:106F80000327C4FCBA97839707002313F4FE8357A3
:106F900064FEA183C207C18393F7F70F2301F4FEB8
:106FA000835764FE93F7F70FA301F4FE930704FEE3
:106FB0001146BE851145EFC0EFE1231604FE13858F
:106FC00041F1EF10A0152A87894763F7E7048D4741
:106FD000232EF4FC1307C4FD930704FE81463A8672
:106FE000BE85138541F1EF10C059834714FEA207F7
:106FF00093960701C186834724FE139707014187B3
:10700000832784FE8A070326C4FCB297558F420764
:1070100041872391E70031A80545EF90EFCD8357D5
:10702000C4FE138717002316E4FE1307F007E37866
:10703000F7F80357C4FE9307000863F7E700854796
:10704000A307F4FE19A80100832784FEFD1723245B
:10705000F4FE832784FEE39A07EE8347F4FE3E8521
:10706000F250625421618280011106CE22CC0010C0
:10707000A30704FE9307F4FEBE851145EFC06FEA37
:107080000347F4FE9307500A6316F700138541F196
:10709000EF00B0788347F4FEBE85138541F1EF1011
:1070A000400C0100F240624405618280411122C619
:1070B000000805472384E1900100324441018280A9
:1070C000011106CE22CC0010231704FE231604FE65
:1070D000232004FE930750FA2302F4FEC557A302AF
:1070E000F4FE9307200F2315F4FE8357A4FEA1831B
:1070F000C207C18393F7F70F2303F4FE8357A4FE5F
:1071000093F7F70FA303F4FE930744FE1146BE85E1
:107110001145EFC02FCC138541F1EF1020002A87D5
:10712000894763F0E7048D472320F4FE130704FE2C
:10713000930744FE81463A86BE85138541F1EF10E0
:107140004044834754FEA2071397070141878347B2
:1071500064FEC207C187D98FC207C1872316F4FE18
:1071600031A80545EF904FB98357E4FE1387170008
:107170002317E4FE1307F007E37FF7F88357C4FEF5
:107180003E85F240624405618280797106D622D440
:107190000018AA87231FF4FCA30704FE83A7C1904D
:1071A000E9EB231504FE232004FE930750FA230283
:1071B000F4FEC157A302F4FE8357E4FD2316F4FE48
:1071C0008357C4FEA183C207C18393F7F70F23033C
:1071D000F4FE8357C4FE93F7F70FA303F4FE93075F
:1071E00044FE1146BE851145EFC0CFBE138541F167
:1071F000EF00D0722A87894763F0E7048D47232088
:10720000F4FE130704FE930744FE81463A86BE85CA
:10721000138541F1EF10E036834754FEA207139720
:1072200007014187834764FEC207C187D98FC20720
:10723000C1872316F4FE31A80545EF90EFAB8357C5
:10724000A4FE138717002315E4FE1307F007E37F5E
:10725000F7F80357C4FE8357E4FD6318F70003579C
:10726000A4FE9307F00763FEE7008547A307F4FE3B
:1072700009A88357E4FD3E85EF10D171AA87A307C3
:10728000F4FE8347F4FE3E85B2502254456182806D
:10729000397106DE22DC8000A30704FE054723A621
:1072A000E1909307C4FD1307C0049306200613065C
:1072B000401F81453E85EFB00FE11305800CEF9034
:1072C000AFA31307C4FDB7070020938507023A85D3
:1072D000EF10310CAA87638C070C23A601909167ED
:1072E0009386270691671386C70489679385075895
:1072F0001145EFC02FC985451145EFC02FBA1305C1
:10730000800CEF906F9FB77700001386C70AB7779E
:107310000000938587060D452122EFC0DFA1EFF025
:107320003FDAAA873E872398E190B70700201385AC
:107330000702EFF07FAAAA8795CB9306701BB707C9
:107340000200138607A1B7070200938547A70145EE
:10735000EF003029014681450145D920814511457D
:10736000EFC0CFB38547A307F4FE91A0B707002075
:1073700013858704EFF01FB9AA8795CB9306401CAD
:10738000B7070200138607A1B7070200938507A974
:107390000145EF00102501468145014551208145F9
:1073A0001145EFC0AFAF8547A307F4FE0100B777E3
:1073B00000001386C70AB7770000938587060D453E
:1073C000852091473EC495473EC299473EC09308E9
:1073D000900213088002930760021307B00493061B
:1073E000900413068004A9452545EF904FA58546D6
:1073F0008D67138687138145B71700201385C7BE95
:10740000EF906FB58347F4FE3E85F25062542161E0
:107410008280411122C6000801003244410182806D
:10742000011122CE00102326A4FE2324B4FE232221
:10743000C4FE0327C4FE23AAE190832744FE81C72C
:10744000832744FE29A0B77700009387274123AC08
:10745000F182832784FE81C7832784FE29A0B77722
:1074600000009387274123AAF1820100724405613D
:107470008280411122C60008B71702409843B7170F
:1074800002401367170098C3B7170240D443B717D9
:1074900002403707FFF8758FD8C3B71702409443EF
:1074A000B71702403707F7FE7D17758F98C3B717D8
:1074B00002409443B71702403707FCFF7D17758FD2
:1074C00098C3B7170240D443B7170240370781FF6C
:1074D0007D17758FD8C3B717024037079F0098C72D
:1074E0000100324441018280797106D622D400180D
:1074F000232EA4FCEFF0FFF7232604FE232404FE32
:10750000B71702409443B71702404167558F98C39D
:10751000B71702409843B7070200F98F2324F4FEFF
:107520008327C4FE85072326F4FE832784FE91E784
:107530000327C4FE8567E31DF7FCB7170240984395
:10754000B7070200F98F89C785472324F4FE19A0E5
:10755000232404FE032784FE85476312F71637179A
:107560000240B71702405843D8C337170240B71735
:1075700002405843D8C337170240B7170240584358
:10758000D8C3B7170240D443B71702403707C1FF2B
:107590007D17758FD8C30327C4FDB7479508938718
:1075A0000740631BF700B7170240D443B7170240E8
:1075B0004167558FD8C355A80327C4FDB7172707C0
:1075C000938707E0631CF700B7170240D443B7174F
:1075D000024037073900558FD8C341A80327C4FD9F
:1075E000B7E7B80593870780631CF700B717024019
:1075F000D443B717024037072900558FD8C3B5A029
:107600000327C4FDB7A74A0493870720631CF7002C
:10761000B7170240D443B717024037071D00558FF4
:10762000D8C3A1A00327C4FDB777DC02938707C0A6
:10763000631CF700B7170240D443B717024037075F
:107640001100558FD8C315A00327C4FDB7376E01AD
:1076500093870760631BF700B7170240D443B7173F
:10766000024037070500558FD8C3B717024094432F
:10767000B717024037070001558F98C30100B717AD
:1076800002409843B7070002F98FF5DBB7170240B5
:10769000D843B7170240719BD8C3B7170240D843ED
:1076A000B717024013672700D8C30100B71702407D
:1076B000DC4313F7C700A147E31AF7FE11A001A0AE
:1076C000B250225445618280011106CE22CC0010B6
:1076D0002326A4FE0327C4FE23AEE182EFF07FD968
:1076E0000325C4FEEFF05FE0EF10D0020100F2408E
:1076F000624405618280411122C600080100010038
:10770000324441018280011106CE22CC0010232692
:1077100004FE232404FE232604FE2DA0232404FEBD
:1077200001A8EFF05FFD832784FE85072324F4FE84
:10773000032784FEC167E366F7FE8327C4FE85073F
:107740002326F4FE0327C4FE9307F00FE3F8E7FCBB
:107750000100F240624405618280411122C60008A6
:107760000100324441018280011106CE22CC00107A
:107770002326A4FE8325C4FE0945EFB01FEC0100BB
:10778000F240624405618280130101D9232611264B
:107790002324812623229126801C232EA4D8232C47
:1077A000B4D8232AC4D82328D4D8231504FE2314FC
:1077B00004FE231304FE231204FE231104FE0325FA
:1077C00084D9EF50A119AA87C207C1872313F4FEF9
:1077D000B747002083D747D299C7B7470020938780
:1077E00047D29C4B829783C7819193F7F70F638BA6
:1077F000074EB747002083D747D2638D0746B74768
:107800000020938747D2D447835724FE139707015C
:10781000418793170701C1838507C207C183C20748
:10782000C1872311F4FE93170701C1830326C4D92E
:10783000BE8501458296832784D92326F4FE03253D
:1078400084D9EF50A111AA87C207C1872313F4FE80
:10785000B7470020938747D283D727003E87B74793
:107860000020938747D283C76700B347F702C20758
:10787000C1872312F4FE01008327C4FE138717007B
:107880002326E4FE83870700E5FB231404FEA1A85A
:107890008327C4FEFD172326F4FE8327C4FE038737
:1078A00007009307F002630AF7008327C4FE0387EB
:1078B00007009307C005631BF700835784FEC207C8
:1078C000C1838507C207C1832314F4FE835764FE76
:1078D000C207C187C207C183FD17C207C183C207A0
:1078E000C1872313F4FE835784FE13970701418356
:1078F000854763E8E700835764FEC207C187E3D981
:1079000007F8835764FEC207C18763C30702832752
:10791000C4FE85072326F4FE130704EE0326C4FEE7
:10792000B70702009385C7AA3A85EF40D17E2DA8FC
:10793000835784FEC207C18389EF130704EE032631
:10794000C4FEB7070200938587AB3A85EF40B17C50
:1079500021A8130704EE0326C4FEB707020093858F
:10796000C7AA3A85EF40317B231504FE05A22314F4
:1079700004FE59A0930704EE3E85EF40317E2A872E
:10798000835784FEC207C183BE868357A4FEC20705
:10799000C1833E86835744FEC207C187B307F60200
:1079A000B6976367F706835784FEC207C1833E8795
:1079B0008357A4FEC207C183BE86835744FEC20715
:1079C000C187B387F602BA97035784FE4207418303
:1079D000BA86130704FFBA97038707EF930704FFDC
:1079E000B6972388E7EA835784FEC207C1838507D9
:1079F000C207C1832314F4FE835784FEC207C183E8
:107A00003E87835744FEC207C187E345F7F611A0BE
:107A10000100835784FEC207C183130704FFBA978E
:107A2000238807EAB7470020938747D203A8C700F7
:107A3000B7470020938747D283C777001397070182
:107A40004183835724FE93960701C18693970601CD
:107A5000C1838507C207C183C207C1872311F4FE12
:107A600093970601C183B307F702C207C1831307C7
:107A700004EA3A86BE85014502988357A4FEC207F0
:107A8000C1838507C207C1832315F4FE8357A4FE73
:107A9000C207C183BE84930704EE3E85EF40116C9C
:107AA0002A87835744FEC207C187B357F702850769
:107AB000E3EFF4EA130704EE032644D9B707020004
:107AC000938587AC3A85EF401165B74700209387CF
:107AD00047D203A8C700B7470020938747D283C780
:107AE0007700139707014183835724FE939607017C
:107AF000C18693970601C1838507C207C183C20768
:107B0000C1872311F4FE93970601C183B307F702DF
:107B1000C207C183130704EE3A86BE850145029869
:107B2000832704D96380071C231504FE05A22314B0
:107B300004FE59A0032504D9EF4051622A878357D8
:107B400084FEC207C183BE868357A4FEC207C183D9
:107B50003E86835744FEC207C187B307F602B69735
:107B60006368F706835784FEC207C1833E87835745
:107B7000A4FEC207C183BE86835744FEC207C187E5
:107B8000B387F602BA973E87832704D9BA9703577B
:107B900084FE42074183BA8603870700930704FFE8
:107BA000B6972388E7EA835784FEC207C183850717
:107BB000C207C1832314F4FE835784FEC207C18326
:107BC0003E87835744FEC207C187E345F7F611A0FD
:107BD0000100835784FEC207C183130704FFBA97CD
:107BE000238807EAB7470020938747D203A8C70036
:107BF000B7470020938747D283C7770013970701C1
:107C00004183835724FE93960701C186939706010B
:107C1000C1838507C207C183C207C1872311F4FE50
:107C200093970601C183B307F702C207C183130705
:107C300004EA3A86BE85014502988357A4FEC2072E
:107C4000C1838507C207C1832315F4FE8357A4FEB1
:107C5000C207C183BE84032504D9EF4031502A876F
:107C6000835744FEC207C187B357F7028507E3E095
:107C7000F4EC8DA8930704DA1306001081453E85C5
:107C8000EF800FD8B7470020938747D29C47032542
:107C9000C4D98297832704D985C3130504DA03273F
:107CA00004D9832644D9032684D9B70702009385D3
:107CB00047ADEF40514631A8130704DA832644D973
:107CC000032684D9B7070200938507AF3A85EF40B2
:107CD0009144B7470020938747D29847930704DA27
:107CE0003E85029701008320C12603248126832438
:107CF0004126130101278280797106D622D400180B
:107D0000232EA4FC232CB4FC232AC4FC232604FE2B
:107D1000B9A00100B7070200938747459C47930528
:107D200000043E85EF50A034AA87EDD7B7070200C4
:107D3000938747459C47BE86832784FD138717009A
:107D4000232CE4FC83870700C207C183BE853685E8
:107D5000EF50002F8327C4FE85072326F4FE032758
:107D6000C4FE832744FDE346F7FA832744FD3E859E
:107D7000B250225445618280011106CE22CC0010FF
:107D8000AA872324B4FE2322C4FEA307F4FE83475C
:107D9000F4FEB9E383C7018493F7F70F95CF83C748
:107DA000919191C301A083C79191850713F7F70FB4
:107DB000A38CE190EF104013EFF03F9A8146032629
:107DC00044FE832584FEB7070200138587B0EFF0D9
:107DD000BF9BEFF05F93DDB70100F24062440561A5
:107DE0008280011106CE22CC0010AA872324B4FE83
:107DF0002322C4FE2320D4FEA307F4FE8347F4FE0F
:107E00009DE383C7819193F7F70F99CF832684FE73
:107E1000032604FE832544FEB7070200138587B1BD
:107E2000EFF09F9611A001000100F240624405614D
:107E30008280011122CE00102326A4FE8327C4FED7
:107E4000239007008327C4FE7D572391E7008327F3
:107E5000C4FE7D572392E7008327C4FE7D5723830A
:107E6000E7008327C4FE7D57A383E7008327C4FE72
:107E700023A407008327C4FE23A607008327C4FE8C
:107E800023A807000100724405618280011122CEFF
:107E900000102326A4FE8327C4FE03D70700B7479C
:107EA00000202392E7D28327C4FE03D72700B747D9
:107EB0000020938747D22391E7008327C4FE03D78E
:107EC0004700B7470020938747D22392E7008327D4
:107ED000C4FE03C76700B7470020938747D22383B8
:107EE000E7008327C4FE03C77700B74700209387C6
:107EF00047D2A383E7008327C4FE9847B7470020F3
:107F0000938747D298C78327C4FED847B747002036
:107F1000938747D2D8C78327C4FE984BB747002022
:107F2000938747D298CB0547238CE1900100724498
:107F300005618280797106D622D400189307C4FDAA
:107F40003E85EFF01FEFB7770000938787762322F7
:107F5000F4FE9307C4FD3E85EFF05FF389679386D7
:107F6000B70289671386A702F16793850720094541
:107F7000EFB05F810100B25022544561828001114F
:107F800022CE00102326A4FE2324B4FE8327C4FEA1
:107F9000D847832784FE3E978327C4FED8C719A8F5
:107FA0008327C4FED8478327C4FE9C4F1D8F832799
:107FB000C4FED8C78327C4FE984F8327C4FEDC477E
:107FC000E3F0E7FE0100724405618280011122CED8
:107FD00000102326A4FE2324B4FE8327C4FE984B5E
:107FE000832784FE3E978327C4FE98CB19A8832756
:107FF000C4FE984B8327C4FE9C4F1D8F8327C4FE6D
:1080000098CB8327C4FE984F8327C4FE9C4BE3F094
:10801000E7FE0100724405618280797106D622D4A0
:108020000018232EA4FC8327C4FDB337F00093F778
:10803000F70F3E8713064005B7070200938547B246
:108040003A85EFF07FD3232604FE8327C4FD83C740
:108050000700858B93F7F70F89C789472326F4FE1E
:108060007DA08327C4FD83C7070093E7170013F79C
:10807000F70F8327C4FD2380E7008327C4FD23A6D1
:1080800007008327C4FD23A807008327C4FD984F5A
:108090008327C4FDD8CB8327C4FDDC430547638316
:1080A000E70289C70947638CE702B9A08327C4FDAB
:1080B00098478327C4FD9C4F3E8681453A85EF80D3
:1080C0002F941DA88327C4FD98478327C4FD9C4F88
:1080D00086073E8681453A85EF808F9231A88327B7
:1080E000C4FD98478327C4FD9C4F8A073E8681457F
:1080F0003A85EF80EF9001008327C4FD83C7070016
:10810000F99B13F7F70F8327C4FD2380E70083272C
:10811000C4FE3E85B250225445618280011106CED4
:1081200022CC00102326A4FE8327C4FEB337F00020
:1081300093F7F70F3E871306C007B7070200938532
:1081400047B23A85EFF05FC38327C4FE984F832779
:10815000C4FEDC4BB307F7403E85F2406244056144
:108160008280797106D622D40018232EA4FC232CF9
:10817000B4FC8327C4FDB337F00093F7F70F3E87B5
:108180001306A008B7070200938547B23A85EFF0BF
:10819000BFBE232604FE8327C4FD83C70700898B47
:1081A00093F7F70F89C785472326F4FEC9A08327D5
:1081B000C4FD83C7070093E7270013F7F70F832752
:1081C000C4FD2380E7008327C4FDDC4BD9C383278C
:1081D000C4FDDC4305476385E70289C7094763801F
:1081E000E70491A88327C4FD98478327C4FDDC4793
:1081F000BA97032784FD1377F70F2380E70025A89C
:108200008327C4FD98478327C4FDDC478607BA97B8
:10821000032784FD420741832390E70029A8832791
:10822000C4FD98478327C4FDDC478A07BA97032714
:1082300084FD98C3010085450325C4FDEFF03FD4BC
:108240008327C4FDDC4B1387F7FF8327C4FDD8CBFE
:1082500021A091472326F4FE8327C4FD83C707008E
:10826000F59B13F7F70F8327C4FD2380E7008327CF
:10827000C4FE3E85B250225445618280797106D693
:1082800022D40018232EA4FC232CB4FC232AC4FCE3
:108290008327C4FDB337F00093F7F70F3E8713062B
:1082A000C00BB7070200938547B23A85EFF0DFAC09
:1082B000232604FE232404FE832784FD89E78D47BB
:1082C0002326F4FE45AC8327C4FD83C70700898BB2
:1082D00093F7F70F89C785472326F4FE61AC832700
:1082E000C4FD83C7070093E7270013F7F70F832721
:1082F000C4FD2380E7008327C4FDDC4B032744FD36
:1083000063ECE7248327C4FD984F8327C4FDDC4733
:10831000B307F7402324F4FE032744FD832784FE9C
:1083200063F2E7188327C4FDDC430547638FE70644
:1083300089C709476389E70E31A48327C4FD98479D
:108340008327C4FDDC47BA97032684FE832584FD7A
:108350003E85EF30712D832584FE0325C4FDEFF0AB
:108360001FC28327C4FD98478327C4FDDC47B3069B
:10837000F700032784FD832784FEB305F700032756
:1083800044FD832784FEB307F7403E863685EF30F1
:10839000B129032744FD832784FEB307F740BE8538
:1083A0000325C4FDEFF0BFBD71AA8327C4FD984724
:1083B0008327C4FDDC4786073E97832784FE860714
:1083C0003E86832584FD3A85EF301126832584FE81
:1083D0000325C4FDEFF0BFBA8327C4FD9847832768
:1083E000C4FDDC478607B306F700832784FE8607B3
:1083F000032784FDB305F700032744FD832784FE8C
:10840000B307F74086073E863685EF30F121032714
:1084100044FD832784FEB307F740BE850325C4FDD2
:10842000EFF0FFB505A28327C4FD98478327C4FD5D
:10843000DC478A073E97832784FE8A073E8683258A
:1084400084FD3A85EF30511E832584FE0325C4FD4B
:10845000EFF0FFB28327C4FD98478327C4FDDC47B4
:108460008A07B306F700832784FE8A07032784FD63
:10847000B305F700032744FD832784FEB307F740C5
:108480008A073E863685EF30311A032744FD83275D
:1084900084FEB307F740BE850325C4FDEFF03FAE71
:1084A00001004DA08327C4FDDC430547638CE70230
:1084B00089C709476380E70671A08327C4FD9847F1
:1084C0008327C4FDDC47BA97032644FD832584FD3A
:1084D0003E85EF307115832544FD0325C4FDEFF083
:1084E0001FAA8DA08327C4FD98478327C4FDDC47BE
:1084F00086073E97832744FD86073E86832584FDB5
:108500003A85EF307112832544FD0325C4FDEFF059
:108510001FA70DA88327C4FD98478327C4FDDC4708
:108520008A073E97832744FD8A073E86832584FD7C
:108530003A85EF30710F832544FD0325C4FDEFF02C
:108540001FA401008327C4FDD84B832744FD1D8F42
:108550008327C4FDD8CB21A091472326F4FE83278F
:10856000C4FD83C70700F59B13F7F70F8327C4FDEE
:108570002380E7008327C4FE3E85B2502254456124
:108580008280797106D622D40018232EA4FC232CD5
:10859000B4FC232AC4FC2328D4FC8327C4FDB337AE
:1085A000F00093F7F70F3E8713067016B707020027
:1085B000938547B23A85EFF02FFC832744FDB3370C
:1085C000F00093F7F70F3E8713068016B7070200F7
:1085D000938547B23A85EFF02FFA232604FE8327CE
:1085E00084FD89E78D472326F4FEA1AC8327C4FDD3
:1085F00083C7070093E7470013F7F70F8327C4FDEE
:108600002380E7000325C4FDEFF05FB12324A4FE1F
:10861000832744FD9C43032784FE637AF700832766
:1086200044FD032784FE98C395472326F4FE832741
:10863000C4FD984F8327C4FD9C4BB307F74023220A
:10864000F4FE832744FD9C43032744FE6365F7083B
:108650008327C4FDDC4305476388E70289C70947D0
:108660006387E704BDA28327C4FD98478327C4FD21
:108670009C4B3E97832744FD9C433E86BA85032549
:1086800084FDEF30617AB1A28327C4FD9847832728
:10869000C4FD9C4B86073E97832744FD9C43860779
:1086A0003E86BA85032584FDEF3001781DA283271D
:1086B000C4FD98478327C4FD9C4B8A073E978327B8
:1086C00044FD9C438A073E86BA85032584FDEF302E
:1086D000A1750100FDA88327C4FDDC430547638A1B
:1086E000E70489C70947638EE708E5A08327C4FD2F
:1086F00098478327C4FD9C4BBA97032644FEBE854A
:10870000032584FDEF304172032784FD832744FE57
:10871000B306F7008327C4FD8C47832744FD9843A5
:10872000832744FEB307F7403E863685EF30C16F9E
:108730004DA08327C4FD98478327C4FD9C4B860723
:108740003E97832744FE86073E86BA85032584FD2F
:10875000EF30816D832744FE8607032784FDB3062F
:10876000F7008327C4FD8C47832744FD9843832764
:1087700044FEB307F74086073E863685EF30C16A70
:1087800089A88327C4FD98478327C4FD9C4B8A078B
:108790003E97832744FE8A073E86BA85032584FDDB
:1087A000EF308168832744FE8A07032784FDB306E0
:1087B000F7008327C4FD8C47832744FD9843832714
:1087C00044FEB307F7408A073E863685EF30C16521
:1087D0000100832704FDB5E78327C4FD83C7070095
:1087E000858B93F7F70F89C789472326F4FE91A855
:1087F0008327C4FD83C7070093E7170013F7F70F1C
:108800008327C4FD2380E700832744FD9C43BE8566
:108810000325C4FDEFF08FFB8327C4FDD84B8327CE
:1088200044FD9C433E978327C4FDD8CB8327C4FDDA
:1088300083C70700F99B13F7F70F8327C4FD238035
:10884000E7008327C4FD83C70700918B13F7F70F59
:108850008327C4FD2380E7008327C4FE3E85B250F2
:10886000225445618280797106D622D40018232EC5
:10887000A4FC232CB4FC232AC4FC2328D4FC832787
:10888000C4FDB337F00093F7F70F3E87130680213E
:10889000B7070200938547B23A85EFF0EFCD232664
:1088A00004FE832744FD89E78D472326F4FE89A033
:1088B0008327C4FD032744FD98C78327C4FD238075
:1088C00007008327C4FD032784FDD8C38327C4FD85
:1088D00023A607008327C4FD23A807008327C4FD20
:1088E000032704FDD8CB8327C4FD032704FD98CFBD
:1088F0008327C4FE3E85B25022544561828039717F
:1089000006DE22DC80002326A4FC2324B4FC83277B
:10891000C4FCB337F00093F7F70F3E871306000847
:10892000B7070200938587B83A85EFF0EFC4A30735
:1089300004FE232404FE8327C4FCE1CB832784FCAC
:1089400063D307028327C4FC138717002326E4FCA4
:108950001307D0022380E700832784FCB307F0408D
:108960002324F4FCB9A8832784FCA1EF8327C4FC4B
:10897000130700032380E70051A8032784FCA947BD
:10898000B367F7022324F4FE832784FE13D7F7414D
:10899000832784FEB98F998F0347F4FE930617004F
:1089A000A307D4FEBA8613F7F70F930704FFB69711
:1089B0002384E7FE032784FCA947B347F702232457
:1089C000F4FC832784FCD5FB2DA88347F4FEFD1718
:1089D000130704FFBA9783C787FE9387070393F6AD
:1089E000F70F8327C4FC138717002326E4FC139793
:1089F000860161872380E7008347F4FEFD17A30704
:108A0000F4FE8347F4FEF1F311A001000100F250DF
:108A1000625421618280397106DE22DC80002326C7
:108A2000A4FC2324B4FC8327C4FCB337F00093F7E1
:108A3000F70F3E871306C00CB7070200938587B86F
:108A40003A85EFF06FB3A30704FE8327C4FCD9CBAC
:108A5000832784FCB1E38327C4FC1307000323802E
:108A6000E70051A0032784FCA947B376F7028347A8
:108A7000F4FE13871700A307E4FE139786016187AE
:108A8000930604FFB6972386E7FE032784FCA947D5
:108A9000B357F7022324F4FC832784FCE1F73DA8B5
:108AA0008347F4FEFD17130704FFBA978387C7FEB9
:108AB00093F7F70F9387070393F6F70F8327C4FC09
:108AC000138717002326E4FC139786016187238010
:108AD000E7008347F4FEFD17A307F4FE8347F4FE87
:108AE000E1F311A001000100F25062542161828083
:108AF000197186DEA2DC00012326A4F82320B4F835
:108B00002322C4F8B687A305F4F88327C4F8B33743
:108B1000F00093F7F70F3E871306301CB7070200EB
:108B2000938587B83A85EFF02FA5232604FE2324EA
:108B300004FE8347B4F8A303F4FE8327C4F86386D6
:108B40000724032504F8832544F8EF20F140AA8781
:108B50002326F4FE01468146032504F8832544F8C4
:108B6000EF10511EAA8763DD07008327C4F813871F
:108B700017002326E4F81307D0022380E700B1A0F2
:108B800001468146032504F8832544F8EF10B10619
:108B9000AA8785EF8327C4F8138717002326E4F8F4
:108BA000130700032380E7008327C4F81387170007
:108BB0002326E4F81307E0022380E7008327C4F8A4
:108BC000130700032380E700D1A20325C4FEEF2092
:108BD0001150AA872E883E86C286032504F8832575
:108BE00044F8EF20E106AA872E882320F4F82322F8
:108BF00004F91DA0B707020003A607C183A647C159
:108C0000032504F8832544F8EF10311FAA872E8826
:108C10002320F4F8232204F9834774FE1387F7FF17
:108C2000A303E4FEE1FB032504F8832544F8EF20C9
:108C3000B132AA872324F4FEA30304FE834774FE03
:108C400013871700A303E4FEBE860327C4FEA947CB
:108C50003367F70293972600930604FFB69723A283
:108C6000E7FC0327C4FEA947B347F7022326F4FE17
:108C70008327C4FEE1F7A1A0834774FEFD178A078E
:108C8000130704FFBA9783A747FC13D7F741B98F9F
:108C9000998F93F7F70F9387070393F6F70F8327BF
:108CA000C4F8138717002326E4F813978601618719
:108CB0002380E700834774FEFD17A303F4FE834778
:108CC00074FEDDFB8347B4F8F1C3A30304FE8327DE
:108CD000C4F8138717002326E4F81307E002238063
:108CE000E700832784FEB9E78327C4F8130700034E
:108CF0002380E70061A8834774FE13871700A3034E
:108D0000E4FEBE86032784FEA9473367F7029397E4
:108D10002600930604FFB69723A0E7FA032784FEF4
:108D2000A947B347F7022324F4FE8347B4F8FD179D
:108D3000A305F4F88347B4F8DDFFA1A0834774FED0
:108D4000FD178A07130704FFBA9783A707FA13D7FB
:108D5000F741B98F998F93F7F70F9387070393F62E
:108D6000F70F8327C4F8138717002326E4F8139717
:108D7000860161872380E700834774FEFD17A30304
:108D8000F4FE834774FEDDFB11A001000100F650E4
:108D9000665409618280411122C600089967938751
:108DA000870873900780010032444101828041119D
:108DB00022C6000899677390078001003244410180
:108DC0008280011122CE00102326A4FE8327C4FE38
:108DD000FD8B0547B316F70037E700E08327C4FE95
:108DE0009583938707048A07BA9794C30100724456
:108DF00005618280011122CE00102326A4FE832764
:108E0000C4FEFD8B0547B316F70037E700E0832764
:108E1000C4FE9583938707068A07BA9794C3010017
:108E2000724405618280011122CE00102326A4FE27
:108E3000AE87A305F4FE37E700E08327C4FEBA97A8
:108E40000347B4FE2380E74001007244056182803D
:108E5000011106CE22CC00102326A4FE0325C4FE59
:108E6000EFF03FF60100F24062440561828001119B
:108E700006CE22CC00102326A4FE0325C4FEEFF06C
:108E80007FF70100F240624405618280011106CE45
:108E900022CC00102326A4FEAE87A305F4FE834750
:108EA000B4FEBE850325C4FEEFF0FFF70100F240DB
:108EB000624405618280011106CE22CC0010232677
:108EC000A4FE8327C4FE99C783A7C1911387F7FF28
:108ED00023AEE19083A7C19199E3EFF0DFEB0100AE
:108EE000F240624405618280411106C622C4000836
:108EF00083A7C19199E3EFF09FEB83A7C1911387FB
:108F0000170023AEE19083A7C1913E85B240224471
:108F100041018280411106C622C400080145EFF0DC
:108F20009FF90100B240224441018280357106CF91
:108F300016CD1ACB1EC922C72AC52EC332C1B6DE32
:108F4000BADCBEDAC2D8C6D6F2D4F6D2FAD0FECE99
:108F500082E686E48AE28EE012FE16FC1AFA1EF819
:108F60002AF62EF432F236F03AEE3EEC42EA46E8C9
:108F700072E676E47AE27EE0001193055052B7473C
:108F8000014013850780EF40E012AA8789CB930543
:108F90005052B747014013850780EF40C0210100C0
:108FA000FA40EA425A43CA433A442A459A450A4695
:108FB000F6566657D6574658B658265E965E065FF2
:108FC000F64F3660A660166186617272E272527365
:108FD000C2733275A275127682767267E267526842
:108FE000C268326EA26E126F826F0D617300203004
:108FF000357106CF16CD1ACB1EC922C72AC52EC37E
:1090000032C1B6DEBADCBEDAC2D8C6D6F2D4F6D2E7
:10901000FAD0FECE82E686E48AE28EE012FE16FCEC
:109020001AFA1EF82AF62EF432F236F03AEE3EEC38
:1090300042EA46E872E676E47AE27EE000119305C1
:109040005052B747004013850740EF40A006AA875B
:1090500089CB93055052B747004013850740EF4036
:1090600080150100FA40EA425A43CA433A442A456D
:109070009A450A46F6566657D6574658B658265E5B
:10908000965E065FF64F3660A66016618661727264
:10909000E2725273C2733275A2751276827672676B
:1090A000E2675268C268326EA26E126F826F0D6103
:1090B00073002030357106CF16CD1ACB1EC922C7DA
:1090C0002AC52EC332C1B6DEBADCBEDAC2D8C6D6D5
:1090D000F2D4F6D2FAD0FECE82E686E48AE28EE0C0
:1090E00012FE16FC1AFA1EF82AF62EF432F236F0A8
:1090F0003AEE3EEC42EA46E872E676E47AE27EE058
:10910000001193055052B757004013850780EF3088
:10911000707AAA8789CB93055052B75700401385C0
:109120000780EF4040090100FA40EA425A43CA432F
:109130003A442A459A450A46F6566657D65746583F
:10914000B658265E965E065FF64F3660A6601661DC
:1091500086617272E2725273C2733275A2751276B0
:1091600082767267E2675268C268326EA26E126FD0
:10917000826F0D6173002030357106CF16CD1ACB8A
:109180001EC922C72AC52EC332C1B6DEBADCBEDA7A
:10919000C2D8C6D6F2D4F6D2FAD0FECE82E686E4A3
:1091A0008AE28EE012FE16FC1AFA1EF82AF62EF457
:1091B00032F236F03AEE3EEC42EA46E872E676E407
:1091C0007AE27EE0001193055052B75700401385B4
:1091D00007C0EF30306EAA8789CB93055052B7573E
:1091E0000040138507C0EF30107D0100FA40EA42CD
:1091F0005A43CA433A442A459A450A46F6566657A0
:10920000D6574658B658265E965E065FF64F3660CD
:10921000A660166186617272E2725273C273327511
:10922000A275127682767267E2675268C268326E01
:10923000A26E126F826F0D6173002030357106CF00
:1092400016CD1ACB1EC922C72AC52EC332C1B6DE1F
:10925000BADCBEDAC2D8C6D6F2D4F6D2FAD0FECE86
:1092600082E686E48AE28EE012FE16FC1AFA1EF806
:109270002AF62EF432F236F03AEE3EEC42EA46E8B6
:1092800072E676E47AE27EE000119305505237559B
:109290000040EF303062AA8791CB83A74183829749
:1092A0009305505237550040EF30F0700100FA40FE
:1092B000EA425A43CA433A442A459A450A46F65670
:1092C0006657D6574658B658265E965E065FF64FE6
:1092D0003660A660166186617272E2725273C27362
:1092E0003275A275127682767267E2675268C2683A
:1092F000326EA26E126F826F0D6173002030357175
:1093000006CF16CD1ACB1EC922C72AC52EC332C11D
:10931000B6DEBADCBEDAC2D8C6D6F2D4F6D2FAD0FD
:10932000FECE82E686E48AE28EE012FE16FC1AFA8F
:109330001EF82AF62EF432F236F03AEE3EEC42EA0D
:1093400046E872E676E47AE27EE000119305505238
:10935000B727004013850780EF30D055AA8789CB07
:1093600093055052B727004013850780EF30B06453
:109370000100FA40EA425A43CA433A442A459A4510
:109380000A46F6566657D6574658B658265E965E33
:10939000065FF64F3660A660166186617272E272F1
:1093A0005273C2733275A275127682767267E26763
:1093B0005268C268326EA26E126F826F0D617300C6
:1093C0002030717106D716D51AD31ED122CF2ACDDF
:1093D0002ECB32C936C73AC53EC342C1C6DEF2DC27
:1093E000F6DAFAD8FED682EE86EC8AEA8EE892E6C3
:1093F00096E49AE29EE02AFE2EFC32FA36F83AF61D
:109400003EF442F246F072EE76EC7AEA7EE800191B
:1094100093055052B7270040138507C0EF3090499D
:10942000AA87B9C39307F4F5BE851945EFA06FAFBE
:109430000347F4F585476311F702930510041945B6
:10944000EFA0AF93814513052002EF707FDDA30FDE
:1094500004F41D47238AE18493055052B727004046
:10946000138507C0EF3030550100BA50AA521A5385
:109470008A537A446A45DA454A46BA462A479A47A1
:109480000A48F658665ED65E465FB65F7660E6606E
:109490005661C6613662A662166386637275E275AE
:1094A0005276C2763277A27712788278726EE26E46
:1094B000526FC26F4D6173002030357106CF16CDEB
:1094C0001ACB1EC922C72AC52EC332C1B6DEBADCEA
:1094D000BEDAC2D8C6D6F2D4F6D2FAD0FECE82E632
:1094E00086E48AE28EE012FE16FC1AFA1EF82AF6CC
:1094F0002EF432F236F03AEE3EEC42EA46E872E6FC
:1095000076E47AE27EE00011930550523725004060
:10951000EF30503AAA8789CBEFB07FDE93055052E7
:1095200037250040EF3030490100FA40EA425A4303
:10953000CA433A442A459A450A46F6566657D657CC
:109540004658B658265E965E065FF64F3660A660B1
:10955000166186617272E2725273C2733275A275BD
:10956000127682767267E2675268C268326EA26EC5
:10957000126F826F0D6173002030357106CF16CDEA
:109580001ACB1EC922C72AC52EC332C1B6DEBADC29
:10959000BEDAC2D8C6D6F2D4F6D2FAD0FECE82E671
:1095A00086E48AE28EE012FE16FC1AFA1EF82AF60B
:1095B0002EF432F236F03AEE3EEC42EA46E872E63B
:1095C00076E47AE27EE00011B707055083C7070111
:1095D00093F7F70F918B8DC383A781838297B7078A
:1095E000055083C7070113F7F70FB70705506D9BA9
:1095F0001377F70F2388E7000100FA40EA425A4345
:10960000CA433A442A459A450A46F6566657D657FB
:109610004658B658265E965E065FF64F3660A660E0
:10962000166186617272E2725273C2733275A275EC
:10963000127682767267E2675268C268326EA26EF4
:10964000126F826F0D6173002030357106CF16CD19
:109650001ACB1EC922C72AC52EC332C1B6DEBADC58
:10966000BEDAC2D8C6D6F2D4F6D2FAD0FECE82E6A0
:1096700086E48AE28EE012FE16FC1AFA1EF82AF63A
:109680002EF432F236F03AEE3EEC42EA46E872E66A
:1096900076E47AE27EE000110545EF10D0322A87A9
:1096A00085476315F7000545EF1050370100FA4074
:1096B000EA425A43CA433A442A459A450A46F6566C
:1096C0006657D6574658B658265E965E065FF64FE2
:1096D0003660A660166186617272E2725273C2735E
:1096E0003275A275127682767267E2675268C26836
:1096F000326EA26E126F826F0D6173002030357171
:1097000006CF16CD1ACB1EC922C72AC52EC332C119
:10971000B6DEBADCBEDAC2D8C6D6F2D4F6D2FAD0F9
:10972000FECE82E686E48AE28EE012FE16FC1AFA8B
:109730001EF82AF62EF432F236F03AEE3EEC42EA09
:1097400046E872E676E47AE27EE000110945EF1021
:1097500090272A8785476315F7000945EF10102CDD
:109760000100FA40EA425A43CA433A442A459A451C
:109770000A46F6566657D6574658B658265E965E3F
:10978000065FF64F3660A660166186617272E272FD
:109790005273C2733275A275127682767267E2676F
:1097A0005268C268326EA26E126F826F0D617300D2
:1097B0002030357106CF16CD1ACB1EC922C72AC557
:1097C0002EC332C1B6DEBADCBEDAC2D8C6D6F2D4F7
:1097D000F6D2FAD0FECE82E686E48AE28EE012FE6F
:1097E00016FC1AFA1EF82AF62EF432F236F03AEE89
:1097F0003EEC42EA46E872E676E47AE27EE0001168
:109800001145EF10501C2A8785476315F700114555
:10981000EF10D0200100FA40EA425A43CA433A44CA
:109820002A459A450A46F6566657D6574658B658B8
:10983000265E965E065FF64F3660A660166186610C
:109840007272E2725273C2733275A27512768276A8
:109850007267E2675268C268326EA26E126F826FE0
:109860000D6173002030357106CF16CD1ACB1EC99D
:1098700022C72AC52EC332C1B6DEBADCBEDAC2D8D0
:10988000C6D6F2D4F6D2FAD0FECE82E686E48AE2DA
:109890008EE012FE16FC1AFA1EF82AF62EF432F2A8
:1098A00036F03AEE3EEC42EA46E872E676E47AE2D8
:1098B0007EE000112145EF1010112A8785476315BE
:1098C000F7002145EF1090150100FA40EA425A4393
:1098D000CA433A442A459A450A46F6566657D65729
:1098E0004658B658265E965E065FF64F3660A6600E
:1098F000166186617272E2725273C2733275A2751A
:10990000127682767267E2675268C268326EA26E21
:10991000126F826F0D6173002030357106CF16CD46
:109920001ACB1EC922C72AC52EC332C1B6DEBADC85
:10993000BEDAC2D8C6D6F2D4F6D2FAD0FECE82E6CD
:1099400086E48AE28EE012FE16FC1AFA1EF82AF667
:109950002EF432F236F03AEE3EEC42EA46E872E697
:1099600076E47AE27EE000114145EF10D0052A87C7
:1099700085476315F7004145EF10500A0100FA4092
:10998000EA425A43CA433A442A459A450A46F65699
:109990006657D6574658B658265E965E065FF64F0F
:1099A0003660A660166186617272E2725273C2738B
:1099B0003275A275127682767267E2675268C26863
:1099C000326EA26E126F826F0D617300203035719E
:1099D00006CF16CD1ACB1EC922C72AC52EC332C147
:1099E000B6DEBADCBEDAC2D8C6D6F2D4F6D2FAD027
:1099F000FECE82E686E48AE28EE012FE16FC1AFAB9
:109A00001EF82AF62EF432F236F03AEE3EEC42EA36
:109A100046E872E676E47AE27EE000111305000281
:109A2000EF10607A2A8785476316F7001305000256
:109A3000EF10C07E13050004EF10E0782A878547F9
:109A40006316F70013050004EF10407D13050008AE
:109A5000EF1060772A8785476316F7001305000823
:109A6000EF10C07B13050010EF10E0752A878547C3
:109A70006316F70013050010EF10407A130500205D
:109A8000EF1060742A8785476316F70013050020DE
:109A9000EF10C0780100FA40EA425A43CA433A4400
:109AA0002A459A450A46F6566657D6574658B65836
:109AB000265E965E065FF64F3660A660166186618A
:109AC0007272E2725273C2733275A2751276827626
:109AD0007267E2675268C268326EA26E126F826F5E
:109AE0000D6173002030357106CF16CD1ACB1EC91B
:109AF00022C72AC52EC332C1B6DEBADCBEDAC2D84E
:109B0000C6D6F2D4F6D2FAD0FECE82E686E48AE257
:109B10008EE012FE16FC1AFA1EF82AF62EF432F225
:109B200036F03AEE3EEC42EA46E872E676E47AE255
:109B30007EE0001113050040EF10E0682A8785479A
:109B40006316F70013050040EF10406D856713851D
:109B50000780EF1040672A8785476317F7008567FE
:109B600013850780EF10806B0565EF10C0652A87AD
:109B700085476315F7000565EF10406A0965EF102A
:109B800080642A8785476315F7000965EF1000692F
:109B90001165EF1040632A8785476317F700EFB020
:109BA0006FDE1165EF1080672165EF10C0612A87B5
:109BB00085476317F700EFB0AFCD2165EF10006662
:109BC0000100FA40EA425A43CA433A442A459A45B8
:109BD0000A46F6566657D6574658B658265E965EDB
:109BE000065FF64F3660A660166186617272E27299
:109BF0005273C2733275A275127682767267E2670B
:109C00005268C268326EA26E126F826F0D6173006D
:109C10002030357106CF16CD1ACB1EC922C72AC5F2
:109C20002EC332C1B6DEBADCBEDAC2D8C6D6F2D492
:109C3000F6D2FAD0FECE82E686E48AE28EE012FE0A
:109C400016FC1AFA1EF82AF62EF432F236F03AEE24
:109C50003EEC42EA46E872E676E47AE27EE0001103
:109C60008545B7370140138507C0EF20107EAA87CE
:109C700081CB8545B7370140138507C0EF30E0033E
:109C80000100FA40EA425A43CA433A442A459A45F7
:109C90000A46F6566657D6574658B658265E965E1A
:109CA000065FF64F3660A660166186617272E272D8
:109CB0005273C2733275A275127682767267E2674A
:109CC0005268C268326EA26E126F826F0D617300AD
:109CD0002030357106CF16CD1ACB1EC922C72AC532
:109CE0002EC332C1B6DEBADCBEDAC2D8C6D6F2D4D2
:109CF000F6D2FAD0FECE82E686E48AE28EE012FE4A
:109D000016FC1AFA1EF82AF62EF432F236F03AEE63
:109D10003EEC42EA46E872E676E47AE27EE0001142
:109D2000854537050040EF205072AA8791C78545C9
:109D300037050040EF2070780100FA40EA425A43AC
:109D4000CA433A442A459A450A46F6566657D657B4
:109D50004658B658265E965E065FF64F3660A66099
:109D6000166186617272E2725273C2733275A275A5
:109D7000127682767267E2675268C268326EA26EAD
:109D8000126F826F0D6173002030357106CF16CDD2
:109D90001ACB1EC922C72AC52EC332C1B6DEBADC11
:109DA000BEDAC2D8C6D6F2D4F6D2FAD0FECE82E659
:109DB00086E48AE28EE012FE16FC1AFA1EF82AF6F3
:109DC0002EF432F236F03AEE3EEC42EA46E872E623
:109DD00076E47AE27EE000118545B70700401385FE
:109DE0000740EF209066AA87A5C313051006EF7001
:109DF000AFCAAA873E878547631AF7001305300666
:109E0000EF708FC9AA8799E3EFC0C066EF402027A3
:109E1000EF40C032EF80D029EF80F04183A7C1A38B
:109E200099CBEF80F02F03A7C1A3A5476317F700D5
:109E3000EF80105419A0EF80B0538545B70700405C
:109E400013850740EF2070670100FA40EA425A4349
:109E5000CA433A442A459A450A46F6566657D657A3
:109E60004658B658265E965E065FF64F3660A66088
:109E7000166186617272E2725273C2733275A27594
:109E8000127682767267E2675268C268326EA26E9C
:109E9000126F826F0D6173002030357106CF16CDC1
:109EA0001ACB1EC922C72AC52EC332C1B6DEBADC00
:109EB000BEDAC2D8C6D6F2D4F6D2FAD0FECE82E648
:109EC00086E48AE28EE012FE16FC1AFA1EF82AF6E2
:109ED0002EF432F236F03AEE3EEC42EA46E872E612
:109EE00076E47AE27EE000118545B71700401385DD
:109EF0000780EF209055AA8781CB8545B717004092
:109F000013850780EF20705B0100FA40EA425A4354
:109F1000CA433A442A459A450A46F6566657D657E2
:109F20004658B658265E965E065FF64F3660A660C7
:109F3000166186617272E2725273C2733275A275D3
:109F4000127682767267E2675268C268326EA26EDB
:109F5000126F826F0D6173002030357106CF16CD00
:109F60001ACB1EC922C72AC52EC332C1B6DEBADC3F
:109F7000BEDAC2D8C6D6F2D4F6D2FAD0FECE82E687
:109F800086E48AE28EE012FE16FC1AFA1EF82AF621
:109F90002EF432F236F03AEE3EEC42EA46E872E651
:109FA00076E47AE27EE000118545B717004013851C
:109FB00007C0EF209049AA87638E073283A7419C90
:109FC00081CF03A7419C85476318F7000547A38607
:109FD000E19C094723A2E19C83C7D19C93F7F70F2B
:109FE000A5C383C7D19C13F7F70F85476313F70207
:109FF00083A7C1921387170023A6E19203A7C192FA
:10A00000A54763DFE7020947A386E19C23A60192E7
:10A0100005A883C7D19C13F7F70F89476312F7028E
:10A0200083A7C1921387170023A6E19203A7C192C9
:10A03000914763D7E7000D47A386E19C23A60192D1
:10A0400083C7418513F7F70F8547631AF70283A784
:10A05000C1921387170023A6E19203A7C192CD47AF
:10A0600063D4E70E0947238AE18423A6019223A83B
:10A070000192854513052002EF708F9AF1A083C7E6
:10A08000418513F7F70F89476311F70683C7518599
:10A0900093F7F70F85E703A7419283A701933E97B4
:10A0A00023A8E19203A70193930710CE635EF708FC
:10A0B0000D47238AE18423A8019279A003A7019286
:10A0C00083A701933E9723A8E19283A7019313D717
:10A0D000F741B98F998F1307F0316357F7060D4792
:10A0E000238AE18423A8019285A083C7418513F7C1
:10A0F000F70F8D476313F70283A7C19213871700E9
:10A1000023A6E19203A7C192A54763DFE7021147A7
:10A11000238AE18423A8019205A883C7418513F708
:10A12000F70F91476312F70283A7C19213871700B5
:10A1300023A6E19203A7C192CD4763D7E700154755
:10A14000238AE18423A8019283A7C19A6382070A24
:10A1500003A7C19A8547631AF700094723A6E19A26
:10A1600023A6019223A80192B1A803A7C19A894707
:10A170006313F70283A7C1921387170023A6E19206
:10A1800003A7C192914763DFE7020D4723A6E19A37
:10A1900023A6019205A803A7C19A8D476314F7026D
:10A1A00003A7419283A701933E9723A8E19203A7B7
:10A1B000019385679387379C63D6E70023A6019AAE
:10A1C00023A8019203A7C19A91476313F70283A7BB
:10A1D000C1921387170023A6E19203A7C192A54756
:10A1E00063D8E70023A6019A23A6019223A801922F
:10A1F00083C7E19C93F7F70F6389070A83C7E19C44
:10A2000013F7F70F8547631AF70023A6019223A8D7
:10A21000019209472387E19C49A883C7E19C13F772
:10A22000F70F89476313F70283A7C19213871700BB
:10A2300023A6E19203A7C192914763D8E70623A61C
:10A2400001920D472387E19C8DA083C7E19C13F702
:10A25000F70F8D476313F70283A7C1921387170087
:10A2600023A6E19203A7C192A54763D0E70423A6E2
:10A27000019211472387E19C0DA883C7E19C13F746
:10A28000F70F91476313F70203A7419283A7019346
:10A290003E9723A8E19203A701939307B05D63D68D
:10A2A000E70023A801922387019C03A7C1A3A54728
:10A2B0006319F70003A7419283A701933E9723A850
:10A2C000E19203A7C1A3A547631FF70003A701936A
:10A2D0008D4763DAE70023A6019223AE01A223A0F3
:10A2E00001A423A201A48545B7170040138507C028
:10A2F000EF20B01C0100FA40EA425A43CA433A44F4
:10A300002A459A450A46F6566657D6574658B658CD
:10A31000265E965E065FF64F3660A6601661866121
:10A320007272E2725273C2733275A27512768276BD
:10A330007267E2675268C268326EA26E126F826FF5
:10A340000D6173002030357106CF16CD1ACB1EC9B2
:10A3500022C72AC52EC332C1B6DEBADCBEDAC2D8E5
:10A36000C6D6F2D4F6D2FAD0FECE82E686E48AE2EF
:10A370008EE012FE16FC1AFA1EF82AF62EF432F2BD
:10A3800036F03AEE3EEC42EA46E872E676E47AE2ED
:10A390007EE00011854537150040EF20100BAA879D
:10A3A000A5CF83A741931387170023AAE19203A7A0
:10A3B000419389476316F70023AA0192EFA0BFDFFC
:10A3C0000145EF608FCDAA873307F04023A0E192CB
:10A3D00083A7019263D8070083A701923307F04057
:10A3E00023A0E1922145EF604FCBAA873E8723A2AD
:10A3F000E1922145EF608FDF0145EF602FDF03A77A
:10A40000019283A74192BE853A85EF60506F8545E2
:10A4100037150040EF20700A0100FA40EA425A4323
:10A42000CA433A442A459A450A46F6566657D657CD
:10A430004658B658265E965E065FF64F3660A660B2
:10A44000166186617272E2725273C2733275A275BE
:10A45000127682767267E2675268C268326EA26EC6
:10A46000126F826F0D6173002030357106CF16CDEB
:10A470001ACB1EC922C72AC52EC332C1B6DEBADC2A
:10A48000BEDAC2D8C6D6F2D4F6D2FAD0FECE82E672
:10A4900086E48AE28EE012FE16FC1AFA1EF82AF60C
:10A4A0002EF432F236F03AEE3EEC42EA46E872E63C
:10A4B00076E47AE27EE000118545B7170040138507
:10A4C0000740EF208078AA8781CB8545B7170040E9
:10A4D00013850740EF20607E0100FA40EA425A43AC
:10A4E000CA433A442A459A450A46F6566657D6570D
:10A4F0004658B658265E965E065FF64F3660A660F2
:10A50000166186617272E2725273C2733275A275FD
:10A51000127682767267E2675268C268326EA26E05
:10A52000126F826F0D6173002030357106CF16CD2A
:10A530001ACB1EC922C72AC52EC332C1B6DEBADC69
:10A54000BEDAC2D8C6D6F2D4F6D2FAD0FECE82E6B1
:10A5500086E48AE28EE012FE16FC1AFA1EF82AF64B
:10A560002EF432F236F03AEE3EEC42EA46E872E67B
:10A5700076E47AE27EE000118545B7370140138525
:10A580000740EF20806CAA8781CB8545B737014013
:10A5900013850740EF2060720100FA40EA425A43F7
:10A5A000CA433A442A459A450A46F6566657D6574C
:10A5B0004658B658265E965E065FF64F3660A66031
:10A5C000166186617272E2725273C2733275A2753D
:10A5D000127682767267E2675268C268326EA26E45
:10A5E000126F826F0D6173002030357106CF16CD6A
:10A5F0001ACB1EC922C72AC52EC332C1B6DEBADCA9
:10A60000BEDAC2D8C6D6F2D4F6D2FAD0FECE82E6F0
:10A6100086E48AE28EE012FE16FC1AFA1EF82AF68A
:10A620002EF432F236F03AEE3EEC42EA46E872E6BA
:10A6300076E47AE27EE000118545B7570140138544
:10A6400007C0EF208060AA8781CB8545B7570140BE
:10A65000138507C0EF2060660100FA40EA425A43C2
:10A66000CA433A442A459A450A46F6566657D6578B
:10A670004658B658265E965E065FF64F3660A66070
:10A68000166186617272E2725273C2733275A2757C
:10A69000127682767267E2675268C268326EA26E84
:10A6A000126F826F0D6173002030357106CF16CDA9
:10A6B0001ACB1EC922C72AC52EC332C1B6DEBADCE8
:10A6C000BEDAC2D8C6D6F2D4F6D2FAD0FECE82E630
:10A6D00086E48AE28EE012FE16FC1AFA1EF82AF6CA
:10A6E0002EF432F236F03AEE3EEC42EA46E872E6FA
:10A6F00076E47AE27EE00011854537550140EF208F
:10A70000C054AA8791C7854537550140EF20E05ACC
:10A710000100FA40EA425A43CA433A442A459A455C
:10A720000A46F6566657D6574658B658265E965E7F
:10A73000065FF64F3660A660166186617272E2723D
:10A740005273C2733275A275127682767267E267AF
:10A750005268C268326EA26E126F826F0D61730012
:10A760002030411122C6000801003244410173002B
:10A770002030411122C6000801A0411106C622C4A2
:10A780000008B747950813850740EFC0FFF3EFD0E7
:10A790006FFAEF706014EFA0C0560545EFC00F9F31
:10A7A0001306E03093052003CD671385F700EF70A3
:10A7B0002F8181458567138527C4EF50BFBA814536
:10A7C0008567138537D4EF50FFB9814585671385B9
:10A7D00047E4EF503FB981458567138557F4EF5043
:10A7E0007FB81306B038930590380145EF60CFA9C4
:10A7F000A1671386B736A167938597362145EF6029
:10A80000AFA899679386D73899671386C738F167D9
:10A81000938507201945EF80FFF685451945EF80A0
:10A82000FFE7EFC0FFA613050020EFC01F96EFA0C3
:10A83000DFE5EFA01F9AEF70707CEFC05072014609
:10A84000916793858726B71703001385D716EF60A6
:10A850003FF793060031054685451305C006EF60B6
:10A86000DFA70146916793858726B71703001385F5
:10A87000E726EF60FFF49306003101468545130596
:10A88000F006EF609FA5930600310146854513054C
:10A89000D004EF609FA4930600310146854513055F
:10A8A0002002EF609FA30100EF90DFEEAA87EDFF8B
:10A8B00003A7C1839307803E3357F702BA878A07FD
:10A8C000BA978607BE850945EF60FFB603A7C18327
:10A8D0009307803E3357F70293072003B307F7022D
:10A8E000BE851145EF603FB503A7C1839307803E46
:10A8F0003357F702BA878A07BA978607BE85154588
:10A90000EF607FB389451305D002EFE02FD88D4566
:10A9100013052004EFE08FD7854513056004EFE0B1
:10A92000EFD683C7819093F7F70F95CB83C7B19C80
:10A9300093F7F70F91EF130660049305400BB717D9
:10A9400000201385C7BEEF3030412A8723ACE19247
:10A9500083A781933E85EF30B07F23840190EF4041
:10A96000A00A83C7418513F7F70F9D476310F702CD
:10A97000EF507018EF50F008EF60204DEF50303A74
:10A98000EF80E020EF508015EF50C035EF6080631E
:10A99000D307A52027ACF19CEF60207713051006A4
:10A9A000EF609F8FAA873E878547E31CF7F6130564
:10A9B0003006EF607F8EAA87ADF7EFA0300A95B71B
:10A9C00001A001A001A001A001A001A001A001A07F
:10A9D00001A001A001A001A001A001A001A001A06F
:10A9E00001A001A001A001A001A001A001A001A05F
:10A9F00001A001A001A001A001A001A001A001A04F
:10AA000001A001A001A001A001A001A001A001A03E
:10AA100001A001A001A001A001A001A001A001A02E
:10AA200001A001A001A001A001A001A001A001A01E
:10AA300001A001A001A001A001A001A001A001A00E
:10AA400001A001A001A001A001A001A001A001A0FE
:10AA500001A001A001A001A001A001A001A001A0EE
:10AA600001A001A001A001A001A001A001A001A0DE
:10AA700001A001A001A001A001A001A001A0976177
:10AA8000FF1F93812111175100201301A157179522
:10AA900001001305659E9755FF1F9385A5561386E4
:10AAA000018D63FAC5008322050023A0550011051E
:10AAB0009105E3EAC5FE1385018D97D5FF1F9385A8
:10AAC00025D96377B500232005001105E36DB5FE98
:10AAD000FD42739002BCFD4273904280B762000059
:10AAE0009382820873A002309752FFFF938202552F
:10AAF00093E232007390523097020000938222C892
:10AB00007390123473002030011106CE22CC001055
:10AB10002326A4FE0327C4FEB727014093870740DE
:10AB2000631DF700854513050020EF10601F814568
:10AB300013050020EF10C01E1DA00327C4FEB73769
:10AB4000014093870780631CF7008545130500408B
:10AB5000EF10001D814513050040EF10601C01003F
:10AB6000F240624405618280797122D60018232E5A
:10AB7000A4FC232CB4FC232604FEA30504FE832797
:10AB8000C4FDDC432326F4FE0327C4FEB707F1E02F
:10AB90009387F7EFF98F2326F4FE832784FD9843EC
:10ABA000832784FD9C4F5D8F832784FDDC4F5D8F61
:10ABB000832784FDDC43A207D98F0327C4FED98FE6
:10ABC0002326F4FE8327C4FD0327C4FED8C38327AE
:10ABD000C4FD9C472326F4FE0327C4FEB7F7F1FF0C
:10ABE0009387D77FF98F2326F4FE832784FD984B24
:10ABF000832784FDDC475D8F832784FD9C47860780
:10AC0000D98F0327C4FED98F2326F4FE8327C4FDE2
:10AC10000327C4FE98C78327C4FDDC572326F4FE10
:10AC20000327C4FEB70710FFFD17F98F2326F4FE94
:10AC3000832784FD83C74701FD1713F7F70F834769
:10AC4000B4FED98FA305F4FE8347B4FED2070327D1
:10AC5000C4FED98F2326F4FE8327C4FD0327C4FE38
:10AC6000D8D70100325445618280011122CE0010F4
:10AC70002326A4FE2324B4FE832784FE91CB8327BE
:10AC8000C4FE9C4713E717008327C4FE98C709A892
:10AC90008327C4FE9C4713F7E7FF8327C4FE98C7AA
:10ACA0000100724405618280011122CE001023262A
:10ACB000A4FE8327C4FE9C4713E787008327C4FEB6
:10ACC00098C70100724405618280797122D600180C
:10ACD000232EA4FC232604FE8327C4FD9C47A18BBE
:10ACE00089C785472326F4FE19A0232604FE83275F
:10ACF000C4FE3E85325445618280011122CE00108F
:10AD00002326A4FE8327C4FE9C4713E7470083271E
:10AD1000C4FE98C70100724405618280797122D611
:10AD20000018232EA4FC232604FE8327C4FD9C4781
:10AD3000918B89C785472326F4FE19A0232604FE9C
:10AD40008327C4FE3E85325445618280011122CEA4
:10AD500000102326A4FE2324B4FE832784FE99CB6F
:10AD60008327C4FE9847B70750005D8F8327C4FE32
:10AD700098C719A88327C4FE9847B707B0FFFD17E7
:10AD80007D8F8327C4FE98C70100724405618280CD
:10AD9000797122D60018232EA4FCAE873687A30D26
:10ADA000F4FCB287230DF4FCBA87A30CF4FC232631
:10ADB00004FE232404FE0347B4FDA54763F6E7061B
:10ADC0008327C4FDDC472326F4FE8347B4FD1387A5
:10ADD00067FFBA878607BA971D47B317F700232482
:10ADE000F4FE832784FE93C7F7FF0327C4FEF98F81
:10ADF0002326F4FE834694FD8347B4FD138767FF43
:10AE0000BA878607BA97B397F6002324F4FE032780
:10AE1000C4FE832784FED98F2326F4FE8327C4FD36
:10AE20000327C4FED8C785A08327C4FD9C4B2326D7
:10AE3000F4FE0347B4FDBA878607BA971D47B317D8
:10AE4000F7002324F4FE832784FE93C7F7FF03272C
:10AE5000C4FEF98F2326F4FE834694FD0347B4FD18
:10AE6000BA878607BA97B397F6002324F4FE032720
:10AE7000C4FE832784FED98F2326F4FE8327C4FDD6
:10AE80000327C4FE98CB0347A4FD994763E6E70672
:10AE90008327C4FDDC5B2326F4FE8347A4FD1387D0
:10AEA000F7FFBA878A07BA977D47B317F7002324BD
:10AEB000F4FE832784FE93C7F7FF0327C4FEF98FB0
:10AEC0002326F4FE8346B4FD8347A4FD1387F7FFD2
:10AED000BA878A07BA97B397F6002324F4FE0327AC
:10AEE000C4FE832784FED98F2326F4FE8327C4FD66
:10AEF0000327C4FED8DBE9A80347A4FDB14763E6F6
:10AF0000E7068327C4FD9C5B2326F4FE8347A4FD4C
:10AF1000138797FFBA878A07BA977D47B317F70059
:10AF20002324F4FE832784FE93C7F7FF0327C4FE80
:10AF3000F98F2326F4FE8346B4FD8347A4FD1387CF
:10AF400097FFBA878A07BA97B397F6002324F4FECF
:10AF50000327C4FE832784FED98F2326F4FE83278C
:10AF6000C4FD0327C4FE98DBA5A08327C4FDDC57DE
:10AF70002326F4FE8347A4FD138737FFBA878A0789
:10AF8000BA977D47B317F7002324F4FE832784FE86
:10AF900093C7F7FF0327C4FEF98F2326F4FE8346E9
:10AFA000B4FD8347A4FD138737FFBA878A07BA9792
:10AFB000B397F6002324F4FE0327C4FE832784FE00
:10AFC000D98F2326F4FE8327C4FD0327C4FED8D7D8
:10AFD0000100325445618280797122D60018232EF7
:10AFE000A4FCAE87A30DF4FC232604FE8327C4FD36
:10AFF00098438347B4FDF98F89C785472326F4FE1C
:10B0000019A0232604FE8327C4FE3E8532544561E1
:10B010008280011122CE00102326A4FE2324B4FE38
:10B02000832784FE99CB8327C4FED843B707000447
:10B030005D8F8327C4FED8C319A88327C4FED843D5
:10B04000B70700FCFD177D8F8327C4FED8C301001E
:10B05000724405618280797122D60018232EA4FCE7
:10B06000232604FEB7070140938707402326F4FEFA
:10B070008327C4FDDC4763800712B707014093872D
:10B08000074094438327C4FD9C4313C7F7FFB707CA
:10B09000014093870740758F98C3B7070140938796
:10B0A0000740D4438327C4FD9C4313C7F7FFB7076A
:10B0B000014093870740758FD8C38327C4FDDC43C5
:10B0C0000327C4FEBA972326F4FE8327C4FE9443C5
:10B0D0008327C4FD98438327C4FE558F98C3B707C1
:10B0E00001409387074094478327C4FD9C4313C7BF
:10B0F000F7FFB707014093870740758F98C7B707D9
:10B10000014093870740D4478327C4FD9C4313C75E
:10B11000F7FFB707014093870740758FD8C783278C
:10B12000C4FD9847C147631FF702B70701409387E3
:10B13000074094478327C4FD9843B707014093878E
:10B140000740558F98C7B707014093870740D447FA
:10B150008327C4FD9843B707014093870740558F65
:10B16000D8C7B1A8B7070140938707402326F4FE4C
:10B170008327C4FD9C470327C4FEBA972326F4FE09
:10B180008327C4FE94438327C4FD98438327C4FECA
:10B19000558F98C32DA08327C4FDDC430327C4FE2D
:10B1A000BA972326F4FE8327C4FE94438327C4FD65
:10B1B0009C4313C7F7FF8327C4FE758F98C3010014
:10B1C000325445618280797122D60018232EA4FC66
:10B1D000232604FE232404FEB7070140938707407B
:10B1E0009C430327C4FDF98F2324F4FEB7070140D5
:10B1F00093870740D84B8327C4FDF98F81CB8327E2
:10B2000084FE89C785472326F4FE19A0232604FE61
:10B210008327C4FE3E85325445618280011122CECF
:10B2200000102326A4FEB707014093870740032799
:10B23000C4FED8CB0100724405618280411122C650
:10B240000008B72702403707674513073712D8C3EE
:10B25000B72702403797EFCD1307B79AD8C301003D
:10B26000324441018280411122C60008B7270240C2
:10B27000984BB72702401367070898CB0100324468
:10B2800041018280797106D622D40018232EA4FCB5
:10B2900091472326F4FE37050B0051222326A4FEF6
:10B2A0000327C4FE91476313F704B7270240984B66
:10B2B000B72702401367270098CBB7270240032720
:10B2C000C4FDD8CBB7270240984BB727024013677D
:10B2D000070498CB37050B0099222326A4FEB72735
:10B2E0000240984BB7270240759B98CB8327C4FE3A
:10B2F0003E85B250225445618280797106D622D4AF
:10B300000018232EA4FC232CB4FC91472326F4FE22
:10B31000232404FE156521222326A4FE0327C4FE50
:10B320009147631CF706B7270240984BB7270240A6
:10B330001367170098CB8327C4FD032784FD4207BA
:10B3400041832390E7001565D9282326A4FE03270F
:10B35000C4FE9147631CF7028327C4FD8907232499
:10B36000F4FE832784FDC183032784FEC207C183C3
:10B370002310F700156565202326A4FEB727024099
:10B38000984BB7270240799B98CB01A8B72702407A
:10B39000984BB7270240799B98CB8327C4FE3E8504
:10B3A000B250225445618280011122CE0010232622
:10B3B000A4FEB72702400327C4FED8C70100724489
:10B3C00005618280011122CE001091472326F4FEF0
:10B3D000B7270240DC4713F7170085476316F700CD
:10B3E00085472326F4FE35A0B7270240DC47918B22
:10B3F00089C789472326F4FE29A8B7270240DC47DE
:10B40000C18B89C78D472326F4FE21A091472326AF
:10B41000F4FE8327C4FE3E85724405618280797103
:10B4200006D622D40018232EA4FC91472326F4FE2E
:10B43000EFF05FF92326A4FE11A8EFF0BFF8232652
:10B44000A4FE8327C4FDFD17232EF4FC0327C4FEAE
:10B4500085476315F7008327C4FDE5F38327C4FD03
:10B4600081E795472326F4FE8327C4FE3E85B2502C
:10B47000225445618280397122DE80002326A4FC9B
:10B480002324B4FC232604FE232004FE232404FEEC
:10B49000232E04FC232204FE232C04FC832784FC9B
:10B4A0009C47BD8B2326F4FE832784FC9C47C18BDD
:10B4B00089CB832784FCDC430327C4FED98F232652
:10B4C000F4FE832784FC83D7070093F7F70FF1CFAF
:10B4D0008327C4FC9C432322F4FE232404FE65A896
:10B4E000832784FE0547B317F700232EF4FC832738
:10B4F00084FC83D707003E878327C4FDF98F232070
:10B50000F4FE032704FE8327C4FD6311F708832795
:10B5100084FE8A07232EF4FC8327C4FD3D47B3171E
:10B52000F700232CF4FC832784FD93C7F7FF032740
:10B5300044FEF98F2322F4FE8327C4FD0327C4FEB3
:10B54000B317F700032744FED98F2322F4FE832785
:10B5500084FC984793078002631BF700832784FECF
:10B5600005473317F7008327C4FCD8CB05A08327F2
:10B5700084FC984793078004631AF700832784FEAE
:10B5800005473317F7008327C4FC98CB832784FE35
:10B5900085072324F4FE032784FE9D47E3F2E7F4A6
:10B5A0008327C4FC032744FE98C3832784FC03D766
:10B5B00007009307F00F63F1E70E8327C4FCDC4319
:10B5C0002322F4FE232404FE75A8832784FEA1070A
:10B5D0000547B317F700232EF4FC832784FC83D799
:10B5E00007003E878327C4FDF98F2320F4FE03273D
:10B5F00004FE8327C4FD6312F708832784FE8A07AD
:10B60000232EF4FC8327C4FD3D47B317F700232CFA
:10B61000F4FC832784FD93C7F7FF032744FEF98FCB
:10B620002322F4FE8327C4FD0327C4FEB317F700CB
:10B63000032744FED98F2322F4FE832784FC9847F6
:10B6400093078002631BF700832784FEA107054749
:10B650003317F7008327C4FCD8CB832784FC984793
:10B6600093078004631BF700832784FEA107054727
:10B670003317F7008327C4FC98CB832784FE850704
:10B680002324F4FE032784FE9D47E3F0E7F4832799
:10B69000C4FC032744FED8C3010072542161828098
:10B6A000011122CE00102326A4FEAE872322C4FE61
:10B6B0002315F4FE832744FE99C70357A4FE83276E
:10B6C000C4FE98CB31A00357A4FE8327C4FED8CB79
:10B6D0000100724405618280797122D60018232E00
:10B6E000A4FC232CB4FC232404FE232204FE2326E2
:10B6F00004FE232004FE8327C4FD63D80700B70798
:10B700000140DC4F2326F4FE31A0B7070140DC43A3
:10B710002326F4FE8327C4FDC183BD8B2320F4FEC2
:10B720000327C4FDC167FD17F98F2324F4FE832787
:10B73000C4FD63D407080327C4FDB70730007D8F1D
:10B74000B70730006314F702832704FEC1070D47D3
:10B75000B317F7002322F4FE832744FE93C7F7FFB5
:10B760000327C4FEF98F2326F4FEC5A80327C4FDD2
:10B77000B7071000F98F95C3832704FE0D47B31751
:10B78000F7002322F4FE832744FE93C7F7FF032725
:10B79000C4FEF98F2326F4FEC9A08327C4FDD583F8
:10B7A0009207032784FEB317F70093C7F7FF032719
:10B7B000C4FEF98F2326F4FE4DA00327C4FDB7076E
:10B7C00030007D8FB70730006315F7020327C4FEF2
:10B7D000B70700F1FD17F98F2326F4FEB7070140E4
:10B7E000D443B7070140370700F17D17758FD8C3E1
:10B7F000ADA00327C4FDB7071000F98F8DCB8327B9
:10B8000004FE0D47B317F7002322F4FE832744FEFE
:10B8100093C7F7FF0327C4FEF98F2326F4FE0327FF
:10B82000C4FEB707000FD98F2326F4FE3DA083275F
:10B83000C4FDD5839207032784FEB317F70093C78F
:10B84000F7FF0327C4FEF98F2326F4FE0327C4FE67
:10B85000B707000FD98F2326F4FE832784FD91CFED
:10B860008327C4FDD5839207032784FEB317F7000F
:10B870000327C4FED98F2326F4FE8327C4FD63D893
:10B880000700B70701400327C4FED8CF31A0B70790
:10B8900001400327C4FED8C30100325445618280B1
:10B8A000797122D60018AA872E87A30FF4FCBA87D5
:10B8B000230FF4FC232604FE8347E4FD8D8B8A07C7
:10B8C0003D47B317F7002326F4FE370701408347AF
:10B8D000E4FD898393F7F70F8A07BA979847832780
:10B8E000C4FE93C7F7FFB70601400346E4FD098293
:10B8F0001376F60F7D8F93172600B69798C73707F4
:10B9000001408347E4FD898393F7F70F8A07BA97CD
:10B9100098478346F4FD8347E4FD8D8B8A07B397F0
:10B92000F600B70601400346E4FD09821376F60FE0
:10B930005D8F93172600B69798C701003254456172
:10B940008280797122D60018232EA4FC232604FEBF
:10B95000B7170240DC432326F4FE0327C4FED17749
:10B96000FD17F98F2326F4FE0327C4FE8327C4FDA9
:10B97000D98F2326F4FEB71702400327C4FED8C38D
:10B980000100325445618280397122DE8000232615
:10B99000A4FC232204FE232604FE232004FE232EDF
:10B9A00004FC232404FEB7170240DC43B18B23229E
:10B9B000F4FE032744FE91476303F702032744FE86
:10B9C000A1476306F702832744FE63990714832780
:10B9D000C4FC37177A001307072098C389AA832766
:10B9E000C4FC37177A001307072098C389A2B7173A
:10B9F0000240D843B7073C00F98F2326F4FEB7175F
:10BA00000240D843C167F98F2320F4FE8327C4FE88
:10BA1000C98389072326F4FEB7F7FF1F9387C770F2
:10BA200098439167F98F91EB0327C4FEC5476319CB
:10BA3000F704C9472326F4FEA1A00327C4FE8947C3
:10BA40006315F700C9472326F4FE0327C4FEBD474C
:10BA50006318F700B5472326F4FE85472324F4FE38
:10BA60000327C4FEC1476315F700BD472326F4FE34
:10BA70000327C4FEC5476315F700C1472326F4FE1C
:10BA8000832704FEA1E3B7470240938707809C43C6
:10BA9000C18B89CF0327C4FEB7177A00938707208D
:10BAA0003307F7028327C4FC98C399A80327C4FE71
:10BAB000B7173D00938707903307F7028327C4FC2D
:10BAC00098C33DA8B7170240D843B7070200F98FC3
:10BAD00089CF0327C4FEB7173D009387079033072C
:10BAE000F7028327C4FC98C321A80327C4FEB71715
:10BAF0007A00938707203307F7028327C4FC98C393
:10BB0000032784FE85476313F7028327C4FC9C4305
:10BB100013D717008327C4FC98C309A88327C4FC44
:10BB200037177A001307072098C311A00100B71731
:10BB30000240DC4393F7070F2322F4FE832744FEE1
:10BB400091832322F4FEB70700201387C7068327BB
:10BB500044FEBA9783C7070093F7F70F232EF4FC30
:10BB60008327C4FC98438327C4FD3357F7008327FA
:10BB7000C4FCD8C3B7170240DC4393F707702322F5
:10BB8000F4FE832744FEA1832322F4FEB70700209E
:10BB90001387C706832744FEBA9783C7070093F726
:10BBA000F70F232EF4FC8327C4FCD8438327C4FD5E
:10BBB0003357F7008327C4FC98C7B7170240D84310
:10BBC000916793870780F98F2322F4FE832744FE31
:10BBD000AD832322F4FEB70700201387C70683270F
:10BBE00044FEBA9783C7070093F7F70F232EF4FCA0
:10BBF0008327C4FCD8438327C4FD3357F70083272A
:10BC0000C4FCD8C7B7170240D843B167F98F2322C5
:10BC1000F4FE832744FEB9832322F4FE1387418474
:10BC2000832744FEBA9783C7070093F7F70F232EA5
:10BC3000F4FC8327C4FCD8478327C4FD3357F7029D
:10BC40008327C4FC98CB01007254216182800111CA
:10BC500022CE00102326A4FE2324B4FE832784FED4
:10BC600099CBB7170240D44BB71702400327C4FE45
:10BC7000558FD8CB21A8B7170240D44B8327C4FED9
:10BC800013C7F7FFB7170240758FD8CB0100724476
:10BC900005618280011122CE00102326A4FE2324F8
:10BCA000B4FE832784FE99CBB7170240944FB71791
:10BCB00002400327C4FE558F98CF21A8B717024032
:10BCC000944F8327C4FE13C7F7FFB7170240758F41
:10BCD00098CF0100724405618280011122CE0010CC
:10BCE0002326A4FE2324B4FE832784FE99CBB71712
:10BCF0000240D44FB71702400327C4FE558FD8CF58
:10BD000021A8B7170240D44F8327C4FE13C7F7FFFB
:10BD1000B7170240758FD8CF010072440561828049
:10BD2000011122CE00102326A4FE2324B4FE832773
:10BD300084FE99CBB7170240D447B71702400327B8
:10BD4000C4FE558FD8C721A8B7170240D447832710
:10BD5000C4FE13C7F7FFB7170240758FD8C701009D
:10BD6000724405618280011122CE00102326A4FEB8
:10BD70002324B4FE832784FE99CBB7170240944B4B
:10BD8000B71702400327C4FE558F98CB21A8B717D9
:10BD90000240944B8327C4FE13C7F7FFB717024036
:10BDA000758F98CB0100724405618280011106CE27
:10BDB00022CC00102326A4FE0327C4FEB73701407F
:10BDC000631BF70085450565EFF09FF58145056527
:10BDD000EFF01FF591A00327C4FEB74700409387FB
:10BDE0000780631BF70085451165EFF0DFF781459C
:10BDF0001165EFF05FF70DA00327C4FEB7470040C1
:10BE0000938707C0631AF70085452165EFF0BFF5FA
:10BE100081452165EFF03FF50100F2406244056184
:10BE20008280797122D60018232EA4FC232CB4FC26
:10BE3000231704FE8327C4FD83D707002317F4FECE
:10BE40000357E4FE8D6793870704F98F2317F4FEE9
:10BE5000832784FD03D70700832784FD83D727002A
:10BE6000D98F139707014183832784FD83D7470028
:10BE7000D98F139707014183832784FD83D76700F8
:10BE8000D98F139707014183832784FD83D78700C8
:10BE9000D98F139707014183832784FD83D7A70098
:10BEA000D98F139707014183832784FD83D7C70068
:10BEB000D98F139707014183832784FD83D7E70038
:10BEC000D98F1397070141838357E4FED98F231736
:10BED000F4FE8327C4FD0357E4FE2390E700832785
:10BEE000C4FD83D7C701139707014183FD7793876B
:10BEF000F77FF98F1397070141838327C4FD239EA2
:10BF0000E700832784FD03D707018327C4FD239817
:10BF1000E7000100325445618280011122CE0010F9
:10BF20002326A4FE2324B4FE832784FE8DC3832707
:10BF3000C4FE83D70700C207C18393E707041397A2
:10BF4000070141838327C4FE2390E70005A08327D0
:10BF5000C4FE83D70700C207C18393F7F7FB13978B
:10BF6000070141838327C4FE2390E7000100724448
:10BF700005618280797122D60018232EA4FC232C1F
:10BF8000B4FC231704FE8327C4FD83D707002317BF
:10BF9000F4FE0327C4FDB7370140938707C063064B
:10BFA000F7060327C4FDB70700406300F706032721
:10BFB000C4FDB7070040938707406308F7040327D1
:10BFC000C4FDB7170040938707806300F704032779
:10BFD000C4FDB7170040938707C06308F702032723
:10BFE000C4FDB7370140938707406300F70203277A
:10BFF000C4FDB7570140938707C06308F7000327C4
:10C00000C4FDB75701406311F7028357E4FE93F76D
:10C01000F7F82317F4FE832784FD03D727008357FF
:10C02000E4FED98F2317F4FE0327C4FDB7170040A1
:10C030006309F7020327C4FDB71700409387074041
:10C040006301F7028357E4FE93F7F7CF2317F4FE5B
:10C05000832784FD03D767008357E4FED98F231716
:10C06000F4FE8327C4FD0357E4FE2390E7008327F3
:10C0700084FD03D747008327C4FD2396E702832767
:10C0800084FD03D707008327C4FD2394E702032719
:10C09000C4FDB7370140938707C06308F702032741
:10C0A000C4FDB7370140938707406300F7020327B9
:10C0B000C4FDB7570140938707C06308F700032703
:10C0C000C4FDB7570140631DF700832784FD83C774
:10C0D00087001397070141838327C4FD2398E70254
:10C0E0008327C4FD0547239AE700010032544561C8
:10C0F0008280797122D60018232EA4FC232CB4FC54
:10C10000231504FE231704FE231604FE8327C4FD13
:10C1100083D70702C207C183F99B139707014183A5
:10C120008327C4FD2390E7028327C4FD83D707023A
:10C130002317F4FE8327C4FD83D747002316F4FE9C
:10C140008327C4FD83D787012315F4FE8357A4FEFC
:10C1500093F7F7F82315F4FE8357A4FEF19B2315FC
:10C16000F4FE832784FD03D707008357A4FED98FED
:10C170002315F4FE8357E4FEF59B2317F4FE832773
:10C1800084FD03D787008357E4FED98F2317F4FE7D
:10C19000832784FD03D727008357E4FED98F231715
:10C1A000F4FE0327C4FDB7370140938707C0630837
:10C1B000F7020327C4FDB7370140938707406300A8
:10C1C000F7020327C4FDB7570140938707C06308F0
:10C1D000F7000327C4FDB7570140631CF7068357D8
:10C1E000E4FEDD9B2317F4FE832784FD03D7A7001D
:10C1F0008357E4FED98F2317F4FE8357E4FEED9BAB
:10C200002317F4FE832784FD03D747008357E4FEFA
:10C21000D98F2317F4FE8357C4FE93F7F7EF231645
:10C22000F4FE8357C4FE93F7F7DF2316F4FE83274B
:10C2300084FD03D7C7008357C4FED98F2316F4FEAD
:10C24000832784FD03D7E7008357C4FED98F2316C5
:10C25000F4FE8327C4FD0357C4FE2392E70083271F
:10C26000C4FD0357A4FE239CE700832784FD03D766
:10C2700067008327C4FD239AE7028327C4FD035781
:10C28000E4FE2390E7020100325445618280797117
:10C2900022D60018232EA4FC232CB4FC231504FE64
:10C2A000231704FE231604FE8327C4FD83D7070249
:10C2B000C207C183BD9B1397070141838327C4FD38
:10C2C0002390E7028327C4FD83D707022317F4FED8
:10C2D0008327C4FD83D747002316F4FE8327C4FDBC
:10C2E00083D787012315F4FE0357A4FEE577FD17D6
:10C2F000F98F2315F4FE8357A4FE93F7F7CF231588
:10C30000F4FE832784FD83D70700A2071397070154
:10C3100041838357A4FED98F2315F4FE8357E4FE8F
:10C3200093F7F7FD2317F4FE832784FD83D7870057
:10C3300092071397070141838357E4FED98F231790
:10C34000F4FE832784FD83D7270092071397070104
:10C3500041838357E4FED98F2317F4FE0327C4FDDE
:10C36000B7370140938707C06308F7020327C4FD6E
:10C37000B7370140938707406300F7020327C4FDE6
:10C38000B7570140938707C06308F7000327C4FD30
:10C39000B75701406310F70A8357E4FE93F7F7F7A6
:10C3A0002317F4FE832784FD83D7A70092071397F2
:10C3B000070141838357E4FED98F2317F4FE835787
:10C3C000E4FE93F7F7FB2317F4FE832784FD83D75E
:10C3D000470092071397070141838357E4FED98FE3
:10C3E0002317F4FE8357C4FE93F7F7BF2316F4FE1A
:10C3F0000357C4FEFD779387F77FF98F2316F4FE6A
:10C40000832784FD83D7C7008A07139707014183D9
:10C410008357C4FED98F2316F4FE832784FD83D768
:10C42000E7008A071397070141838357C4FED98F1A
:10C430002316F4FE8327C4FD0357C4FE2392E700AE
:10C440008327C4FD0357A4FE239CE700832784FDB4
:10C4500003D767008327C4FD239CE7028327C4FD1D
:10C460000357E4FE2390E7020100325445618280C5
:10C47000797122D60018232EA4FC232CB4FC23159A
:10C4800004FE231704FE231604FE8327C4FD83D76E
:10C490000702C207C18393F7F7EF139707014183A0
:10C4A0008327C4FD2390E7028327C4FD83D70702B7
:10C4B0002317F4FE8327C4FD83D747002316F4FE19
:10C4C0008327C4FD83D7C7012315F4FE8357A4FE39
:10C4D00093F7F7F82315F4FE8357A4FEF19B231579
:10C4E000F4FE832784FD03D707008357A4FED98F6A
:10C4F0002315F4FE8357E4FE93F7F7DF2317F4FECA
:10C50000832784FD83D78700A20713970701418300
:10C510008357E4FED98F2317F4FE832784FD83D746
:10C520002700A2071397070141838357E4FED98FA1
:10C530002317F4FE0327C4FDB7370140938707C0D4
:10C540006308F7020327C4FDB7370140938707400C
:10C550006300F7020327C4FDB7570140938707C064
:10C560006308F7000327C4FDB75701406312F70AB9
:10C570000357E4FEFD779387F77FF98F2317F4FEC7
:10C58000832784FD83D7A700A20713970701418360
:10C590008357E4FED98F2317F4FE8357E4FE93F705
:10C5A000F7BF2317F4FE832784FD83D74700A20734
:10C5B0001397070141838357E4FED98F2317F4FEB5
:10C5C0000357C4FEFD77FD17F98F2316F4FE0357BA
:10C5D000C4FEF977FD17F98F2316F4FE832784FD37
:10C5E00083D7C70092071397070141838357C4FE7F
:10C5F000D98F2316F4FE832784FD83D7E7009207A3
:10C600001397070141838357C4FED98F2316F4FE85
:10C610008327C4FD0357C4FE2392E7008327C4FD8C
:10C620000357A4FE239EE700832784FD03D76700FA
:10C630008327C4FD239EE7028327C4FD0357E4FE3E
:10C640002390E7020100325445618280797122D63D
:10C650000018232EA4FC232CB4FC231604FE23155F
:10C6600004FE231704FE8327C4FD83D70702139714
:10C6700007014183FD77FD17F98F13970701418368
:10C680008327C4FD2390E7028327C4FD83D70702D5
:10C690002315F4FE8327C4FD83D747002317F4FE38
:10C6A0008327C4FD83D7C7012316F4FE0357C4FEB6
:10C6B000E577FD17F98F2316F4FE8357C4FE93F731
:10C6C000F7CF2316F4FE832784FD83D70700A20744
:10C6D0001397070141838357C4FED98F2316F4FEB5
:10C6E0000357A4FEF977FD17F98F2315F4FE83276E
:10C6F00084FD83D78700B2071397070141838357CF
:10C70000A4FED98F2315F4FE832784FD83D7270049
:10C71000B2071397070141838357A4FED98F2315CE
:10C72000F4FE0327C4FDB7370140938707C06308B1
:10C73000F7020327C4FDB737014093870740630022
:10C74000F7020327C4FDB7570140938707C063086A
:10C75000F7000327C4FDB75701406316F7020357DC
:10C76000E4FEF177FD17F98F2317F4FE832784FD8C
:10C7700083D7C7009A071397070141838357E4FEC5
:10C78000D98F2317F4FE8327C4FD0357E4FE2392B9
:10C79000E7008327C4FD0357C4FE239EE7008327D9
:10C7A00084FD03D767008327C4FD2390E704832714
:10C7B000C4FD0357A4FE2390E702010032544561F3
:10C7C0008280011122CE00102326A4FE8327C4FEFE
:10C7D0007D572392E7008327C4FE23900700832719
:10C7E000C4FE239307008327C4FE239107008327F9
:10C7F000C4FE238407000100724405618280011198
:10C8000022CE00102326A4FE2324B4FE832784FE18
:10C810008DC38327C4FE83D70700C207C18393E774
:10C8200017001397070141838327C4FE2390E70075
:10C8300039A88327C4FE83D70700C207C183F99BA9
:10C840001397070141838327C4FE2390E70001006B
:10C85000724405618280011122CE00102326A4FEBD
:10C860002324B4FE832784FE95C38327C4FE83D785
:10C870004704139707014183E177D98F1397070185
:10C8800041838327C4FE2392E70415A08327C4FEB7
:10C8900083D74704139707014183A167FD17F98FD9
:10C8A0001397070141838327C4FE2392E704010005
:10C8B000724405618280011122CE00102326A4FE5D
:10C8C000AE872322C4FE2315F4FE832744FE9DC3B6
:10C8D0008327C4FE83D7C70013970701418383577B
:10C8E000A4FED98F1397070141838327C4FE2396A3
:10C8F000E70035A08327C4FE83D7C700139707013D
:10C9000041838357A4FE93C7F7FFC207C183F98F02
:10C910001397070141838327C4FE2396E700010094
:10C92000724405618280011106CE22CC00102326BC
:10C93000A4FEAE872315F4FE8357A4FEBE8503250F
:10C94000C4FE2D208327C4FE83D78700C207C1837E
:10C9500093E777001397070141838327C4FE23944D
:10C96000E7000100F240624405618280797122D6BD
:10C970000018232EA4FCAE87231DF4FC231704FE0D
:10C980008327C4FD83D787002317F4FE8357E4FE73
:10C9900093F7F7F82317F4FE0357E4FE8357A4FD3B
:10C9A000D98F2317F4FE8327C4FD0357E4FE239495
:10C9B000E7000100325445618280797122D6001867
:10C9C000232EA4FCAE87231DF4FC231704FE83272B
:10C9D000C4FD83D787012317F4FE8357E4FEDD9B54
:10C9E0002317F4FE0357E4FE8357A4FDD98F2317C2
:10C9F000F4FE8327C4FD0357E4FE239CE7000100F7
:10CA0000325445618280797122D60018232EA4FC0D
:10CA1000AE87231DF4FC231704FE8327C4FD83D7B0
:10CA200087012317F4FE0357E4FEFD779387F77F12
:10CA3000F98F2317F4FE8357A4FDA207139707016C
:10CA400041838357E4FED98F2317F4FE8327C4FD67
:10CA50000357E4FE239CE7000100325445618280C5
:10CA6000797122D60018232EA4FCAE87231DF4FC76
:10CA7000231704FE8327C4FD83D7C7012317F4FEC1
:10CA80008357E4FEDD9B2317F4FE0357E4FE835730
:10CA9000A4FDD98F2317F4FE8327C4FD0357E4FEBA
:10CAA000239EE7000100325445618280797122D6CD
:10CAB0000018232EA4FCAE87231DF4FC231704FECC
:10CAC0008327C4FD83D7C7012317F4FE0357E4FE71
:10CAD000FD779387F77FF98F2317F4FE8357A4FD23
:10CAE000A2071397070141838357E4FED98F2317C9
:10CAF000F4FE8327C4FD0357E4FE239EE7000100F4
:10CB0000325445618280797122D60018232EA4FC0C
:10CB1000AE87231DF4FC231704FE8327C4FD83D7AF
:10CB200087012317F4FE8357E4FEED9B2317F4FEE1
:10CB30000357E4FE8357A4FDD98F2317F4FE832700
:10CB4000C4FD0357E4FE239CE70001003254456115
:10CB50008280797122D60018232EA4FCAE87231D73
:10CB6000F4FC231704FE8327C4FD83D78701231712
:10CB7000F4FE8357E4FE93F7F7BF2317F4FE8357C1
:10CB8000A4FDA2071397070141838357E4FED98FC1
:10CB90002317F4FE8327C4FD0357E4FE239CE7001C
:10CBA0000100325445618280797122D60018232E0B
:10CBB000A4FCAE87231DF4FC231704FE8327C4FDC9
:10CBC00083D7C7012317F4FE8357E4FEED9B231799
:10CBD000F4FE0357E4FE8357A4FDD98F2317F4FE18
:10CBE0008327C4FD0357E4FE239EE700010032546F
:10CBF00045618280797122D60018232EA4FCAE876D
:10CC0000231DF4FC231704FE8327C4FD83D7C7012B
:10CC10002317F4FE8357E4FE93F7F7BF2317F4FEC0
:10CC20008357A4FDA2071397070141838357E4FEAE
:10CC3000D98F2317F4FE8327C4FD0357E4FE239EF8
:10CC4000E7000100325445618280797122D60018D4
:10CC5000232EA4FCAE87231DF4FC232604FE2315FB
:10CC600004FE231404FE8327C4FD83D70701139712
:10CC7000070141838357A4FDF98F2315F4FE832711
:10CC8000C4FD83D7C7001397070141838357A4FDD1
:10CC9000F98F2314F4FE8357A4FE81CB835784FEBF
:10CCA00089C785472326F4FE19A0232604FE83277F
:10CCB000C4FE3E85325445618280011122CE0010AF
:10CCC0002326A4FEAE872315F4FE8357A4FE93C744
:10CCD000F7FF1397070141838327C4FE2398E700DA
:10CCE00001007244056182805D7186C6A2C480081D
:10CCF000232EA4FA232CB4FA232604FE232404FEB4
:10CD0000232204FE232004FE232E04FC8327C4FBDD
:10CD1000232EF4FC8327C4FB83D70701C207C183FA
:10CD20002326F4FE0327C4FEB567FD17F98F2326DB
:10CD3000F4FE832784FB83D767003E878327C4FEE6
:10CD4000D98F2326F4FE8327C4FE1397070141835E
:10CD50008327C4FB2398E7008327C4FB83D7C7003E
:10CD6000C207C1832326F4FE0327C4FEBD67938751
:10CD7000379FF98F2326F4FE832784FB03D74700D0
:10CD8000832784FB83D78700D98F139707014183BB
:10CD9000832784FB83D7A700D98FC207C1833E872F
:10CDA0008327C4FED98F2326F4FE8327C4FE13975E
:10CDB000070141838327C4FB2396E7008327C4FB35
:10CDC00083D74701C207C1832326F4FE0327C4FE8D
:10CDD000C1679387F7CFF98F2326F4FE832784FB5F
:10CDE00083D7C7003E878327C4FED98F2326F4FE4E
:10CDF0008327C4FE1397070141838327C4FB239A2B
:10CE0000E700930784FC3E85EFE01FB80327C4FDCD
:10CE1000B7470140938707806317F700832744FDD6
:10CE20002324F4FE29A0832704FD2324F4FE832772
:10CE3000C4FB83D7C700C207C183C207C18763D2BF
:10CE40000702032784FEBA878607BA978E073E97A4
:10CE5000832784FB9C438607B357F7022322F4FE03
:10CE600005A0032784FEBA878607BA978E073E97E8
:10CE7000832784FB9C438A07B357F7022322F4FEDF
:10CE8000032744FE93074006B357F7029207232671
:10CE9000F4FE8327C4FE13D7470093074006B30769
:10CEA000F702032744FEB307F7402320F4FE83274D
:10CEB000C4FB83D7C700C207C183C207C18763D23F
:10CEC0000702832704FE8E07138727039307400674
:10CED000B357F7029D8B0327C4FED98F2326F4FE98
:10CEE00005A0832704FE92071387270393074006B4
:10CEF000B357F702BD8B0327C4FED98F2326F4FE58
:10CF00008327C4FE1397070141838327C4FB23941F
:10CF1000E7000100B640264461618280011122CE03
:10CF200000102326A4FE2324B4FE832784FE95C389
:10CF30008327C4FE83D7C7001397070141838967FE
:10CF4000D98F1397070141838327C4FE2396E700F7
:10CF500015A08327C4FE83D7C70013970701418319
:10CF6000F977FD17F98F1397070141838327C4FED3
:10CF70002396E7000100724405618280797122D610
:10CF80000018232EA4FCAE87232AC4FC231DF4FC26
:10CF9000232404FE232204FE232004FE232604FE71
:10CFA0008327C4FD2326F4FE8357A4FD93F7F70FD0
:10CFB000958393F7F70F2324F4FE8357A4FDFD8B8D
:10CFC0002322F4FE832744FE0547B317F7002320EE
:10CFD000F4FE032784FE85476318F7008327C4FE09
:10CFE000B1072326F4FE0DA0032784FE89476318AA
:10CFF000F7008327C4FEC1072326F4FE31A0832750
:10D00000C4FED1072326F4FE832744FD99CB832752
:10D01000C4FE94438327C4FE032704FE558F98C3A0
:10D0200021A88327C4FE9443832704FE13C7F7FF78
:10D030008327C4FE758F98C30100325445618280F6
:10D04000011122CE00102326A4FEAE872315F4FE84
:10D050008357A4FE93F7F71F139707014183832794
:10D06000C4FE2392E7000100724405618280797159
:10D0700022D60018232EA4FCAE87231DF4FC232601
:10D0800004FE8327C4FD83D707001397070141835C
:10D090008357A4FDF98FC207C18389C7854723261B
:10D0A000F4FE19A0232604FE8327C4FE3E853254D5
:10D0B00045618280797122D60018232EA4FCAE87A8
:10D0C000231DF4FC232204FE232604FE232004FE59
:10D0D000232404FE8357A4FD93F7F70F958393F75A
:10D0E000F70F2320F4FE8357A4FDFD8B2326F4FEC7
:10D0F0008327C4FE0547B317F7002326F4FE032752
:10D1000004FE8547631FF7008327C4FD83D7C7004C
:10D11000C207C1833E878327C4FEF98F2326F4FE0E
:10D120003DA8032704FE8947631FF7008327C4FD3A
:10D1300083D70701C207C1833E878327C4FEF98FC7
:10D140002326F4FE29A88327C4FD83D74701C207FD
:10D15000C1833E878327C4FEF98F2326F4FE8357BD
:10D16000A4FDA183C207C1832322F4FE832744FECA
:10D170000547B317F7002322F4FE8327C4FD83D7A6
:10D180000700C207C1833E87832744FEF98F23220D
:10D19000F4FE8327C4FE81CB832744FE89C78547DD
:10D1A0002324F4FE19A0232404FE832784FE3E8555
:10D1B000325445618280797122D60018232EA4FC56
:10D1C000AE87231DF4FC231704FE231604FE8357A9
:10D1D000A4FDA1832317F4FE8357E4FE0547B3178C
:10D1E000F7002316F4FE8357C4FE93C7F7FF139787
:10D1F000070141838327C4FD2390E70001003254D7
:10D2000045618280011122CE0010AA87A307F4FE97
:10D21000B70700500347F4FE42074183239AE70211
:10D22000B707005083C7670313F7F70FB70700501E
:10D23000719B1377F70F238BE7020100724405619E
:10D240008280011122CE0010AA87A307F4FEB7073F
:10D2500000500347F4FE42074183239CE702B707CF
:10D26000005083C7A70313F7F70FB7070050719B50
:10D270001377F70F238DE702010072440561828066
:10D28000797106D622D40018AA87A30FF4FCA3074D
:10D2900004FE15A803A781948347F4FEBA9703C739
:10D2A000070083A681948347F4FE93870704B6970B
:10D2B0001347F7FF1377F70F2380E7008347F4FE48
:10D2C0008507A307F4FE0347F4FE8347F4FDE363F9
:10D2D000F7FC8347F4FD3E85EFF0DFF20100B2502A
:10D2E000225445618280797106D622D40018AA871B
:10D2F000A30FF4FCA30704FE15A803A7C19483475A
:10D30000F4FEBA9703C7070083A6C1948347F4FECF
:10D3100093870704B6971347F7FF1377F70F238018
:10D32000E7008347F4FE8507A307F4FE0347F4FEF6
:10D330008347F4FDE363F7FC8347F4FD3E85EFF09C
:10D340005FF00100B250225445618280717106D7AE
:10D3500016D51AD31ED122CF2ACD2ECB32C936C72D
:10D360003AC53EC342C1C6DEF2DCF6DAFAD8FED6D2
:10D3700082EE86EC8AEA8EE892E696E49AE29EE0F5
:10D380002AFE2EFC32FA36F83AF63EF442F246F025
:10D3900072EE76EC7AEA7EE80019230F04F4B70700
:10D3A000005083C76700A30EF4F48347D4F5898B3C
:10D3B000E388073EB707005083C7770093F7F70F5E
:10D3C00093F707034147E382E73C41476346F70091
:10D3D000E38807226F00B03B13070002E380E706F3
:10D3E00013070003E395E73AB7070050194723896D
:10D3F000E702B70700501147A389E70283A74194CA
:10D4000003C7670083C77700A207D98F1397070167
:10D410004183239DE19483A7419403C71700238C84
:10D42000E19483A7419483C70700230EF4F4A30F6C
:10D4300004F4230F04F483A7419483C7070093F7F0
:10D440000706638B071283C7819593F7F70F93F74E
:10D450000702D5C383C7819593F7F70F130710020F
:10D46000638BE700130720026389E70813070002B4
:10D470006387E708ADA81387C18423A8E1949D477B
:10D48000A30FF4F483D7A1951397070141839D4718
:10D4900063E9E70083D7A195C207C18393F7F70F2C
:10D4A00011A0A147A30FF4F403A7419483A701950A
:10D4B0008346F4F53686BE853A85EFE0F01683D7CD
:10D4C000A1951397070141838347F4F5C207C183F0
:10D4D000B307F740139707014183239DE19403A706
:10D4E00001958347F4F53E9723A8E19411A8FD57D1
:10D4F000230FF4F431A0010021A0010011A00100CC
:10D500000347E4F59307F00F630DF7688347F4F5DD
:10D5100013970701418383D7A195C207C18363791C
:10D52000F7008347F4F5139707014183239DE194A6
:10D5300083D741951397070141839D4763E9E7002E
:10D5400083D74195C207C18393F7F70F11A0A14775
:10D55000A30FF4F483A701950347F4F53A86BE853B
:10D560001385C193EFE0500C03A701958347F4F5B1
:10D570003E9723A8E19435A583C7819593F7F70FCC
:10D580002D476365F76013972700B717020093874D
:10D5900087D3BA979C43828783A7419403C7270008
:10D5A00083C73700A207D98FC207C183A183C207EF
:10D5B000C18313072002636EF71213972700B71772
:10D5C0000200938787D6BA979C4382873717020059
:10D5D0001307C7C823A8E194C947A30FF4F431AADD
:10D5E00037170200130707CA23A8E19493073004F2
:10D5F000A30FF4F419A283A7419403C7270083C79C
:10D600003700A207D98FC207C18393F7F70F0547E9
:10D610006386E70205476344F70089CBB1A8094751
:10D620006388E7020D47638FE702B9A01387418C37
:10D6300023A8E1949147A30FF4F499A037170200AF
:10D64000130787CF23A8E194B947A30FF4F40DA8DB
:10D6500037170200130787D023A8E194B147A30F1F
:10D66000F4F439A837170200130747D123A8E1942F
:10D67000D947A30FF4F429A0FD57230FF4F40100B8
:10D68000ADA837170200130747CE23A8E194D1476E
:10D69000A30FF4F49DA0371702001307C7D223A8E5
:10D6A000E194A947A30FF4F489A883C7818493F771
:10D6B000F70F85EB13061004B7170200938527CAEE
:10D6C000B70700201385E707EFE000763707002053
:10D6D0001307C70723A8E19493073004A30FF4F4BA
:10D6E00029A8FD57230FF4F409A8FD57230FF4F4DC
:10D6F00029A0FD57230FF4F401008347F4F5139795
:10D700000701418383D7A195C207C1836379F700DD
:10D710008347F4F5139707014183239DE19483D751
:10D72000A1951397070141839D4763E9E70083D7DC
:10D73000A195C207C18393F7F70F11A0A147A30FCB
:10D74000F4F403A7419483A701958346F4F5368644
:10D75000BE853A85EFE0406D03A701958347F4F558
:10D760003E9723A8E19435A983A7419403C72700D6
:10D7700083C73700A207D98FC207C18393F7F70F7A
:10D78000139707014183239DE19421A983A7419425
:10D7900003C771951377F70F2380E70083D7A1950F
:10D7A000139707014183854763F6E73E0547239DAD
:10D7B000E194CDA683A7419403C7270083C7370010
:10D7C000A207D98FC207C18313F7F70FA38BE19488
:10D7D000C9AE83A7419483C7070013F7F7018947B0
:10D7E000631FF70C83A7419403C7470083C7570003
:10D7F000A207D98FC207C18393F7F70F0947638840
:10D80000E70409476346F70005476387E7085DA01B
:10D8100013071008638BE70413072008639CE708CD
:10D82000B707005083C7A70393F7F70FE207E18715
:10D83000E19BE207E18793E7270013978701618760
:10D84000B70700501377F70F238DE702ADA8B7078E
:10D85000005083C7B70313F7F70FB7070050619B5A
:10D860001377F70FA38DE702B9A8B707005083C756
:10D87000670393F7F70FE207E187E19BE207E18790
:10D8800093E72700139787016187B7070050137745
:10D89000F70F238BE70205A8B707005083C777036C
:10D8A00013F7F70FB7070050619B1377F70FA38BA0
:10D8B000E70211A8FD57230FF4F4010029A0FD573A
:10D8C000230FF4F4F9ACF1AC9387C19383C707003D
:10D8D000FD8BA1E39387C19303C7270083C737005C
:10D8E000A207D98F1397070141838547631FF7006C
:10D8F0009307000A93F7070289C70547238BE19432
:10D900004DA4FD57230FF4F469ACFD57230FF4F435
:10D9100049AC9387C19383C7070013F7F701894781
:10D92000631CF7109387C19303C7270083C7370091
:10D93000A207D98FC207C183E5EF9387C19303C7BD
:10D94000470083C75700A207D98FC207C18393F747
:10D95000F70F09476387E70409476346F700054760
:10D96000638DE708C9A0130710086382E706130751
:10D970002008639AE70AB707005083C7A70393F705
:10D98000F70F37070050F19B93F7F70F230DF702BE
:10D990003707005093E7370093F7F70F230DF7028F
:10D9A00045A0B707005083C7B70393F7F70F3707B2
:10D9B0000050F19B93F7F70FA30DF70237070050C4
:10D9C00093E7370093F7F70FA30DF70295A8B70772
:10D9D000005083C7670393F7F70F37070050F19B99
:10D9E00093F7F70F230BF7023707005093E7370041
:10D9F00093F7F70F230BF702A1A0B707005083C7D7
:10DA0000770393F7F70F37070050F19B93F7F70F62
:10DA1000A30BF7023707005093E7370093F7F70F90
:10DA2000A30BF70231A8FD57230FF4F4010009A856
:10DA3000FD57230FF4F4B5A2FD57230FF4F495A27C
:10DA40008DA283A741942380070083D7A1951397C4
:10DA500007014183854763F1E7140547239DE1945E
:10DA600025AA238E019283D74195139707014183FD
:10DA7000854763F5E7120547239AE19405A2238EB3
:10DA800001929387C193A38007009387C19303C733
:10DA9000470083C75700A207D98F13970701418317
:10DAA000930710086311F702B707005083C7670395
:10DAB00093F7F70F13F737008D47631DF70A0547F4
:10DAC000238EE19245A89387C19303C7470083C77C
:10DAD0005700A207D98F1397070141838547631128
:10DAE000F702B707005083C7770393F7F70F13F7D1
:10DAF00037008D476310F7080547238EE1929DA8F4
:10DB00009387C19303C7470083C75700A207D98FE4
:10DB1000139707014183930720086311F702B707A2
:10DB2000005083C7A70393F7F70F13F737008D470C
:10DB30006312F7040547238EE1922DA89387C193C2
:10DB400003C7470083C75700A207D98F1397070160
:10DB5000418389476310F702B707005083C7B703B3
:10DB600093F7F70F13F737008D476315F700054755
:10DB7000238EE19283D7419513970701418389470B
:10DB800063F0E7020947239AE19419A8FD57230F90
:10DB9000F4F401A8010031A0010021A0010011A0AE
:10DBA00001000347E4F59307F00F631DF700B70783
:10DBB00000501D472389E702B70700501D47A3897E
:10DBC000E702C9AE8307C4F563D5070483D7A195DF
:10DBD000139707014183A14763E9E70083D7A19524
:10DBE000C207C18393F7F70F11A0A147A30FF4F465
:10DBF00083D7A1951397070141838347F4F5C207A3
:10DC0000C183B307F740139707014183239DE19434
:10DC100019A0A30F04F4B70700500347F4F5420717
:10DC200041832398E702B707005011472389E70291
:10DC3000B70700501147A389E702A9AEB707005004
:10DC400083C7770093F7F70F93F7F70313071002D3
:10DC50006385E71213072002638DE71413070002A0
:10DC6000639EE71883C7819593F7F70F1547638085
:10DC7000E70A19476394E70E83D7A1951397070125
:10DC800041839D4763E9E70083D7A195C207C1831C
:10DC900093F7F70F11A0A147A30FF4F403A7419442
:10DCA00083A701958346F4F53686BE853A85EFE075
:10DCB000A01783D7A1951397070141838347F4F5F4
:10DCC000C207C183B307F740139707014183239D20
:10DCD000E19403A701958347F4F53E9723A8E194C7
:10DCE000B70700500347F4F5420741832398E70242
:10DCF000B707005083C7270313F7F70FB707005084
:10DD0000134747001377F70F2389E702B5A0B7073A
:10DD1000005083C7370093F7F70FE207E18793F7C7
:10DD200007F813978701618783D7A195C207C1833D
:10DD3000E207E187D98F139787016187B707005002
:10DD40001377F70FA381E700B7070050094723892E
:10DD5000E702B7070050A389070239A8B7070050A8
:10DD600023980702B707005009472389E702B7073E
:10DD70000050A3890702010059A0B707005083C7CC
:10DD8000670313F7F70FB7070050719B1377F70F6F
:10DD9000238BE702B707005083C7670313F7F70F1A
:10DDA000B7070050134747001377F70F238BE7029D
:10DDB000B9A0B707005083C7A70313F7F70FB7073A
:10DDC0000050134747001377F70F238DE702B7077B
:10DDD000005083C7A70393F7F70FE207E187F19B92
:10DDE000E207E18793E72700139787016187B70769
:10DDF00000501377F70F238DE70211A0010059AAF5
:10DE0000B707005083C7770093F7F70F93F7F7032F
:10DE10000547638EE70C09476380E712639B07168B
:10DE200083C7819593F7F70F3E8793070002631727
:10DE3000F70A83A7419483C7070085E383A741942A
:10DE400083C7170099EB83A7419483C7270091E705
:10DE500083A7419483C73700A1C383A7419483C795
:10DE600037001397870183A7419483C72700C20710
:10DE70005D8F83A7419483C71700A207D98F03A79B
:10DE8000419403470700D98FBE85B7070200138569
:10DE900087C2EFE0302491A083A7419483C7670035
:10DEA000BE85B7070200138587C3EFE0B02283A7C2
:10DEB000419483C74700BE85B7070200138587C416
:10DEC000EFE0502183A7419483C75700BE85B70771
:10DED0000200138587C5EFE0F01F0100B70700506F
:10DEE00083D78700C207C183A30FF4F471A8B707D3
:10DEF000005083C7770093F7F70F93F70704D1C358
:10DF0000B707005083C7770313F7F70FB707005021
:10DF1000134747001377F70FA38BE702B7070050AB
:10DF200083D78700C207C183A30FF4F48347F4F5B6
:10DF30003E85EFF0EFB4B1A0B707005083C777007C
:10DF400093F7F70F93F707049DCFB707005083C7E8
:10DF5000B70313F7F70FB7070050134747001377BE
:10DF6000F70FA38DE702B707005083D78700C207DA
:10DF7000C183A30FF4F48347F4F53E85EFF0AFB609
:10DF800019A0010039A0010029A0010021A0010071
:10DF900011A00100B707005009472383E70079A0CB
:10DFA0008347D4F5858BB9CFB7070050A38107000D
:10DFB000B7070050A3890702B7070050A38B0702D9
:10DFC000B7070050A38D0702B70700500947238900
:10DFD000E702B70700500947238BE702B707005055
:10DFE0000947238DE702B707005083C7670013F77F
:10DFF000F70FB7070050136717001377F70F238346
:10E00000E7002DA08347D4F5918B99CBB70700503B
:10E0100083C75700B707005011472383E70039A093
:10E02000B70700500347D4F52383E7000100BA5037
:10E03000AA521A538A537A446A45DA454A46BA467E
:10E040002A479A470A48F658665ED65E465FB65F2C
:10E050007660E6605661C6613662A66216638663C4
:10E060007275E2755276C2763277A277127882782C
:10E07000726EE26E526FC26F4D61730020300111FB
:10E0800006CE22CC0010232604FE232604FE69A817
:10E090008567138527C4EF202FA1AA87BE86B747BF
:10E0A00000200327C4FE0607938787D3BA972390DF
:10E0B000D7008567138557F4EF200F9FAA87BE8688
:10E0C000B74700200327C4FE15070607938787D3A9
:10E0D000BA972390D7008567138537D4EF20CF9C5C
:10E0E000AA87BE86B74700200327C4FE2907060774
:10E0F000938787D3BA972390D7008567138547E422
:10E10000EF208F9AAA87BE86B74700200327C4FE58
:10E110003D070607938787D3BA972390D7008327B5
:10E12000C4FE85072326F4FE0327C4FE9147E3D1EE
:10E13000E7F60100F240624405618280011106CEDB
:10E1400022CC0010232604FE232404FE232004FEF8
:10E15000232204FE232604FEB5A8B7460020032789
:10E16000C4FEBA878A07BA978607138786D3BA97F9
:10E1700083D707001397070141838326C4FE8606D1
:10E1800093874196B6972390E700B7460020032770
:10E19000C4FEBA878A07BA978607138786D3BA97C9
:10E1A00083D707001397070141838326C4FE8606A1
:10E1B0009387C196B6972390E7000327C4FE06070E
:10E1C0009387C195BA97239007008327C4FE8507DC
:10E1D0002326F4FE0327C4FE8D47E3D0E7F8232669
:10E1E00004FEC1AA232404FE81AAB7460020032707
:10E1F000C4FEBA878A07BA97032784FEBA97139793
:10E200001700938786D3BA9783D707001397070120
:10E2100041838326C4FE86069387C195B69783D72C
:10E220000700C207C183BA9713970701418383266A
:10E23000C4FE86069387C195B6972390E70003270F
:10E24000C4FE060793874196BA9783D70700939633
:10E250000701C182374600200327C4FEBA878A0718
:10E26000BA97032784FEBA9713971700930786D3AC
:10E27000BA9783D70700C207C18363FEF602B74689
:10E2800000200327C4FEBA878A07BA97032784FEB3
:10E29000BA9713971700938786D3BA9783D7070047
:10E2A0001397070141838326C4FE86069387419610
:10E2B000B6972390E7000327C4FE06079387C1960D
:10E2C000BA9783D7070093960701C182374600208B
:10E2D0000327C4FEBA878A07BA97032784FEBA9732
:10E2E00013971700930786D3BA9783D70700C207FF
:10E2F000C18363FED702B74600200327C4FEBA8756
:10E300008A07BA97032784FEBA9713971700938753
:10E3100086D3BA9783D707001397070141838326D3
:10E32000C4FE86069387C196B6972390E70083279D
:10E3300084FE85072324F4FE032784FE9147E3D659
:10E34000E7EA0327C4FE06079387C195BA9783D7E8
:10E350000700C207C183BE860327C4FE0607938752
:10E360004196BA9783D70700C207C183B387F640A7
:10E370008326C4FE86061387C19636970357070087
:10E3800042074183998F53F707D0B707020087A749
:10E3900007C7D377F718B74700200327C4FE0A073B
:10E3A000938707D6BA979CE38327C4FE8507232665
:10E3B000F4FE0327C4FE8D47E3D6E7E2232604FEDE
:10E3C000A1A0B74700200327C4FE0A07938707D6FA
:10E3D000BA979863B707020087A747C75377F7181C
:10E3E000B707020087A787C7D377F710B747002082
:10E3F0000327C4FE0A07938707D7BA979CE38327AE
:10E40000C4FE85072326F4FE0327C4FE8D47E3DA06
:10E41000E7FAB747002007A707D7B7470020938739
:10E4200007D7DC635377F700B7470020938707D7F8
:10E430009C675377F700B7470020938707D7DC67BF
:10E44000D377F7005385F720EFD0C055AA872E88E1
:10E450002320F4FE232204FF83C7D19C93F7F70FF8
:10E46000C9E783C7E19C93F7F70FC1E3B707020041
:10E4700003A607C883A647C8032504FE832544FED8
:10E48000EFC0400CAA8763DA070283C7B19C13F779
:10E49000F70F85476313F70283A7019813871700C7
:10E4A00023A0E19803A70198A54763D0E70423A020
:10E4B00001980947A386E19C0DA803A741989307FB
:10E4C000B00363D4E702B707020003A607C883A618
:10E4D00047C8032504FE832544FEEFC0A006AA8793
:10E4E0006345F0000947A386E19CB747002007A7D2
:10E4F00007D7B7470020938707D7DC67D377F700A4
:10E5000027AAF196B747002007A707D7B7470020EB
:10E51000938707D7DC67D377F70827ACF19607A76F
:10E520004197B707020087A787C8D397E7A091E371
:10E5300039A807A7819787A741975377F718B70797
:10E54000020087A787C7D377F71027AEF19601009F
:10E55000F240624405618280197186DEA2DCCADA6B
:10E56000CED8D2D6D6D4000113010181FD7713078E
:10E5700004FEBA9723AEA77A2E87B286FD771306DC
:10E5800004FEB297239DE77AFD77130704FEBA973E
:10E590003687239CE77AFD77130704FEBA9703D7E3
:10E5A000A77BFD77930604FEB69783D7877BB307D7
:10E5B000F70213D7F7410D8BBA9789872320F4FC14
:10E5C000232A04FCFD77130704FEBA9783A7C77BB1
:10E5D000232EF4FA232E04FC05A88327C4FD8A0702
:10E5E000130704FEBA9723A207BCFD77130704FEA6
:10E5F0003E978327C4FD8A07BA9723A2077C832707
:10E60000C4FD8507232EF4FC0327C4FD9307F00FF8
:10E61000E3D5E7FC232804FC232E04FC6DA0232C67
:10E6200004FC59A0FD77130704FEBA9703D7A77B14
:10E630008327C4FD3307F702832784FDBA973E87FB
:10E640008327C4FBBA9783C707003E879317270029
:10E65000930604FEB69783A747BC938617009317CB
:10E660002700130704FEBA9723A2D7BCFD77130730
:10E6700004FEBA9703D7A77B8327C4FD3307F702AD
:10E68000832784FDBA973E878327C4FBBA9783C745
:10E6900007003E87832704FDBA972328F4FC8327CD
:10E6A00084FD8907232CF4FCFD77130704FEBA9739
:10E6B00083D7A77B032784FDE346F7F68327C4FDB2
:10E6C0008907232EF4FCFD77130704FEBA9783D73E
:10E6D000877B0327C4FDE344F7F4232E04FC81A0C9
:10E6E0008327C4FD8A07130704FEBA9783A747BC94
:10E6F00053F707D0832704FCD3F707D0D377F71855
:10E70000FD77130704FE3E978327C4FD8A07BA9757
:10E7100027A2F77C8327C4FD8507232EF4FC03275B
:10E72000C4FD9307F00FE3DDE7FA232204FC232C5A
:10E7300004FA872784FB272AF4FA872744FB272833
:10E74000F4FA872704FB2726F4FA8727C4FA27243C
:10E75000F4FA872784FA2724F4FC872784FC2722ED
:10E76000F4FA872744FA2726F4FC232C04FC61AA38
:10E77000FD77130704FE3E97832784FD8A07BA9727
:10E7800087A7477C0727C4FCD377F7002726F4FC2C
:10E79000832784FD53F707D0FD77130704FE3E97C8
:10E7A000832784FD8A07BA9787A7477CD377F7101A
:10E7B000072784FCD377F7002724F4FCB70702006F
:10E7C00007A707C98727C4FCD377F7082722F4FADD
:10E7D000832704FC032704FDB357F70253F717D030
:10E7E000872784FCD377F7082724F4FA072784FCCB
:10E7F0008727C4FCD377F7182726F4FA072784FA6B
:10E80000872744FAD377F7182728F4FA072784FCD8
:10E81000872784FAD377F700272AF4FA0725C4FC60
:10E82000EFD040182A89AE890727C4FA872744FB0E
:10E83000D377F7085385F720EFD0C016B70702004B
:10E8400003A8C7C983A787C93E86C286EF90A003E5
:10E85000AA872E883E86C2864A85CE85EFB0F059BB
:10E86000AA872E883E89C289072544FAEFD08013F3
:10E870002A8AAE8A072704FB872744FBD377F70849
:10E880005385F720EFD00012B707020003A8C7C9CD
:10E8900083A787C93E86C286EF80F07EAA872E882E
:10E8A0003E86C2865285D685EFB03055AA872E881F
:10E8B0003E86C2864A85CE85EFA07014AA872E8830
:10E8C0003E85C285EFD0801CD307A520272CF4FA03
:10E8D000072784FB872744FCD397E7A089CB8727AA
:10E8E00084FB2722F4FC832784FD232AF4FC0727DA
:10E8F00084FB872744FCD317F7A089EF832784FD87
:10E900008507232CF4FC032784FD9307F00FE3D144
:10E91000E7E611A00100032744FD9307F00F63D63B
:10E92000E7009307F00F232AF4FC832744FD63D408
:10E930000700232A04FC832744FD3E851301017F41
:10E94000F65066545659C659365AA65A09618280FD
:10E95000797122D60018232EA4FC231704FE59A88F
:10E96000231604FEADA80356E4FE8357C4FE3717F2
:10E9700000209306400BB306D6021307C7BE369796
:10E98000BA9783C707003E878327C4FD6344F70215
:10E990000356E4FE8357C4FE374700209306400B1E
:10E9A000B306D602130707D83697BA977D57238048
:10E9B000E7000DA00356E4FE8357C4FE374700204E
:10E9C0009306400BB306D602130707D83697BA97BB
:10E9D000238007008357C4FE85072316F4FE0357E0
:10E9E000C4FE9307300BE3F0E7F88357E4FE850796
:10E9F0002317F4FE0357E4FE93075004E3F2E7F60F
:10EA00000100325445618280797122D60018D147C5
:10EA10002322F4FE9307000A2320F4FE232E04FC95
:10EA2000232C04FC23AE01989387C19923A20700ED
:10EA300023A2019A9387419A23A2070023AA01984F
:10EA400023A8019823A4019823A6019823AC019838
:10EA5000232604FEB9A8B77700200327C4FE0A07BF
:10EA60009387875EBA9723A00700B7770020032714
:10EA7000C4FE0A079387074DBA9723A00700B7770C
:10EA800000200327C4FE0A07938787EBBA9723A0C9
:10EA90000700B77700200327C4FE0A07938707FD06
:10EAA000BA971307300B98C38327C4FE8507232624
:10EAB000F4FE0327C4FE93075004E3DEE7F82326A1
:10EAC00004FE05A0B77700200327C4FE0A0793873A
:10EAD0000720BA9723A007008327C4FE85072326B3
:10EAE000F4FE0327C4FE9307300BE3DDE7FC03A726
:10EAF00041A485476310F70203A7C1A38D47631C98
:10EB0000F702930780022322F4FE9307000A2320D2
:10EB1000F4FE15A003A701A48547631EF70003A711
:10EB2000C1A38D476319F700D1472322F4FE930751
:10EB3000C0082320F4FE832744FE2324F4FE9DA86E
:10EB4000930750042326F4FE99A8B7470020832694
:10EB5000C4FE1307400B3387E602938707D83E971E
:10EB6000832784FEBA9783C707009DCFB77700201D
:10EB7000032784FE0A0793870720BA979C431387CD
:10EB80001700B7770020832684FE8A069387072024
:10EB9000B69798C38327C4FEFD172326F4FE832768
:10EBA000C4FEE3D407FA11A00100832784FE850781
:10EBB0002324F4FE032784FE832704FEE3D2E7F830
:10EBC00023AE0198832744FE2326F4FE99A003A7D1
:10EBD000C199B77700208326C4FE8A069387072051
:10EBE000B6979C436352F702B77700200327C4FE11
:10EBF0000A0793870720BA97984323AEE198938733
:10EC0000C1990327C4FED8C38327C4FE85072326E2
:10EC1000F4FE0327C4FE832704FEE3DAE7FA23A207
:10EC2000019A832704FE2326F4FE99A003A7419AA4
:10EC3000B77700208326C4FE8A0693870720B697FD
:10EC40009C436352F702B77700200327C4FE0A07EC
:10EC500093870720BA97984323A2E19A9387419A12
:10EC60000327C4FED8C38327C4FEFD172326F4FE62
:10EC70000327C4FE832744FEE35AF7FA03A7C1998A
:10EC800023A2E198930750042326F4FEE5A293877C
:10EC9000419ADC432324F4FED1A0B7470020832609
:10ECA000C4FE1307400B3387E602938707D83E97CD
:10ECB000832784FEBA9703C707009307F00F6315F5
:10ECC000F706832784FE8507374700200326C4FE06
:10ECD0009306400BB306D602130707D83697BA97A8
:10ECE00083C70700B1E3832784FE890737470020E5
:10ECF0000326C4FE9306400BB306D602130707D8BB
:10ED00003697BA9783C7070085E3832784FE232CB1
:10ED1000F4FCB77700200327C4FE0A079387875EB9
:10ED2000BA9723A0070089A0032784FE9307000B4E
:10ED300063D1E702832784FE232CF4FCB7770020FD
:10ED40000327C4FE0A079387875EBA97054798C3CF
:10ED500021A8832784FE85072324F4FE032784FE4D
:10ED60009307100BE3DBE7F29387C199DC4323247D
:10ED7000F4FEC9A0B74700208326C4FE1307400B4A
:10ED80003387E602938707D83E97832784FEBA9796
:10ED900003C707009307F00F6315F706832784FE68
:10EDA000FD17374700200326C4FE9306400BB30629
:10EDB000D602130707D83697BA9783C70700B1E37F
:10EDC000832784FEF917374700200326C4FE9306E5
:10EDD000400BB306D602130707D83697BA9783C7F6
:10EDE000070085E3832784FE232EF4FCB7770020F9
:10EDF0000327C4FE0A079387074DBA9723A007008D
:10EE00003DA8032784FE894763C1E702832784FE68
:10EE1000232EF4FCB77700200327C4FE0A0793874C
:10EE2000074DBA97054798C319A8832784FEFD1795
:10EE30002324F4FE032784FE8547E3CDE7F2B7776A
:10EE400000200327C4FE0A07938787EBBA9703279E
:10EE5000C4FD98C3B77700200327C4FE0A07938731
:10EE600007FDBA97032784FD98C38327C4FEFD17C7
:10EE70002326F4FE83A7419813076004B307F740E5
:10EE80000327C4FEE355F7E0930750042326F4FE5E
:10EE900011AAB77700200327C4FE0A079387074DFE
:10EEA000BA97984385476318F70083A7019913879A
:10EEB000170023A8E198B77700200327C4FE0A07AC
:10EEC0009387875EBA97984385476318F70083A7AF
:10EED00041991387170023AAE198B77700200327E9
:10EEE000C4FE0A079387074DBA9798438547631472
:10EEF000F702B77700200327C4FE0A079387875ECF
:10EF0000BA97984385476318F70083A781991387B9
:10EF1000170023ACE19883A781988DE3B777002091
:10EF20000327C4FE0A079387074DBA97984385477E
:10EF30006306F7000327C4FE23A4E19883A7C198C2
:10EF40008DE3B77700200327C4FE0A079387875E07
:10EF5000BA97984385476306F7000327C4FE23A6A4
:10EF6000E198B77700200327C4FE0A07938707FDBF
:10EF7000BA979843B77700208326C4FE8A06938702
:10EF800087EBB6979C431D8FB77700208326C4FE7E
:10EF90008A069387870EB69798C38327C4FEFD170A
:10EFA0002326F4FE8327C4FEE3D507EE03A7C1A3FF
:10EFB0008D476307F70003A7C1A39147631EF706B8
:10EFC00003A741A48547631CF70293075004232637
:10EFD000F4FE0DA0B77700200327C4FE0A0793872D
:10EFE00007FDBA971307300B98C38327C4FEFD179C
:10EFF0002326F4FE8327C4FEE3DE07FC35A803A71F
:10F0000001A48547631AF702930750042326F4FEF0
:10F0100005A0B77700200327C4FE0A07938787EB74
:10F02000BA9723A007008327C4FEFD172326F4FE0A
:10F030008327C4FEE3DF07FC010032544561828070
:10F04000011122CE0010930750042317F4FE65A887
:10F050000316E4FE0317E4FEB77700200A07938740
:10F0600087EBBA979C438507374700209306400BF0
:10F07000B306D602130707D83697BA97238007003E
:10F080000316E4FE0317E4FEB77700200A07938710
:10F0900087EBBA9798438316E4FEB77700208A0679
:10F0A000938707FDB6979C43BA978587374700201B
:10F0B0009306400BB306D602130707D83697BA97C4
:10F0C000238007000316E4FE0317E4FEB777002051
:10F0D0000A07938707FDBA979C43FD17374700201F
:10F0E0009306400BB306D602130707D83697BA9794
:10F0F000238007008317E4FEC207C183FD17C20700
:10F10000C1832317F4FE0317E4FE83A741989306F7
:10F110006004B387F640E35DF7F2010072440561D5
:10F120008280397122DE80002326A4FC2324B4FCD3
:10F130002322C4FC2320D4FC0327C4FC9307200B08
:10F1400063D7E7009307300B2326F4FC39A083270D
:10F15000C4FC6344F000232604FC032784FC9307CB
:10F16000400463D7E700930750042324F4FC39A03C
:10F17000832784FC6344F000232404FC032744FC1D
:10F180009307200B63D7E7009307300B2322F4FC8F
:10F1900039A0832744FC6344F000232204FC0327A6
:10F1A00004FC9307400463D7E7009307500423202F
:10F1B000F4FC39A0832704FC6344F000232004FC02
:10F1C000832784FC2324F4FE832704FC2322F4FEFB
:10F1D000032784FE832744FE63DEE700832784FE43
:10F1E000232EF4FC832744FE2324F4FE8327C4FD4E
:10F1F0002322F4FE832784FE2326F4FEA5A80327FA
:10F20000C4FE832784FC1D8F832644FC8327C4FC13
:10F21000B387F6403307F702832604FC832784FC78
:10F22000B387F640B347F7020327C4FCBA972320FD
:10F23000F4FE032704FE9307300B63D7E700930720
:10F24000400B2320F4FE39A0832704FE6344F00022
:10F25000232004FEB77700200327C4FE0A07938704
:10F2600087EBBA97032704FE98C38327C4FE85075C
:10F270002326F4FE0327C4FE832744FEE3D1E7F8E8
:10F280000100725421618280397122DE80002326C0
:10F29000A4FC2324B4FC2322C4FC2320D4FC032795
:10F2A000C4FC9307200B63D7E7009307300B23269A
:10F2B000F4FC39A08327C4FC6344F000232604FC3B
:10F2C000032784FC9307400463D7E70093075004A7
:10F2D0002324F4FC39A0832784FC6344F000232416
:10F2E00004FC032744FC9307200B63D7E700930734
:10F2F000300B2322F4FC39A0832744FC6344F00044
:10F30000232204FC032704FC9307400463D7E7008F
:10F31000930750042320F4FC39A0832704FC6344A2
:10F32000F000232004FC832784FC2324F4FE83279D
:10F3300004FC2322F4FE032784FE832744FE63DEBD
:10F34000E700832784FE232EF4FC832744FE232436
:10F35000F4FE8327C4FD2322F4FE832784FE2326A4
:10F36000F4FEA5A80327C4FE832784FC1D8F8326F3
:10F3700044FC8327C4FCB387F6403307F702832697
:10F3800004FC832784FCB387F640B347F7020327C6
:10F39000C4FCBA972320F4FE032704FE9307300B26
:10F3A00063D7E7009307400B2320F4FE39A083279F
:10F3B00004FE6344F000232004FEB77700200327F7
:10F3C000C4FE0A07938707FDBA97032704FE98C374
:10F3D0008327C4FE85072326F4FE0327C4FE832764
:10F3E00044FEE3D1E7F80100725421618280797113
:10F3F00022D60018232EA4FC232CB4FC23AE019AA1
:10F4000023AA019A0327C4FD832784FD635EF700C6
:10F410008327C4FD2324F4FE832784FD232EF4FCDC
:10F42000832784FE232CF4FC0327C4FD9307F003F9
:10F4300063D6E70093070004232EF4FC83A74198CA
:10F4400013076004B307F740032784FD63CAE7008E
:10F4500083A7419813076004B307F740232CF4FCFB
:10F46000032784FD954763C5E7009547232CF4FCEB
:10F470008327C4FD2326F4FED1A483A7419B63996F
:10F480000714B77700200327C4FE0A07938787EB8A
:10F49000BA9798438327C4FE93861700B777002056
:10F4A0008A06938787EBB6979C43B307F74013D739
:10F4B000F741B98F998F1547634CF7108327C4FE26
:10F4C00013871700B77700200A07938787EBBA974F
:10F4D00098438327C4FE93862700B77700208A06C7
:10F4E000938787EBB6979C43B307F74013D7F74151
:10F4F000B98F998F1547634DF70C8327C4FE138787
:10F500002700B77700200A07938787EBBA979843BD
:10F510008327C4FE93863700B77700208A06938737
:10F5200087EBB6979C43B307F74013D7F741B98FE2
:10F53000998F1547634EF708B77700200327C4FE5D
:10F540000A07938787EBBA9798438327C4FE93866D
:10F55000E7FFB77700208A06938787EBB6979C432F
:10F560001D8F9D4763D6E706B77700200327C4FEAB
:10F570000A07938787EBBA9798438327C4FE93863D
:10F58000D7FFB77700208A06938787EBB6979C430F
:10F590001D8FB94763DEE702B77700200327C4FE5B
:10F5A0000A07938787EBBA9798438327C4FE93860D
:10F5B000C7FFB77700208A06938787EBB6979C43EF
:10F5C0001D8FB94763D6E7000327C4FE23AAE19A3B
:10F5D00083A7C19B63990714B77700200327C4FE54
:10F5E0000A07938707FDBA9798438327C4FE93863B
:10F5F0001700B77700208A06938707FDB6979C43CC
:10F60000B307F74013D7F741B98F998F1547634C6C
:10F61000F7108327C4FE13871700B77700200A0767
:10F62000938707FDBA9798438327C4FE93862700E4
:10F63000B77700208A06938707FDB6979C43B307E8
:10F64000F74013D7F741B98F998F1547634DF70CE2
:10F650008327C4FE13872700B77700200A07938704
:10F6600007FDBA9798438327C4FE93863700B77780
:10F6700000208A06938707FDB6979C43B307F7409F
:10F6800013D7F741B98F998F1547634EF708B777AE
:10F6900000200327C4FE0A07938707FDBA97984303
:10F6A0008327C4FE9386E7FFB77700208A069387F7
:10F6B00007FDB6979C431D8FE5576356F706B7774E
:10F6C00000200327C4FE0A07938707FDBA979843D3
:10F6D0008327C4FE9386D7FFB77700208A069387D7
:10F6E00007FDB6979C431D8FC957635EF702B77736
:10F6F00000200327C4FE0A07938707FDBA979843A3
:10F700008327C4FE9386C7FFB77700208A069387B6
:10F7100007FDB6979C431D8FC9576356F700032713
:10F72000C4FE23AEE19A83A7419B81C783A7C19BF7
:10F7300089EF8327C4FEFD172326F4FE0327C4FEAA
:10F74000832784FDE35BF7D211A00100010032544E
:10F7500045618280797122D60018232EA4FC232CC7
:10F76000B4FC23AC019A23A0019C0327C4FD83278A
:10F7700084FD635EF7008327C4FD2324F4FE832702
:10F7800084FD232EF4FC832784FE232CF4FC83A722
:10F79000419813076004B307F740032784FD63CA49
:10F7A000E70083A7419813076004B307F740232CB1
:10F7B000F4FC032784FD954763C5E7009547232C98
:10F7C000F4FC0327C4FD9307F00363D6E700930717
:10F7D0000004232EF4FC8327C4FD2326F4FED1A4C9
:10F7E00083A7819B63990714B77700200327C4FE82
:10F7F0000A07938787EBBA9798438327C4FE9386BB
:10F80000F7FFB77700208A06938787EBB6979C436C
:10F81000B307F74013D7F741B98F998F1547634C5A
:10F82000F7108327C4FE1387F7FFB77700200A0776
:10F83000938787EBBA9798438327C4FE9386E7FFA5
:10F84000B77700208A06938787EBB6979C43B30768
:10F85000F74013D7F741B98F998F1547634DF70CD0
:10F860008327C4FE1387E7FFB77700200A07938733
:10F8700087EBBA9798438327C4FE9386D7FFB77761
:10F8800000208A06938787EBB6979C43B307F7401F
:10F8900013D7F741B98F998F1547634EF708B7779C
:10F8A00000200327C4FE0A07938787EBBA97984383
:10F8B0008327C4FE93862700B77700208A069387A4
:10F8C00087EBB6979C431D8F9D4763D6E706B777B6
:10F8D00000200327C4FE0A07938787EBBA97984353
:10F8E0008327C4FE93863700B77700208A06938764
:10F8F00087EBB6979C431D8FB94763DEE702B77766
:10F9000000200327C4FE0A07938787EBBA97984322
:10F910008327C4FE93864700B77700208A06938723
:10F9200087EBB6979C431D8FB94763D6E700032743
:10F93000C4FE23ACE19A83A7019C63990714B777AF
:10F9400000200327C4FE0A07938707FDBA97984350
:10F950008327C4FE9386F7FFB77700208A06938734
:10F9600007FDB6979C43B307F74013D7F741B98F0C
:10F97000998F1547634CF7108327C4FE1387F7FF51
:10F98000B77700200A07938707FDBA979843832724
:10F99000C4FE9386E7FFB77700208A06938707FDAA
:10F9A000B6979C43B307F74013D7F741B98F998FA8
:10F9B0001547634DF70C8327C4FE1387E7FFB7771E
:10F9C00000200A07938707FDBA9798438327C4FE50
:10F9D0009386D7FFB77700208A06938707FDB697EF
:10F9E0009C43B307F74013D7F741B98F998F154759
:10F9F000634EF708B77700200327C4FE0A079387F2
:10FA000007FDBA9798438327C4FE93862700B777EC
:10FA100000208A06938707FDB6979C431D8FE55704
:10FA20006356F706B77700200327C4FE0A079387BB
:10FA300007FDBA9798438327C4FE93863700B777AC
:10FA400000208A06938707FDB6979C431D8FC957F0
:10FA5000635EF702B77700200327C4FE0A07938787
:10FA600007FDBA9798438327C4FE93864700B7776C
:10FA700000208A06938707FDB6979C431D8FC957C0
:10FA80006356F7000327C4FE23A0E19C83A7819B54
:10FA900081C783A7019C89EF8327C4FEFD17232616
:10FAA000F4FE0327C4FE832784FDE35BF7D211A095
:10FAB000010003A7019C83A7819BB307F74013D7DD
:10FAC000F741B98F998F75476356F70023A0019CC2
:10FAD00023AC019A0100325445618280011106CEA7
:10FAE00022CC0010232604FE23A8019A83A7C1A3D9
:10FAF0006396071E83A7C19A6392071E23AC019ADF
:10FB000023A0019C03A78199A54763DEE7008145F7
:10FB100013055004EFF01FC483A7819B89E783A7D7
:10FB2000019C638A071A83A7819B6383071A83A7B3
:10FB3000019C638F0718054723A8E19A03A7819BBF
:10FB400083A7019C63D5E70083A7819B19A083A7A6
:10FB5000019C2326F4FE8327C4FE8907BE85130576
:10FB60001004EFF0DF8803A7419B83A7819B63C448
:10FB7000E70023AA019A03A7C19B83A7019C63C442
:10FB8000E70023AE019A83A7419BADCB83A7C19B1E
:10FB9000B5C703A7819BB77700200A07938787EB38
:10FBA000BA97884383A5819B03A7419BB777002021
:10FBB0000A07938787EBBA97984383A7419BBE8632
:10FBC0003A86EFF00FD603A7019CB77700200A070B
:10FBD000938707FDBA97884383A5019C03A7C19B20
:10FBE000B77700200A07938707FDBA97984383A742
:10FBF000C19BBE863A86EFF02FE9D1A883A7419B2F
:10FC0000B9E783A7C19BA1C783A7819BFD17930574
:10FC100050043E85EF00F03003A7019CB777002029
:10FC20000A07938707FDBA97884383A5019C03A71A
:10FC3000C19BB77700200A07938707FDBA979843BF
:10FC400083A7C19BBE863A86EFF00FE449A083A745
:10FC5000419BB9C783A7C19BA1E703A7819BB77746
:10FC600000200A07938787EBBA97884383A5819B77
:10FC700003A7419BB77700200A07938787EBBA97C2
:10FC8000984383A7419BBE863A86EFF08FC983A72E
:10FC9000019CFD17930550043E85EF00104505A813
:10FCA00083A7419B9DEB83A7C19B85EB83A7819B8A
:10FCB000FD17930550043E85EF00B02683A7019CF5
:10FCC000FD17930550043E85EF00304239A031A066
:10FCD00023A8019A21A0010011A00100F240624472
:10FCE00005618280011106CE22CC001083C7E19C01
:10FCF00093F7F70F6392075083C7D19C93F7F70FE1
:10FD0000639C074E83A7C19A6398074E232604FE7F
:10FD1000A30504FE230504FEA30404FE9305C0030B
:10FD200013055004EF305028AA87A304F4FE93056E
:10FD3000C00313055004EF30B035AA872305F4FE45
:10FD4000834794FE89CF8347A4FE91CB03A74198B4
:10FD5000A94763C6E7000547A385E19C79A903A7E6
:10FD600041989307D00263C0E7129387C199D843A3
:10FD70009387419ADC431D8FC9576346F7109387D9
:10FD8000C199D8439387419ADC431D8FB94763CC0F
:10FD9000E70E83A74198130770041D8FB7770020E3
:10FDA0000A079387870EBA979843F94763CDE70C04
:10FDB00083A74198130780041D8FB77700200A0797
:10FDC0009387870EBA979843F94763CEE70A83A7CC
:10FDD0004198130780041D8FB7170200938747DFF0
:10FDE000BA9783C70700BE8683A74198130780048C
:10FDF0001D8FB77700200A079387870EBA979C4319
:10FE00003387F640A94763D0E70883A741981307D3
:10FE100070041D8FB7170200938747DFBA9783C717
:10FE20000700BE8683A74198130770041D8FB7771C
:10FE300000200A079387870EBA979C433387F640C2
:10FE4000A94763D2E70403A7819883A701993E9746
:10FE5000930750046319F70203A7C19883A7419938
:10FE60003E97930750046310F70203A70199A54733
:10FE700063CBE70003A74199A94763C6E70005479D
:10FE8000A385E19C9DAE930750042326F4FEB1A602
:10FE9000B74700208326C4FE1307400B3387E602D2
:10FEA000938707D8BA9783C7470063930732B7474A
:10FEB00000208326C4FE1307400B3387E602938796
:10FEC00007D8BA9783C7570063940730B747002015
:10FED0008326C4FE1307400B3387E602938707D8B7
:10FEE000BA9783C7A7006395072EB74700208326DC
:10FEF000C4FE1307400B3387E602938707D8BA97EF
:10FF000083C7F7006396072CB74700208326C4FEFB
:10FF10001307400B3387E602938707D8BA9783C746
:10FF200047016397072AB74700208326C4FE1307BB
:10FF3000400B3387E602938707D8BA9783C79701A8
:10FF400063980728B74700208326C4FE1307400B99
:10FF50003387E602938707D8BA9783C70704639964
:10FF60000726B74700208326C4FE1307400B3387BC
:10FF7000E602938707D8BA9783C71704639A0724C2
:10FF8000B74700208326C4FE1307400B3387E602E1
:10FF9000938707D8BA9783C72704639B0722B7477D
:10FFA00000208326C4FE1307400B3387E6029387A5
:10FFB00007D8BA9783C73704639C0720B747002048
:10FFC0008326C4FE1307400B3387E602938707D8C6
:10FFD000BA9783C74704639D071EB747002083264F
:10FFE000C4FE1307400B3387E602938707D8BA97FE
:10FFF00083C75704639E071CB74700208326C4FEAF
:020000021000EC
:100000001307400B3387E602938707D8BA9783C755
:100010006704639F071AB74700208326C4FE1307AF
:10002000400B3387E602938707D8BA9783C7B70494
:100030006390071AB74700208326C4FE1307400BBE
:100040003387E602938707D8BA9783C7270463915B
:100050000718B74700208326C4FE1307400B3387D9
:10006000E602938707D8BA9783C7370463920716C7
:10007000B74700208326C4FE1307400B3387E602F0
:10008000938707D8BA9783C7070563930714B747C1
:1000900000208326C4FE1307400B3387E6029387B4
:1000A00007D8BA9783C7A70563940712B7470020FC
:1000B0008326C4FE1307400B3387E602938707D8D5
:1000C000BA9783C7470663950710B7470020832672
:1000D000C4FE1307400B3387E602938707D8BA970D
:1000E00083C7E706F5E7B74700208326C4FE13075A
:1000F000400B3387E602938707D8BA9783C7370741
:10010000E1EBB74700208326C4FE1307400B33877B
:10011000E602938707D8BA9783C78707D5EBB74717
:1001200000208326C4FE1307400B3387E602938723
:1001300007D8BA9783C7D707C1EFB74700208326F0
:10014000C4FE1307400B3387E602938707D8BA979C
:1001500083C72708B5EFB74700208326C4FE1307DF
:10016000400B3387E602938707D8BA9783C777088F
:10017000A5E3B74700208326C4FE1307400B33874F
:10018000E602938707D8BA9783C78708B1E3B747D2
:1001900000208326C4FE1307400B3387E6029387B3
:1001A00007D8BA9783C7970885E7B7470020832603
:1001B000C4FE1307400B3387E602938707D8BA972C
:1001C00083C7A70891E78347B4FE8507A305F4FE1C
:1001D0008327C4FEFD172326F4FE0327C4FE9307DE
:1001E000B003E3C7E7CA0347B4FE914763F7E700EC
:1001F0000547A385E19C11A00100F240624405611E
:100200008280011106CE22CC0010232604FE232476
:1002100004FE83A7019B639B070C83A7C1A3F9E797
:1002200083C7E19C93F7F70FF1E303A74198930786
:10023000100463D2E706930750042326F4FE91A02E
:10024000B77700200327C4FE0A079387870EBA9763
:100250009C4337170200930647DF0327C4FE3697F7
:10026000034707003387E740A94763D7E7008327A1
:1002700084FE85072324F4FE8327C4FEFD1723266E
:10028000F4FE83A7419813076004B307F7400327E0
:10029000C4FEE3C7E7FA032784FEA54763D9E70254
:1002A000EF400FC503D701819307301F63E1E702D9
:1002B00083A7C19A89E7054723A6E19A09A803A75E
:1002C000C19A8D476315F700114723A6E19A83A7CA
:1002D000C19A99C785451305D004EF007FF401A8A2
:1002E00081451305D004EF00BFF311A00100F240D7
:1002F000624405618280797122D60018232604FEAB
:10030000232404FE232204FE232004FE232E04FCC7
:10031000232C04FC83A7019B639F071E83A7C19A1C
:100320006357F00003A7C19A8D4763D6E71E83A7E2
:10033000419C6392071E83C7D19C93F7F70F639C80
:10034000071C83C7019D93F7F70F6396071C83C7AC
:10035000E19C93F7F70F6390071C03A7419893075D
:10036000B00363DEE70A9387C199D843F54763D8A2
:10037000E70A9387C199D8439307600963C1E70AE5
:100380009387419AD843F54763DBE7089387419AFF
:10039000D8439307600963C4E70803A781989307CC
:1003A000600363DEE70603A7C1989307600363D881
:1003B000E706930710042326F4FEA9A8B717020046
:1003C000138747DF8327C4FEBA9783C70700BE861B
:1003D000B77700200327C4FE0A079387870EBA97D2
:1003E0009C433387F640A94763D1E702832784FD06
:1003F0008507232CF4FC032784FD914763D7E7008E
:100400008327C4FE2320F4FE19A88327C4FEFD170A
:100410002326F4FE0327C4FECD47E3C1E7FA832772
:1004200004FEEDC3832704FEA1072320F4FE8327E7
:1004300004FEC517232EF4FC032704FE9307400493
:1004400063D6E700930750042320F4FE8327C4FDFE
:100450006344F000232E04FC832704FE2326F4FECD
:1004600061A8B77700200327C4FE0A07938787EBAC
:10047000BA979C432324F4FEB1A8832784FE850702
:10048000374700200326C4FE9306400BB306D6026E
:10049000130707D83697BA9703C70700B747002056
:1004A0000326C4FE9306400BB306D602938707D8F3
:1004B000BE96832784FEB69783C707006307F700BD
:1004C000832744FE85072322F4FE832784FE8507C5
:1004D0002324F4FEB77700200327C4FE0A0793877E
:1004E00007FDBA979C43032784FEE3D8E7F88327E8
:1004F000C4FEFD172326F4FE0327C4FE8327C4FD94
:10050000E351F7F6032744FEF94763D7E7000547B1
:1005100023A2E19C11A00100325445618280411167
:1005200022C6000883C7E19C93F7F70F6397071E65
:1005300083A7C19A6393071E03A741989307D0022C
:1005400063CCE71403A781989307B00363D6E7143D
:1005500003A7C1989307B00363D0E71403A70199D9
:10056000A94763CBE71203A74199A94763C6E712DE
:1005700003A7819883A701993E9793075004631DB1
:10058000F71003A7C19883A741993E97930750049A
:100590006314F71083A74198130770041D8FB77772
:1005A00000200A07938787EBBA979843A54763D53E
:1005B000E70E83A74198130770041D8FB7770020BB
:1005C0000A07938707FDBA9798439307A00A63C564
:1005D000E70C83A74198130780041D8FB77700208D
:1005E0000A07938787EBBA979843A54763D6E70A2C
:1005F00083A74198130780041D8FB77700200A074F
:10060000938707FDBA9798439307A00A63C6E70844
:1006100083A74198130790041D8FB77700200A071E
:10062000938787EBBA979843A54763D7E70683A7D5
:100630004198130790041D8FB77700200A0793870E
:1006400007FDBA9798439307A00A63C7E70483A7F7
:1006500041981307A0041D8FB77700200A079387DE
:1006600087EBBA979843A54763D8E70283A74198D9
:100670001307A0041D8FB77700200A07938707FD93
:10068000BA9798439307A00A63C8E7000547A38772
:10069000E19C05472388E19C83C7019D93F7F70FF1
:1006A0008DE383C7F19C91EF83C7B19C13F7F70FDC
:1006B00085476318F7000547A387E19C0547238812
:1006C000E19C03C7F19C8547631AF70403A741988F
:1006D0009307100363D4E70403A781989307C0032B
:1006E00063C8E70003A7C1989307C00363D8E70274
:1006F0009387C199D8439307B00463D1E7029387E6
:10070000C199D8439307800663CAE700A387019C79
:100710002388019CA385019C11A001003244410162
:100720008280797106D622D40018232EA4FC232CB3
:10073000B4FC232404FE0327C4FD9307400463D7BD
:10074000E70093075004232EF4FC39A08327C4FD4F
:100750006344F000232E04FC032784FD9307400428
:1007600063D7E70093075004232CF4FC39A08327B8
:1007700084FD6344F000232C04FC032784FD8327BD
:10078000C4FD635EF700832784FD2322F4FE8327E4
:10079000C4FD232CF4FC832744FE232EF4FC032702
:1007A000C4FD954763CCE702B77700200327C4FD5B
:1007B0000A07938787EBBA978843B7770020032708
:1007C00084FD0A07938787EBBA979C43832684FDB1
:1007D0003E868325C4FDEFE0DF9419A2B7770020A1
:1007E0000327C4FD0A07938787EBBA9798438327AB
:1007F000C4FD9386C7FFB77700208A06938787EBEF
:10080000B6979C43B307F74053F707D0B7070200EA
:1008100087A747CAD377F7182724F4FE8327C4FD98
:100820002326F4FE45A80327C4FE8327C4FDB3078F
:10083000F74053F707D0872784FE5377F710B77731
:1008400000200327C4FD0A07938787EBBA979C43D0
:10085000D3F707D0D377F700539707C0B7770020B7
:100860008326C4FE8A06938787EBB69798C3B7772B
:1008700000200327C4FE0A07938787EBBA979843A3
:100880009307200B63DEE700B77700200327C4FE41
:100890000A07938787EBBA971307300B98C335A0E5
:1008A000B77700200327C4FE0A07938787EBBA9720
:1008B0009C43634CF000B77700200327C4FE0A076F
:1008C000938787EBBA9723A007008327C4FE850789
:1008D0002326F4FE0327C4FE832784FDE3D5E7F433
:1008E0000100B250225445618280797106D622D42B
:1008F0000018232EA4FC232CB4FC232404FE03277D
:10090000C4FD9307400463D7E70093075004232EE8
:10091000F4FC39A08327C4FD6344F000232E04FCBB
:10092000032784FD9307400463D7E700930750042F
:10093000232CF4FC39A0832784FD6344F000232C8E
:1009400004FC032784FD8327C4FD635EF70083272F
:1009500084FD2322F4FE8327C4FD232CF4FC83278B
:1009600044FE232EF4FC0327C4FD954763CCE70225
:10097000B77700200327C4FD0A07938707FDBA97BE
:100980008843B7770020032784FD0A07938707FD74
:10099000BA979C43832684FD3E868325C4FDEFE001
:1009A000BF8E19A2B77700200327C4FD0A079387DB
:1009B00007FDBA9798438327C4FD9386C7FFB7778F
:1009C00000208A06938707FDB6979C43B307F7403C
:1009D00053F707D0B707020087A747CAD377F7189E
:1009E0002724F4FE8327C4FD2326F4FE45A803270D
:1009F000C4FE8327C4FDB307F74053F707D087270A
:100A000084FE5377F710B77700200327C4FD0A0749
:100A1000938707FDBA979C43D3F707D0D377F700A6
:100A2000539707C0B77700208326C4FE8A069387B2
:100A300007FDB69798C3B77700200327C4FE0A07BF
:100A4000938707FDBA9798439307200B63DEE7006F
:100A5000B77700200327C4FE0A07938707FDBA97DC
:100A60001307300B98C335A0B77700200327C4FEC7
:100A70000A07938707FDBA979C43634CF000B7774A
:100A800000200327C4FE0A07938707FDBA9723A017
:100A900007008327C4FE85072326F4FE0327C4FE30
:100AA000832784FDE3D5E7F40100B2502254456169
:100AB0008280397122DE80002326A4FC2324B4FC2A
:100AC0002322C4FC2320D4FC232004FE232E04FC78
:100AD0000327C4FC9307200B63D7E7009307300B71
:100AE0002326F4FC39A08327C4FC6344F0002326AA
:100AF00004FC032784FC9307400463D7E7009307B3
:100B000050042324F4FC39A0832784FC6344F000C0
:100B1000232404FC032744FC9307200B63D7E7003E
:100B20009307300B2322F4FC39A0832744FC634451
:100B3000F000232204FC032704FC9307400463D73E
:100B4000E700930750042320F4FC39A0832704FC1A
:100B50006344F000232004FC0327C4FC832744FCE7
:100B6000631BF708032784FC832704FC63DAE70090
:100B7000832704FC2320F4FE832784FC232EF4FC2B
:100B8000832704FE2326F4FE85A00327C4FE8547A1
:100B900063C5E70085472326F4FEB7470020832678
:100BA000C4FE1307400B3387E602938707D83E97AE
:100BB0008327C4FCBA97238007008327C4FE93864B
:100BC000F7FFB74700201307400B3387E6029387F0
:100BD00007D83E978327C4FCBA9723800700832752
:100BE000C4FE85072326F4FE0327C4FE8327C4FD25
:100BF000E3DDE7F8B9A4032784FC832704FC631B27
:100C0000F7080327C4FC832744FC63DAE700832743
:100C100044FC2320F4FE8327C4FC232EF4FC83270A
:100C200004FE2326F4FE85A0032784FC854763C5C4
:100C3000E70085472324F4FCB7470020832684FC83
:100C40001307400B3387E602938707D83E97832725
:100C5000C4FEBA9723800700832784FC9386F7FF9E
:100C6000B74700201307400B3387E602938707D866
:100C70003E978327C4FEBA97238007008327C4FECC
:100C800085072326F4FE0327C4FE8327C4FDE3DD86
:100C9000E7F845AA032784FC832704FC63DBE7000D
:100CA000832704FC2320F4FE832784FC232EF4FCFA
:100CB00009A8832784FC2320F4FE832704FC232E29
:100CC000F4FC832704FE2326F4FE65A0032744FCDE
:100CD0008327C4FC1D8F8326C4FE832784FCB3872F
:100CE000F6403307F702832604FC832784FCB3878E
:100CF000F640B347F7020327C4FCBA972324F4FE57
:100D0000032784FE9307200B63D7E7009307300B7C
:100D10002324F4FE09A8032784FE854763C5E70062
:100D200085472324F4FEB74700208326C4FE13071B
:100D3000400B3387E602938707D83E97832784FECC
:100D4000BA9723800700832784FEFD1737470020CA
:100D50000326C4FE9306400BB306D602130707D83A
:100D60003697BA97238007008327C4FE850723267A
:100D7000F4FE0327C4FE8327C4FDE3D9E7F4032769
:100D8000C4FC832744FC63DBE700832744FC232067
:100D9000F4FE8327C4FC232EF4FC09A88327C4FC9B
:100DA0002320F4FE832744FC232EF4FC832704FE37
:100DB0002326F4FE49A0032704FC832784FC1D8F0F
:100DC0008326C4FE8327C4FCB387F6403307F702AB
:100DD000832644FC8327C4FCB387F640B347F7025D
:100DE000032784FCBA972322F4FE032744FE9307CB
:100DF000400463D7E700930750042322F4FE39A090
:100E0000832744FE6344F000232204FEB7470020FA
:100E1000832644FE1307400B3387E602938707D8E7
:100E20003E978327C4FEBA97238007008327C4FE1A
:100E300085072326F4FE0327C4FE8327C4FDE3DCD5
:100E4000E7F60100725421618280411106C622C476
:100E5000000883C7E19C93F7F70F6390071683A7F9
:100E6000C19A639C071483C7019D93F7F70F63969C
:100E7000071403A781989307B00363D1E71403A76E
:100E8000C1989307B00363DBE71203A70199A94751
:100E900063C6E71203A74199A94763C1E71203A7F5
:100EA00041989307C00363CBE71083A741981307CA
:100EB00070041D8FB77700200A07938787EBBA97D6
:100EC0009843A54763DCE70E83A741981307700496
:100ED0001D8FB77700200A07938707FDBA979843BD
:100EE0009307A00A63CCE70C83A7419813078004FB
:100EF0001D8FB77700200A07938787EBBA9798432F
:100F0000A54763DDE70A83A74198130780041D8F77
:100F1000B77700200A07938707FDBA97984393078E
:100F2000A00A63CDE70883A74198130790041D8F9B
:100F3000B77700200A07938787EBBA979843A547AE
:100F400063DEE70683A74198130790041D8FB777E8
:100F500000200A07938707FDBA9798439307A00AD2
:100F600063CEE70483A741981307A0041D8FB777CA
:100F700000200A07938787EBBA979843A54763DF5A
:100F8000E70283A741981307A0041D8FB7770020BD
:100F90000A07938707FDBA9798439307A00A63CF80
:100FA000E700EF30EFF403D701819307703E63E76A
:100FB000E70005472387E19C11A00100B2402244CD
:100FC00041018280011122CE0010232404FE23223D
:100FD00004FE930750042326F4FE51A0B7770020A7
:100FE0000327C4FE0A07938787EBBA979843B7771E
:100FF00000208326C4FE8A06938707FDB6979C438C
:10100000BA9785871307A005B307F7403717020083
:101010009306C7E30327C4FE369703470700B38749
:10102000E702D3F707D0072784FED377F7002724FA
:10103000F4FEB71702001387C7E38327C4FEBA97ED
:1010400083C70700D3F707D0072744FED377F700FD
:101050002722F4FE8327C4FEFD172326F4FE83A770
:10106000419813075004B307F7400327C4FEE35722
:10107000F7F6072784FE872744FED377F71827243F
:10108000F4FE83A7C1A3BDCB930730032326F4FE50
:10109000B1A0B77700200327C4FE0A07938787EB28
:1010A000BA979843B77700208326C4FE8A069387B1
:1010B00007FDB6979C43BA9785871307A005B3072A
:1010C000F740D3F707D0072784FED377F70027240C
:1010D000F4FE8327C4FE85072326F4FE0327C4FEFF
:1010E00093077003E3D7E7FA072784FEB7070200E8
:1010F00087A787CAD377F7182724F4FE872784FEAB
:101100005385F720724405618280411106C622C4CE
:10111000000883C7418513F7F70F85476309F70078
:1011200083C7418513F7F70F89476313F70283C716
:10113000518513F7F70F85476317F7001307B004BE
:1011400023AAE19C5DA2130730FB23AAE19C71AAAC
:1011500083C7418513F7F70F8D476309F70083C7EE
:10116000418513F7F70F9147631EF70087A7819D0D
:101170005385F720EF307052AA873307F04023AA37
:10118000E19CA5A283C7418513F7F70F9D47631E16
:10119000F714814513052002EF008F8883C7019D56
:1011A00093F7F70F6393070C83C7E19C93F7F70F4F
:1011B000BDCB83C7819C8DEF83C7E19C13F7F70FED
:1011C00089476319F700370702008727C7CA27AC8A
:1011D000F19C91A883C7E19C13F7F70F8D47631427
:1011E000F70437070200872707CB27ACF19C25A817
:1011F00083C7E19C13F7F70F89476319F700370797
:101200000200872707CB27ACF19C31A883C7E19C5C
:1012100013F7F70F8D476318F7003707020087278A
:10122000C7CA27ACF19C87A7819D5385F720EF3073
:10123000D0462A8723AAE19C03A7C19A8547630C5D
:10124000F70003A7C19A89476307F70003A7C19A6C
:101250008D476315F70287A7C1975385F720EF30B5
:1012600070542A8723AAE19C11A887A7C1975385A8
:10127000F720EF3030532A8723AAE19C83C7E19CF3
:1012800093F7F70FBDC383C7819C8DEB83C7E19CA8
:1012900013F7F70F89476317F700130730FB23AAEB
:1012A000E19CA1A083C7E19C13F7F70F8D47631E54
:1012B000F7021307B00423AAE19C05A883C7E19CA9
:1012C00013F7F70F89476317F7001307B00423AA32
:1012D000E19C21A883C7E19C13F7F70F8D476316A4
:1012E000F700130730FB23AAE19C83A7419D3E85AD
:1012F000EF0040590100B2402244410182807971DF
:1013000006D622D44AD24ED00018232EA4FC232C79
:10131000B4FC232604FE232404FE83C7D19C93F748
:10132000F70FD1C383C7D19C13F7F70F8547631B12
:10133000F7001307800C23A0E1861307800C23A27B
:10134000E1863DA883C7D19C13F7F70F8947631740
:10135000F70023A0018623A201861DA083C7D19C8C
:1013600013F7F70F8D47631DF700232404FE232690
:1013700004FE032584FECD2E0325C4FEAD29F9AE5F
:1013800083A701868325C4FD3E85EF30B04E23241C
:10139000A4FE83A74186832584FD3E85EF30D05C83
:1013A0002326A4FE75A683C7418513F7F70F85474B
:1013B0006317F700232404FE232604FE51AE83C7DF
:1013C000418513F7F70F8947631BF700930780A840
:1013D0002324F4FE930780A82326F4FE95AE83C74A
:1013E000418513F7F70F8D47631EF70023A201868F
:1013F00083A74186832584FD3E85EF30F056232662
:10140000A4FEB9A683C7418513F7F70F9147631B65
:10141000F700930740D42324F4FE930740D42326F7
:10142000F4FE3DA683C7418513F7F70F9547631E6A
:10143000F70023A2018683A74186832584FD3E858C
:10144000EF3090522326A4FE21A683C7418513F7CF
:10145000F70F9947630EF72E83C7418513F7F70FF0
:101460009D476317F72E83C7019D93F7F70F63948A
:10147000072683A7C1A3B1C383A7C18653F707D0AB
:1014800087A6819D87A78187D3F7F610D377F708C2
:10149000539707C023A0E18683A7C18653F707D0DF
:1014A00087A6819D87A78187D3F7F610D377F700AA
:1014B000539707C023A2E186B9AC83C7E19C93F799
:1014C000F70F6386071483C7E19C13F7F70F89476B
:1014D000631BF70887A7819D5385F720EFA0804CF9
:1014E000B707020003A687CB83A6C7CBEF90E01017
:1014F000AA872E88BE864287B70702003686BA863C
:1015000003A507CC83A547CCEF908074AA872E88CB
:101510003E85C285EFA040242A8723A0E18687A7C5
:10152000819D5385F720EFA0E047B707020003A68F
:1015300087CB83A6C7CBEF90400CAA872E883E8529
:10154000C285B707020003A607CC83A647CCEF707D
:10155000104BAA872E883E85C285EFA0E01F2A8700
:1015600023A2E1864DAA83C7E19C13F7F70F8D47AD
:101570006313F71A83A741873E85EFA040352A8978
:10158000AE8987A7819D5385F720EFA0A041B707BB
:10159000020003A687CB83A6C7CBEF900006AA87DD
:1015A0002E883E86C2864A85CE85EF90606AAA87DD
:1015B0002E883E85C285EFA0201A2A8723A0E186C7
:1015C00083A741873E85EFA080302A89AE8987A70F
:1015D000819D5385F720EFA0E03CB707020003A6EA
:1015E00087CB83A6C7CBEF904001AA872E883E8683
:1015F000C2864A85CE85EF709040AA872E883E85A8
:10160000C285EFA060152A8723A2E18629A203A73D
:10161000C18523A0E18603A7C18523A2E18683C7F4
:10162000919C13F7F70F8547631AF70003A701870B
:1016300023A0E18603A7018723A2E18683A7018671
:1016400053F707D083A7419813076004B307F74007
:10165000D3F607D087A74188D3F7F610D377F708DA
:10166000539707C023A0E18683A7418653F707D08D
:1016700083A7419813076004B307F740D3F607D058
:1016800087A74188D3F7F610D377F708539707C099
:1016900023A2E18683A7018653F707D087A6819D01
:1016A00087A7C187D3F7F610D377F708539707C0FA
:1016B00023A0E18683A7418653F707D087A6819DA3
:1016C00087A7C187D3F7F610D377F700539707C0E2
:1016D00023A2E18689A083A7818553F707D087A637
:1016E000C19787A70188D3F7F610D377F7085397E8
:1016F00007C023A0E18683A7818553F707D087A67B
:10170000C19787A70188D3F7F610D377F7005397CF
:1017100007C023A2E18683A7C19A89CB03A781864C
:1017200023A0E18603A7818623A2E18683A7018601
:101730008325C4FD3E85EF30F0132324A4FE83A748
:101740004186832584FD3E85EF3010222326A4FEAA
:10175000032584FE11280325C4FE7128B2502254AB
:101760001259825945618280011106CE22CC0010A7
:101770002326A4FE0327C4FE85679387F7F963D861
:10178000E7008567938707FA2326F4FE29A8032735
:10179000C4FEFD77938717066357F700FD7793879D
:1017A00007062326F4FE8327C4FE63C107028327AE
:1017B000C4FEBE85B71703001385D716EFF0BEE948
:1017C00085451305C006EFF0BEA50DA08327C4FE16
:1017D000B307F040BE85B71703001385D716EFF0A7
:1017E0009EE781451305C006EFF09EA30100F2407D
:1017F000624405618280011106CE22CC00102326AE
:10180000A4FE0327C4FE85679387F7F963D8E70032
:101810008567938707FA2326F4FE29A80327C4FEC9
:10182000FD77938717066357F700FD7793870706C1
:101830002326F4FE8327C4FE63C107028327C4FE68
:10184000BE85B71703001385E726EFF0DEE081457C
:101850001305F006EFF0DE9C0DA08327C4FEB3074E
:10186000F040BE85B71703001385E726EFF0BEDE14
:1018700085451305F006EFF0BE9A0100F240624480
:1018800005618280011106CE22CC00102326A4FE21
:101890000327C4FE9307A00463D7E7009307B004AF
:1018A0002326F4FE19A80327C4FE930740FB6356C2
:1018B000F700930730FB2326F4FE8327C4FE9387AB
:1018C000E730BE85CD671385F700EFF0DED8010065
:1018D000F240624405618280411106C622C40008BC
:1018E00037770020B7070020130707709387070C8E
:1018F000930640103686BE853A85EFA0E052B77752
:1019000000209387077037070200872787CC27AC12
:10191000F70EB777002093870770370702008727F5
:10192000C7CC27AAF70E0100B240224441018280B1
:101930005D7186C6A2C48008232EA4FAAE873287C2
:10194000231DF4FABA87231CF4FAB7770020938793
:1019500007700357A4FB2390E7108357A4FBF917E4
:10196000C207C183C207C1873E85F1292726A4FE8D
:10197000B77700209387077087A7870F831784FBAB
:101980005385F7203E8521232720A4FE232E04FC27
:10199000232C04FC232A04FC232804FC8727C4FEF0
:1019A000D39707C0A305F4FE8307B4FED3F707D08F
:1019B0000727C4FED317F7A099CB0727C4FEB707A4
:1019C000020087A707CDD377F7082726F4FE8347C1
:1019D000B4FE850793F7F70F2305F4FE872704FE6F
:1019E000D39707C0A304F4FE830794FED3F707D070
:1019F000072704FED317F7A091CB830794FE93F734
:101A0000F70FFD1793F7F70FA304F4FE834794FE37
:101A1000850793F7F70F2304F4FE0307B4FE8D4701
:101A200063D5E7008D47A305F4FE0307A4FE8D47A9
:101A300063D5E7008D472305F4FE030794FE8D4729
:101A400063D5E7008D47A304F4FE030784FE8D47AA
:101A500063D5E7008D472304F4FEB7770020938712
:101A6000077083C7170F3E868307B4FE030784FE03
:101A7000B77600200A06B297938606708A07B69753
:101A8000BA9783C78703BE85B7770020938707700F
:101A900083C7170F3E868307B4FE030794FEB7760D
:101AA00000200A06B297938606708A07B697BA97FF
:101AB00083C78703B387F54053F707D0830794FEA6
:101AC000D3F707D0872604FED3F7F6085377F7102D
:101AD000B77700209387077083C7170F3E86830769
:101AE000B4FE030794FEB77600200A06B2979386E9
:101AF00006708A07B697BA9783C78703D3F707D0CC
:101B0000D377F700272EF4FCB77700209387077070
:101B100083C7170F3E868307A4FE030784FEB776AC
:101B200000200A06B297938606708A07B697BA977E
:101B300083C78703BE85B77700209387077083C765
:101B4000170F3E868307A4FE030794FEB776002096
:101B50000A06B297938606708A07B697BA9783C724
:101B60008703B387F54053F707D0830794FED3F775
:101B700007D0872604FED3F7F6085377F710B77718
:101B800000209387077083C7170F3E868307A4FE44
:101B9000030794FEB77600200A06B2979386067074
:101BA0008A07B697BA9783C78703D3F707D0D37747
:101BB000F700272CF4FCB77700209387077083C7C2
:101BC000170F3E868307A4FE030794FEB776002016
:101BD0000A06B297938606708A07B697BA9783C7A4
:101BE0008703BE85B77700209387077083C7170FD9
:101BF0003E868307B4FE030794FEB77600200A06EC
