
Seekfree_CH32V307VCT6_Opensource_Library.elf:     file format elf32-littleriscv
Seekfree_CH32V307VCT6_Opensource_Library.elf
architecture: riscv:rv32, flags 0x00000112:
EXEC_P, HAS_SYMS, D_PAGED
start address 0x00000000

Program Header:
    LOAD off    0x00001000 vaddr 0x00000000 paddr 0x00000000 align 2**12
         filesz 0x00023474 memsz 0x00023474 flags r-x
    LOAD off    0x00025000 vaddr 0x20000000 paddr 0x00023474 align 2**12
         filesz 0x00000460 memsz 0x0000784c flags rw-
    LOAD off    0x00025800 vaddr 0x2000f800 paddr 0x2000f800 align 2**12
         filesz 0x00000000 memsz 0x00000800 flags rw-

Sections:
Idx Name           Size      VMA       LMA       File off  Algn  Flags
  0 .init          00000038  00000000  00000000  00001000  2**1  CONTENTS, ALLOC, LOAD, READONLY, CODE
  1 .vector        000001c8  00000038  00000038  00001038  2**1  CONTENTS, ALLOC, LOAD, READONLY, CODE
  2 .text          00023274  00000200  00000200  00001200  2**3  CONTENTS, ALLOC, LOAD, READONLY, CODE
  3 .fini          00000000  00023474  00023474  00025460  2**0  CONTENTS, ALLOC, LOAD, CODE
  4 .dalign        00000000  20000000  20000000  00025460  2**0  CONTENTS
  5 .dlalign       00000000  00023474  00023474  00025460  2**0  CONTENTS
  6 .data          00000460  20000000  00023474  00025000  2**2  CONTENTS, ALLOC, LOAD, DATA
  7 .bss           000073ec  20000460  000238d4  00025460  2**2  ALLOC
  8 .stack         00000800  2000f800  2000f800  00025800  2**0  ALLOC
  9 .debug_info    0003a8f3  00000000  00000000  00025460  2**0  CONTENTS, READONLY, DEBUGGING
 10 .debug_abbrev  00007db4  00000000  00000000  0005fd53  2**0  CONTENTS, READONLY, DEBUGGING
 11 .debug_aranges 00001880  00000000  00000000  00067b08  2**3  CONTENTS, READONLY, DEBUGGING
 12 .debug_ranges  00001560  00000000  00000000  00069388  2**3  CONTENTS, READONLY, DEBUGGING
 13 .debug_line    0002bb84  00000000  00000000  0006a8e8  2**0  CONTENTS, READONLY, DEBUGGING
 14 .debug_str     000099e7  00000000  00000000  0009646c  2**0  CONTENTS, READONLY, DEBUGGING
 15 .comment       00000033  00000000  00000000  0009fe53  2**0  CONTENTS, READONLY
 16 .debug_frame   00007ec8  00000000  00000000  0009fe88  2**2  CONTENTS, READONLY, DEBUGGING
 17 .stab          00000084  00000000  00000000  000a7d50  2**2  CONTENTS, READONLY, DEBUGGING
 18 .stabstr       00000117  00000000  00000000  000a7dd4  2**0  CONTENTS, READONLY, DEBUGGING
SYMBOL TABLE:
00000000 l    d  .init	00000000 .init
00000038 l    d  .vector	00000000 .vector
00000200 l    d  .text	00000000 .text
00023474 l    d  .fini	00000000 .fini
20000000 l    d  .dalign	00000000 .dalign
00023474 l    d  .dlalign	00000000 .dlalign
20000000 l    d  .data	00000000 .data
20000460 l    d  .bss	00000000 .bss
2000f800 l    d  .stack	00000000 .stack
00000000 l    d  .debug_info	00000000 .debug_info
00000000 l    d  .debug_abbrev	00000000 .debug_abbrev
00000000 l    d  .debug_aranges	00000000 .debug_aranges
00000000 l    d  .debug_ranges	00000000 .debug_ranges
00000000 l    d  .debug_line	00000000 .debug_line
00000000 l    d  .debug_str	00000000 .debug_str
00000000 l    d  .comment	00000000 .comment
00000000 l    d  .debug_frame	00000000 .debug_frame
00000000 l    d  .stab	00000000 .stab
00000000 l    d  .stabstr	00000000 .stabstr
00000000 l    df *ABS*	00000000 ./sdk/Startup/startup_ch32v30x_D8C.o
00000038 l       .vector	00000000 _vector_base
00000000 l    df *ABS*	00000000 zf_driver_adc.c
20000390 l     O .data	00000008 adc_index
20000460 l     O .bss	00000002 adc_resolution
00000000 l    df *ABS*	00000000 zf_driver_delay.c
00000000 l    df *ABS*	00000000 zf_driver_dvp.c
00000000 l    df *ABS*	00000000 zf_driver_encoder.c
20000000 l     O .data	0000000a encoder_dir_pin
00000000 l    df *ABS*	00000000 zf_driver_exti.c
00000000 l    df *ABS*	00000000 zf_driver_flash.c
20000398 l     O .data	00000004 gFlashStatus.4500
2000039c l     O .data	00000004 gFlashStatus.4542
00000000 l    df *ABS*	00000000 zf_driver_gpio.c
00000000 l    df *ABS*	00000000 zf_driver_pit.c
00000000 l    df *ABS*	00000000 zf_driver_pwm.c
00000000 l    df *ABS*	00000000 zf_driver_soft_iic.c
00001bdc l     F .text	0000012a soft_iic_start
00001d06 l     F .text	00000144 soft_iic_stop
00001e4a l     F .text	00000198 soft_iic_send_ack
00001fe2 l     F .text	00000162 soft_iic_wait_ack
00002144 l     F .text	00000170 soft_iic_send_data
000022b4 l     F .text	000001ec soft_iic_read_data
00000000 l    df *ABS*	00000000 zf_driver_spi.c
00000000 l    df *ABS*	00000000 zf_driver_timer.c
20000a54 l     O .bss	00000028 timer_function_state
20000a7c l     O .bss	00000028 timer_mode_state
00000000 l    df *ABS*	00000000 zf_driver_uart.c
00000000 l    df *ABS*	00000000 zf_device_camera.c
00000000 l    df *ABS*	00000000 zf_device_dl1a.c
20000ac0 l     O .bss	00000010 dl1a_iic_struct
00003d58 l     F .text	000001f8 dl1a_get_spad_info
00003f50 l     F .text	00000058 dl1a_timeout_mclks_to_microseconds
00003fa8 l     F .text	00000054 dl1a_timeout_microseconds_to_mclks
00003ffc l     F .text	00000034 dl1a_decode_timeout
00004030 l     F .text	0000007a dl1a_encode_timeout
000040aa l     F .text	0000009e dl1a_get_sequence_step_enables
00004148 l     F .text	00000088 dl1a_get_vcsel_pulse_period
000041d0 l     F .text	00000198 dl1a_get_sequence_step_timeouts
00004368 l     F .text	000000be dl1a_perform_single_ref_calibration
00004426 l     F .text	00000168 dl1a_set_measurement_timing_budget
0000458e l     F .text	000000b6 dl1a_get_measurement_timing_budget
00004644 l     F .text	000000ac dl1a_set_signal_rate_limit
00000000 l    df *ABS*	00000000 zf_device_dm1xa.c
200003a2 l     O .data	00000002 dm1xa_distance_mm
20000470 l     O .bss	00000004 dm1xa_plus_count
20000474 l     O .bss	00000004 dm1xa_type
20000478 l     O .bss	00000004 dm1xa_ranging_state
00000000 l    df *ABS*	00000000 zf_device_gps_tau1201.c
2000047d l     O .bss	00000001 gps_tau1201_state
20000ad0 l     O .bss	0000001c gps_tau1201_receiver_fifo
20000aec l     O .bss	00000080 gps_gga_buffer
20000b6c l     O .bss	00000080 gps_rmc_buffer
00000000 l    df *ABS*	00000000 zf_device_imu660ra.c
00005410 l     F .text	00000052 imu660ra_write_register
00005462 l     F .text	00000054 imu660ra_write_registers
000054b6 l     F .text	00000058 imu660ra_read_register
0000550e l     F .text	000000a0 imu660ra_read_registers
000055ae l     F .text	0000005c imu660ra_self_check
00000000 l    df *ABS*	00000000 zf_device_ips200.c
200003ac l     O .data	00000002 ips200_pencolor
200003ae l     O .data	00000002 ips200_bgcolor
20000490 l     O .bss	00000004 ips200_display_type
20000494 l     O .bss	00000004 ips200_display_dir
200003b0 l     O .data	00000004 ips200_display_font
200003b4 l     O .data	00000002 ips200_x_max
200003b6 l     O .data	00000002 ips200_y_max
200003b8 l     O .data	00000004 ips_rst_pin
200003bc l     O .data	00000004 ips_bl_pin
200003c0 l     O .data	00000004 ips_cs_pin
000057e0 l     F .text	00000032 ips200_write_data
00005812 l     F .text	000001ae ips200_write_command
000059c0 l     F .text	000000c8 ips200_write_8bit_data
00005a88 l     F .text	00000128 ips200_write_16bit_data
00005bb0 l     F .text	000000fc ips200_set_region
00005cac l     F .text	0000007e ips200_debug_init
00000000 l    df *ABS*	00000000 zf_device_mt9v03x_dvp.c
2000049c l     O .bss	00000004 mt9v03x_type
200004a0 l     O .bss	00000002 mt9v03x_version
20000020 l     O .data	00000028 mt9v03x_set_confing_buffer
20000048 l     O .data	00000024 mt9v03x_get_confing_buffer
00006dd8 l     F .text	0000012c mt9v03x_set_config
00006f04 l     F .text	00000164 mt9v03x_get_config
00007068 l     F .text	00000044 mt9v03x_uart_handler
00000000 l    df *ABS*	00000000 zf_device_type.c
00007412 l     F .text	0000000e type_default_callback
00000000 l    df *ABS*	00000000 zf_common_clock.c
00000000 l    df *ABS*	00000000 zf_common_debug.c
000076f6 l     F .text	00000010 __NOP
20003d24 l     O .bss	00000014 debug_output_info
200004a8 l     O .bss	00000001 zf_debug_init_flag
200003d0 l     O .data	00000001 zf_debug_assert_enable
00007706 l     F .text	00000054 debug_delay
0000775a l     F .text	0000000e debug_protective_handler
00007768 l     F .text	00000020 debug_uart_str_output
00007788 l     F .text	00000570 debug_output
200004a9 l     O .bss	00000001 assert_nest_index.5017
00000000 l    df *ABS*	00000000 zf_common_fifo.c
00007f7e l     F .text	0000004e fifo_head_offset
00007fcc l     F .text	0000004e fifo_end_offset
00000000 l    df *ABS*	00000000 zf_common_function.c
00000000 l    df *ABS*	00000000 zf_common_interrupt.c
00008d96 l     F .text	00000018 __enable_irq
00008dae l     F .text	00000014 __disable_irq
00008dc2 l     F .text	00000032 NVIC_EnableIRQ
00008df4 l     F .text	00000032 NVIC_DisableIRQ
00008e26 l     F .text	0000002a NVIC_SetPriority
200004ac l     O .bss	00000004 interrupt_nest_count
00000000 l    df *ABS*	00000000 isr.c
200004bc l     O .bss	00000004 count_50ms.8325
200004c0 l     O .bss	00000004 encoder_accu.8326
200004c4 l     O .bss	00000004 count_10ms.8330
00000000 l    df *ABS*	00000000 main.c
00000000 l    df *ABS*	00000000 ch32v30x_adc.c
00000000 l    df *ABS*	00000000 ch32v30x_exti.c
00000000 l    df *ABS*	00000000 ch32v30x_flash.c
00000000 l    df *ABS*	00000000 ch32v30x_gpio.c
00000000 l    df *ABS*	00000000 ch32v30x_rcc.c
2000006c l     O .data	00000010 APBAHBPrescTable
200003d4 l     O .data	00000004 ADCPrescTable
00000000 l    df *ABS*	00000000 ch32v30x_spi.c
00000000 l    df *ABS*	00000000 ch32v30x_tim.c
00000000 l    df *ABS*	00000000 ch32v30x_usart.c
00000000 l    df *ABS*	00000000 ch32v30x_usbotg_device.c
00000000 l    df *ABS*	00000000 ADC.c
20000510 l     O .bss	00000004 count.8212
00000000 l    df *ABS*	00000000 Camera.c
2000055f l     O .bss	00000001 break_road_state.8827
00000000 l    df *ABS*	00000000 Control.c
00000000 l    df *ABS*	00000000 FUZZY_PID_UCAS.c
00000000 l    df *ABS*	00000000 Fuzzy.c
00000000 l    df *ABS*	00000000 Gyroscope.c
00000000 l    df *ABS*	00000000 Island.c
200005e8 l     O .bss	00000008 left_down_guai.8214
200005f0 l     O .bss	00000008 right_down_guai.8215
200005f8 l     O .bss	00000004 k.8211
200005fc l     O .bss	00000008 island_state_3_up.8213
20000604 l     O .bss	00000008 island_state_5_down.8212
00000000 l    df *ABS*	00000000 KEY.c
20000420 l     O .data	00000001 key_up.8195
00000000 l    df *ABS*	00000000 PID.c
2000060c l     O .bss	00000004 error_current.8205
20000610 l     O .bss	00000004 error_last.8206
20000614 l     O .bss	00000004 error_current.8215
20000618 l     O .bss	00000004 error_last.8216
2000061c l     O .bss	00000004 ek.8225
20000620 l     O .bss	00000004 ek1.8226
20000624 l     O .bss	00000004 out_increment.8224
20000628 l     O .bss	00000004 out.8223
2000062c l     O .bss	00000004 ek.8235
20000630 l     O .bss	00000004 ek1.8236
20000634 l     O .bss	00000004 out_increment.8234
20000638 l     O .bss	00000004 out.8233
00000000 l    df *ABS*	00000000 UI.c
00000000 l    df *ABS*	00000000 flash.c
00000000 l    df *ABS*	00000000 w_pow.c
00000000 l    df *ABS*	00000000 e_pow.c
00000000 l    df *ABS*	00000000 e_sqrt.c
00000000 l    df *ABS*	00000000 s_fabs.c
00000000 l    df *ABS*	00000000 s_finite.c
00000000 l    df *ABS*	00000000 s_matherr.c
00000000 l    df *ABS*	00000000 s_nan.c
00000000 l    df *ABS*	00000000 s_rint.c
00020fc8 l     O .text	00000010 TWO52
00000000 l    df *ABS*	00000000 s_scalbn.c
00000000 l    df *ABS*	00000000 s_copysign.c
00000000 l    df *ABS*	00000000 zf_device_config.c
00018b5e l     F .text	00000034 mt9v03x_write_word_sccb
20007824 l     O .bss	00000010 mt9v03x_iic_inf_struct
20007834 l     O .bss	00000014 mt9v03x_init_config
20000640 l     O .bss	00000004 mt9v03x_h_blank
20000644 l     O .bss	00000004 mt9v03x_v_blank
00000000 l    df *ABS*	00000000 adddf3.c
00000000 l    df *ABS*	00000000 divdf3.c
00000000 l    df *ABS*	00000000 eqdf2.c
00000000 l    df *ABS*	00000000 gedf2.c
00000000 l    df *ABS*	00000000 ledf2.c
00000000 l    df *ABS*	00000000 muldf3.c
00000000 l    df *ABS*	00000000 subdf3.c
00000000 l    df *ABS*	00000000 unorddf2.c
00000000 l    df *ABS*	00000000 fixdfsi.c
00000000 l    df *ABS*	00000000 fixunsdfsi.c
00000000 l    df *ABS*	00000000 floatsidf.c
00000000 l    df *ABS*	00000000 floatunsidf.c
00000000 l    df *ABS*	00000000 extendsfdf2.c
00000000 l    df *ABS*	00000000 truncdfsf2.c
00000000 l    df *ABS*	00000000 libgcc2.c
00000000 l    df *ABS*	00000000 errno.c
00000000 l    df *ABS*	00000000 memcpy.c
00000000 l    df *ABS*	00000000 nano-vfprintf_float.c
00000000 l    df *ABS*	00000000 nano-vfprintf_i.c
00000000 l    df *ABS*	00000000 printf.c
00000000 l    df *ABS*	00000000 sprintf.c
00000000 l    df *ABS*	00000000 strlen.c
00000000 l    df *ABS*	00000000 strncmp.c
00000000 l    df *ABS*	00000000 dtoa.c
0001c99a l     F .text	0000013a quorem
00000000 l    df *ABS*	00000000 findfp.c
0001d6be l     F .text	0000006a std
00000000 l    df *ABS*	00000000 fwalk.c
00000000 l    df *ABS*	00000000 localeconv.c
00000000 l    df *ABS*	00000000 malloc.c
00000000 l    df *ABS*	00000000 memchr.c
00000000 l    df *ABS*	00000000 mprec.c
00023340 l     O .text	0000000c p05.3321
00000000 l    df *ABS*	00000000 nano-mallocr.c
00000000 l    df *ABS*	00000000 nano-mallocr.c
00000000 l    df *ABS*	00000000 nano-mallocr.c
00000000 l    df *ABS*	00000000 nano-vfprintf.c
00000000 l    df *ABS*	00000000 nano-vfprintf.c
0001e536 l     F .text	00000028 __sfputc_r
00000000 l    df *ABS*	00000000 sbrkr.c
00000000 l    df *ABS*	00000000 stdio.c
00000000 l    df *ABS*	00000000 wbuf.c
00000000 l    df *ABS*	00000000 writer.c
00000000 l    df *ABS*	00000000 wsetup.c
00000000 l    df *ABS*	00000000 closer.c
00000000 l    df *ABS*	00000000 fflush.c
00000000 l    df *ABS*	00000000 lseekr.c
00000000 l    df *ABS*	00000000 makebuf.c
00000000 l    df *ABS*	00000000 mbtowc_r.c
00000000 l    df *ABS*	00000000 memmove.c
00000000 l    df *ABS*	00000000 mlock.c
00000000 l    df *ABS*	00000000 nano-mallocr.c
00000000 l    df *ABS*	00000000 readr.c
00000000 l    df *ABS*	00000000 wctomb_r.c
00000000 l    df *ABS*	00000000 fstatr.c
00000000 l    df *ABS*	00000000 isattyr.c
00000000 l    df *ABS*	00000000 nano-mallocr.c
00000000 l    df *ABS*	00000000 trunctfdf2.c
00000000 l    df *ABS*	00000000 close.c
00000000 l    df *ABS*	00000000 fstat.c
00000000 l    df *ABS*	00000000 isatty.c
00000000 l    df *ABS*	00000000 lseek.c
00000000 l    df *ABS*	00000000 read.c
00000000 l    df *ABS*	00000000 sbrk.c
20000650 l     O .bss	00000004 heap_end.1520
00000000 l    df *ABS*	00000000 zf_common_font.c
00000000 l    df *ABS*	00000000 libgcc2.c
00000000 l    df *ABS*	00000000 locale.c
00000000 l    df *ABS*	00000000 ctype_.c
00000000 l    df *ABS*	00000000 impure.c
200001c4 l     O .data	00000060 impure_data
00000000 l    df *ABS*	00000000 s_lib_ver.c
00000000 l    df *ABS*	00000000 reent.c
0000c7c2 g     F .text	0000003c TIM_TimeBaseStructInit
0001efce g     F .text	00000014 _malloc_usable_size_r
0001bede g     F .text	000000ee __cvt
000097b2 g     F .text	000000b4 EXTI2_IRQHandler
000145bc g     F .text	00000402 Monotonicity_Change_Right
20000442 g     O .data	00000001 main_menu_item
0000aa28  w      .text	00000000 TIM8_TRG_COM_IRQHandler
200003a0 g     O .data	00000002 dl1a_distance_mm
0000aa2a  w      .text	00000000 TIM8_CC_IRQHandler
00007d78 g     F .text	0000006a debug_assert_handler
00003722 g     F .text	00000062 uart_query_byte
200004e6 g     O .bss	00000001 USBHD_Dev_SleepStatus
200005c8 g     O .bss	00000004 AngleSpeed
0001ef9e g     F .text	00000030 _isatty_r
20000508 g     O .bss	00000004 ADC_Dif
0000b23c g     F .text	0000002a FLASH_Unlock
0000d204 g     F .text	0000003e DevEP1_IN_Deal
00018856 g     F .text	00000006 fabs
0001ed0c g     F .text	00000034 _lseek_r
20000594 g     O .bss	00000004 t3
000094ba g     F .text	000000c0 UART8_IRQHandler
2000042c g     O .data	00000004 Global_D
2000048a g     O .bss	00000002 imu660ra_gyro_y
0001557e g     F .text	000003a0 Sec_Menu_02
0001a3f6 g     F .text	00000098 .hidden __eqdf2
00002c2c g     F .text	000000f0 spi_read_8bit_registers
00020a64 g     O .text	00000228 ascii_font_6x8
200005e0 g     O .bss	00000008 Right_Up_Guai
0001c8d4 g     F .text	00000042 printf
20000b90 g       .data	00000000 __global_pointer$
20000404 g     O .data	00000004 Barricade_Speed
0000f754 g     F .text	00000388 Find_Up_Point
0000aa04  w      .text	00000000 TIM1_CC_IRQHandler
200070e8 g     O .bss	00000118 Road_Wide
0001e8f0 g     F .text	00000036 __sseek
0001d77a g     F .text	0000006c __sinit
200004b8 g     O .bss	00000004 Zebra_State
0001e92c g     F .text	000000c2 __swbuf_r
000046f0 g     F .text	000000a4 dl1a_get_distance
0000827c g     F .text	00000306 fifo_write_buffer
0000a772 g     F .text	00000008 HardFault_Handler
0000b2fa g     F .text	000000ae FLASH_ProgramWord
200003a4 g     O .data	00000008 imu660ra_transition_factor
20000400 g     O .data	00000004 Straight_Speed
0001d732 g     F .text	00000048 __sfmoreglue
00008a16 g     F .text	000000da func_uint_to_str
0001eebe g     F .text	00000002 __malloc_unlock
200003c4 g     O .data	00000004 camera_uart_handler
0000a346 g     F .text	00000124 TIM6_IRQHandler
0000c9ba g     F .text	0000004c TIM_OC1PreloadConfig
0000a9ca  w      .text	00000000 SysTick_Handler
0000acfa g     F .text	00000022 ADC_StartCalibration
0000a9d0  w      .text	00000000 PVD_IRQHandler
0000320e g     F .text	00000100 timer_get
0000aa30  w      .text	00000000 SDIO_IRQHandler
00011930 g     F .text	00000516 DuoJi_GetP
0001ee72 g     F .text	0000004a memmove
0000aa62  w      .text	00000000 TIM9_BRK_IRQHandler
0000fce4 g     F .text	0000051e Img_Disappear_Detect
0000bdac g     F .text	00000076 SPI_I2S_DeInit
0000aa76  w      .text	00000000 DMA2_Channel8_IRQHandler
0000a762 g     F .text	00000010 NMI_Handler
0001d930 g     F .text	00000088 _Balloc
0000aa50  w      .text	00000000 CAN2_RX1_IRQHandler
00009866 g     F .text	000000b4 EXTI3_IRQHandler
200004a4 g     O .bss	00000004 camera_type
0001a48e g     F .text	000000b6 .hidden __gtdf2
0001be20 g     F .text	00000008 __errno
0001525c g     F .text	00000104 User_Interface
00012a36 g     F .text	0000013a Get_Gyroscope_Pitch
0000fadc g     F .text	00000208 Cross_Detect
00014c36 g     F .text	000000cc K_Draw_Line
200005a0 g     O .bss	00000004 temp2
2000040c g     O .data	00000004 Err_Diff
0000aa58  w      .text	00000000 USBHS_IRQHandler
0000d06e g     F .text	00000046 USART_GetFlagStatus
0000aa78  w      .text	00000000 DMA2_Channel9_IRQHandler
0001ef6c g     F .text	00000032 _fstat_r
00020ce4 g     O .text	00000014 MyReportDescHD
0000aa70  w      .text	00000000 TIM10_CC_IRQHandler
20007848 g     O .bss	00000004 errno
2000007c g     O .data	00000043 TAB_USB_FS_OSC_DESC
00002a9a g     F .text	000000d0 spi_write_8bit_register
20000460 g       .bss	00000000 _sbss
00000800 g       *ABS*	00000000 __stack_size
0000afd8 g     F .text	0000003a ADC_GetFlagStatus
200005bc g     O .bss	00000004 FJ_LastPitchSpeed
00008582 g     F .text	000002e4 fifo_read_buffer
0000b284 g     F .text	00000076 FLASH_ErasePage
00015d32 g     F .text	0000015e Sec_Menu_05
200004e7 g     O .bss	00000001 DevConfig
000127fc g     F .text	000000b4 Zero_Point_Detect
00020e3c g     O .text	00000046 Weight
0001545a g     F .text	00000124 Sec_Menu_01
00008e6e g     F .text	0000001e interrupt_disable
00008162 g     F .text	0000011a fifo_write_element
20003d80 g     O .bss	00003138 image_two_value
0000e07e g     F .text	000000be ADC_Get_Value
0000f040 g     F .text	000000e2 Show_Boundry
0000c856 g     F .text	00000060 TIM_CtrlPWMOutputs
20000bec g     O .bss	00003138 mt9v03x_image
0001be28 g     F .text	000000b6 memcpy
2000044c g     O .data	00000008 uart_irq
0000ac6a g     F .text	0000003e ADC_Cmd
000064f4 g     F .text	0000021a ips200_show_float
000137a8 g     F .text	000000e8 Continuity_Change_Left
2000055e g     O .bss	00000001 Barricade_Flag
0000254c g     F .text	00000082 soft_iic_write_8bit_register
0001d728 g     F .text	0000000a _cleanup_r
0000b6d8 g     F .text	000001c8 GPIO_PinRemapConfig
0001e2b8 g     F .text	0000027e _svfprintf_r
0001b8ce g     F .text	00000070 .hidden __floatsidf
2000052c g     O .bss	00000008 Longest_White_Column_Left
000063b2 g     F .text	00000142 ips200_show_uint
00015074 g     F .text	000000f4 PID_L
0001a544 g     F .text	000000b6 .hidden __ltdf2
0000964a g     F .text	000000b4 EXTI0_IRQHandler
00014d02 g     F .text	0000007e Key_Init
0000aa10  w      .text	00000000 I2C2_EV_IRQHandler
0000aa6e  w      .text	00000000 TIM10_TRG_COM_IRQHandler
200004ea g     O .bss	00000002 SetupReqLen
0000c7fe g     F .text	00000058 TIM_Cmd
0000caac g     F .text	0000005a TIM_OC4PreloadConfig
00020d14 g     O .text	00000016 MySerNumInfoHD
2000055d g     O .bss	00000001 Stop_Flag
000070ac g     F .text	00000014 mt9v03x_dvp_handler
00001656 g     F .text	0000016a pwm_set_duty
00011e46 g     F .text	00000048 f_Get_H_approximation
0001d90a g     F .text	0000000c malloc
0001f3c2 g     F .text	00000010 _fstat
00000a88 g     F .text	000002f8 encoder_dir_init
00002d1c g     F .text	000002de spi_init
00023278 g     O .text	000000c8 __mprec_tens
00000038 g       .init	00000000 _einit
00008866 g     F .text	00000098 fifo_init
0000ccba g     F .text	0000002e TIM_ClearITPendingBit
00020d2c g     O .text	0000000a MyUSBQUADescHD
00008f14 g     F .text	00000018 interrupt_init
0000bc94 g     F .text	00000046 RCC_APB2PeriphClockCmd
0001b830 g     F .text	0000009e .hidden __fixunsdfsi
0000aa52  w      .text	00000000 CAN2_SCE_IRQHandler
0000a9f2  w      .text	00000000 ADC1_2_IRQHandler
0000b476 g     F .text	0000022a GPIO_Init
000009ec g     F .text	0000009c encoder_clear_count
0000b942 g     F .text	00000046 RCC_ADCCLKConfig
0000a9c8  w      .text	00000000 Break_Point_Handler
200004e8 g     O .bss	00000001 SetupReqCode
0001d8f2 g     F .text	00000018 _localeconv_r
0001db44 g     F .text	0000001c __i2b
20000528 g     O .bss	00000004 Both_Lost_Time
0000aa14  w      .text	00000000 SPI1_IRQHandler
0000aca8 g     F .text	00000022 ADC_ResetCalibration
0000cf1c g     F .text	00000060 USART_Cmd
0001e840 g     F .text	00000032 _sbrk_r
0000a9d2  w      .text	00000000 TAMPER_IRQHandler
00002780 g     F .text	00000088 soft_iic_sccb_write_register
0000c470 g     F .text	000001dc TIM_OC3Init
0001ef18 g     F .text	00000034 _read_r
00002b6a g     F .text	000000c2 spi_write_8bit_registers
00012b8e g     F .text	00000c1a Island_Detect
0000d1b6 g     F .text	0000004e USART_ClearITPendingBit
20000590 g     O .bss	00000004 t2
2000057c g     O .bss	00000008 DF
0000aa4e  w      .text	00000000 CAN2_RX0_IRQHandler
000010fa g     F .text	00000126 flash_write_page_from_buffer
0000568a g     F .text	00000156 imu660ra_init
00011ede g     F .text	0000091e Fuzzy_P
0001b9a4 g     F .text	000000e8 .hidden __extendsfdf2
0000a52a g     F .text	000000c0 TIM8_UP_IRQHandler
00019194 g     F .text	0000006a mt9v03x_set_exposure_time_sccb
0000bcda g     F .text	00000046 RCC_APB1PeriphClockCmd
00000d80 g     F .text	00000108 exti_init
00011e8e g     F .text	00000050 f_Get_E_approximation
000191fe g     F .text	00000a0e .hidden __adddf3
0000a9c4  w      .text	00000000 Ecall_M_Mode_Handler
00003060 g     F .text	000000e2 timer_clock_enable
0001f3d2 g     F .text	00000010 _isatty
20000444 g     O .data	00000004 __fdlib_version
00001220 g     F .text	00000078 gpio_set_level
20000458 g     O .data	00000004 _global_impure_ptr
2000047c g     O .bss	00000001 gps_tau1201_flag
2000051c g     O .bss	00000004 Boundry_Start_Right
0001eec0 g     F .text	00000058 _realloc_r
20007804 g     O .bss	00000010 UF
00005e4a g     F .text	0000002c ips200_set_color
0000aa40  w      .text	00000000 DMA2_Channel2_IRQHandler
0000bc4e g     F .text	00000046 RCC_AHBPeriphClockCmd
0000a9ea  w      .text	00000000 DMA1_Channel4_IRQHandler
0000ad90 g     F .text	00000248 ADC_RegularChannelConfig
00015360 g     F .text	000000fa Main_Menu
0000cba8 g     F .text	0000004c TIM_OC3FastConfig
00023250 g     O .text	00000028 __mprec_bigtens
0001b93e g     F .text	00000066 .hidden __floatunsidf
00020474 g     O .text	000005f0 ascii_font_8x16
0001f402 g     F .text	00000024 _sbrk
0001de30 g     F .text	00000032 __mcmp
20000559 g     O .bss	00000001 Straight_Flag
0000f3ee g     F .text	00000366 Find_Down_Point
2000054c g     O .bss	00000004 Right_Down_Find
0000b266 g     F .text	0000001e FLASH_Lock
0000a5ea g     F .text	000000c0 TIM9_UP_IRQHandler
00001436 g     F .text	00000220 pit_init
000090b4 g     F .text	000000c4 USART3_IRQHandler
0000b21c g     F .text	00000020 EXTI_ClearITPendingBit
000128b0 g     F .text	00000070 Gyroscope_GetData
00013b7e g     F .text	00000214 Find_Left_Up_Point
0000a9d4  w      .text	00000000 RTC_IRQHandler
0000ad1c g     F .text	00000030 ADC_GetCalibrationStatus
2000784c g       .bss	00000000 _ebss
000025ce g     F .text	000000b0 soft_iic_read_8bit_register
0000d0b4 g     F .text	00000102 USART_GetITStatus
00003d36 g     F .text	00000022 camera_fifo_init
0001887c g     F .text	0000018c rint
00015e90 g     F .text	0000006a Sec_Menu_06
0000a9f0  w      .text	00000000 DMA1_Channel7_IRQHandler
0000c0f2 g     F .text	0000019c TIM_OC1Init
20000548 g     O .bss	00000004 Left_Up_Find
20000514 g     O .bss	00000004 Search_Stop_Line
0000ad4c g     F .text	00000044 ADC_SoftwareStartConvCmd
0000ca60 g     F .text	0000004c TIM_OC3PreloadConfig
0000acca g     F .text	00000030 ADC_GetResetCalibrationStatus
00002808 g     F .text	000000be soft_iic_sccb_read_register
200003f4 g     O .data	00000004 Speed_Right_Set
00020d08 g     O .text	0000000c MyProdInfoHD
20000588 g     O .bss	00000004 Dn
0001da94 g     F .text	00000046 __hi0bits
0000a9f8  w      .text	00000000 CAN1_RX1_IRQHandler
2000056c g     O .bss	00000004 Island_Ratio
0001b758 g     F .text	000000d8 .hidden __fixdfsi
00010ab2 g     F .text	00000398 Draw_Line
200004c8 g     O .bss	00000004 Threshold
0000957a g     F .text	000000d0 DVP_IRQHandler
20000534 g     O .bss	00000008 Longest_White_Column_Right
0000923c g     F .text	000000c2 UART5_IRQHandler
200004e0 g     O .bss	00000004 pDescr
20000598 g     O .bss	00000004 t4
000033d4 g     F .text	000001a6 timer_init
20003d60 g     O .bss	00000010 ADC_Fil_Value
0001775e g     F .text	00000128 Read_Flash
00007e8c g     F .text	000000a8 debug_output_init
000004f8 g     F .text	000000a2 system_delay_ms
0001110a g     F .text	000001f4 Direction_Control
20000454 g     O .data	00000004 MyLangDescrHD
200003cc g     O .data	00000004 system_clock
00014fa4 g     F .text	000000d0 PD_ADC
000117f6 g     F .text	0000008e Motor_Right
00000e88 g     F .text	000000e4 flash_check
000017c0 g     F .text	0000041c pwm_init
00009e9a g     F .text	000000c0 TIM4_IRQHandler
0001a544 g     F .text	000000b6 .hidden __ledf2
0000b6a0 g     F .text	00000038 GPIO_WriteBit
000076c8 g     F .text	0000002e clock_init
0000aa3e  w      .text	00000000 DMA2_Channel1_IRQHandler
0001dca4 g     F .text	000000be __pow5mult
2000059c g     O .bss	00000004 temp1
200005ac g     O .bss	00000002 FJ_gyro_z
000231f0 g     O .text	00000020 __sf_fake_stderr
200005b8 g     O .bss	00000004 FJ_PitchSpeed
00014e9a g     F .text	0000010a PD_Camera
00007472 g     F .text	00000076 clock_reset
2000784c g       .bss	00000000 end
200003dc g     O .data	00000007 LineCoding
0000aa0c  w      .text	00000000 I2C1_EV_IRQHandler
20000550 g     O .bss	00000004 Right_Up_Find
00003142 g     F .text	000000cc timer_start
20000440 g     O .data	00000001 menu_deep
200005c0 g     O .bss	00000004 FJ_LastAngleSpeed
2000048c g     O .bss	00000002 imu660ra_gyro_z
200003f0 g     O .data	00000004 Speed_Left_Set
0001051e g     F .text	00000204 Break_Road_Detect
0001e1ca g     F .text	000000ee __ssputs_r
0000f122 g     F .text	00000166 Left_Add_Line
0000cc4a g     F .text	00000070 TIM_GetITStatus
20000568 g     O .bss	00000004 Err
000141ba g     F .text	00000402 Monotonicity_Change_Left
200003fc g     O .data	00000004 Island_Speed
000029ec g     F .text	000000ae spi_write_16bit
0000b988 g     F .text	000002c6 RCC_GetClocksFreq
0000560a g     F .text	00000080 imu660ra_get_gyro
2000063c g     O .bss	00000001 data_change_flag
0000a9ee  w      .text	00000000 DMA1_Channel6_IRQHandler
0001bdaa g     F .text	00000076 .hidden __clzsi2
0001e55e g     F .text	00000044 __sfputs_r
200004fc g     O .bss	00000008 ADC_Min_Value
00015168 g     F .text	000000f4 PID_R
00003784 g     F .text	000005b2 uart_init
00009178 g     F .text	000000c4 UART4_IRQHandler
0000aa44  w      .text	00000000 DMA2_Channel4_IRQHandler
0001d916 g     F .text	0000001a memchr
00005090 g     F .text	000000f4 dm1xa_sound_callback
0001c058  w    F .text	000004c4 _printf_float
0000cce8 g     F .text	00000234 USART_Init
0001e04e g     F .text	000000a8 _free_r
00009d8a g     F .text	00000110 TIM3_IRQHandler
0000a9d8  w      .text	00000000 RCC_IRQHandler
0000aa02  w      .text	00000000 TIM1_TRG_COM_IRQHandler
0000a9e4  w      .text	00000000 DMA1_Channel1_IRQHandler
0000e13c g     F .text	0000041c ADC_Get_Err
0000cb06 g     F .text	0000004c TIM_OC1FastConfig
00016264 g     F .text	000001b4 Sec_Menu_08
0000f288 g     F .text	00000166 Right_Add_Line
00000000 g       .init	00000000 _start
20000544 g     O .bss	00000004 Left_Down_Find
0000aa74  w      .text	00000000 DMA2_Channel7_IRQHandler
0000b3a8 g     F .text	0000001c FLASH_ClearFlag
0001f3e2 g     F .text	00000010 _lseek
2000055c g     O .bss	00000001 Outside_Edge_flag
0001dd62 g     F .text	000000ce __lshift
00013fa6 g     F .text	00000214 Find_Right_Up_Point
0000b41e g     F .text	00000058 FLASH_WaitForLastOperation
0000ca06 g     F .text	0000005a TIM_OC2PreloadConfig
0000c96c g     F .text	0000004e TIM_SelectInputTrigger
0001396a g     F .text	00000214 Find_Left_Down_Point
00009ae6 g     F .text	0000012c EXTI15_10_IRQHandler
0000c8b6 g     F .text	00000070 TIM_ITConfig
200004f4 g     O .bss	00000008 ADC_Max_Value
00017636 g     F .text	00000128 Write_Flash
2000043c g     O .data	00000004 I_R
0000c28e g     F .text	000001e2 TIM_OC2Init
0001c96e g     F .text	0000002c strncmp
0000369c g     F .text	00000086 uart_rx_interrupt
0000cf7c g     F .text	000000c4 USART_ITConfig
200004dc g     O .bss	00000004 pEP2_RAM_Addr
200003f8 g     O .data	00000004 Ramp_Speed
000051d2 g     F .text	0000012c dm1xa_init
0000b056 g     F .text	00000170 EXTI_Init
0001db60 g     F .text	00000144 __multiply
00017baa g     F .text	00000ad6 __ieee754_pow
000024a0 g     F .text	000000ac soft_iic_write_8bit_array
00017886 g     F .text	00000324 pow
20006fd0 g     O .bss	00000118 Right_Line
0000718a g     F .text	00000106 mt9v03x_set_exposure_time
0001df54 g     F .text	000000d4 __d2b
20000424 g     O .data	00000004 Island_P
20000443 g     O .data	00000001 menu_show_flag
0000ea08 g     F .text	00000638 Longest_White_Column
0000a46a g     F .text	000000c0 TIM7_IRQHandler
200003ec g     O .data	00000004 Base_Speed
0001eb34 g     F .text	00000032 _close_r
200005a8 g     O .bss	00000004 ZeroDrift_gyro_z
0000aa4c  w      .text	00000000 CAN2_TX_IRQHandler
00013890 g     F .text	000000da Continuity_Change_Right
20000000 g       .dalign	00000000 _data_vma
00009f5a g     F .text	000003ec TIM5_IRQHandler
20000418 g     O .data	00000004 FJ_Angle_Max
20000574 g     O .bss	00000008 PF
20007200 g     O .bss	000002d0 White_Column
0000c64c g     F .text	00000176 TIM_OC4Init
00012b70 g     F .text	0000001e Clear_Gyroscope_Angle
0000d2e6 g     F .text	00000066 DevEP2_OUT_Deal
0001ea24 g     F .text	00000110 __swsetup_r
0000063e g     F .text	00000118 dvp_gpio_init
000099ce g     F .text	00000118 EXTI9_5_IRQHandler
00019c0c g     F .text	000007ea .hidden __divdf3
0001d7e6 g     F .text	000000a0 __sfp
000149be g     F .text	0000013c K_Add_Boundry_Left
00002ffa g     F .text	00000066 timer_funciton_check
0000b8a0 g     F .text	000000a2 GPIO_EXTILineConfig
20007814 g     O .bss	00000010 Un
20000584 g     O .bss	00000004 Pn
0001a5fa g     F .text	00000656 .hidden __muldf3
0001e872 g     F .text	00000030 __sread
00005d2a g     F .text	000000da ips200_clear
200003e5 g     O .data	00000001 Go_Direction
0000aa4a  w      .text	00000000 ETH_WKUP_IRQHandler
0000d280 g     F .text	00000066 DevEP1_OUT_Deal
0001eebc g     F .text	00000002 __malloc_lock
200005d0 g     O .bss	00000004 Left_Island_Flag
0001eca4 g     F .text	00000068 _fflush_r
0001e028 g     F .text	00000026 _calloc_r
0000b1c6 g     F .text	00000056 EXTI_GetITStatus
200004d4 g     O .bss	00000004 pEP0_RAM_Addr
0000aa16  w      .text	00000000 SPI2_IRQHandler
00023210 g     O .text	00000020 __sf_fake_stdin
00020c8c g     O .text	00000012 MyDevDescrHD
2000058c g     O .bss	00000004 t1
00000200 g     F .text	000000a8 memset
20000484 g     O .bss	00000004 gps_rmc_state
200000c0 g     O .data	00000104 MHstructFastCar
0000a77a g     F .text	00000246 main
0000aa6a  w      .text	00000000 TIM10_BRK_IRQHandler
0000c926 g     F .text	00000046 TIM_ITRxExternalClockConfig
00012920 g     F .text	00000116 Get_Gyroscope_Angle
0000aa68  w      .text	00000000 TIM9_CC_IRQHandler
00007290 g     F .text	00000182 mt9v03x_init
000102f6 g     F .text	00000228 Zebra_Stripes_Detect
20006eb8 g     O .bss	00000118 Left_Line
0001e926 g     F .text	00000006 __sclose
0001886a g     F .text	00000004 matherr
0000aa46  w      .text	00000000 DMA2_Channel5_IRQHandler
00011884 g     F .text	00000054 Steer
200003d8 g     O .data	00000001 USBHD_Dev_Speed
0001ba8c g     F .text	0000031e .hidden __truncdfsf2
20000518 g     O .bss	00000004 Boundry_Start_Left
000028c6 g     F .text	000000b6 soft_iic_init
0001cad4 g     F .text	00000bea _dtoa_r
0001e0f6 g     F .text	000000d4 _malloc_r
0001ef4c g     F .text	00000020 __ascii_wctomb
0000cb52 g     F .text	00000056 TIM_OC2FastConfig
00020cf8 g     O .text	0000000e MyManuInfoHD
00018b92 g     F .text	00000602 mt9v03x_set_config_sccb
000002a8 g     F .text	000000bc adc_convert
2000046c g     O .bss	00000001 dl1a_finsh_flag
0000a9ec  w      .text	00000000 DMA1_Channel5_IRQHandler
00020454 g     O .text	00000020 uart_index
00013d92 g     F .text	00000214 Find_Right_Down_Point
0000991a g     F .text	000000b4 EXTI4_IRQHandler
0000a9f6  w      .text	00000000 USB_LP_CAN1_RX0_IRQHandler
000074e8 g     F .text	000001e0 clock_set_freq
0001885c g     F .text	0000000e finite
200003e8 g     O .data	00000004 ADC_Speed
200004b4 g     O .bss	00000004 Speed_Right_Real
20000464 g     O .bss	00000008 camera_receiver_buffer
0000b012 g     F .text	00000044 ADC_BufferCmd
00015efa g     F .text	0000036a Sec_Menu_07
0000bf1a g     F .text	0000005a SPI_Cmd
2000050c g     O .bss	00000004 ADC_Err
00007f34 g     F .text	0000004a debug_init
20000488 g     O .bss	00000002 imu660ra_gyro_x
00010fc4 g     F .text	00000146 Err_Sum
200005c4 g     O .bss	00000004 FJ_AngleSpeed
200004b0 g     O .bss	00000004 Speed_Left_Real
0000aa2c  w      .text	00000000 RNG_IRQHandler
00008e8c g     F .text	0000002a interrupt_set_priority
00018b48 g     F .text	00000016 copysign
0001a3f6 g     F .text	00000098 .hidden __nedf2
0001c8d4 g     F .text	00000042 iprintf
000088fe g     F .text	00000118 func_int_to_str
200004cc g     O .bss	00000008 EP0_DatabufHD
20000540 g     O .bss	00000004 Cross_Flag
00010722 g     F .text	000001c8 Lengthen_Left_Boundry
200005b0 g     O .bss	00000004 FJ_Angle
200003e3 g     O .data	00000001 Island_Switch
0000a9f4  w      .text	00000000 USB_HP_CAN1_TX_IRQHandler
0001c916 g     F .text	00000046 sprintf
00023068 g     O .text	00000100 .hidden __clz_tab
0001bfcc g     F .text	0000008c __exponent
00000000 g       .init	00000000 _sinit
0000d242 g     F .text	0000003e DevEP2_IN_Deal
20000441 g     O .data	00000001 sec_menu_item
20000524 g     O .bss	00000004 Right_Lost_Time
0001e9ee g     F .text	00000036 _write_r
0000a9e8  w      .text	00000000 DMA1_Channel3_IRQHandler
0000089a g     F .text	00000152 encoder_get_count
000203a8 g     O .text	0000000c spi_index
00008af0 g     F .text	000002a6 func_double_to_str
0000aa2e  w      .text	00000000 FSMC_IRQHandler
0000aa48  w      .text	00000000 ETH_IRQHandler
0001c51c g     F .text	0000010c _printf_common
20000448 g     O .data	00000004 _impure_ptr
00014afa g     F .text	0000013c K_Add_Boundry_Right
00009c12 g     F .text	000000c0 TIM1_UP_IRQHandler
00000364 g     F .text	00000194 adc_init
0001eb66 g     F .text	0000013e __sflush_r
00018a08 g     F .text	00000140 scalbn
2000053c g     O .bss	00000004 Ramp_Flag
200003e4 g     O .data	00000001 Go
200004ec g     O .bss	00000008 ADC_Sum_Value
0001e2b8 g     F .text	0000027e _svfiprintf_r
20007700 g     O .bss	00000104 MHstruct
0000a9ce  w      .text	00000000 WWDG_IRQHandler
0000aa56  w      .text	00000000 USBHSWakeup_IRQHandler
0000aa7c  w      .text	00000000 DMA2_Channel11_IRQHandler
0000bd66 g     F .text	00000046 RCC_APB1PeriphResetCmd
0001ee38 g     F .text	0000003a __ascii_mbtowc
0000a9c6  w      .text	00000000 Ecall_U_Mode_Handler
000108ea g     F .text	000001c8 Lengthen_Right_Boundry
00007e32 g     F .text	0000005a debug_output_struct_init
0000626c g     F .text	00000146 ips200_show_int
0000aa72  w      .text	00000000 DMA2_Channel6_IRQHandler
00009cd2 g     F .text	000000b8 TIM2_IRQHandler
20010000 g       .stack	00000000 _eusrstack
0000a9cc  w      .text	00000000 SW_Handler
0001886e g     F .text	0000000e nan
000052fe g     F .text	00000112 gps_uart_callback
0000104a g     F .text	000000b0 flash_read_page_to_buffer
20000520 g     O .bss	00000004 Left_Lost_Time
0000ab08 g     F .text	00000060 ADC_DeInit
0000297c g     F .text	00000070 spi_write_8bit
00020ca0 g     O .text	00000043 MyCfgDescrHD
20000554 g     O .bss	00000004 Zebra_Stripes_Flag
200005d8 g     O .bss	00000008 Left_Up_Guai
20000498 g     O .bss	00000001 mt9v03x_finish_flag
20000558 g     O .bss	00000001 Obstacle_Dir
00018680 g     F .text	000001d6 __ieee754_sqrt
0000614e g     F .text	0000011e ips200_show_string
20000414 g     O .data	00000004 Shift_Ratio
0000a9fe  w      .text	00000000 TIM1_BRK_IRQHandler
0001ed40 g     F .text	00000058 __swhatbuf_r
0000ab68 g     F .text	00000102 ADC_Init
0000d040 g     F .text	0000002e USART_SendData
00010e4a g     F .text	0000017a Barricade_Detect
20000564 g     O .bss	00000004 Steer_Angle
0000aa7a  w      .text	00000000 DMA2_Channel10_IRQHandler
00016432 g     F .text	00000042 Sec_Menu_10
00015c06 g     F .text	0000012c Sec_Menu_04
000096fe g     F .text	000000b4 EXTI1_IRQHandler
00007420 g     F .text	00000052 set_camera_type
0000e558 g     F .text	000003f8 My_Adapt_Threshold
000070c0 g     F .text	000000ca mt9v03x_get_version
2000055a g     O .bss	00000001 Ramp_Switch
00007cf8 g     F .text	00000080 _write
20000460 g       .data	00000000 _edata
20000654 g     O .bss	00000400 flash_union_buffer
200005b4 g     O .bss	00000004 FJ_Pitch
20000570 g     O .bss	00000004 U
200004e4 g     O .bss	00000002 USBHD_Dev_SetupReqLen
0000bf74 g     F .text	0000017e TIM_TimeBaseInit
0000aa20  w      .text	00000000 RTCAlarm_IRQHandler
00004794 g     F .text	000008fc dl1a_init
200074d0 g     O .bss	00000118 Left_Lost_Flag
00005e04 g     F .text	00000046 ips200_set_dir
00023474 g       .dlalign	00000000 _data_lma
0000a6aa g     F .text	000000b8 TIM10_UP_IRQHandler
0000aa66  w      .text	00000000 TIM9_TRG_COM_IRQHandler
000093c2 g     F .text	000000f8 UART7_IRQHandler
00008ff0 g     F .text	000000c4 USART2_IRQHandler
000092fe g     F .text	000000c4 UART6_IRQHandler
0001e8a2 g     F .text	0000004e __swrite
20000480 g     O .bss	00000004 gps_gga_state
0001e5a2 g     F .text	0000029e _vfiprintf_r
0001d886 g     F .text	0000006c _fwalk_reent
00005e76 g     F .text	000002d8 ips200_show_char
0001de62 g     F .text	000000f2 __mdiff
000118d8 g     F .text	00000058 InitMH
0000801a g     F .text	00000102 fifo_clear
00016418 g     F .text	0000001a Sec_Menu_09
00008eb6 g     F .text	00000032 interrupt_global_enable
0000aa12  w      .text	00000000 I2C2_ER_IRQHandler
20000410 g     O .data	00000004 ADC_Diff
0000a9e6  w      .text	00000000 DMA1_Channel2_IRQHandler
200005d4 g     O .bss	00000004 Right_Island_Flag
00014d80 g     F .text	0000011a Key_Scan
000112fe g     F .text	0000046a Velocity_Control
00007de2 g     F .text	00000050 debug_log_handler
00023230 g     O .text	00000020 __sf_fake_stdout
0001c916 g     F .text	00000046 siprintf
200005ae g     O .bss	00000002 FJ_gyro_y
20000560 g     O .bss	00000001 Electromagnet_Flag
00016474 g     F .text	000011c2 Menu_Select
0000aa24  w      .text	00000000 TIM8_BRK_IRQHandler
00023370 g     O .text	00000101 _ctype_
000051b6 g     F .text	0000001c dm1xa_transmitter_ranging
0001f3f2 g     F .text	00000010 _read
0001b6dc g     F .text	0000007c .hidden __unorddf2
0000aa7e  w      .text	00000000 handle_reset
00010202 g     F .text	000000f4 Ramp_Detect
0000a9fa  w      .text	00000000 CAN1_SCE_IRQHandler
20003d38 g     O .bss	00000028 ADC_Raw_Value
2000000c g     O .data	00000014 gpio_group
0000a9d6  w      .text	00000000 FLASH_IRQHandler
0000059a g     F .text	000000a4 system_delay_us
0000698c g     F .text	0000044c ips200_init
20000408 g     O .data	00000004 Island_Diff
20003d70 g     O .bss	00000010 ADC_Nor_Value
00008f2c g     F .text	000000c4 USART1_IRQHandler
0001ed98 g     F .text	000000a0 __smakebuf_r
000035d4 g     F .text	00000066 uart_write_buffer
00008e50 g     F .text	0000001e interrupt_enable
0000363a g     F .text	00000062 uart_write_string
20000504 g     O .bss	00000004 ADC_Sum
200005cc g     O .bss	00000004 Island_State
0001c95c g     F .text	00000012 strlen
0000d34c g     F .text	00000d32 OTG_FS_IRQHandler
0001c628 g     F .text	000002ac _printf_i
0000aa34  w      .text	00000000 SPI3_IRQHandler
200003c8 g     O .data	00000004 camera_dvp_handler
0000811c g     F .text	00000046 fifo_used
0001591e g     F .text	000002e8 Sec_Menu_03
0001a48e g     F .text	000000b6 .hidden __gedf2
2000055b g     O .bss	00000001 Img_Disappear_Flag
2000064c g     O .bss	00000004 __malloc_sbrk_start
0000bd20 g     F .text	00000046 RCC_APB2PeriphResetCmd
20000438 g     O .data	00000004 P_R
0000aa0e  w      .text	00000000 I2C1_ER_IRQHandler
20000430 g     O .data	00000004 P_L
0000330e g     F .text	000000c6 timer_clear
0000267e g     F .text	00000102 soft_iic_read_8bit_registers
00001298 g     F .text	00000042 gpio_get_level
0000be22 g     F .text	000000f8 SPI_Init
000012da g     F .text	0000015c gpio_init
20000428 g     O .data	00000004 Island_D
20000648 g     O .bss	00000004 __malloc_free_list
200005a4 g     O .bss	00000004 ZeroDrift_gyro_y
00000f6c g     F .text	000000de flash_erase_sector
00020df4 g     O .text	00000046 Standard_Road_Wide
0001ac50 g     F .text	00000a8c .hidden __subdf3
0001e5a2 g     F .text	0000029e _vfprintf_r
20000aa4 g     O .bss	0000001c camera_receiver_fifo
0001dada g     F .text	0000006a __lo0bits
0000e950 g     F .text	000000b8 Image_Binarization
200004d8 g     O .bss	00000004 pEP1_RAM_Addr
200075e8 g     O .bss	00000118 Right_Lost_Flag
0000b3c4 g     F .text	0000005a FLASH_GetBank1Status
20000434 g     O .data	00000004 I_L
00000756 g     F .text	00000144 dvp_camera_init
0000cbf4 g     F .text	00000056 TIM_OC4FastConfig
0000670e g     F .text	0000027e ips200_show_gray_image
2000041c g     O .data	00000004 FJ_Angle_Min
20000224 g     O .data	0000016c __global_locale
00011768 g     F .text	0000008e Motor_Left
0000aa22  w      .text	00000000 USBWakeUp_IRQHandler
00005184 g     F .text	00000032 dm1xa_light_callback
0001efe2 g     F .text	000003d0 .hidden __trunctfdf2
0001f3b2 g     F .text	00000010 _close
00020fe8 g     O .text	00002000 imu660ra_config_file
0000aa42  w      .text	00000000 DMA2_Channel3_IRQHandler
0001d9fc g     F .text	00000098 __multadd
00008ee8 g     F .text	0000002c interrupt_global_disable
0001d9b8 g     F .text	00000044 _Bfree
0000357a g     F .text	0000005a uart_write_byte



Disassembly of section .init:

00000000 <_sinit>:
_start():
D:/Backup/桌面/Seekfree_CH32V307VCT6_Opensource_Library/libraries/sdk/Startup/startup_ch32v30x_D8C.S:15

	.section	.init,"ax",@progbits
	.global	_start
	.align	1
_start:
	j	handle_reset
   0:	27f0a06f          	j	aa7e <handle_reset>
   4:	00000013          	nop
   8:	00000013          	nop
   c:	00000013          	nop
  10:	00000013          	nop
  14:	00000013          	nop
  18:	00000013          	nop
  1c:	00000013          	nop
  20:	00000013          	nop
  24:	00000013          	nop
  28:	00000013          	nop
  2c:	00000013          	nop
  30:	00000013          	nop
  34:	00100073          	ebreak

Disassembly of section .vector:

00000038 <_vector_base>:
	...
_vector_base():
  40:	a762                	fsd	fs8,392(sp)
  42:	0000                	unimp
  44:	a772                	fsd	ft8,392(sp)
  46:	0000                	unimp
  48:	0000                	unimp
  4a:	0000                	unimp
  4c:	a9c4                	fsd	fs1,144(a1)
	...
  56:	0000                	unimp
  58:	a9c6                	fsd	fa7,208(sp)
  5a:	0000                	unimp
  5c:	a9c8                	fsd	fa0,144(a1)
	...
  66:	0000                	unimp
  68:	a9ca                	fsd	fs2,208(sp)
  6a:	0000                	unimp
  6c:	0000                	unimp
  6e:	0000                	unimp
  70:	a9cc                	fsd	fa1,144(a1)
  72:	0000                	unimp
  74:	0000                	unimp
  76:	0000                	unimp
  78:	a9ce                	fsd	fs3,208(sp)
  7a:	0000                	unimp
  7c:	a9d0                	fsd	fa2,144(a1)
  7e:	0000                	unimp
  80:	a9d2                	fsd	fs4,208(sp)
  82:	0000                	unimp
  84:	a9d4                	fsd	fa3,144(a1)
  86:	0000                	unimp
  88:	a9d6                	fsd	fs5,208(sp)
  8a:	0000                	unimp
  8c:	a9d8                	fsd	fa4,144(a1)
  8e:	0000                	unimp
  90:	964a                	add	a2,a2,s2
  92:	0000                	unimp
  94:	96fe                	add	a3,a3,t6
  96:	0000                	unimp
  98:	97b2                	add	a5,a5,a2
  9a:	0000                	unimp
  9c:	9866                	add	a6,a6,s9
  9e:	0000                	unimp
  a0:	991a                	add	s2,s2,t1
  a2:	0000                	unimp
  a4:	a9e4                	fsd	fs1,208(a1)
  a6:	0000                	unimp
  a8:	a9e6                	fsd	fs9,208(sp)
  aa:	0000                	unimp
  ac:	a9e8                	fsd	fa0,208(a1)
  ae:	0000                	unimp
  b0:	a9ea                	fsd	fs10,208(sp)
  b2:	0000                	unimp
  b4:	a9ec                	fsd	fa1,208(a1)
  b6:	0000                	unimp
  b8:	a9ee                	fsd	fs11,208(sp)
  ba:	0000                	unimp
  bc:	a9f0                	fsd	fa2,208(a1)
  be:	0000                	unimp
  c0:	a9f2                	fsd	ft8,208(sp)
  c2:	0000                	unimp
  c4:	a9f4                	fsd	fa3,208(a1)
  c6:	0000                	unimp
  c8:	a9f6                	fsd	ft9,208(sp)
  ca:	0000                	unimp
  cc:	a9f8                	fsd	fa4,208(a1)
  ce:	0000                	unimp
  d0:	a9fa                	fsd	ft10,208(sp)
  d2:	0000                	unimp
  d4:	99ce                	add	s3,s3,s3
  d6:	0000                	unimp
  d8:	a9fe                	fsd	ft11,208(sp)
  da:	0000                	unimp
  dc:	9c12                	add	s8,s8,tp
  de:	0000                	unimp
  e0:	aa02                	fsd	ft0,272(sp)
  e2:	0000                	unimp
  e4:	aa04                	fsd	fs1,16(a2)
  e6:	0000                	unimp
  e8:	9cd2                	add	s9,s9,s4
  ea:	0000                	unimp
  ec:	9d8a                	add	s11,s11,sp
  ee:	0000                	unimp
  f0:	9e9a                	add	t4,t4,t1
  f2:	0000                	unimp
  f4:	aa0c                	fsd	fa1,16(a2)
  f6:	0000                	unimp
  f8:	aa0e                	fsd	ft3,272(sp)
  fa:	0000                	unimp
  fc:	aa10                	fsd	fa2,16(a2)
  fe:	0000                	unimp
 100:	aa12                	fsd	ft4,272(sp)
 102:	0000                	unimp
 104:	aa14                	fsd	fa3,16(a2)
 106:	0000                	unimp
 108:	aa16                	fsd	ft5,272(sp)
 10a:	0000                	unimp
 10c:	8f2c                	0x8f2c
 10e:	0000                	unimp
 110:	8ff0                	0x8ff0
 112:	0000                	unimp
 114:	90b4                	0x90b4
 116:	0000                	unimp
 118:	9ae6                	add	s5,s5,s9
 11a:	0000                	unimp
 11c:	aa20                	fsd	fs0,80(a2)
 11e:	0000                	unimp
 120:	aa22                	fsd	fs0,272(sp)
 122:	0000                	unimp
 124:	aa24                	fsd	fs1,80(a2)
 126:	0000                	unimp
 128:	a52a                	fsd	fa0,136(sp)
 12a:	0000                	unimp
 12c:	aa28                	fsd	fa0,80(a2)
 12e:	0000                	unimp
 130:	aa2a                	fsd	fa0,272(sp)
 132:	0000                	unimp
 134:	aa2c                	fsd	fa1,80(a2)
 136:	0000                	unimp
 138:	aa2e                	fsd	fa1,272(sp)
 13a:	0000                	unimp
 13c:	aa30                	fsd	fa2,80(a2)
 13e:	0000                	unimp
 140:	9f5a                	add	t5,t5,s6
 142:	0000                	unimp
 144:	aa34                	fsd	fa3,80(a2)
 146:	0000                	unimp
 148:	9178                	0x9178
 14a:	0000                	unimp
 14c:	923c                	0x923c
 14e:	0000                	unimp
 150:	a346                	fsd	fa7,384(sp)
 152:	0000                	unimp
 154:	a46a                	fsd	fs10,8(sp)
 156:	0000                	unimp
 158:	aa3e                	fsd	fa5,272(sp)
 15a:	0000                	unimp
 15c:	aa40                	fsd	fs0,144(a2)
 15e:	0000                	unimp
 160:	aa42                	fsd	fa6,272(sp)
 162:	0000                	unimp
 164:	aa44                	fsd	fs1,144(a2)
 166:	0000                	unimp
 168:	aa46                	fsd	fa7,272(sp)
 16a:	0000                	unimp
 16c:	aa48                	fsd	fa0,144(a2)
 16e:	0000                	unimp
 170:	aa4a                	fsd	fs2,272(sp)
 172:	0000                	unimp
 174:	aa4c                	fsd	fa1,144(a2)
 176:	0000                	unimp
 178:	aa4e                	fsd	fs3,272(sp)
 17a:	0000                	unimp
 17c:	aa50                	fsd	fa2,144(a2)
 17e:	0000                	unimp
 180:	aa52                	fsd	fs4,272(sp)
 182:	0000                	unimp
 184:	d34c                	sw	a1,36(a4)
 186:	0000                	unimp
 188:	aa56                	fsd	fs5,272(sp)
 18a:	0000                	unimp
 18c:	aa58                	fsd	fa4,144(a2)
 18e:	0000                	unimp
 190:	957a                	add	a0,a0,t5
 192:	0000                	unimp
 194:	92fe                	add	t0,t0,t6
 196:	0000                	unimp
 198:	93c2                	add	t2,t2,a6
 19a:	0000                	unimp
 19c:	94ba                	add	s1,s1,a4
 19e:	0000                	unimp
 1a0:	aa62                	fsd	fs8,272(sp)
 1a2:	0000                	unimp
 1a4:	a5ea                	fsd	fs10,200(sp)
 1a6:	0000                	unimp
 1a8:	aa66                	fsd	fs9,272(sp)
 1aa:	0000                	unimp
 1ac:	aa68                	fsd	fa0,208(a2)
 1ae:	0000                	unimp
 1b0:	aa6a                	fsd	fs10,272(sp)
 1b2:	0000                	unimp
 1b4:	a6aa                	fsd	fa0,328(sp)
 1b6:	0000                	unimp
 1b8:	aa6e                	fsd	fs11,272(sp)
 1ba:	0000                	unimp
 1bc:	aa70                	fsd	fa2,208(a2)
 1be:	0000                	unimp
 1c0:	aa72                	fsd	ft8,272(sp)
 1c2:	0000                	unimp
 1c4:	aa74                	fsd	fa3,208(a2)
 1c6:	0000                	unimp
 1c8:	aa76                	fsd	ft9,272(sp)
 1ca:	0000                	unimp
 1cc:	aa78                	fsd	fa4,208(a2)
 1ce:	0000                	unimp
 1d0:	aa7a                	fsd	ft10,272(sp)
 1d2:	0000                	unimp
 1d4:	aa7c                	fsd	fa5,208(a2)
	...

Disassembly of section .text:

00000200 <memset>:
memset():
     200:	433d                	li	t1,15
     202:	872a                	mv	a4,a0
     204:	02c37363          	bgeu	t1,a2,22a <memset+0x2a>
     208:	00f77793          	andi	a5,a4,15
     20c:	efbd                	bnez	a5,28a <memset+0x8a>
     20e:	e5ad                	bnez	a1,278 <memset+0x78>
     210:	ff067693          	andi	a3,a2,-16
     214:	8a3d                	andi	a2,a2,15
     216:	96ba                	add	a3,a3,a4
     218:	c30c                	sw	a1,0(a4)
     21a:	c34c                	sw	a1,4(a4)
     21c:	c70c                	sw	a1,8(a4)
     21e:	c74c                	sw	a1,12(a4)
     220:	0741                	addi	a4,a4,16
     222:	fed76be3          	bltu	a4,a3,218 <memset+0x18>
     226:	e211                	bnez	a2,22a <memset+0x2a>
     228:	8082                	ret
     22a:	40c306b3          	sub	a3,t1,a2
     22e:	068a                	slli	a3,a3,0x2
     230:	00000297          	auipc	t0,0x0
     234:	9696                	add	a3,a3,t0
     236:	00a68067          	jr	10(a3)
     23a:	00b70723          	sb	a1,14(a4)
     23e:	00b706a3          	sb	a1,13(a4)
     242:	00b70623          	sb	a1,12(a4)
     246:	00b705a3          	sb	a1,11(a4)
     24a:	00b70523          	sb	a1,10(a4)
     24e:	00b704a3          	sb	a1,9(a4)
     252:	00b70423          	sb	a1,8(a4)
     256:	00b703a3          	sb	a1,7(a4)
     25a:	00b70323          	sb	a1,6(a4)
     25e:	00b702a3          	sb	a1,5(a4)
     262:	00b70223          	sb	a1,4(a4)
     266:	00b701a3          	sb	a1,3(a4)
     26a:	00b70123          	sb	a1,2(a4)
     26e:	00b700a3          	sb	a1,1(a4)
     272:	00b70023          	sb	a1,0(a4)
     276:	8082                	ret
     278:	0ff5f593          	andi	a1,a1,255
     27c:	00859693          	slli	a3,a1,0x8
     280:	8dd5                	or	a1,a1,a3
     282:	01059693          	slli	a3,a1,0x10
     286:	8dd5                	or	a1,a1,a3
     288:	b761                	j	210 <memset+0x10>
     28a:	00279693          	slli	a3,a5,0x2
     28e:	00000297          	auipc	t0,0x0
     292:	9696                	add	a3,a3,t0
     294:	8286                	mv	t0,ra
     296:	fa8680e7          	jalr	-88(a3)
     29a:	8096                	mv	ra,t0
     29c:	17c1                	addi	a5,a5,-16
     29e:	8f1d                	sub	a4,a4,a5
     2a0:	963e                	add	a2,a2,a5
     2a2:	f8c374e3          	bgeu	t1,a2,22a <memset+0x2a>
     2a6:	b7a5                	j	20e <memset+0xe>

000002a8 <adc_convert>:
adc_convert():
D:/Backup/桌面/Seekfree_CH32V307VCT6_Opensource_Library/libraries/zf_driver/zf_driver_adc.c:57
// 参数说明     resolution      分辨率(8位 10位 12位)
// 返回参数     void
// 使用示例     adc_convert(ADC_IN0_A0, ADC_8BIT);  //采集A0端口返回8位分辨率的AD值
//-------------------------------------------------------------------------------------------------------------------
uint16 adc_convert (adc_channel_enum ch)
{
     2a8:	7179                	addi	sp,sp,-48
     2aa:	d606                	sw	ra,44(sp)
     2ac:	d422                	sw	s0,40(sp)
     2ae:	1800                	addi	s0,sp,48
     2b0:	fca42e23          	sw	a0,-36(s0)
D:/Backup/桌面/Seekfree_CH32V307VCT6_Opensource_Library/libraries/zf_driver/zf_driver_adc.c:58
    uint8 adc = ((ch & 0xF000) >> 12);
     2b4:	fdc42783          	lw	a5,-36(s0)
     2b8:	83b1                	srli	a5,a5,0xc
     2ba:	0ff7f793          	andi	a5,a5,255
     2be:	8bbd                	andi	a5,a5,15
     2c0:	fef407a3          	sb	a5,-17(s0)
D:/Backup/桌面/Seekfree_CH32V307VCT6_Opensource_Library/libraries/zf_driver/zf_driver_adc.c:59
    uint8 adc_ch = (uint8)(ch >> 8) & 0xF;
     2c4:	fdc42783          	lw	a5,-36(s0)
     2c8:	83a1                	srli	a5,a5,0x8
     2ca:	0ff7f793          	andi	a5,a5,255
     2ce:	8bbd                	andi	a5,a5,15
     2d0:	fef40723          	sb	a5,-18(s0)
D:/Backup/桌面/Seekfree_CH32V307VCT6_Opensource_Library/libraries/zf_driver/zf_driver_adc.c:61

    ADC_RegularChannelConfig(adc_index[adc], adc_ch, 1, ADC_SampleTime_41Cycles5);  // 使能对应通道
     2d4:	fef44703          	lbu	a4,-17(s0)
     2d8:	200007b7          	lui	a5,0x20000
     2dc:	070a                	slli	a4,a4,0x2
     2de:	39078793          	addi	a5,a5,912 # 20000390 <adc_index>
     2e2:	97ba                	add	a5,a5,a4
     2e4:	439c                	lw	a5,0(a5)
     2e6:	fee44703          	lbu	a4,-18(s0)
     2ea:	4691                	li	a3,4
     2ec:	4605                	li	a2,1
     2ee:	85ba                	mv	a1,a4
     2f0:	853e                	mv	a0,a5
     2f2:	29f0a0ef          	jal	ra,ad90 <ADC_RegularChannelConfig>
D:/Backup/桌面/Seekfree_CH32V307VCT6_Opensource_Library/libraries/zf_driver/zf_driver_adc.c:62
    ADC_SoftwareStartConvCmd(adc_index[adc], ENABLE);                               // 开始数据转换
     2f6:	fef44703          	lbu	a4,-17(s0)
     2fa:	200007b7          	lui	a5,0x20000
     2fe:	070a                	slli	a4,a4,0x2
     300:	39078793          	addi	a5,a5,912 # 20000390 <adc_index>
     304:	97ba                	add	a5,a5,a4
     306:	439c                	lw	a5,0(a5)
     308:	4585                	li	a1,1
     30a:	853e                	mv	a0,a5
     30c:	2410a0ef          	jal	ra,ad4c <ADC_SoftwareStartConvCmd>
D:/Backup/桌面/Seekfree_CH32V307VCT6_Opensource_Library/libraries/zf_driver/zf_driver_adc.c:63
    while(!ADC_GetFlagStatus(adc_index[adc], ADC_FLAG_EOC ));                       // 等待数据转换完成
     310:	0001                	nop
D:/Backup/桌面/Seekfree_CH32V307VCT6_Opensource_Library/libraries/zf_driver/zf_driver_adc.c:63 (discriminator 1)
     312:	fef44703          	lbu	a4,-17(s0)
     316:	200007b7          	lui	a5,0x20000
     31a:	070a                	slli	a4,a4,0x2
     31c:	39078793          	addi	a5,a5,912 # 20000390 <adc_index>
     320:	97ba                	add	a5,a5,a4
     322:	439c                	lw	a5,0(a5)
     324:	4589                	li	a1,2
     326:	853e                	mv	a0,a5
     328:	4b10a0ef          	jal	ra,afd8 <ADC_GetFlagStatus>
     32c:	87aa                	mv	a5,a0
     32e:	d3f5                	beqz	a5,312 <adc_convert+0x6a>
D:/Backup/桌面/Seekfree_CH32V307VCT6_Opensource_Library/libraries/zf_driver/zf_driver_adc.c:64
    return ((adc_index[adc]->RDATAR) >> adc_resolution[adc]);                       // 读取数据
     330:	fef44703          	lbu	a4,-17(s0)
     334:	200007b7          	lui	a5,0x20000
     338:	070a                	slli	a4,a4,0x2
     33a:	39078793          	addi	a5,a5,912 # 20000390 <adc_index>
     33e:	97ba                	add	a5,a5,a4
     340:	439c                	lw	a5,0(a5)
     342:	47fc                	lw	a5,76(a5)
     344:	fef44683          	lbu	a3,-17(s0)
     348:	8d018713          	addi	a4,gp,-1840 # 20000460 <_edata>
     34c:	9736                	add	a4,a4,a3
     34e:	00074703          	lbu	a4,0(a4)
     352:	00e7d7b3          	srl	a5,a5,a4
     356:	07c2                	slli	a5,a5,0x10
     358:	83c1                	srli	a5,a5,0x10
D:/Backup/桌面/Seekfree_CH32V307VCT6_Opensource_Library/libraries/zf_driver/zf_driver_adc.c:65
}
     35a:	853e                	mv	a0,a5
     35c:	50b2                	lw	ra,44(sp)
     35e:	5422                	lw	s0,40(sp)
     360:	6145                	addi	sp,sp,48
     362:	8082                	ret

00000364 <adc_init>:
adc_init():
D:/Backup/桌面/Seekfree_CH32V307VCT6_Opensource_Library/libraries/zf_driver/zf_driver_adc.c:99
// 参数说明     adc_ch      adc_ch通道(可选择范围由zf_adc.h内ADC_CH_enum枚举值确定)
// 返回参数     void
// 使用示例    adc_init(ADC_IN0_A0);//初始化A0引脚为ADC功能
//-------------------------------------------------------------------------------------------------------------------
void adc_init (adc_channel_enum ch, adc_resolution_enum resolution)
{
     364:	715d                	addi	sp,sp,-80
     366:	c686                	sw	ra,76(sp)
     368:	c4a2                	sw	s0,72(sp)
     36a:	0880                	addi	s0,sp,80
     36c:	faa42e23          	sw	a0,-68(s0)
     370:	fab42c23          	sw	a1,-72(s0)
D:/Backup/桌面/Seekfree_CH32V307VCT6_Opensource_Library/libraries/zf_driver/zf_driver_adc.c:100
    ADC_InitTypeDef ADC_InitStructure = {0};
     374:	fc042623          	sw	zero,-52(s0)
     378:	fc042823          	sw	zero,-48(s0)
     37c:	fc042a23          	sw	zero,-44(s0)
     380:	fc042c23          	sw	zero,-40(s0)
     384:	fc042e23          	sw	zero,-36(s0)
     388:	fe042023          	sw	zero,-32(s0)
     38c:	fe042223          	sw	zero,-28(s0)
     390:	fe042423          	sw	zero,-24(s0)
D:/Backup/桌面/Seekfree_CH32V307VCT6_Opensource_Library/libraries/zf_driver/zf_driver_adc.c:102

    uint8 adc = ((ch & 0xF000) >> 12);
     394:	fbc42783          	lw	a5,-68(s0)
     398:	83b1                	srli	a5,a5,0xc
     39a:	0ff7f793          	andi	a5,a5,255
     39e:	8bbd                	andi	a5,a5,15
     3a0:	fef407a3          	sb	a5,-17(s0)
D:/Backup/桌面/Seekfree_CH32V307VCT6_Opensource_Library/libraries/zf_driver/zf_driver_adc.c:103
    gpio_init(ch&0xFF, GPI, 0, GPI_ANAOG_IN);                           // GPIO初始化
     3a4:	fbc42783          	lw	a5,-68(s0)
     3a8:	0ff7f793          	andi	a5,a5,255
     3ac:	4681                	li	a3,0
     3ae:	4601                	li	a2,0
     3b0:	4581                	li	a1,0
     3b2:	853e                	mv	a0,a5
     3b4:	727000ef          	jal	ra,12da <gpio_init>
D:/Backup/桌面/Seekfree_CH32V307VCT6_Opensource_Library/libraries/zf_driver/zf_driver_adc.c:105

    if(adc == 0)
     3b8:	fef44783          	lbu	a5,-17(s0)
     3bc:	e799                	bnez	a5,3ca <adc_init+0x66>
D:/Backup/桌面/Seekfree_CH32V307VCT6_Opensource_Library/libraries/zf_driver/zf_driver_adc.c:107
    {
        RCC_APB2PeriphClockCmd(RCC_APB2Periph_ADC1 , ENABLE );          // 使能ADC1通道时钟
     3be:	4585                	li	a1,1
     3c0:	20000513          	li	a0,512
     3c4:	0d10b0ef          	jal	ra,bc94 <RCC_APB2PeriphClockCmd>
     3c8:	a819                	j	3de <adc_init+0x7a>
D:/Backup/桌面/Seekfree_CH32V307VCT6_Opensource_Library/libraries/zf_driver/zf_driver_adc.c:109
    }
    else if(adc == 1)
     3ca:	fef44703          	lbu	a4,-17(s0)
     3ce:	4785                	li	a5,1
     3d0:	00f71763          	bne	a4,a5,3de <adc_init+0x7a>
D:/Backup/桌面/Seekfree_CH32V307VCT6_Opensource_Library/libraries/zf_driver/zf_driver_adc.c:111
    {
        RCC_APB2PeriphClockCmd(RCC_APB2Periph_ADC2 , ENABLE );          // 使能ADC2通道时钟
     3d4:	4585                	li	a1,1
     3d6:	40000513          	li	a0,1024
     3da:	0bb0b0ef          	jal	ra,bc94 <RCC_APB2PeriphClockCmd>
D:/Backup/桌面/Seekfree_CH32V307VCT6_Opensource_Library/libraries/zf_driver/zf_driver_adc.c:114
    }

    RCC_ADCCLKConfig(RCC_PCLK2_Div8);
     3de:	6531                	lui	a0,0xc
     3e0:	5620b0ef          	jal	ra,b942 <RCC_ADCCLKConfig>
D:/Backup/桌面/Seekfree_CH32V307VCT6_Opensource_Library/libraries/zf_driver/zf_driver_adc.c:120


//    if(system_clock > 84000000)  RCC_ADCCLKConfig(RCC_PCLK2_Div8);    // 设置ADC分频因子，ADC最大速率不能超过14M
//    else RCC_ADCCLKConfig(RCC_PCLK2_Div6);

    ADC_DeInit(adc_index[adc]);
     3e4:	fef44703          	lbu	a4,-17(s0)
     3e8:	200007b7          	lui	a5,0x20000
     3ec:	070a                	slli	a4,a4,0x2
     3ee:	39078793          	addi	a5,a5,912 # 20000390 <adc_index>
     3f2:	97ba                	add	a5,a5,a4
     3f4:	439c                	lw	a5,0(a5)
     3f6:	853e                	mv	a0,a5
     3f8:	7100a0ef          	jal	ra,ab08 <ADC_DeInit>
D:/Backup/桌面/Seekfree_CH32V307VCT6_Opensource_Library/libraries/zf_driver/zf_driver_adc.c:121
    ADC_InitStructure.ADC_Mode = ADC_Mode_Independent;                  // ADC工作模式:ADC1工作在独立模式
     3fc:	fc042623          	sw	zero,-52(s0)
D:/Backup/桌面/Seekfree_CH32V307VCT6_Opensource_Library/libraries/zf_driver/zf_driver_adc.c:122
    ADC_InitStructure.ADC_ScanConvMode = DISABLE;                       // 模数转换工作在单通道模式
     400:	fc042823          	sw	zero,-48(s0)
D:/Backup/桌面/Seekfree_CH32V307VCT6_Opensource_Library/libraries/zf_driver/zf_driver_adc.c:123
    ADC_InitStructure.ADC_ContinuousConvMode = DISABLE;                 // 模数转换工作在单次转换模式
     404:	fc042a23          	sw	zero,-44(s0)
D:/Backup/桌面/Seekfree_CH32V307VCT6_Opensource_Library/libraries/zf_driver/zf_driver_adc.c:124
    ADC_InitStructure.ADC_ExternalTrigConv = ADC_ExternalTrigConv_None; // 转换由软件而不是外部触发启动
     408:	000e07b7          	lui	a5,0xe0
     40c:	fcf42c23          	sw	a5,-40(s0)
D:/Backup/桌面/Seekfree_CH32V307VCT6_Opensource_Library/libraries/zf_driver/zf_driver_adc.c:125
    ADC_InitStructure.ADC_DataAlign = ADC_DataAlign_Right;              // ADC数据右对齐
     410:	fc042e23          	sw	zero,-36(s0)
D:/Backup/桌面/Seekfree_CH32V307VCT6_Opensource_Library/libraries/zf_driver/zf_driver_adc.c:126
    ADC_InitStructure.ADC_NbrOfChannel = 1;                             // 顺序进行规则转换的ADC通道的数目
     414:	4785                	li	a5,1
     416:	fef40023          	sb	a5,-32(s0)
D:/Backup/桌面/Seekfree_CH32V307VCT6_Opensource_Library/libraries/zf_driver/zf_driver_adc.c:127
    ADC_Init(adc_index[adc], &ADC_InitStructure);                       // 根据ADC_InitStruct中指定的参数初始化外设ADCx的寄存器
     41a:	fef44703          	lbu	a4,-17(s0)
     41e:	200007b7          	lui	a5,0x20000
     422:	070a                	slli	a4,a4,0x2
     424:	39078793          	addi	a5,a5,912 # 20000390 <adc_index>
     428:	97ba                	add	a5,a5,a4
     42a:	439c                	lw	a5,0(a5)
     42c:	fcc40713          	addi	a4,s0,-52
     430:	85ba                	mv	a1,a4
     432:	853e                	mv	a0,a5
     434:	7340a0ef          	jal	ra,ab68 <ADC_Init>
D:/Backup/桌面/Seekfree_CH32V307VCT6_Opensource_Library/libraries/zf_driver/zf_driver_adc.c:129

    ADC_Cmd(adc_index[adc], ENABLE);                                    // 使能指定的ADC1
     438:	fef44703          	lbu	a4,-17(s0)
     43c:	200007b7          	lui	a5,0x20000
     440:	070a                	slli	a4,a4,0x2
     442:	39078793          	addi	a5,a5,912 # 20000390 <adc_index>
     446:	97ba                	add	a5,a5,a4
     448:	439c                	lw	a5,0(a5)
     44a:	4585                	li	a1,1
     44c:	853e                	mv	a0,a5
     44e:	01d0a0ef          	jal	ra,ac6a <ADC_Cmd>
D:/Backup/桌面/Seekfree_CH32V307VCT6_Opensource_Library/libraries/zf_driver/zf_driver_adc.c:130
    ADC_BufferCmd(adc_index[adc], DISABLE);                             // disable buffer
     452:	fef44703          	lbu	a4,-17(s0)
     456:	200007b7          	lui	a5,0x20000
     45a:	070a                	slli	a4,a4,0x2
     45c:	39078793          	addi	a5,a5,912 # 20000390 <adc_index>
     460:	97ba                	add	a5,a5,a4
     462:	439c                	lw	a5,0(a5)
     464:	4581                	li	a1,0
     466:	853e                	mv	a0,a5
     468:	3ab0a0ef          	jal	ra,b012 <ADC_BufferCmd>
D:/Backup/桌面/Seekfree_CH32V307VCT6_Opensource_Library/libraries/zf_driver/zf_driver_adc.c:132

    ADC_ResetCalibration(adc_index[adc]);                               // 使能复位校准
     46c:	fef44703          	lbu	a4,-17(s0)
     470:	200007b7          	lui	a5,0x20000
     474:	070a                	slli	a4,a4,0x2
     476:	39078793          	addi	a5,a5,912 # 20000390 <adc_index>
     47a:	97ba                	add	a5,a5,a4
     47c:	439c                	lw	a5,0(a5)
     47e:	853e                	mv	a0,a5
     480:	0290a0ef          	jal	ra,aca8 <ADC_ResetCalibration>
D:/Backup/桌面/Seekfree_CH32V307VCT6_Opensource_Library/libraries/zf_driver/zf_driver_adc.c:133
    while(ADC_GetResetCalibrationStatus(adc_index[adc]));               // 等待复位校准结束
     484:	0001                	nop
D:/Backup/桌面/Seekfree_CH32V307VCT6_Opensource_Library/libraries/zf_driver/zf_driver_adc.c:133 (discriminator 1)
     486:	fef44703          	lbu	a4,-17(s0)
     48a:	200007b7          	lui	a5,0x20000
     48e:	070a                	slli	a4,a4,0x2
     490:	39078793          	addi	a5,a5,912 # 20000390 <adc_index>
     494:	97ba                	add	a5,a5,a4
     496:	439c                	lw	a5,0(a5)
     498:	853e                	mv	a0,a5
     49a:	0310a0ef          	jal	ra,acca <ADC_GetResetCalibrationStatus>
     49e:	87aa                	mv	a5,a0
     4a0:	f3fd                	bnez	a5,486 <adc_init+0x122>
D:/Backup/桌面/Seekfree_CH32V307VCT6_Opensource_Library/libraries/zf_driver/zf_driver_adc.c:134
    ADC_StartCalibration(adc_index[adc]);                               // 开启AD校准
     4a2:	fef44703          	lbu	a4,-17(s0)
     4a6:	200007b7          	lui	a5,0x20000
     4aa:	070a                	slli	a4,a4,0x2
     4ac:	39078793          	addi	a5,a5,912 # 20000390 <adc_index>
     4b0:	97ba                	add	a5,a5,a4
     4b2:	439c                	lw	a5,0(a5)
     4b4:	853e                	mv	a0,a5
     4b6:	0450a0ef          	jal	ra,acfa <ADC_StartCalibration>
D:/Backup/桌面/Seekfree_CH32V307VCT6_Opensource_Library/libraries/zf_driver/zf_driver_adc.c:135
    while(ADC_GetCalibrationStatus(adc_index[adc]));                    // 等待校准结束
     4ba:	0001                	nop
D:/Backup/桌面/Seekfree_CH32V307VCT6_Opensource_Library/libraries/zf_driver/zf_driver_adc.c:135 (discriminator 1)
     4bc:	fef44703          	lbu	a4,-17(s0)
     4c0:	200007b7          	lui	a5,0x20000
     4c4:	070a                	slli	a4,a4,0x2
     4c6:	39078793          	addi	a5,a5,912 # 20000390 <adc_index>
     4ca:	97ba                	add	a5,a5,a4
     4cc:	439c                	lw	a5,0(a5)
     4ce:	853e                	mv	a0,a5
     4d0:	04d0a0ef          	jal	ra,ad1c <ADC_GetCalibrationStatus>
     4d4:	87aa                	mv	a5,a0
     4d6:	f3fd                	bnez	a5,4bc <adc_init+0x158>
D:/Backup/桌面/Seekfree_CH32V307VCT6_Opensource_Library/libraries/zf_driver/zf_driver_adc.c:138
    //ADC_BufferCmd(ADC1, ENABLE);                                      // enable buffer

    adc_resolution[adc] = resolution;                                   // 记录ADC精度 将在采集时使用
     4d8:	fef44683          	lbu	a3,-17(s0)
     4dc:	fb842783          	lw	a5,-72(s0)
     4e0:	0ff7f713          	andi	a4,a5,255
     4e4:	8d018793          	addi	a5,gp,-1840 # 20000460 <_edata>
     4e8:	97b6                	add	a5,a5,a3
     4ea:	00e78023          	sb	a4,0(a5)
D:/Backup/桌面/Seekfree_CH32V307VCT6_Opensource_Library/libraries/zf_driver/zf_driver_adc.c:139
}
     4ee:	0001                	nop
     4f0:	40b6                	lw	ra,76(sp)
     4f2:	4426                	lw	s0,72(sp)
     4f4:	6161                	addi	sp,sp,80
     4f6:	8082                	ret

000004f8 <system_delay_ms>:
system_delay_ms():
D:/Backup/桌面/Seekfree_CH32V307VCT6_Opensource_Library/libraries/zf_driver/zf_driver_delay.c:50
// 返回参数     void
// 使用示例     system_delay_ms(100);
// 备注信息
//-------------------------------------------------------------------------------------------------------------------
void system_delay_ms (uint32 num)
{
     4f8:	1101                	addi	sp,sp,-32
     4fa:	ce22                	sw	s0,28(sp)
     4fc:	1000                	addi	s0,sp,32
     4fe:	fea42623          	sw	a0,-20(s0)
D:/Backup/桌面/Seekfree_CH32V307VCT6_Opensource_Library/libraries/zf_driver/zf_driver_delay.c:51
    SysTick->SR &= ~(1 << 0);
     502:	e000f537          	lui	a0,0xe000f
     506:	00452883          	lw	a7,4(a0) # e000f004 <_eusrstack+0xbffff004>
     50a:	e000f537          	lui	a0,0xe000f
     50e:	ffe8f893          	andi	a7,a7,-2
     512:	01152223          	sw	a7,4(a0) # e000f004 <_eusrstack+0xbffff004>
D:/Backup/桌面/Seekfree_CH32V307VCT6_Opensource_Library/libraries/zf_driver/zf_driver_delay.c:54


    SysTick->CMP = (uint64_t)(system_clock/8000) * num;
     516:	83c1a883          	lw	a7,-1988(gp) # 200003cc <system_clock>
     51a:	6509                	lui	a0,0x2
     51c:	f4050513          	addi	a0,a0,-192 # 1f40 <soft_iic_send_ack+0xf6>
     520:	02a8d533          	divu	a0,a7,a0
     524:	86aa                	mv	a3,a0
     526:	4701                	li	a4,0
     528:	fec42503          	lw	a0,-20(s0)
     52c:	87aa                	mv	a5,a0
     52e:	4801                	li	a6,0
     530:	e000f537          	lui	a0,0xe000f
     534:	02f70333          	mul	t1,a4,a5
     538:	02d808b3          	mul	a7,a6,a3
     53c:	989a                	add	a7,a7,t1
     53e:	02f68333          	mul	t1,a3,a5
     542:	02f6b633          	mulhu	a2,a3,a5
     546:	859a                	mv	a1,t1
     548:	00c887b3          	add	a5,a7,a2
     54c:	863e                	mv	a2,a5
     54e:	c90c                	sw	a1,16(a0)
     550:	c950                	sw	a2,20(a0)
D:/Backup/桌面/Seekfree_CH32V307VCT6_Opensource_Library/libraries/zf_driver/zf_driver_delay.c:55
    SysTick->CTLR |= (1 << 4);
     552:	e000f7b7          	lui	a5,0xe000f
     556:	4398                	lw	a4,0(a5)
     558:	e000f7b7          	lui	a5,0xe000f
     55c:	01076713          	ori	a4,a4,16
     560:	c398                	sw	a4,0(a5)
D:/Backup/桌面/Seekfree_CH32V307VCT6_Opensource_Library/libraries/zf_driver/zf_driver_delay.c:56
    SysTick->CTLR |= (1 << 5) | (1 << 0);
     562:	e000f7b7          	lui	a5,0xe000f
     566:	4398                	lw	a4,0(a5)
     568:	e000f7b7          	lui	a5,0xe000f
     56c:	02176713          	ori	a4,a4,33
     570:	c398                	sw	a4,0(a5)
D:/Backup/桌面/Seekfree_CH32V307VCT6_Opensource_Library/libraries/zf_driver/zf_driver_delay.c:58

    while((SysTick->SR & (1 << 0)) != (1 << 0));
     572:	0001                	nop
D:/Backup/桌面/Seekfree_CH32V307VCT6_Opensource_Library/libraries/zf_driver/zf_driver_delay.c:58 (discriminator 1)
     574:	e000f7b7          	lui	a5,0xe000f
     578:	43dc                	lw	a5,4(a5)
     57a:	0017f713          	andi	a4,a5,1
     57e:	4785                	li	a5,1
     580:	fef71ae3          	bne	a4,a5,574 <system_delay_ms+0x7c>
D:/Backup/桌面/Seekfree_CH32V307VCT6_Opensource_Library/libraries/zf_driver/zf_driver_delay.c:60

    SysTick->CTLR &= ~(1 << 0);
     584:	e000f7b7          	lui	a5,0xe000f
     588:	4398                	lw	a4,0(a5)
     58a:	e000f7b7          	lui	a5,0xe000f
     58e:	9b79                	andi	a4,a4,-2
     590:	c398                	sw	a4,0(a5)
D:/Backup/桌面/Seekfree_CH32V307VCT6_Opensource_Library/libraries/zf_driver/zf_driver_delay.c:61
}
     592:	0001                	nop
     594:	4472                	lw	s0,28(sp)
     596:	6105                	addi	sp,sp,32
     598:	8082                	ret

0000059a <system_delay_us>:
system_delay_us():
D:/Backup/桌面/Seekfree_CH32V307VCT6_Opensource_Library/libraries/zf_driver/zf_driver_delay.c:72
// 返回参数     void
// 使用示例     system_delay_us(100);
// 备注信息     受限于程序运行跳转 此延时会比输入值高出一些
//-------------------------------------------------------------------------------------------------------------------
void system_delay_us (uint32 num)
{
     59a:	1101                	addi	sp,sp,-32
     59c:	ce22                	sw	s0,28(sp)
     59e:	1000                	addi	s0,sp,32
     5a0:	fea42623          	sw	a0,-20(s0)
D:/Backup/桌面/Seekfree_CH32V307VCT6_Opensource_Library/libraries/zf_driver/zf_driver_delay.c:73
    SysTick->SR &= ~(1 << 0);
     5a4:	e000f537          	lui	a0,0xe000f
     5a8:	00452883          	lw	a7,4(a0) # e000f004 <_eusrstack+0xbffff004>
     5ac:	e000f537          	lui	a0,0xe000f
     5b0:	ffe8f893          	andi	a7,a7,-2
     5b4:	01152223          	sw	a7,4(a0) # e000f004 <_eusrstack+0xbffff004>
D:/Backup/桌面/Seekfree_CH32V307VCT6_Opensource_Library/libraries/zf_driver/zf_driver_delay.c:76


    SysTick->CMP = (uint64_t)(system_clock/8000000) * num;
     5b8:	83c1a883          	lw	a7,-1988(gp) # 200003cc <system_clock>
     5bc:	007a1537          	lui	a0,0x7a1
     5c0:	20050513          	addi	a0,a0,512 # 7a1200 <_data_lma+0x77dd8c>
     5c4:	02a8d533          	divu	a0,a7,a0
     5c8:	86aa                	mv	a3,a0
     5ca:	4701                	li	a4,0
     5cc:	fec42503          	lw	a0,-20(s0)
     5d0:	87aa                	mv	a5,a0
     5d2:	4801                	li	a6,0
     5d4:	e000f537          	lui	a0,0xe000f
     5d8:	02f70333          	mul	t1,a4,a5
     5dc:	02d808b3          	mul	a7,a6,a3
     5e0:	989a                	add	a7,a7,t1
     5e2:	02f68333          	mul	t1,a3,a5
     5e6:	02f6b633          	mulhu	a2,a3,a5
     5ea:	859a                	mv	a1,t1
     5ec:	00c887b3          	add	a5,a7,a2
     5f0:	863e                	mv	a2,a5
     5f2:	c90c                	sw	a1,16(a0)
     5f4:	c950                	sw	a2,20(a0)
D:/Backup/桌面/Seekfree_CH32V307VCT6_Opensource_Library/libraries/zf_driver/zf_driver_delay.c:77
    SysTick->CTLR |= (1 << 4);
     5f6:	e000f7b7          	lui	a5,0xe000f
     5fa:	4398                	lw	a4,0(a5)
     5fc:	e000f7b7          	lui	a5,0xe000f
     600:	01076713          	ori	a4,a4,16
     604:	c398                	sw	a4,0(a5)
D:/Backup/桌面/Seekfree_CH32V307VCT6_Opensource_Library/libraries/zf_driver/zf_driver_delay.c:78
    SysTick->CTLR |= (1 << 5) | (1 << 0);
     606:	e000f7b7          	lui	a5,0xe000f
     60a:	4398                	lw	a4,0(a5)
     60c:	e000f7b7          	lui	a5,0xe000f
     610:	02176713          	ori	a4,a4,33
     614:	c398                	sw	a4,0(a5)
D:/Backup/桌面/Seekfree_CH32V307VCT6_Opensource_Library/libraries/zf_driver/zf_driver_delay.c:80

    while((SysTick->SR & (1 << 0)) != (1 << 0));
     616:	0001                	nop
D:/Backup/桌面/Seekfree_CH32V307VCT6_Opensource_Library/libraries/zf_driver/zf_driver_delay.c:80 (discriminator 1)
     618:	e000f7b7          	lui	a5,0xe000f
     61c:	43dc                	lw	a5,4(a5)
     61e:	0017f713          	andi	a4,a5,1
     622:	4785                	li	a5,1
     624:	fef71ae3          	bne	a4,a5,618 <system_delay_us+0x7e>
D:/Backup/桌面/Seekfree_CH32V307VCT6_Opensource_Library/libraries/zf_driver/zf_driver_delay.c:82

    SysTick->CTLR &= ~(1 << 0);
     628:	e000f7b7          	lui	a5,0xe000f
     62c:	4398                	lw	a4,0(a5)
     62e:	e000f7b7          	lui	a5,0xe000f
     632:	9b79                	andi	a4,a4,-2
     634:	c398                	sw	a4,0(a5)
D:/Backup/桌面/Seekfree_CH32V307VCT6_Opensource_Library/libraries/zf_driver/zf_driver_delay.c:83
}
     636:	0001                	nop
     638:	4472                	lw	s0,28(sp)
     63a:	6105                	addi	sp,sp,32
     63c:	8082                	ret

0000063e <dvp_gpio_init>:
dvp_gpio_init():
D:/Backup/桌面/Seekfree_CH32V307VCT6_Opensource_Library/libraries/zf_driver/zf_driver_dvp.c:57
//-------------------------------------------------------------------------------------------------------------------
void dvp_gpio_init(
        uint8 dvp_d0,uint8 dvp_d1,uint8 dvp_d2,uint8 dvp_d3,
        uint8 dvp_d4,uint8 dvp_d5,uint8 dvp_d6,uint8 dvp_d7,
        uint8 dvp_pclk,uint8 dvp_vsync,uint8 dvp_hsync)
{
     63e:	1101                	addi	sp,sp,-32
     640:	ce06                	sw	ra,28(sp)
     642:	cc22                	sw	s0,24(sp)
     644:	1000                	addi	s0,sp,32
     646:	8eaa                	mv	t4,a0
     648:	8e2e                	mv	t3,a1
     64a:	8332                	mv	t1,a2
     64c:	8536                	mv	a0,a3
     64e:	85ba                	mv	a1,a4
     650:	863e                	mv	a2,a5
     652:	86c2                	mv	a3,a6
     654:	8746                	mv	a4,a7
     656:	87f6                	mv	a5,t4
     658:	fef407a3          	sb	a5,-17(s0)
     65c:	87f2                	mv	a5,t3
     65e:	fef40723          	sb	a5,-18(s0)
     662:	879a                	mv	a5,t1
     664:	fef406a3          	sb	a5,-19(s0)
     668:	87aa                	mv	a5,a0
     66a:	fef40623          	sb	a5,-20(s0)
     66e:	87ae                	mv	a5,a1
     670:	fef405a3          	sb	a5,-21(s0)
     674:	87b2                	mv	a5,a2
     676:	fef40523          	sb	a5,-22(s0)
     67a:	87b6                	mv	a5,a3
     67c:	fef404a3          	sb	a5,-23(s0)
     680:	87ba                	mv	a5,a4
     682:	fef40423          	sb	a5,-24(s0)
D:/Backup/桌面/Seekfree_CH32V307VCT6_Opensource_Library/libraries/zf_driver/zf_driver_dvp.c:59
    //DVP_D0 到 DVP_ D7
    gpio_init(dvp_d0, GPI, 0, GPI_PULL_UP);
     686:	fef44783          	lbu	a5,-17(s0)
     68a:	04800693          	li	a3,72
     68e:	4601                	li	a2,0
     690:	4581                	li	a1,0
     692:	853e                	mv	a0,a5
     694:	447000ef          	jal	ra,12da <gpio_init>
D:/Backup/桌面/Seekfree_CH32V307VCT6_Opensource_Library/libraries/zf_driver/zf_driver_dvp.c:60
    gpio_init(dvp_d1, GPI, 0, GPI_PULL_UP);
     698:	fee44783          	lbu	a5,-18(s0)
     69c:	04800693          	li	a3,72
     6a0:	4601                	li	a2,0
     6a2:	4581                	li	a1,0
     6a4:	853e                	mv	a0,a5
     6a6:	435000ef          	jal	ra,12da <gpio_init>
D:/Backup/桌面/Seekfree_CH32V307VCT6_Opensource_Library/libraries/zf_driver/zf_driver_dvp.c:61
    gpio_init(dvp_d2, GPI, 0, GPI_PULL_UP);
     6aa:	fed44783          	lbu	a5,-19(s0)
     6ae:	04800693          	li	a3,72
     6b2:	4601                	li	a2,0
     6b4:	4581                	li	a1,0
     6b6:	853e                	mv	a0,a5
     6b8:	423000ef          	jal	ra,12da <gpio_init>
D:/Backup/桌面/Seekfree_CH32V307VCT6_Opensource_Library/libraries/zf_driver/zf_driver_dvp.c:62
    gpio_init(dvp_d3, GPI, 0, GPI_PULL_UP);
     6bc:	fec44783          	lbu	a5,-20(s0)
     6c0:	04800693          	li	a3,72
     6c4:	4601                	li	a2,0
     6c6:	4581                	li	a1,0
     6c8:	853e                	mv	a0,a5
     6ca:	411000ef          	jal	ra,12da <gpio_init>
D:/Backup/桌面/Seekfree_CH32V307VCT6_Opensource_Library/libraries/zf_driver/zf_driver_dvp.c:63
    gpio_init(dvp_d4, GPI, 0, GPI_PULL_UP);
     6ce:	feb44783          	lbu	a5,-21(s0)
     6d2:	04800693          	li	a3,72
     6d6:	4601                	li	a2,0
     6d8:	4581                	li	a1,0
     6da:	853e                	mv	a0,a5
     6dc:	3ff000ef          	jal	ra,12da <gpio_init>
D:/Backup/桌面/Seekfree_CH32V307VCT6_Opensource_Library/libraries/zf_driver/zf_driver_dvp.c:64
    gpio_init(dvp_d5, GPI, 0, GPI_PULL_UP);
     6e0:	fea44783          	lbu	a5,-22(s0)
     6e4:	04800693          	li	a3,72
     6e8:	4601                	li	a2,0
     6ea:	4581                	li	a1,0
     6ec:	853e                	mv	a0,a5
     6ee:	3ed000ef          	jal	ra,12da <gpio_init>
D:/Backup/桌面/Seekfree_CH32V307VCT6_Opensource_Library/libraries/zf_driver/zf_driver_dvp.c:65
    gpio_init(dvp_d6, GPI, 0, GPI_PULL_UP);
     6f2:	fe944783          	lbu	a5,-23(s0)
     6f6:	04800693          	li	a3,72
     6fa:	4601                	li	a2,0
     6fc:	4581                	li	a1,0
     6fe:	853e                	mv	a0,a5
     700:	3db000ef          	jal	ra,12da <gpio_init>
D:/Backup/桌面/Seekfree_CH32V307VCT6_Opensource_Library/libraries/zf_driver/zf_driver_dvp.c:66
    gpio_init(dvp_d7, GPI, 0, GPI_PULL_UP);
     704:	fe844783          	lbu	a5,-24(s0)
     708:	04800693          	li	a3,72
     70c:	4601                	li	a2,0
     70e:	4581                	li	a1,0
     710:	853e                	mv	a0,a5
     712:	3c9000ef          	jal	ra,12da <gpio_init>
D:/Backup/桌面/Seekfree_CH32V307VCT6_Opensource_Library/libraries/zf_driver/zf_driver_dvp.c:68
    //DVP_VSYNC
    gpio_init(dvp_vsync, GPI, 0, GPI_PULL_UP);
     716:	00444783          	lbu	a5,4(s0)
     71a:	04800693          	li	a3,72
     71e:	4601                	li	a2,0
     720:	4581                	li	a1,0
     722:	853e                	mv	a0,a5
     724:	3b7000ef          	jal	ra,12da <gpio_init>
D:/Backup/桌面/Seekfree_CH32V307VCT6_Opensource_Library/libraries/zf_driver/zf_driver_dvp.c:70
    //DVP_PCLK
    gpio_init(dvp_pclk,  GPI, 0, GPI_PULL_UP);
     728:	00044783          	lbu	a5,0(s0)
     72c:	04800693          	li	a3,72
     730:	4601                	li	a2,0
     732:	4581                	li	a1,0
     734:	853e                	mv	a0,a5
     736:	3a5000ef          	jal	ra,12da <gpio_init>
D:/Backup/桌面/Seekfree_CH32V307VCT6_Opensource_Library/libraries/zf_driver/zf_driver_dvp.c:72
    //DVP_HSYNC
    gpio_init(dvp_hsync, GPI, 0, GPI_PULL_UP);
     73a:	00844783          	lbu	a5,8(s0)
     73e:	04800693          	li	a3,72
     742:	4601                	li	a2,0
     744:	4581                	li	a1,0
     746:	853e                	mv	a0,a5
     748:	393000ef          	jal	ra,12da <gpio_init>
D:/Backup/桌面/Seekfree_CH32V307VCT6_Opensource_Library/libraries/zf_driver/zf_driver_dvp.c:73
}
     74c:	0001                	nop
     74e:	40f2                	lw	ra,28(sp)
     750:	4462                	lw	s0,24(sp)
     752:	6105                	addi	sp,sp,32
     754:	8082                	ret

00000756 <dvp_camera_init>:
dvp_camera_init():
D:/Backup/桌面/Seekfree_CH32V307VCT6_Opensource_Library/libraries/zf_driver/zf_driver_dvp.c:85
// 参数说明     row_len                行长度
// 返回参数     void
// 使用示例            内部使用，用户无需关心
//-------------------------------------------------------------------------------------------------------------------
void dvp_camera_init(uint32 *image0_addr, uint32 *image1_addr, uint16 col_len, uint16 row_len)
{
     756:	1101                	addi	sp,sp,-32
     758:	ce06                	sw	ra,28(sp)
     75a:	cc22                	sw	s0,24(sp)
     75c:	1000                	addi	s0,sp,32
     75e:	fea42623          	sw	a0,-20(s0)
     762:	feb42423          	sw	a1,-24(s0)
     766:	87b2                	mv	a5,a2
     768:	8736                	mv	a4,a3
     76a:	fef41323          	sh	a5,-26(s0)
     76e:	87ba                	mv	a5,a4
     770:	fef41223          	sh	a5,-28(s0)
D:/Backup/桌面/Seekfree_CH32V307VCT6_Opensource_Library/libraries/zf_driver/zf_driver_dvp.c:86
    RCC_AHBPeriphClockCmd(RCC_AHBPeriph_DVP, ENABLE);
     774:	4585                	li	a1,1
     776:	6509                	lui	a0,0x2
     778:	4d60b0ef          	jal	ra,bc4e <RCC_AHBPeriphClockCmd>
D:/Backup/桌面/Seekfree_CH32V307VCT6_Opensource_Library/libraries/zf_driver/zf_driver_dvp.c:88

    DVP->CR0 &= ~RB_DVP_MSK_DAT_MOD;
     77c:	500507b7          	lui	a5,0x50050
     780:	0007c783          	lbu	a5,0(a5) # 50050000 <_eusrstack+0x30040000>
     784:	0ff7f713          	andi	a4,a5,255
     788:	500507b7          	lui	a5,0x50050
     78c:	fcf77713          	andi	a4,a4,-49
     790:	0ff77713          	andi	a4,a4,255
     794:	00e78023          	sb	a4,0(a5) # 50050000 <_eusrstack+0x30040000>
D:/Backup/桌面/Seekfree_CH32V307VCT6_Opensource_Library/libraries/zf_driver/zf_driver_dvp.c:91

    /* VSYNC、HSYNC:High level active */
    DVP->CR0 |= RB_DVP_D8_MOD | RB_DVP_JPEG | RB_DVP_V_POLAR ;
     798:	500507b7          	lui	a5,0x50050
     79c:	0007c783          	lbu	a5,0(a5) # 50050000 <_eusrstack+0x30040000>
     7a0:	0ff7f713          	andi	a4,a5,255
     7a4:	500507b7          	lui	a5,0x50050
     7a8:	04276713          	ori	a4,a4,66
     7ac:	0ff77713          	andi	a4,a4,255
     7b0:	00e78023          	sb	a4,0(a5) # 50050000 <_eusrstack+0x30040000>
D:/Backup/桌面/Seekfree_CH32V307VCT6_Opensource_Library/libraries/zf_driver/zf_driver_dvp.c:92
    DVP->CR1 &= ~((RB_DVP_ALL_CLR)| RB_DVP_RCV_CLR);
     7b4:	500507b7          	lui	a5,0x50050
     7b8:	0017c783          	lbu	a5,1(a5) # 50050001 <_eusrstack+0x30040001>
     7bc:	0ff7f713          	andi	a4,a5,255
     7c0:	500507b7          	lui	a5,0x50050
     7c4:	9b65                	andi	a4,a4,-7
     7c6:	0ff77713          	andi	a4,a4,255
     7ca:	00e780a3          	sb	a4,1(a5) # 50050001 <_eusrstack+0x30040001>
D:/Backup/桌面/Seekfree_CH32V307VCT6_Opensource_Library/libraries/zf_driver/zf_driver_dvp.c:93
    DVP->ROW_NUM = row_len;                    // rows行数
     7ce:	500507b7          	lui	a5,0x50050
     7d2:	fe445703          	lhu	a4,-28(s0)
     7d6:	00e79223          	sh	a4,4(a5) # 50050004 <_eusrstack+0x30040004>
D:/Backup/桌面/Seekfree_CH32V307VCT6_Opensource_Library/libraries/zf_driver/zf_driver_dvp.c:94
    DVP->COL_NUM = col_len;                    // cols列数
     7da:	500507b7          	lui	a5,0x50050
     7de:	fe645703          	lhu	a4,-26(s0)
     7e2:	00e79323          	sh	a4,6(a5) # 50050006 <_eusrstack+0x30040006>
D:/Backup/桌面/Seekfree_CH32V307VCT6_Opensource_Library/libraries/zf_driver/zf_driver_dvp.c:96

    DVP->DMA_BUF0 = (uint32)image0_addr;               //DMA addr0
     7e6:	500507b7          	lui	a5,0x50050
     7ea:	fec42703          	lw	a4,-20(s0)
     7ee:	c798                	sw	a4,8(a5)
D:/Backup/桌面/Seekfree_CH32V307VCT6_Opensource_Library/libraries/zf_driver/zf_driver_dvp.c:97
    DVP->DMA_BUF1 = (uint32)image1_addr;               //DMA addr1
     7f0:	500507b7          	lui	a5,0x50050
     7f4:	fe842703          	lw	a4,-24(s0)
     7f8:	c7d8                	sw	a4,12(a5)
D:/Backup/桌面/Seekfree_CH32V307VCT6_Opensource_Library/libraries/zf_driver/zf_driver_dvp.c:101


    /* Set frame capture rate */
    DVP->CR1 &= ~RB_DVP_FCRC;
     7fa:	500507b7          	lui	a5,0x50050
     7fe:	0017c783          	lbu	a5,1(a5) # 50050001 <_eusrstack+0x30040001>
     802:	0ff7f713          	andi	a4,a5,255
     806:	500507b7          	lui	a5,0x50050
     80a:	03f77713          	andi	a4,a4,63
     80e:	0ff77713          	andi	a4,a4,255
     812:	00e780a3          	sb	a4,1(a5) # 50050001 <_eusrstack+0x30040001>
D:/Backup/桌面/Seekfree_CH32V307VCT6_Opensource_Library/libraries/zf_driver/zf_driver_dvp.c:102
    DVP->CR1 |= DVP_RATE_100P;  //100%
     816:	50050737          	lui	a4,0x50050
     81a:	500507b7          	lui	a5,0x50050
     81e:	00174703          	lbu	a4,1(a4) # 50050001 <_eusrstack+0x30040001>
     822:	0ff77713          	andi	a4,a4,255
     826:	00e780a3          	sb	a4,1(a5) # 50050001 <_eusrstack+0x30040001>
D:/Backup/桌面/Seekfree_CH32V307VCT6_Opensource_Library/libraries/zf_driver/zf_driver_dvp.c:112


    //Interupt Enable
//    DVP->IER |= RB_DVP_IE_STR_FRM;
//    DVP->IER |= RB_DVP_IE_ROW_DONE;
    DVP->IER |= RB_DVP_IE_FRM_DONE;
     82a:	500507b7          	lui	a5,0x50050
     82e:	0027c783          	lbu	a5,2(a5) # 50050002 <_eusrstack+0x30040002>
     832:	0ff7f713          	andi	a4,a5,255
     836:	500507b7          	lui	a5,0x50050
     83a:	00476713          	ori	a4,a4,4
     83e:	0ff77713          	andi	a4,a4,255
     842:	00e78123          	sb	a4,2(a5) # 50050002 <_eusrstack+0x30040002>
D:/Backup/桌面/Seekfree_CH32V307VCT6_Opensource_Library/libraries/zf_driver/zf_driver_dvp.c:117
//    DVP->IER |= RB_DVP_IE_FIFO_OV;
//    DVP->IER |= RB_DVP_IE_STP_FRM;


    DVP->CR1 |= RB_DVP_DMA_EN;  //enable DMA
     846:	500507b7          	lui	a5,0x50050
     84a:	0017c783          	lbu	a5,1(a5) # 50050001 <_eusrstack+0x30040001>
     84e:	0ff7f713          	andi	a4,a5,255
     852:	500507b7          	lui	a5,0x50050
     856:	00176713          	ori	a4,a4,1
     85a:	0ff77713          	andi	a4,a4,255
     85e:	00e780a3          	sb	a4,1(a5) # 50050001 <_eusrstack+0x30040001>
D:/Backup/桌面/Seekfree_CH32V307VCT6_Opensource_Library/libraries/zf_driver/zf_driver_dvp.c:118
    DVP->CR0 |= RB_DVP_ENABLE;  //enable DVP
     862:	500507b7          	lui	a5,0x50050
     866:	0007c783          	lbu	a5,0(a5) # 50050000 <_eusrstack+0x30040000>
     86a:	0ff7f713          	andi	a4,a5,255
     86e:	500507b7          	lui	a5,0x50050
     872:	00176713          	ori	a4,a4,1
     876:	0ff77713          	andi	a4,a4,255
     87a:	00e78023          	sb	a4,0(a5) # 50050000 <_eusrstack+0x30040000>
D:/Backup/桌面/Seekfree_CH32V307VCT6_Opensource_Library/libraries/zf_driver/zf_driver_dvp.c:120

    interrupt_set_priority(DVP_IRQn, 0x03);
     87e:	458d                	li	a1,3
     880:	05600513          	li	a0,86
     884:	608080ef          	jal	ra,8e8c <interrupt_set_priority>
D:/Backup/桌面/Seekfree_CH32V307VCT6_Opensource_Library/libraries/zf_driver/zf_driver_dvp.c:121
    interrupt_enable(DVP_IRQn);
     888:	05600513          	li	a0,86
     88c:	5c4080ef          	jal	ra,8e50 <interrupt_enable>
D:/Backup/桌面/Seekfree_CH32V307VCT6_Opensource_Library/libraries/zf_driver/zf_driver_dvp.c:123

}
     890:	0001                	nop
     892:	40f2                	lw	ra,28(sp)
     894:	4462                	lw	s0,24(sp)
     896:	6105                	addi	sp,sp,32
     898:	8082                	ret

0000089a <encoder_get_count>:
encoder_get_count():
D:/Backup/桌面/Seekfree_CH32V307VCT6_Opensource_Library/libraries/zf_driver/zf_driver_encoder.c:52
// 返回参数     void
// 备注信息
// 使用示例    encoder_get_count(TIM2_ENCOEDER)  // 获取定时器2的采集到的编码器数据
//-------------------------------------------------------------------------------------------------------------------
int16 encoder_get_count(encoder_index_enum encoder_n)
{
     89a:	7179                	addi	sp,sp,-48
     89c:	d606                	sw	ra,44(sp)
     89e:	d422                	sw	s0,40(sp)
     8a0:	1800                	addi	s0,sp,48
     8a2:	fca42e23          	sw	a0,-36(s0)
D:/Backup/桌面/Seekfree_CH32V307VCT6_Opensource_Library/libraries/zf_driver/zf_driver_encoder.c:53
    int16 result = 0;
     8a6:	fe041723          	sh	zero,-18(s0)
D:/Backup/桌面/Seekfree_CH32V307VCT6_Opensource_Library/libraries/zf_driver/zf_driver_encoder.c:54
    int16 return_value = 0;
     8aa:	fe041623          	sh	zero,-20(s0)
D:/Backup/桌面/Seekfree_CH32V307VCT6_Opensource_Library/libraries/zf_driver/zf_driver_encoder.c:55
    switch(encoder_n)
     8ae:	fdc42703          	lw	a4,-36(s0)
     8b2:	47a5                	li	a5,9
     8b4:	0ce7e163          	bltu	a5,a4,976 <encoder_get_count+0xdc>
     8b8:	fdc42783          	lw	a5,-36(s0)
     8bc:	00279713          	slli	a4,a5,0x2
     8c0:	000207b7          	lui	a5,0x20
     8c4:	2b878793          	addi	a5,a5,696 # 202b8 <_sbrk+0xeb6>
     8c8:	97ba                	add	a5,a5,a4
     8ca:	439c                	lw	a5,0(a5)
     8cc:	8782                	jr	a5
D:/Backup/桌面/Seekfree_CH32V307VCT6_Opensource_Library/libraries/zf_driver/zf_driver_encoder.c:57
    {
        case TIM1_ENCOEDER:  result = TIM1->CNT;   break;
     8ce:	400137b7          	lui	a5,0x40013
     8d2:	c0078793          	addi	a5,a5,-1024 # 40012c00 <_eusrstack+0x20002c00>
     8d6:	0247d783          	lhu	a5,36(a5)
     8da:	07c2                	slli	a5,a5,0x10
     8dc:	83c1                	srli	a5,a5,0x10
     8de:	fef41723          	sh	a5,-18(s0)
     8e2:	a869                	j	97c <encoder_get_count+0xe2>
D:/Backup/桌面/Seekfree_CH32V307VCT6_Opensource_Library/libraries/zf_driver/zf_driver_encoder.c:58
        case TIM2_ENCOEDER:  result = TIM2->CNT;   break;
     8e4:	400007b7          	lui	a5,0x40000
     8e8:	0247d783          	lhu	a5,36(a5) # 40000024 <_eusrstack+0x1fff0024>
     8ec:	07c2                	slli	a5,a5,0x10
     8ee:	83c1                	srli	a5,a5,0x10
     8f0:	fef41723          	sh	a5,-18(s0)
     8f4:	a061                	j	97c <encoder_get_count+0xe2>
D:/Backup/桌面/Seekfree_CH32V307VCT6_Opensource_Library/libraries/zf_driver/zf_driver_encoder.c:59
        case TIM3_ENCOEDER:  result = TIM3->CNT;   break;
     8f6:	400007b7          	lui	a5,0x40000
     8fa:	40078793          	addi	a5,a5,1024 # 40000400 <_eusrstack+0x1fff0400>
     8fe:	0247d783          	lhu	a5,36(a5)
     902:	07c2                	slli	a5,a5,0x10
     904:	83c1                	srli	a5,a5,0x10
     906:	fef41723          	sh	a5,-18(s0)
     90a:	a88d                	j	97c <encoder_get_count+0xe2>
D:/Backup/桌面/Seekfree_CH32V307VCT6_Opensource_Library/libraries/zf_driver/zf_driver_encoder.c:60
        case TIM4_ENCOEDER:  result = TIM4->CNT;   break;
     90c:	400017b7          	lui	a5,0x40001
     910:	80078793          	addi	a5,a5,-2048 # 40000800 <_eusrstack+0x1fff0800>
     914:	0247d783          	lhu	a5,36(a5)
     918:	07c2                	slli	a5,a5,0x10
     91a:	83c1                	srli	a5,a5,0x10
     91c:	fef41723          	sh	a5,-18(s0)
     920:	a8b1                	j	97c <encoder_get_count+0xe2>
D:/Backup/桌面/Seekfree_CH32V307VCT6_Opensource_Library/libraries/zf_driver/zf_driver_encoder.c:61
        case TIM5_ENCOEDER:  result = TIM5->CNT;   break;
     922:	400017b7          	lui	a5,0x40001
     926:	c0078793          	addi	a5,a5,-1024 # 40000c00 <_eusrstack+0x1fff0c00>
     92a:	0247d783          	lhu	a5,36(a5)
     92e:	07c2                	slli	a5,a5,0x10
     930:	83c1                	srli	a5,a5,0x10
     932:	fef41723          	sh	a5,-18(s0)
     936:	a099                	j	97c <encoder_get_count+0xe2>
D:/Backup/桌面/Seekfree_CH32V307VCT6_Opensource_Library/libraries/zf_driver/zf_driver_encoder.c:62
        case TIM8_ENCOEDER:  result = TIM8->CNT;   break;
     938:	400137b7          	lui	a5,0x40013
     93c:	40078793          	addi	a5,a5,1024 # 40013400 <_eusrstack+0x20003400>
     940:	0247d783          	lhu	a5,36(a5)
     944:	07c2                	slli	a5,a5,0x10
     946:	83c1                	srli	a5,a5,0x10
     948:	fef41723          	sh	a5,-18(s0)
     94c:	a805                	j	97c <encoder_get_count+0xe2>
D:/Backup/桌面/Seekfree_CH32V307VCT6_Opensource_Library/libraries/zf_driver/zf_driver_encoder.c:63
        case TIM9_ENCOEDER:  result = TIM9->CNT;   break;
     94e:	400157b7          	lui	a5,0x40015
     952:	c0078793          	addi	a5,a5,-1024 # 40014c00 <_eusrstack+0x20004c00>
     956:	0247d783          	lhu	a5,36(a5)
     95a:	07c2                	slli	a5,a5,0x10
     95c:	83c1                	srli	a5,a5,0x10
     95e:	fef41723          	sh	a5,-18(s0)
     962:	a829                	j	97c <encoder_get_count+0xe2>
D:/Backup/桌面/Seekfree_CH32V307VCT6_Opensource_Library/libraries/zf_driver/zf_driver_encoder.c:64
        case TIM10_ENCOEDER: result = TIM10->CNT;  break;
     964:	400157b7          	lui	a5,0x40015
     968:	0247d783          	lhu	a5,36(a5) # 40015024 <_eusrstack+0x20005024>
     96c:	07c2                	slli	a5,a5,0x10
     96e:	83c1                	srli	a5,a5,0x10
     970:	fef41723          	sh	a5,-18(s0)
     974:	a021                	j	97c <encoder_get_count+0xe2>
D:/Backup/桌面/Seekfree_CH32V307VCT6_Opensource_Library/libraries/zf_driver/zf_driver_encoder.c:65
        default:             result = 0;                 break;
     976:	fe041723          	sh	zero,-18(s0)
     97a:	0001                	nop
D:/Backup/桌面/Seekfree_CH32V307VCT6_Opensource_Library/libraries/zf_driver/zf_driver_encoder.c:67
    }
    if(0xFF == encoder_dir_pin[encoder_n])
     97c:	200007b7          	lui	a5,0x20000
     980:	00078713          	mv	a4,a5
     984:	fdc42783          	lw	a5,-36(s0)
     988:	97ba                	add	a5,a5,a4
     98a:	0007c783          	lbu	a5,0(a5) # 20000000 <_data_vma>
     98e:	0ff7f713          	andi	a4,a5,255
     992:	0ff00793          	li	a5,255
     996:	00f71763          	bne	a4,a5,9a4 <encoder_get_count+0x10a>
D:/Backup/桌面/Seekfree_CH32V307VCT6_Opensource_Library/libraries/zf_driver/zf_driver_encoder.c:69
    {
        return_value = result;
     99a:	fee45783          	lhu	a5,-18(s0)
     99e:	fef41623          	sh	a5,-20(s0)
     9a2:	a835                	j	9de <encoder_get_count+0x144>
D:/Backup/桌面/Seekfree_CH32V307VCT6_Opensource_Library/libraries/zf_driver/zf_driver_encoder.c:73
    }
    else
    {
        if(!gpio_get_level((gpio_pin_enum)encoder_dir_pin[encoder_n]))
     9a4:	200007b7          	lui	a5,0x20000
     9a8:	00078713          	mv	a4,a5
     9ac:	fdc42783          	lw	a5,-36(s0)
     9b0:	97ba                	add	a5,a5,a4
     9b2:	0007c783          	lbu	a5,0(a5) # 20000000 <_data_vma>
     9b6:	0ff7f793          	andi	a5,a5,255
     9ba:	853e                	mv	a0,a5
     9bc:	0dd000ef          	jal	ra,1298 <gpio_get_level>
     9c0:	87aa                	mv	a5,a0
     9c2:	eb91                	bnez	a5,9d6 <encoder_get_count+0x13c>
D:/Backup/桌面/Seekfree_CH32V307VCT6_Opensource_Library/libraries/zf_driver/zf_driver_encoder.c:75
        {
            return_value = -result;
     9c4:	fee45783          	lhu	a5,-18(s0)
     9c8:	40f007b3          	neg	a5,a5
     9cc:	07c2                	slli	a5,a5,0x10
     9ce:	83c1                	srli	a5,a5,0x10
     9d0:	fef41623          	sh	a5,-20(s0)
     9d4:	a029                	j	9de <encoder_get_count+0x144>
D:/Backup/桌面/Seekfree_CH32V307VCT6_Opensource_Library/libraries/zf_driver/zf_driver_encoder.c:79
        }
		else
		{
			return_value = result;
     9d6:	fee45783          	lhu	a5,-18(s0)
     9da:	fef41623          	sh	a5,-20(s0)
D:/Backup/桌面/Seekfree_CH32V307VCT6_Opensource_Library/libraries/zf_driver/zf_driver_encoder.c:83
		}
    }

    return return_value;
     9de:	fec41783          	lh	a5,-20(s0)
D:/Backup/桌面/Seekfree_CH32V307VCT6_Opensource_Library/libraries/zf_driver/zf_driver_encoder.c:84
}
     9e2:	853e                	mv	a0,a5
     9e4:	50b2                	lw	ra,44(sp)
     9e6:	5422                	lw	s0,40(sp)
     9e8:	6145                	addi	sp,sp,48
     9ea:	8082                	ret

000009ec <encoder_clear_count>:
encoder_clear_count():
D:/Backup/桌面/Seekfree_CH32V307VCT6_Opensource_Library/libraries/zf_driver/zf_driver_encoder.c:94
// 返回参数     void
// 备注信息
// 使用示例    encoder_clear_count(TIM1_ENCOEDER)  //清除定时器1采集到的编码器数据
//-------------------------------------------------------------------------------------------------------------------
void encoder_clear_count(encoder_index_enum encoder_n)
{
     9ec:	1101                	addi	sp,sp,-32
     9ee:	ce22                	sw	s0,28(sp)
     9f0:	1000                	addi	s0,sp,32
     9f2:	fea42623          	sw	a0,-20(s0)
D:/Backup/桌面/Seekfree_CH32V307VCT6_Opensource_Library/libraries/zf_driver/zf_driver_encoder.c:95
    switch(encoder_n)
     9f6:	fec42703          	lw	a4,-20(s0)
     9fa:	47a5                	li	a5,9
     9fc:	08e7e163          	bltu	a5,a4,a7e <encoder_clear_count+0x92>
     a00:	fec42783          	lw	a5,-20(s0)
     a04:	00279713          	slli	a4,a5,0x2
     a08:	000207b7          	lui	a5,0x20
     a0c:	2e078793          	addi	a5,a5,736 # 202e0 <_sbrk+0xede>
     a10:	97ba                	add	a5,a5,a4
     a12:	439c                	lw	a5,0(a5)
     a14:	8782                	jr	a5
D:/Backup/桌面/Seekfree_CH32V307VCT6_Opensource_Library/libraries/zf_driver/zf_driver_encoder.c:97
    {
        case TIM1_ENCOEDER:  TIM1->CNT  = 0;  break;
     a16:	400137b7          	lui	a5,0x40013
     a1a:	c0078793          	addi	a5,a5,-1024 # 40012c00 <_eusrstack+0x20002c00>
     a1e:	02079223          	sh	zero,36(a5)
     a22:	a8b9                	j	a80 <encoder_clear_count+0x94>
D:/Backup/桌面/Seekfree_CH32V307VCT6_Opensource_Library/libraries/zf_driver/zf_driver_encoder.c:98
        case TIM2_ENCOEDER:  TIM2->CNT  = 0;  break;
     a24:	400007b7          	lui	a5,0x40000
     a28:	02079223          	sh	zero,36(a5) # 40000024 <_eusrstack+0x1fff0024>
     a2c:	a891                	j	a80 <encoder_clear_count+0x94>
D:/Backup/桌面/Seekfree_CH32V307VCT6_Opensource_Library/libraries/zf_driver/zf_driver_encoder.c:99
        case TIM3_ENCOEDER:  TIM3->CNT  = 0;  break;
     a2e:	400007b7          	lui	a5,0x40000
     a32:	40078793          	addi	a5,a5,1024 # 40000400 <_eusrstack+0x1fff0400>
     a36:	02079223          	sh	zero,36(a5)
     a3a:	a099                	j	a80 <encoder_clear_count+0x94>
D:/Backup/桌面/Seekfree_CH32V307VCT6_Opensource_Library/libraries/zf_driver/zf_driver_encoder.c:100
        case TIM4_ENCOEDER:  TIM4->CNT  = 0;  break;
     a3c:	400017b7          	lui	a5,0x40001
     a40:	80078793          	addi	a5,a5,-2048 # 40000800 <_eusrstack+0x1fff0800>
     a44:	02079223          	sh	zero,36(a5)
     a48:	a825                	j	a80 <encoder_clear_count+0x94>
D:/Backup/桌面/Seekfree_CH32V307VCT6_Opensource_Library/libraries/zf_driver/zf_driver_encoder.c:101
        case TIM5_ENCOEDER:  TIM5->CNT  = 0;  break;
     a4a:	400017b7          	lui	a5,0x40001
     a4e:	c0078793          	addi	a5,a5,-1024 # 40000c00 <_eusrstack+0x1fff0c00>
     a52:	02079223          	sh	zero,36(a5)
     a56:	a02d                	j	a80 <encoder_clear_count+0x94>
D:/Backup/桌面/Seekfree_CH32V307VCT6_Opensource_Library/libraries/zf_driver/zf_driver_encoder.c:102
        case TIM8_ENCOEDER:  TIM8->CNT  = 0;  break;
     a58:	400137b7          	lui	a5,0x40013
     a5c:	40078793          	addi	a5,a5,1024 # 40013400 <_eusrstack+0x20003400>
     a60:	02079223          	sh	zero,36(a5)
     a64:	a831                	j	a80 <encoder_clear_count+0x94>
D:/Backup/桌面/Seekfree_CH32V307VCT6_Opensource_Library/libraries/zf_driver/zf_driver_encoder.c:103
        case TIM9_ENCOEDER:  TIM9->CNT  = 0;  break;
     a66:	400157b7          	lui	a5,0x40015
     a6a:	c0078793          	addi	a5,a5,-1024 # 40014c00 <_eusrstack+0x20004c00>
     a6e:	02079223          	sh	zero,36(a5)
     a72:	a039                	j	a80 <encoder_clear_count+0x94>
D:/Backup/桌面/Seekfree_CH32V307VCT6_Opensource_Library/libraries/zf_driver/zf_driver_encoder.c:104
        case TIM10_ENCOEDER: TIM10->CNT = 0;  break;
     a74:	400157b7          	lui	a5,0x40015
     a78:	02079223          	sh	zero,36(a5) # 40015024 <_eusrstack+0x20005024>
     a7c:	a011                	j	a80 <encoder_clear_count+0x94>
D:/Backup/桌面/Seekfree_CH32V307VCT6_Opensource_Library/libraries/zf_driver/zf_driver_encoder.c:105
        default:  break;
     a7e:	0001                	nop
D:/Backup/桌面/Seekfree_CH32V307VCT6_Opensource_Library/libraries/zf_driver/zf_driver_encoder.c:107
    }
}
     a80:	0001                	nop
     a82:	4472                	lw	s0,28(sp)
     a84:	6105                	addi	sp,sp,32
     a86:	8082                	ret

00000a88 <encoder_dir_init>:
encoder_dir_init():
D:/Backup/桌面/Seekfree_CH32V307VCT6_Opensource_Library/libraries/zf_driver/zf_driver_encoder.c:201
//          推荐使用正交解码编码器。
// 使用示例      encoder_init_dir(TIM1_ENCOEDER, TIM1_CH1_ENCOEDER_E9, TIM1_CH2_ENCOEDER_E11)
//                              // 使用定时器1 做带方向的编码器解码， 通道1方向信号引脚E9，通道2脉冲信号引脚E11
//-------------------------------------------------------------------------------------------------------------------
void encoder_dir_init(encoder_index_enum encoder_n, encoder_channel_enum ch1_pin, encoder_channel_enum ch2_pin)
{
     a88:	7139                	addi	sp,sp,-64
     a8a:	de06                	sw	ra,60(sp)
     a8c:	dc22                	sw	s0,56(sp)
     a8e:	0080                	addi	s0,sp,64
     a90:	fca42623          	sw	a0,-52(s0)
     a94:	fcb42423          	sw	a1,-56(s0)
     a98:	fcc42223          	sw	a2,-60(s0)
D:/Backup/桌面/Seekfree_CH32V307VCT6_Opensource_Library/libraries/zf_driver/zf_driver_encoder.c:202
    uint32 register_temp = 0;
     a9c:	fe042623          	sw	zero,-20(s0)
D:/Backup/桌面/Seekfree_CH32V307VCT6_Opensource_Library/libraries/zf_driver/zf_driver_encoder.c:209

    // 如果程序在输出了断言信息 并且提示出错位置在这里
    // 就去查看你在什么地方调用这个函数 检查你的传入参数
    // 这里是检查是否有重复使用定时器
    // 比如初始化了 TIM1_PWM 然后又初始化成 TIM1_ENCODER 这种用法是不允许的
    zf_assert(timer_funciton_check((timer_index_enum)encoder_n, TIMER_FUNCTION_ENCODER));
     aa0:	4591                	li	a1,4
     aa2:	fcc42503          	lw	a0,-52(s0)
     aa6:	554020ef          	jal	ra,2ffa <timer_funciton_check>
     aaa:	87aa                	mv	a5,a0
     aac:	873e                	mv	a4,a5
     aae:	0d100613          	li	a2,209
     ab2:	0001f7b7          	lui	a5,0x1f
     ab6:	42878593          	addi	a1,a5,1064 # 1f428 <_sbrk+0x26>
     aba:	853a                	mv	a0,a4
     abc:	2bc070ef          	jal	ra,7d78 <debug_assert_handler>
D:/Backup/桌面/Seekfree_CH32V307VCT6_Opensource_Library/libraries/zf_driver/zf_driver_encoder.c:210
    zf_assert((ch1_pin & (encoder_n << 12)) == (encoder_n << 12));              // ch1_pin 与 ch2_pin 必须与 encoder_n 匹配
     ac0:	fcc42783          	lw	a5,-52(s0)
     ac4:	00c79713          	slli	a4,a5,0xc
     ac8:	fc842783          	lw	a5,-56(s0)
     acc:	8f7d                	and	a4,a4,a5
     ace:	fcc42783          	lw	a5,-52(s0)
     ad2:	07b2                	slli	a5,a5,0xc
     ad4:	40f707b3          	sub	a5,a4,a5
     ad8:	0017b793          	seqz	a5,a5
     adc:	0ff7f793          	andi	a5,a5,255
     ae0:	873e                	mv	a4,a5
     ae2:	0d200613          	li	a2,210
     ae6:	0001f7b7          	lui	a5,0x1f
     aea:	42878593          	addi	a1,a5,1064 # 1f428 <_sbrk+0x26>
     aee:	853a                	mv	a0,a4
     af0:	288070ef          	jal	ra,7d78 <debug_assert_handler>
D:/Backup/桌面/Seekfree_CH32V307VCT6_Opensource_Library/libraries/zf_driver/zf_driver_encoder.c:211
    zf_assert((ch2_pin & (encoder_n << 12)) == (encoder_n << 12));              // ch1_pin 与 ch2_pin 必须与 encoder_n 匹配
     af4:	fcc42783          	lw	a5,-52(s0)
     af8:	00c79713          	slli	a4,a5,0xc
     afc:	fc442783          	lw	a5,-60(s0)
     b00:	8f7d                	and	a4,a4,a5
     b02:	fcc42783          	lw	a5,-52(s0)
     b06:	07b2                	slli	a5,a5,0xc
     b08:	40f707b3          	sub	a5,a4,a5
     b0c:	0017b793          	seqz	a5,a5
     b10:	0ff7f793          	andi	a5,a5,255
     b14:	873e                	mv	a4,a5
     b16:	0d300613          	li	a2,211
     b1a:	0001f7b7          	lui	a5,0x1f
     b1e:	42878593          	addi	a1,a5,1064 # 1f428 <_sbrk+0x26>
     b22:	853a                	mv	a0,a4
     b24:	254070ef          	jal	ra,7d78 <debug_assert_handler>
D:/Backup/桌面/Seekfree_CH32V307VCT6_Opensource_Library/libraries/zf_driver/zf_driver_encoder.c:213

    timer_clock_enable(encoder_n);                                              // 定时器时钟使能
     b28:	fcc42503          	lw	a0,-52(s0)
     b2c:	534020ef          	jal	ra,3060 <timer_clock_enable>
D:/Backup/桌面/Seekfree_CH32V307VCT6_Opensource_Library/libraries/zf_driver/zf_driver_encoder.c:215

    gpio_init((gpio_pin_enum)(ch1_pin & 0xFF), GPI, 0, GPI_PULL_UP);            // 初始化引脚
     b30:	fc842783          	lw	a5,-56(s0)
     b34:	0ff7f793          	andi	a5,a5,255
     b38:	04800693          	li	a3,72
     b3c:	4601                	li	a2,0
     b3e:	4581                	li	a1,0
     b40:	853e                	mv	a0,a5
     b42:	798000ef          	jal	ra,12da <gpio_init>
D:/Backup/桌面/Seekfree_CH32V307VCT6_Opensource_Library/libraries/zf_driver/zf_driver_encoder.c:216
    gpio_init((gpio_pin_enum)(ch2_pin & 0xFF), GPI, 0, GPI_PULL_UP);            // 初始化引脚
     b46:	fc442783          	lw	a5,-60(s0)
     b4a:	0ff7f793          	andi	a5,a5,255
     b4e:	04800693          	li	a3,72
     b52:	4601                	li	a2,0
     b54:	4581                	li	a1,0
     b56:	853e                	mv	a0,a5
     b58:	782000ef          	jal	ra,12da <gpio_init>
D:/Backup/桌面/Seekfree_CH32V307VCT6_Opensource_Library/libraries/zf_driver/zf_driver_encoder.c:218

    encoder_dir_pin[encoder_n] = (ch1_pin &0xFF);                               // 将方向引脚号存入数组中
     b5c:	fc842783          	lw	a5,-56(s0)
     b60:	0ff7f713          	andi	a4,a5,255
     b64:	200007b7          	lui	a5,0x20000
     b68:	00078693          	mv	a3,a5
     b6c:	fcc42783          	lw	a5,-52(s0)
     b70:	97b6                	add	a5,a5,a3
     b72:	00e78023          	sb	a4,0(a5) # 20000000 <_data_vma>
D:/Backup/桌面/Seekfree_CH32V307VCT6_Opensource_Library/libraries/zf_driver/zf_driver_encoder.c:220

    switch(encoder_n)
     b76:	fcc42703          	lw	a4,-52(s0)
     b7a:	47a5                	li	a5,9
     b7c:	08e7e163          	bltu	a5,a4,bfe <encoder_dir_init+0x176>
     b80:	fcc42783          	lw	a5,-52(s0)
     b84:	00279713          	slli	a4,a5,0x2
     b88:	000207b7          	lui	a5,0x20
     b8c:	30878793          	addi	a5,a5,776 # 20308 <_sbrk+0xf06>
     b90:	97ba                	add	a5,a5,a4
     b92:	439c                	lw	a5,0(a5)
     b94:	8782                	jr	a5
D:/Backup/桌面/Seekfree_CH32V307VCT6_Opensource_Library/libraries/zf_driver/zf_driver_encoder.c:222
    {
        case TIM1_ENCOEDER:  tim_index = ((TIM_TypeDef *)TIM1_BASE);   break;
     b96:	400137b7          	lui	a5,0x40013
     b9a:	c0078793          	addi	a5,a5,-1024 # 40012c00 <_eusrstack+0x20002c00>
     b9e:	fef42423          	sw	a5,-24(s0)
     ba2:	a08d                	j	c04 <encoder_dir_init+0x17c>
D:/Backup/桌面/Seekfree_CH32V307VCT6_Opensource_Library/libraries/zf_driver/zf_driver_encoder.c:223
        case TIM2_ENCOEDER:  tim_index = ((TIM_TypeDef *)TIM2_BASE);   break;
     ba4:	400007b7          	lui	a5,0x40000
     ba8:	fef42423          	sw	a5,-24(s0)
     bac:	a8a1                	j	c04 <encoder_dir_init+0x17c>
D:/Backup/桌面/Seekfree_CH32V307VCT6_Opensource_Library/libraries/zf_driver/zf_driver_encoder.c:224
        case TIM3_ENCOEDER:  tim_index = ((TIM_TypeDef *)TIM3_BASE);   break;
     bae:	400007b7          	lui	a5,0x40000
     bb2:	40078793          	addi	a5,a5,1024 # 40000400 <_eusrstack+0x1fff0400>
     bb6:	fef42423          	sw	a5,-24(s0)
     bba:	a0a9                	j	c04 <encoder_dir_init+0x17c>
D:/Backup/桌面/Seekfree_CH32V307VCT6_Opensource_Library/libraries/zf_driver/zf_driver_encoder.c:225
        case TIM4_ENCOEDER:  tim_index = ((TIM_TypeDef *)TIM4_BASE);   break;
     bbc:	400017b7          	lui	a5,0x40001
     bc0:	80078793          	addi	a5,a5,-2048 # 40000800 <_eusrstack+0x1fff0800>
     bc4:	fef42423          	sw	a5,-24(s0)
     bc8:	a835                	j	c04 <encoder_dir_init+0x17c>
D:/Backup/桌面/Seekfree_CH32V307VCT6_Opensource_Library/libraries/zf_driver/zf_driver_encoder.c:226
        case TIM5_ENCOEDER:  tim_index = ((TIM_TypeDef *)TIM5_BASE);   break;
     bca:	400017b7          	lui	a5,0x40001
     bce:	c0078793          	addi	a5,a5,-1024 # 40000c00 <_eusrstack+0x1fff0c00>
     bd2:	fef42423          	sw	a5,-24(s0)
     bd6:	a03d                	j	c04 <encoder_dir_init+0x17c>
D:/Backup/桌面/Seekfree_CH32V307VCT6_Opensource_Library/libraries/zf_driver/zf_driver_encoder.c:227
        case TIM8_ENCOEDER:  tim_index = ((TIM_TypeDef *)TIM8_BASE);   break;
     bd8:	400137b7          	lui	a5,0x40013
     bdc:	40078793          	addi	a5,a5,1024 # 40013400 <_eusrstack+0x20003400>
     be0:	fef42423          	sw	a5,-24(s0)
     be4:	a005                	j	c04 <encoder_dir_init+0x17c>
D:/Backup/桌面/Seekfree_CH32V307VCT6_Opensource_Library/libraries/zf_driver/zf_driver_encoder.c:228
        case TIM9_ENCOEDER:  tim_index = ((TIM_TypeDef *)TIM9_BASE);   break;
     be6:	400157b7          	lui	a5,0x40015
     bea:	c0078793          	addi	a5,a5,-1024 # 40014c00 <_eusrstack+0x20004c00>
     bee:	fef42423          	sw	a5,-24(s0)
     bf2:	a809                	j	c04 <encoder_dir_init+0x17c>
D:/Backup/桌面/Seekfree_CH32V307VCT6_Opensource_Library/libraries/zf_driver/zf_driver_encoder.c:229
        case TIM10_ENCOEDER: tim_index = ((TIM_TypeDef *)TIM10_BASE);  break;
     bf4:	400157b7          	lui	a5,0x40015
     bf8:	fef42423          	sw	a5,-24(s0)
     bfc:	a021                	j	c04 <encoder_dir_init+0x17c>
D:/Backup/桌面/Seekfree_CH32V307VCT6_Opensource_Library/libraries/zf_driver/zf_driver_encoder.c:230
        default: register_temp = 1;
     bfe:	4785                	li	a5,1
     c00:	fef42623          	sw	a5,-20(s0)
D:/Backup/桌面/Seekfree_CH32V307VCT6_Opensource_Library/libraries/zf_driver/zf_driver_encoder.c:233
    }

    RCC_APB2PeriphClockCmd(RCC_APB2Periph_AFIO, ENABLE);                // 使能AFIO复用功能模块时钟
     c04:	4585                	li	a1,1
     c06:	4505                	li	a0,1
     c08:	08c0b0ef          	jal	ra,bc94 <RCC_APB2PeriphClockCmd>
D:/Backup/桌面/Seekfree_CH32V307VCT6_Opensource_Library/libraries/zf_driver/zf_driver_encoder.c:236

    // 开启复用功能
    if((ch1_pin >> 8) == 0x03)      GPIO_PinRemapConfig(GPIO_FullRemap_TIM1,        ENABLE);
     c0c:	fc842783          	lw	a5,-56(s0)
     c10:	0087d713          	srli	a4,a5,0x8
     c14:	478d                	li	a5,3
     c16:	00f71a63          	bne	a4,a5,c2a <encoder_dir_init+0x1a2>
D:/Backup/桌面/Seekfree_CH32V307VCT6_Opensource_Library/libraries/zf_driver/zf_driver_encoder.c:236 (discriminator 1)
     c1a:	4585                	li	a1,1
     c1c:	001607b7          	lui	a5,0x160
     c20:	0c078513          	addi	a0,a5,192 # 1600c0 <_data_lma+0x13cc4c>
     c24:	2b50a0ef          	jal	ra,b6d8 <GPIO_PinRemapConfig>
     c28:	a8e5                	j	d20 <encoder_dir_init+0x298>
D:/Backup/桌面/Seekfree_CH32V307VCT6_Opensource_Library/libraries/zf_driver/zf_driver_encoder.c:237
    else if((ch1_pin >> 8) == 0x11) GPIO_PinRemapConfig(GPIO_PartialRemap1_TIM2,    ENABLE);
     c2a:	fc842783          	lw	a5,-56(s0)
     c2e:	0087d713          	srli	a4,a5,0x8
     c32:	47c5                	li	a5,17
     c34:	00f71a63          	bne	a4,a5,c48 <encoder_dir_init+0x1c0>
D:/Backup/桌面/Seekfree_CH32V307VCT6_Opensource_Library/libraries/zf_driver/zf_driver_encoder.c:237 (discriminator 1)
     c38:	4585                	li	a1,1
     c3a:	001807b7          	lui	a5,0x180
     c3e:	10078513          	addi	a0,a5,256 # 180100 <_data_lma+0x15cc8c>
     c42:	2970a0ef          	jal	ra,b6d8 <GPIO_PinRemapConfig>
     c46:	a8e9                	j	d20 <encoder_dir_init+0x298>
D:/Backup/桌面/Seekfree_CH32V307VCT6_Opensource_Library/libraries/zf_driver/zf_driver_encoder.c:238
    else if((ch1_pin >> 8) == 0x22) GPIO_PinRemapConfig(GPIO_PartialRemap_TIM3,     ENABLE);
     c48:	fc842783          	lw	a5,-56(s0)
     c4c:	0087d713          	srli	a4,a5,0x8
     c50:	02200793          	li	a5,34
     c54:	00f71a63          	bne	a4,a5,c68 <encoder_dir_init+0x1e0>
D:/Backup/桌面/Seekfree_CH32V307VCT6_Opensource_Library/libraries/zf_driver/zf_driver_encoder.c:238 (discriminator 1)
     c58:	4585                	li	a1,1
     c5a:	001a17b7          	lui	a5,0x1a1
     c5e:	80078513          	addi	a0,a5,-2048 # 1a0800 <_data_lma+0x17d38c>
     c62:	2770a0ef          	jal	ra,b6d8 <GPIO_PinRemapConfig>
     c66:	a86d                	j	d20 <encoder_dir_init+0x298>
D:/Backup/桌面/Seekfree_CH32V307VCT6_Opensource_Library/libraries/zf_driver/zf_driver_encoder.c:239
    else if((ch1_pin >> 8) == 0x23) GPIO_PinRemapConfig(GPIO_FullRemap_TIM3,        ENABLE);
     c68:	fc842783          	lw	a5,-56(s0)
     c6c:	0087d713          	srli	a4,a5,0x8
     c70:	02300793          	li	a5,35
     c74:	00f71a63          	bne	a4,a5,c88 <encoder_dir_init+0x200>
D:/Backup/桌面/Seekfree_CH32V307VCT6_Opensource_Library/libraries/zf_driver/zf_driver_encoder.c:239 (discriminator 1)
     c78:	4585                	li	a1,1
     c7a:	001a17b7          	lui	a5,0x1a1
     c7e:	c0078513          	addi	a0,a5,-1024 # 1a0c00 <_data_lma+0x17d78c>
     c82:	2570a0ef          	jal	ra,b6d8 <GPIO_PinRemapConfig>
     c86:	a869                	j	d20 <encoder_dir_init+0x298>
D:/Backup/桌面/Seekfree_CH32V307VCT6_Opensource_Library/libraries/zf_driver/zf_driver_encoder.c:240
    else if((ch1_pin >> 8) == 0x31) GPIO_PinRemapConfig(GPIO_Remap_TIM4,            ENABLE);
     c88:	fc842783          	lw	a5,-56(s0)
     c8c:	0087d713          	srli	a4,a5,0x8
     c90:	03100793          	li	a5,49
     c94:	00f71763          	bne	a4,a5,ca2 <encoder_dir_init+0x21a>
D:/Backup/桌面/Seekfree_CH32V307VCT6_Opensource_Library/libraries/zf_driver/zf_driver_encoder.c:240 (discriminator 1)
     c98:	4585                	li	a1,1
     c9a:	6505                	lui	a0,0x1
     c9c:	23d0a0ef          	jal	ra,b6d8 <GPIO_PinRemapConfig>
     ca0:	a041                	j	d20 <encoder_dir_init+0x298>
D:/Backup/桌面/Seekfree_CH32V307VCT6_Opensource_Library/libraries/zf_driver/zf_driver_encoder.c:241
    else if((ch1_pin >> 8) == 0x71) GPIO_PinRemapConfig(GPIO_Remap_TIM8,            ENABLE);
     ca2:	fc842783          	lw	a5,-56(s0)
     ca6:	0087d713          	srli	a4,a5,0x8
     caa:	07100793          	li	a5,113
     cae:	00f71a63          	bne	a4,a5,cc2 <encoder_dir_init+0x23a>
D:/Backup/桌面/Seekfree_CH32V307VCT6_Opensource_Library/libraries/zf_driver/zf_driver_encoder.c:241 (discriminator 1)
     cb2:	4585                	li	a1,1
     cb4:	800007b7          	lui	a5,0x80000
     cb8:	00478513          	addi	a0,a5,4 # 80000004 <_eusrstack+0x5fff0004>
     cbc:	21d0a0ef          	jal	ra,b6d8 <GPIO_PinRemapConfig>
     cc0:	a085                	j	d20 <encoder_dir_init+0x298>
D:/Backup/桌面/Seekfree_CH32V307VCT6_Opensource_Library/libraries/zf_driver/zf_driver_encoder.c:242
    else if((ch1_pin >> 8) == 0x83) GPIO_PinRemapConfig(GPIO_FullRemap_TIM9,        ENABLE);
     cc2:	fc842783          	lw	a5,-56(s0)
     cc6:	0087d713          	srli	a4,a5,0x8
     cca:	08300793          	li	a5,131
     cce:	00f71a63          	bne	a4,a5,ce2 <encoder_dir_init+0x25a>
D:/Backup/桌面/Seekfree_CH32V307VCT6_Opensource_Library/libraries/zf_driver/zf_driver_encoder.c:242 (discriminator 1)
     cd2:	4585                	li	a1,1
     cd4:	801307b7          	lui	a5,0x80130
     cd8:	01078513          	addi	a0,a5,16 # 80130010 <_eusrstack+0x60120010>
     cdc:	1fd0a0ef          	jal	ra,b6d8 <GPIO_PinRemapConfig>
     ce0:	a081                	j	d20 <encoder_dir_init+0x298>
D:/Backup/桌面/Seekfree_CH32V307VCT6_Opensource_Library/libraries/zf_driver/zf_driver_encoder.c:243
    else if((ch1_pin >> 8) == 0x91) GPIO_PinRemapConfig(GPIO_PartialRemap_TIM10,    ENABLE);
     ce2:	fc842783          	lw	a5,-56(s0)
     ce6:	0087d713          	srli	a4,a5,0x8
     cea:	09100793          	li	a5,145
     cee:	00f71a63          	bne	a4,a5,d02 <encoder_dir_init+0x27a>
D:/Backup/桌面/Seekfree_CH32V307VCT6_Opensource_Library/libraries/zf_driver/zf_driver_encoder.c:243 (discriminator 1)
     cf2:	4585                	li	a1,1
     cf4:	801507b7          	lui	a5,0x80150
     cf8:	02078513          	addi	a0,a5,32 # 80150020 <_eusrstack+0x60140020>
     cfc:	1dd0a0ef          	jal	ra,b6d8 <GPIO_PinRemapConfig>
     d00:	a005                	j	d20 <encoder_dir_init+0x298>
D:/Backup/桌面/Seekfree_CH32V307VCT6_Opensource_Library/libraries/zf_driver/zf_driver_encoder.c:244
    else if((ch1_pin >> 8) == 0x93) GPIO_PinRemapConfig(GPIO_FullRemap_TIM10,       ENABLE);
     d02:	fc842783          	lw	a5,-56(s0)
     d06:	0087d713          	srli	a4,a5,0x8
     d0a:	09300793          	li	a5,147
     d0e:	00f71963          	bne	a4,a5,d20 <encoder_dir_init+0x298>
D:/Backup/桌面/Seekfree_CH32V307VCT6_Opensource_Library/libraries/zf_driver/zf_driver_encoder.c:244 (discriminator 1)
     d12:	4585                	li	a1,1
     d14:	801507b7          	lui	a5,0x80150
     d18:	04078513          	addi	a0,a5,64 # 80150040 <_eusrstack+0x60140040>
     d1c:	1bd0a0ef          	jal	ra,b6d8 <GPIO_PinRemapConfig>
D:/Backup/桌面/Seekfree_CH32V307VCT6_Opensource_Library/libraries/zf_driver/zf_driver_encoder.c:246

    if(!register_temp)
     d20:	fec42783          	lw	a5,-20(s0)
     d24:	eba9                	bnez	a5,d76 <encoder_dir_init+0x2ee>
D:/Backup/桌面/Seekfree_CH32V307VCT6_Opensource_Library/libraries/zf_driver/zf_driver_encoder.c:249
    {

        TIM_TimeBaseInitTypeDef TIM_TimeBaseStructure = {0};
     d26:	fc042e23          	sw	zero,-36(s0)
     d2a:	fe042023          	sw	zero,-32(s0)
     d2e:	fe041223          	sh	zero,-28(s0)
D:/Backup/桌面/Seekfree_CH32V307VCT6_Opensource_Library/libraries/zf_driver/zf_driver_encoder.c:250
        TIM_TimeBaseStructInit(&TIM_TimeBaseStructure);
     d32:	fdc40793          	addi	a5,s0,-36
     d36:	853e                	mv	a0,a5
     d38:	28b0b0ef          	jal	ra,c7c2 <TIM_TimeBaseStructInit>
D:/Backup/桌面/Seekfree_CH32V307VCT6_Opensource_Library/libraries/zf_driver/zf_driver_encoder.c:251
        TIM_TimeBaseStructure.TIM_Prescaler = 0;                            // 预分频器
     d3c:	fc041e23          	sh	zero,-36(s0)
D:/Backup/桌面/Seekfree_CH32V307VCT6_Opensource_Library/libraries/zf_driver/zf_driver_encoder.c:252
        TIM_TimeBaseStructure.TIM_Period = 0xFFFF;                          // 设定计数器自动重装值
     d40:	57fd                	li	a5,-1
     d42:	fef41023          	sh	a5,-32(s0)
D:/Backup/桌面/Seekfree_CH32V307VCT6_Opensource_Library/libraries/zf_driver/zf_driver_encoder.c:253
        TIM_TimeBaseStructure.TIM_ClockDivision = TIM_CKD_DIV1;             // 选择时钟分频：不分频
     d46:	fe041123          	sh	zero,-30(s0)
D:/Backup/桌面/Seekfree_CH32V307VCT6_Opensource_Library/libraries/zf_driver/zf_driver_encoder.c:254
        TIM_TimeBaseStructure.TIM_CounterMode = TIM_CounterMode_Up;         // TIM向上计数
     d4a:	fc041f23          	sh	zero,-34(s0)
D:/Backup/桌面/Seekfree_CH32V307VCT6_Opensource_Library/libraries/zf_driver/zf_driver_encoder.c:255
        TIM_TimeBaseStructure.TIM_RepetitionCounter = 0;                    // 重复计数器
     d4e:	fe040223          	sb	zero,-28(s0)
D:/Backup/桌面/Seekfree_CH32V307VCT6_Opensource_Library/libraries/zf_driver/zf_driver_encoder.c:256
        TIM_TimeBaseInit(tim_index, &TIM_TimeBaseStructure);                // 初始化结构体
     d52:	fdc40793          	addi	a5,s0,-36
     d56:	85be                	mv	a1,a5
     d58:	fe842503          	lw	a0,-24(s0)
     d5c:	2180b0ef          	jal	ra,bf74 <TIM_TimeBaseInit>
D:/Backup/桌面/Seekfree_CH32V307VCT6_Opensource_Library/libraries/zf_driver/zf_driver_encoder.c:257
        TIM_ITRxExternalClockConfig(tim_index, TIM_TS_TI2FP2);              // 配置外部触发，否则不会计数
     d60:	06000593          	li	a1,96
     d64:	fe842503          	lw	a0,-24(s0)
     d68:	3bf0b0ef          	jal	ra,c926 <TIM_ITRxExternalClockConfig>
D:/Backup/桌面/Seekfree_CH32V307VCT6_Opensource_Library/libraries/zf_driver/zf_driver_encoder.c:258
        TIM_Cmd(tim_index, ENABLE);                                         // 定时器使能
     d6c:	4585                	li	a1,1
     d6e:	fe842503          	lw	a0,-24(s0)
     d72:	28d0b0ef          	jal	ra,c7fe <TIM_Cmd>
D:/Backup/桌面/Seekfree_CH32V307VCT6_Opensource_Library/libraries/zf_driver/zf_driver_encoder.c:260
    }
}
     d76:	0001                	nop
     d78:	50f2                	lw	ra,60(sp)
     d7a:	5462                	lw	s0,56(sp)
     d7c:	6121                	addi	sp,sp,64
     d7e:	8082                	ret

00000d80 <exti_init>:
exti_init():
D:/Backup/桌面/Seekfree_CH32V307VCT6_Opensource_Library/libraries/zf_driver/zf_driver_exti.c:72
// 参数说明     trigger         选择触发的信号方式 [EXTI_TRIGGER_RISING/EXTI_TRIGGER_FALLING/EXTI_TRIGGER_BOTH]
// 返回参数     void
// 使用示例     exti_init(A0, EXTI_TRIGGER_RISING);
//-------------------------------------------------------------------------------------------------------------------
void exti_init (gpio_pin_enum pin, exti_trigger_enum trigger)
{
     d80:	7179                	addi	sp,sp,-48
     d82:	d606                	sw	ra,44(sp)
     d84:	d422                	sw	s0,40(sp)
     d86:	1800                	addi	s0,sp,48
     d88:	fca42e23          	sw	a0,-36(s0)
     d8c:	fcb42c23          	sw	a1,-40(s0)
D:/Backup/桌面/Seekfree_CH32V307VCT6_Opensource_Library/libraries/zf_driver/zf_driver_exti.c:73
    RCC_APB2PeriphClockCmd(RCC_APB2Periph_AFIO,ENABLE);                         // 复用时钟使能
     d90:	4585                	li	a1,1
     d92:	4505                	li	a0,1
     d94:	7010a0ef          	jal	ra,bc94 <RCC_APB2PeriphClockCmd>
D:/Backup/桌面/Seekfree_CH32V307VCT6_Opensource_Library/libraries/zf_driver/zf_driver_exti.c:74
    gpio_init(pin, GPI, GPIO_HIGH, GPI_PULL_UP);                                // 初始化选中的引脚
     d98:	04800693          	li	a3,72
     d9c:	4605                	li	a2,1
     d9e:	4581                	li	a1,0
     da0:	fdc42503          	lw	a0,-36(s0)
     da4:	2b1d                	jal	12da <gpio_init>
D:/Backup/桌面/Seekfree_CH32V307VCT6_Opensource_Library/libraries/zf_driver/zf_driver_exti.c:75
    GPIO_EXTILineConfig(pin >> 5, pin & 0x1F);                                  // 选择哪一组GPIO做中断
     da6:	fdc42783          	lw	a5,-36(s0)
     daa:	8395                	srli	a5,a5,0x5
     dac:	0ff7f713          	andi	a4,a5,255
     db0:	fdc42783          	lw	a5,-36(s0)
     db4:	0ff7f793          	andi	a5,a5,255
     db8:	8bfd                	andi	a5,a5,31
     dba:	0ff7f793          	andi	a5,a5,255
     dbe:	85be                	mv	a1,a5
     dc0:	853a                	mv	a0,a4
     dc2:	2df0a0ef          	jal	ra,b8a0 <GPIO_EXTILineConfig>
D:/Backup/桌面/Seekfree_CH32V307VCT6_Opensource_Library/libraries/zf_driver/zf_driver_exti.c:77

    EXTI_InitTypeDef EXTI_InitStructure = {0};
     dc6:	fe042023          	sw	zero,-32(s0)
     dca:	fe042223          	sw	zero,-28(s0)
     dce:	fe042423          	sw	zero,-24(s0)
     dd2:	fe042623          	sw	zero,-20(s0)
D:/Backup/桌面/Seekfree_CH32V307VCT6_Opensource_Library/libraries/zf_driver/zf_driver_exti.c:78
    EXTI_InitStructure.EXTI_Line = 1 << (pin & 0x1F);                           // 引脚号配置
     dd6:	fdc42783          	lw	a5,-36(s0)
     dda:	8bfd                	andi	a5,a5,31
     ddc:	4705                	li	a4,1
     dde:	00f717b3          	sll	a5,a4,a5
     de2:	fef42023          	sw	a5,-32(s0)
D:/Backup/桌面/Seekfree_CH32V307VCT6_Opensource_Library/libraries/zf_driver/zf_driver_exti.c:79
    EXTI_InitStructure.EXTI_Mode = EXTI_Mode_Interrupt;                         // 触发模式
     de6:	fe042223          	sw	zero,-28(s0)
D:/Backup/桌面/Seekfree_CH32V307VCT6_Opensource_Library/libraries/zf_driver/zf_driver_exti.c:80
    EXTI_InitStructure.EXTI_Trigger = trigger;                                  // 触发方式
     dea:	fd842783          	lw	a5,-40(s0)
     dee:	fef42423          	sw	a5,-24(s0)
D:/Backup/桌面/Seekfree_CH32V307VCT6_Opensource_Library/libraries/zf_driver/zf_driver_exti.c:81
    EXTI_InitStructure.EXTI_LineCmd = ENABLE;                                   // 使能或者失能
     df2:	4785                	li	a5,1
     df4:	fef42623          	sw	a5,-20(s0)
D:/Backup/桌面/Seekfree_CH32V307VCT6_Opensource_Library/libraries/zf_driver/zf_driver_exti.c:82
    EXTI_Init(&EXTI_InitStructure);
     df8:	fe040793          	addi	a5,s0,-32
     dfc:	853e                	mv	a0,a5
     dfe:	2580a0ef          	jal	ra,b056 <EXTI_Init>
D:/Backup/桌面/Seekfree_CH32V307VCT6_Opensource_Library/libraries/zf_driver/zf_driver_exti.c:84

    if((pin&0x1F) < 1)
     e02:	fdc42783          	lw	a5,-36(s0)
     e06:	8bfd                	andi	a5,a5,31
     e08:	e789                	bnez	a5,e12 <exti_init+0x92>
D:/Backup/桌面/Seekfree_CH32V307VCT6_Opensource_Library/libraries/zf_driver/zf_driver_exti.c:85
       interrupt_enable(EXTI0_IRQn);                                             // 使能 Line0 的中断响应
     e0a:	4559                	li	a0,22
     e0c:	044080ef          	jal	ra,8e50 <interrupt_enable>
D:/Backup/桌面/Seekfree_CH32V307VCT6_Opensource_Library/libraries/zf_driver/zf_driver_exti.c:98
       interrupt_enable(EXTI4_IRQn);                                             // 使能 Line4 的中断响应
    else if((pin&0x1F) < 10)
       interrupt_enable(EXTI9_5_IRQn);                                           // 使能 Line5-9 的中断响应
    else
       interrupt_enable(EXTI15_10_IRQn);                                         // 使能 Line10-15 的中断响应
}
     e10:	a0bd                	j	e7e <exti_init+0xfe>
D:/Backup/桌面/Seekfree_CH32V307VCT6_Opensource_Library/libraries/zf_driver/zf_driver_exti.c:86
    else if((pin&0x1F) < 2)
     e12:	fdc42783          	lw	a5,-36(s0)
     e16:	8bf9                	andi	a5,a5,30
     e18:	e789                	bnez	a5,e22 <exti_init+0xa2>
D:/Backup/桌面/Seekfree_CH32V307VCT6_Opensource_Library/libraries/zf_driver/zf_driver_exti.c:87
       interrupt_enable(EXTI1_IRQn);                                             // 使能 Line1 的中断响应
     e1a:	455d                	li	a0,23
     e1c:	034080ef          	jal	ra,8e50 <interrupt_enable>
D:/Backup/桌面/Seekfree_CH32V307VCT6_Opensource_Library/libraries/zf_driver/zf_driver_exti.c:98
}
     e20:	a8b9                	j	e7e <exti_init+0xfe>
D:/Backup/桌面/Seekfree_CH32V307VCT6_Opensource_Library/libraries/zf_driver/zf_driver_exti.c:88
    else if((pin&0x1F) < 3)
     e22:	fdc42783          	lw	a5,-36(s0)
     e26:	01f7f713          	andi	a4,a5,31
     e2a:	4789                	li	a5,2
     e2c:	00e7e663          	bltu	a5,a4,e38 <exti_init+0xb8>
D:/Backup/桌面/Seekfree_CH32V307VCT6_Opensource_Library/libraries/zf_driver/zf_driver_exti.c:89
       interrupt_enable(EXTI2_IRQn);                                             // 使能 Line2 的中断响应
     e30:	4561                	li	a0,24
     e32:	01e080ef          	jal	ra,8e50 <interrupt_enable>
D:/Backup/桌面/Seekfree_CH32V307VCT6_Opensource_Library/libraries/zf_driver/zf_driver_exti.c:98
}
     e36:	a0a1                	j	e7e <exti_init+0xfe>
D:/Backup/桌面/Seekfree_CH32V307VCT6_Opensource_Library/libraries/zf_driver/zf_driver_exti.c:90
    else if((pin&0x1F) < 4)
     e38:	fdc42783          	lw	a5,-36(s0)
     e3c:	8bf1                	andi	a5,a5,28
     e3e:	e789                	bnez	a5,e48 <exti_init+0xc8>
D:/Backup/桌面/Seekfree_CH32V307VCT6_Opensource_Library/libraries/zf_driver/zf_driver_exti.c:91
       interrupt_enable(EXTI3_IRQn);                                             // 使能 Line3 的中断响应
     e40:	4565                	li	a0,25
     e42:	00e080ef          	jal	ra,8e50 <interrupt_enable>
D:/Backup/桌面/Seekfree_CH32V307VCT6_Opensource_Library/libraries/zf_driver/zf_driver_exti.c:98
}
     e46:	a825                	j	e7e <exti_init+0xfe>
D:/Backup/桌面/Seekfree_CH32V307VCT6_Opensource_Library/libraries/zf_driver/zf_driver_exti.c:92
    else if((pin&0x1F) < 5)
     e48:	fdc42783          	lw	a5,-36(s0)
     e4c:	01f7f713          	andi	a4,a5,31
     e50:	4791                	li	a5,4
     e52:	00e7e663          	bltu	a5,a4,e5e <exti_init+0xde>
D:/Backup/桌面/Seekfree_CH32V307VCT6_Opensource_Library/libraries/zf_driver/zf_driver_exti.c:93
       interrupt_enable(EXTI4_IRQn);                                             // 使能 Line4 的中断响应
     e56:	4569                	li	a0,26
     e58:	7f9070ef          	jal	ra,8e50 <interrupt_enable>
D:/Backup/桌面/Seekfree_CH32V307VCT6_Opensource_Library/libraries/zf_driver/zf_driver_exti.c:98
}
     e5c:	a00d                	j	e7e <exti_init+0xfe>
D:/Backup/桌面/Seekfree_CH32V307VCT6_Opensource_Library/libraries/zf_driver/zf_driver_exti.c:94
    else if((pin&0x1F) < 10)
     e5e:	fdc42783          	lw	a5,-36(s0)
     e62:	01f7f713          	andi	a4,a5,31
     e66:	47a5                	li	a5,9
     e68:	00e7e763          	bltu	a5,a4,e76 <exti_init+0xf6>
D:/Backup/桌面/Seekfree_CH32V307VCT6_Opensource_Library/libraries/zf_driver/zf_driver_exti.c:95
       interrupt_enable(EXTI9_5_IRQn);                                           // 使能 Line5-9 的中断响应
     e6c:	02700513          	li	a0,39
     e70:	7e1070ef          	jal	ra,8e50 <interrupt_enable>
D:/Backup/桌面/Seekfree_CH32V307VCT6_Opensource_Library/libraries/zf_driver/zf_driver_exti.c:98
}
     e74:	a029                	j	e7e <exti_init+0xfe>
D:/Backup/桌面/Seekfree_CH32V307VCT6_Opensource_Library/libraries/zf_driver/zf_driver_exti.c:97
       interrupt_enable(EXTI15_10_IRQn);                                         // 使能 Line10-15 的中断响应
     e76:	03800513          	li	a0,56
     e7a:	7d7070ef          	jal	ra,8e50 <interrupt_enable>
D:/Backup/桌面/Seekfree_CH32V307VCT6_Opensource_Library/libraries/zf_driver/zf_driver_exti.c:98
}
     e7e:	0001                	nop
     e80:	50b2                	lw	ra,44(sp)
     e82:	5422                	lw	s0,40(sp)
     e84:	6145                	addi	sp,sp,48
     e86:	8082                	ret

00000e88 <flash_check>:
flash_check():
D:/Backup/桌面/Seekfree_CH32V307VCT6_Opensource_Library/libraries/zf_driver/zf_driver_flash.c:55
// 返回参数     uint8           1-有数据 0-没有数据 如果需要对有数据的区域写入新的数据则应该对所在扇区进行擦除操作
// 使用示例     flash_check(63, 3);
// 备注信息
//-------------------------------------------------------------------------------------------------------------------
uint8 flash_check (uint32 sector_num, uint32 page_num)
{
     e88:	7179                	addi	sp,sp,-48
     e8a:	d606                	sw	ra,44(sp)
     e8c:	d422                	sw	s0,40(sp)
     e8e:	1800                	addi	s0,sp,48
     e90:	fca42e23          	sw	a0,-36(s0)
     e94:	fcb42c23          	sw	a1,-40(s0)
D:/Backup/桌面/Seekfree_CH32V307VCT6_Opensource_Library/libraries/zf_driver/zf_driver_flash.c:56
    zf_assert(sector_num <= FLASH_MAX_SECTION_INDEX);                                                   // 参数范围 0-63
     e98:	fdc42783          	lw	a5,-36(s0)
     e9c:	0407b793          	sltiu	a5,a5,64
     ea0:	0ff7f793          	andi	a5,a5,255
     ea4:	873e                	mv	a4,a5
     ea6:	03800613          	li	a2,56
     eaa:	0001f7b7          	lui	a5,0x1f
     eae:	48878593          	addi	a1,a5,1160 # 1f488 <_sbrk+0x86>
     eb2:	853a                	mv	a0,a4
     eb4:	6c5060ef          	jal	ra,7d78 <debug_assert_handler>
D:/Backup/桌面/Seekfree_CH32V307VCT6_Opensource_Library/libraries/zf_driver/zf_driver_flash.c:57
    zf_assert(page_num <= FLASH_MAX_PAGE_INDEX);                                                        // 参数范围 0-3
     eb8:	fd842783          	lw	a5,-40(s0)
     ebc:	0047b793          	sltiu	a5,a5,4
     ec0:	0ff7f793          	andi	a5,a5,255
     ec4:	873e                	mv	a4,a5
     ec6:	03900613          	li	a2,57
     eca:	0001f7b7          	lui	a5,0x1f
     ece:	48878593          	addi	a1,a5,1160 # 1f488 <_sbrk+0x86>
     ed2:	853a                	mv	a0,a4
     ed4:	6a5060ef          	jal	ra,7d78 <debug_assert_handler>
D:/Backup/桌面/Seekfree_CH32V307VCT6_Opensource_Library/libraries/zf_driver/zf_driver_flash.c:59

    uint8  return_state = 0;
     ed8:	fe0407a3          	sb	zero,-17(s0)
D:/Backup/桌面/Seekfree_CH32V307VCT6_Opensource_Library/libraries/zf_driver/zf_driver_flash.c:61
    uint16 temp_loop;
    uint32 flash_addr = ((FLASH_BASE_ADDR+FLASH_SECTION_SIZE*sector_num+FLASH_PAGE_SIZE*page_num));     // 提取当前 Flash 地址
     edc:	fdc42703          	lw	a4,-36(s0)
     ee0:	67a1                	lui	a5,0x8
     ee2:	97ba                	add	a5,a5,a4
     ee4:	00279713          	slli	a4,a5,0x2
     ee8:	fd842783          	lw	a5,-40(s0)
     eec:	97ba                	add	a5,a5,a4
     eee:	07aa                	slli	a5,a5,0xa
     ef0:	fef42423          	sw	a5,-24(s0)
D:/Backup/桌面/Seekfree_CH32V307VCT6_Opensource_Library/libraries/zf_driver/zf_driver_flash.c:63

    uint32 primask = interrupt_global_disable();
     ef4:	7f5070ef          	jal	ra,8ee8 <interrupt_global_disable>
     ef8:	fea42223          	sw	a0,-28(s0)
D:/Backup/桌面/Seekfree_CH32V307VCT6_Opensource_Library/libraries/zf_driver/zf_driver_flash.c:65

    clock_reset();                                  // 复位时钟
     efc:	576060ef          	jal	ra,7472 <clock_reset>
D:/Backup/桌面/Seekfree_CH32V307VCT6_Opensource_Library/libraries/zf_driver/zf_driver_flash.c:66
    clock_set_freq(SYSTEM_CLOCK_120M);          // 设置系统频率为120Mhz
     f00:	072717b7          	lui	a5,0x7271
     f04:	e0078513          	addi	a0,a5,-512 # 7270e00 <_data_lma+0x724d98c>
     f08:	5e0060ef          	jal	ra,74e8 <clock_set_freq>
D:/Backup/桌面/Seekfree_CH32V307VCT6_Opensource_Library/libraries/zf_driver/zf_driver_flash.c:68

    for(temp_loop = 0; temp_loop < FLASH_PAGE_SIZE; temp_loop+=4)                                       // 循环读取 Flash 的值
     f0c:	fe041623          	sh	zero,-20(s0)
     f10:	a035                	j	f3c <flash_check+0xb4>
D:/Backup/桌面/Seekfree_CH32V307VCT6_Opensource_Library/libraries/zf_driver/zf_driver_flash.c:70
    {
        if( (*(__IO u32*) (flash_addr+temp_loop)) != 0xE339E339 )                                       // 该单片机擦除后如果不是 0xE339E339 那就是有值
     f12:	fec45703          	lhu	a4,-20(s0)
     f16:	fe842783          	lw	a5,-24(s0)
     f1a:	97ba                	add	a5,a5,a4
     f1c:	4398                	lw	a4,0(a5)
     f1e:	e339e7b7          	lui	a5,0xe339e
     f22:	33978793          	addi	a5,a5,825 # e339e339 <_eusrstack+0xc338e339>
     f26:	00f70663          	beq	a4,a5,f32 <flash_check+0xaa>
D:/Backup/桌面/Seekfree_CH32V307VCT6_Opensource_Library/libraries/zf_driver/zf_driver_flash.c:72
        {
            return_state = 1;
     f2a:	4785                	li	a5,1
     f2c:	fef407a3          	sb	a5,-17(s0)
D:/Backup/桌面/Seekfree_CH32V307VCT6_Opensource_Library/libraries/zf_driver/zf_driver_flash.c:73
            break;
     f30:	a821                	j	f48 <flash_check+0xc0>
D:/Backup/桌面/Seekfree_CH32V307VCT6_Opensource_Library/libraries/zf_driver/zf_driver_flash.c:68 (discriminator 2)
    for(temp_loop = 0; temp_loop < FLASH_PAGE_SIZE; temp_loop+=4)                                       // 循环读取 Flash 的值
     f32:	fec45783          	lhu	a5,-20(s0)
     f36:	0791                	addi	a5,a5,4
     f38:	fef41623          	sh	a5,-20(s0)
D:/Backup/桌面/Seekfree_CH32V307VCT6_Opensource_Library/libraries/zf_driver/zf_driver_flash.c:68 (discriminator 1)
     f3c:	fec45703          	lhu	a4,-20(s0)
     f40:	3ff00793          	li	a5,1023
     f44:	fce7f7e3          	bgeu	a5,a4,f12 <flash_check+0x8a>
D:/Backup/桌面/Seekfree_CH32V307VCT6_Opensource_Library/libraries/zf_driver/zf_driver_flash.c:77
        }
    }

    clock_reset();                                  // 复位时钟
     f48:	52a060ef          	jal	ra,7472 <clock_reset>
D:/Backup/桌面/Seekfree_CH32V307VCT6_Opensource_Library/libraries/zf_driver/zf_driver_flash.c:78
    clock_set_freq(system_clock);       // 设置回原来的系统频率
     f4c:	83c1a783          	lw	a5,-1988(gp) # 200003cc <system_clock>
     f50:	853e                	mv	a0,a5
     f52:	596060ef          	jal	ra,74e8 <clock_set_freq>
D:/Backup/桌面/Seekfree_CH32V307VCT6_Opensource_Library/libraries/zf_driver/zf_driver_flash.c:79
    interrupt_global_enable(primask);
     f56:	fe442503          	lw	a0,-28(s0)
     f5a:	75d070ef          	jal	ra,8eb6 <interrupt_global_enable>
D:/Backup/桌面/Seekfree_CH32V307VCT6_Opensource_Library/libraries/zf_driver/zf_driver_flash.c:81

    return return_state;
     f5e:	fef44783          	lbu	a5,-17(s0)
D:/Backup/桌面/Seekfree_CH32V307VCT6_Opensource_Library/libraries/zf_driver/zf_driver_flash.c:82
}
     f62:	853e                	mv	a0,a5
     f64:	50b2                	lw	ra,44(sp)
     f66:	5422                	lw	s0,40(sp)
     f68:	6145                	addi	sp,sp,48
     f6a:	8082                	ret

00000f6c <flash_erase_sector>:
flash_erase_sector():
D:/Backup/桌面/Seekfree_CH32V307VCT6_Opensource_Library/libraries/zf_driver/zf_driver_flash.c:94
// 使用示例     flash_erase_page(63, 3);
// 备注信息
//          标准擦除只能是擦一个扇区的数据，4KB字节长度
//-------------------------------------------------------------------------------------------------------------------
uint8 flash_erase_sector (uint32 sector_num, uint32 page_num)
{
     f6c:	7179                	addi	sp,sp,-48
     f6e:	d606                	sw	ra,44(sp)
     f70:	d422                	sw	s0,40(sp)
     f72:	1800                	addi	s0,sp,48
     f74:	fca42e23          	sw	a0,-36(s0)
     f78:	fcb42c23          	sw	a1,-40(s0)
D:/Backup/桌面/Seekfree_CH32V307VCT6_Opensource_Library/libraries/zf_driver/zf_driver_flash.c:95
    zf_assert(sector_num <= FLASH_MAX_SECTION_INDEX);                                                   // 参数范围 0-63
     f7c:	fdc42783          	lw	a5,-36(s0)
     f80:	0407b793          	sltiu	a5,a5,64
     f84:	0ff7f793          	andi	a5,a5,255
     f88:	873e                	mv	a4,a5
     f8a:	05f00613          	li	a2,95
     f8e:	0001f7b7          	lui	a5,0x1f
     f92:	48878593          	addi	a1,a5,1160 # 1f488 <_sbrk+0x86>
     f96:	853a                	mv	a0,a4
     f98:	5e1060ef          	jal	ra,7d78 <debug_assert_handler>
D:/Backup/桌面/Seekfree_CH32V307VCT6_Opensource_Library/libraries/zf_driver/zf_driver_flash.c:96
    zf_assert(page_num <= FLASH_MAX_PAGE_INDEX);                                                        // 参数范围 0-3
     f9c:	fd842783          	lw	a5,-40(s0)
     fa0:	0047b793          	sltiu	a5,a5,4
     fa4:	0ff7f793          	andi	a5,a5,255
     fa8:	873e                	mv	a4,a5
     faa:	06000613          	li	a2,96
     fae:	0001f7b7          	lui	a5,0x1f
     fb2:	48878593          	addi	a1,a5,1160 # 1f488 <_sbrk+0x86>
     fb6:	853a                	mv	a0,a4
     fb8:	5c1060ef          	jal	ra,7d78 <debug_assert_handler>
D:/Backup/桌面/Seekfree_CH32V307VCT6_Opensource_Library/libraries/zf_driver/zf_driver_flash.c:98

    uint8 return_state = 0;
     fbc:	fe0407a3          	sb	zero,-17(s0)
D:/Backup/桌面/Seekfree_CH32V307VCT6_Opensource_Library/libraries/zf_driver/zf_driver_flash.c:101

    static volatile FLASH_Status gFlashStatus = FLASH_COMPLETE;
    uint32 flash_addr = ((FLASH_BASE_ADDR+FLASH_SECTION_SIZE*sector_num+FLASH_PAGE_SIZE*page_num));     // 提取当前 Flash 地址
     fc0:	fdc42703          	lw	a4,-36(s0)
     fc4:	67a1                	lui	a5,0x8
     fc6:	97ba                	add	a5,a5,a4
     fc8:	00279713          	slli	a4,a5,0x2
     fcc:	fd842783          	lw	a5,-40(s0)
     fd0:	97ba                	add	a5,a5,a4
     fd2:	07aa                	slli	a5,a5,0xa
     fd4:	fef42423          	sw	a5,-24(s0)
D:/Backup/桌面/Seekfree_CH32V307VCT6_Opensource_Library/libraries/zf_driver/zf_driver_flash.c:103

    uint32 primask = interrupt_global_disable();
     fd8:	711070ef          	jal	ra,8ee8 <interrupt_global_disable>
     fdc:	fea42223          	sw	a0,-28(s0)
D:/Backup/桌面/Seekfree_CH32V307VCT6_Opensource_Library/libraries/zf_driver/zf_driver_flash.c:104
    clock_reset();                      // 复位时钟
     fe0:	492060ef          	jal	ra,7472 <clock_reset>
D:/Backup/桌面/Seekfree_CH32V307VCT6_Opensource_Library/libraries/zf_driver/zf_driver_flash.c:105
    clock_set_freq(SYSTEM_CLOCK_120M);          // 设置系统频率为120Mhz
     fe4:	072717b7          	lui	a5,0x7271
     fe8:	e0078513          	addi	a0,a5,-512 # 7270e00 <_data_lma+0x724d98c>
     fec:	4fc060ef          	jal	ra,74e8 <clock_set_freq>
D:/Backup/桌面/Seekfree_CH32V307VCT6_Opensource_Library/libraries/zf_driver/zf_driver_flash.c:107

    FLASH_Unlock();                                                                                     // 解锁 Flash
     ff0:	24c0a0ef          	jal	ra,b23c <FLASH_Unlock>
D:/Backup/桌面/Seekfree_CH32V307VCT6_Opensource_Library/libraries/zf_driver/zf_driver_flash.c:108
    FLASH_ClearFlag(FLASH_FLAG_EOP | FLASH_FLAG_PGERR | FLASH_FLAG_WRPRTERR);                           // 清除操作标志
     ff4:	03400513          	li	a0,52
     ff8:	3b00a0ef          	jal	ra,b3a8 <FLASH_ClearFlag>
D:/Backup/桌面/Seekfree_CH32V307VCT6_Opensource_Library/libraries/zf_driver/zf_driver_flash.c:109
    gFlashStatus = FLASH_ErasePage(flash_addr);                                                         // 擦除
     ffc:	fe842503          	lw	a0,-24(s0)
    1000:	2840a0ef          	jal	ra,b284 <FLASH_ErasePage>
    1004:	872a                	mv	a4,a0
    1006:	80e1a423          	sw	a4,-2040(gp) # 20000398 <gFlashStatus.4500>
D:/Backup/桌面/Seekfree_CH32V307VCT6_Opensource_Library/libraries/zf_driver/zf_driver_flash.c:110
    FLASH_ClearFlag(FLASH_FLAG_EOP );                                                                   // 清楚操作标志
    100a:	02000513          	li	a0,32
    100e:	39a0a0ef          	jal	ra,b3a8 <FLASH_ClearFlag>
D:/Backup/桌面/Seekfree_CH32V307VCT6_Opensource_Library/libraries/zf_driver/zf_driver_flash.c:111
    FLASH_Lock();                                                                                       // 锁定 Flash
    1012:	2540a0ef          	jal	ra,b266 <FLASH_Lock>
D:/Backup/桌面/Seekfree_CH32V307VCT6_Opensource_Library/libraries/zf_driver/zf_driver_flash.c:112
    if(gFlashStatus != FLASH_COMPLETE)          // 判断操作是否成功
    1016:	8081a703          	lw	a4,-2040(gp) # 20000398 <gFlashStatus.4500>
    101a:	4791                	li	a5,4
    101c:	00f70563          	beq	a4,a5,1026 <flash_erase_sector+0xba>
D:/Backup/桌面/Seekfree_CH32V307VCT6_Opensource_Library/libraries/zf_driver/zf_driver_flash.c:114
    {
        return_state = 1;
    1020:	4785                	li	a5,1
    1022:	fef407a3          	sb	a5,-17(s0)
D:/Backup/桌面/Seekfree_CH32V307VCT6_Opensource_Library/libraries/zf_driver/zf_driver_flash.c:117
    }

    clock_reset();                      // 复位时钟
    1026:	44c060ef          	jal	ra,7472 <clock_reset>
D:/Backup/桌面/Seekfree_CH32V307VCT6_Opensource_Library/libraries/zf_driver/zf_driver_flash.c:118
    clock_set_freq(system_clock);       // 设置回原来的系统频率
    102a:	83c1a783          	lw	a5,-1988(gp) # 200003cc <system_clock>
    102e:	853e                	mv	a0,a5
    1030:	4b8060ef          	jal	ra,74e8 <clock_set_freq>
D:/Backup/桌面/Seekfree_CH32V307VCT6_Opensource_Library/libraries/zf_driver/zf_driver_flash.c:119
    interrupt_global_enable(primask);
    1034:	fe442503          	lw	a0,-28(s0)
    1038:	67f070ef          	jal	ra,8eb6 <interrupt_global_enable>
D:/Backup/桌面/Seekfree_CH32V307VCT6_Opensource_Library/libraries/zf_driver/zf_driver_flash.c:120
    return return_state;
    103c:	fef44783          	lbu	a5,-17(s0)
D:/Backup/桌面/Seekfree_CH32V307VCT6_Opensource_Library/libraries/zf_driver/zf_driver_flash.c:121
}
    1040:	853e                	mv	a0,a5
    1042:	50b2                	lw	ra,44(sp)
    1044:	5422                	lw	s0,40(sp)
    1046:	6145                	addi	sp,sp,48
    1048:	8082                	ret

0000104a <flash_read_page_to_buffer>:
flash_read_page_to_buffer():
D:/Backup/桌面/Seekfree_CH32V307VCT6_Opensource_Library/libraries/zf_driver/zf_driver_flash.c:215
// 返回参数     void
// 使用示例     flash_read_page_to_buffer(63, 3);
// 备注信息
//-------------------------------------------------------------------------------------------------------------------
void flash_read_page_to_buffer (uint32 sector_num, uint32 page_num)
{
    104a:	7179                	addi	sp,sp,-48
    104c:	d606                	sw	ra,44(sp)
    104e:	d422                	sw	s0,40(sp)
    1050:	1800                	addi	s0,sp,48
    1052:	fca42e23          	sw	a0,-36(s0)
    1056:	fcb42c23          	sw	a1,-40(s0)
D:/Backup/桌面/Seekfree_CH32V307VCT6_Opensource_Library/libraries/zf_driver/zf_driver_flash.c:216
    zf_assert(sector_num <= FLASH_MAX_SECTION_INDEX);                                                   // 参数范围 0-63
    105a:	fdc42783          	lw	a5,-36(s0)
    105e:	0407b793          	sltiu	a5,a5,64
    1062:	0ff7f793          	andi	a5,a5,255
    1066:	873e                	mv	a4,a5
    1068:	0d800613          	li	a2,216
    106c:	0001f7b7          	lui	a5,0x1f
    1070:	48878593          	addi	a1,a5,1160 # 1f488 <_sbrk+0x86>
    1074:	853a                	mv	a0,a4
    1076:	503060ef          	jal	ra,7d78 <debug_assert_handler>
D:/Backup/桌面/Seekfree_CH32V307VCT6_Opensource_Library/libraries/zf_driver/zf_driver_flash.c:217
    zf_assert(page_num <= FLASH_MAX_PAGE_INDEX);                                                        // 参数范围 0-3
    107a:	fd842783          	lw	a5,-40(s0)
    107e:	0047b793          	sltiu	a5,a5,4
    1082:	0ff7f793          	andi	a5,a5,255
    1086:	873e                	mv	a4,a5
    1088:	0d900613          	li	a2,217
    108c:	0001f7b7          	lui	a5,0x1f
    1090:	48878593          	addi	a1,a5,1160 # 1f488 <_sbrk+0x86>
    1094:	853a                	mv	a0,a4
    1096:	4e3060ef          	jal	ra,7d78 <debug_assert_handler>
D:/Backup/桌面/Seekfree_CH32V307VCT6_Opensource_Library/libraries/zf_driver/zf_driver_flash.c:219
    uint16 temp_loop;
    uint32 flash_addr = ((FLASH_BASE_ADDR + FLASH_SECTION_SIZE*sector_num + FLASH_PAGE_SIZE*page_num)); // 提取当前 Flash 地址
    109a:	fdc42703          	lw	a4,-36(s0)
    109e:	67a1                	lui	a5,0x8
    10a0:	97ba                	add	a5,a5,a4
    10a2:	00279713          	slli	a4,a5,0x2
    10a6:	fd842783          	lw	a5,-40(s0)
    10aa:	97ba                	add	a5,a5,a4
    10ac:	07aa                	slli	a5,a5,0xa
    10ae:	fef42423          	sw	a5,-24(s0)
D:/Backup/桌面/Seekfree_CH32V307VCT6_Opensource_Library/libraries/zf_driver/zf_driver_flash.c:223



    for(temp_loop = 0; temp_loop < FLASH_DATA_BUFFER_SIZE; temp_loop++)                                 // 根据指定长度读取
    10b2:	fe041723          	sh	zero,-18(s0)
    10b6:	a03d                	j	10e4 <flash_read_page_to_buffer+0x9a>
D:/Backup/桌面/Seekfree_CH32V307VCT6_Opensource_Library/libraries/zf_driver/zf_driver_flash.c:225 (discriminator 3)
    {
        flash_union_buffer[temp_loop].uint32_type = *(__IO uint32*)(flash_addr+temp_loop*4);            // 循环读取 Flash 的值
    10b8:	fee45783          	lhu	a5,-18(s0)
    10bc:	078a                	slli	a5,a5,0x2
    10be:	873e                	mv	a4,a5
    10c0:	fe842783          	lw	a5,-24(s0)
    10c4:	97ba                	add	a5,a5,a4
    10c6:	fee45683          	lhu	a3,-18(s0)
    10ca:	4398                	lw	a4,0(a5)
    10cc:	200007b7          	lui	a5,0x20000
    10d0:	068a                	slli	a3,a3,0x2
    10d2:	65478793          	addi	a5,a5,1620 # 20000654 <flash_union_buffer>
    10d6:	97b6                	add	a5,a5,a3
    10d8:	c398                	sw	a4,0(a5)
D:/Backup/桌面/Seekfree_CH32V307VCT6_Opensource_Library/libraries/zf_driver/zf_driver_flash.c:223 (discriminator 3)
    for(temp_loop = 0; temp_loop < FLASH_DATA_BUFFER_SIZE; temp_loop++)                                 // 根据指定长度读取
    10da:	fee45783          	lhu	a5,-18(s0)
    10de:	0785                	addi	a5,a5,1
    10e0:	fef41723          	sh	a5,-18(s0)
D:/Backup/桌面/Seekfree_CH32V307VCT6_Opensource_Library/libraries/zf_driver/zf_driver_flash.c:223 (discriminator 1)
    10e4:	fee45703          	lhu	a4,-18(s0)
    10e8:	0ff00793          	li	a5,255
    10ec:	fce7f6e3          	bgeu	a5,a4,10b8 <flash_read_page_to_buffer+0x6e>
D:/Backup/桌面/Seekfree_CH32V307VCT6_Opensource_Library/libraries/zf_driver/zf_driver_flash.c:229
    }


}
    10f0:	0001                	nop
    10f2:	50b2                	lw	ra,44(sp)
    10f4:	5422                	lw	s0,40(sp)
    10f6:	6145                	addi	sp,sp,48
    10f8:	8082                	ret

000010fa <flash_write_page_from_buffer>:
flash_write_page_from_buffer():
D:/Backup/桌面/Seekfree_CH32V307VCT6_Opensource_Library/libraries/zf_driver/zf_driver_flash.c:240
// 返回参数     uint8           1-表示失败 0-表示成功
// 使用示例     flash_write_page_from_buffer(63, 3);
// 备注信息
//-------------------------------------------------------------------------------------------------------------------
uint8 flash_write_page_from_buffer (uint32 sector_num, uint32 page_num)
{
    10fa:	7179                	addi	sp,sp,-48
    10fc:	d606                	sw	ra,44(sp)
    10fe:	d422                	sw	s0,40(sp)
    1100:	1800                	addi	s0,sp,48
    1102:	fca42e23          	sw	a0,-36(s0)
    1106:	fcb42c23          	sw	a1,-40(s0)
D:/Backup/桌面/Seekfree_CH32V307VCT6_Opensource_Library/libraries/zf_driver/zf_driver_flash.c:241
    zf_assert(sector_num <= FLASH_MAX_SECTION_INDEX);                                                   // 参数范围 0-63
    110a:	fdc42783          	lw	a5,-36(s0)
    110e:	0407b793          	sltiu	a5,a5,64
    1112:	0ff7f793          	andi	a5,a5,255
    1116:	873e                	mv	a4,a5
    1118:	0f100613          	li	a2,241
    111c:	0001f7b7          	lui	a5,0x1f
    1120:	48878593          	addi	a1,a5,1160 # 1f488 <_sbrk+0x86>
    1124:	853a                	mv	a0,a4
    1126:	453060ef          	jal	ra,7d78 <debug_assert_handler>
D:/Backup/桌面/Seekfree_CH32V307VCT6_Opensource_Library/libraries/zf_driver/zf_driver_flash.c:242
    zf_assert(page_num <= FLASH_MAX_PAGE_INDEX);                                                        // 参数范围 0-3
    112a:	fd842783          	lw	a5,-40(s0)
    112e:	0047b793          	sltiu	a5,a5,4
    1132:	0ff7f793          	andi	a5,a5,255
    1136:	873e                	mv	a4,a5
    1138:	0f200613          	li	a2,242
    113c:	0001f7b7          	lui	a5,0x1f
    1140:	48878593          	addi	a1,a5,1160 # 1f488 <_sbrk+0x86>
    1144:	853a                	mv	a0,a4
    1146:	433060ef          	jal	ra,7d78 <debug_assert_handler>
D:/Backup/桌面/Seekfree_CH32V307VCT6_Opensource_Library/libraries/zf_driver/zf_driver_flash.c:243
    uint8 return_state = 0;
    114a:	fe0407a3          	sb	zero,-17(s0)
D:/Backup/桌面/Seekfree_CH32V307VCT6_Opensource_Library/libraries/zf_driver/zf_driver_flash.c:246

    static volatile FLASH_Status gFlashStatus = FLASH_COMPLETE;
    uint32 flash_addr = 0;
    114e:	fe042423          	sw	zero,-24(s0)
D:/Backup/桌面/Seekfree_CH32V307VCT6_Opensource_Library/libraries/zf_driver/zf_driver_flash.c:247
    uint16 len = 0;
    1152:	fe041323          	sh	zero,-26(s0)
D:/Backup/桌面/Seekfree_CH32V307VCT6_Opensource_Library/libraries/zf_driver/zf_driver_flash.c:248
    flash_addr = ((FLASH_BASE_ADDR+FLASH_SECTION_SIZE*sector_num+FLASH_PAGE_SIZE*page_num));            // 提取当前 Flash 地址
    1156:	fdc42703          	lw	a4,-36(s0)
    115a:	67a1                	lui	a5,0x8
    115c:	97ba                	add	a5,a5,a4
    115e:	00279713          	slli	a4,a5,0x2
    1162:	fd842783          	lw	a5,-40(s0)
    1166:	97ba                	add	a5,a5,a4
    1168:	07aa                	slli	a5,a5,0xa
    116a:	fef42423          	sw	a5,-24(s0)
D:/Backup/桌面/Seekfree_CH32V307VCT6_Opensource_Library/libraries/zf_driver/zf_driver_flash.c:250

    if(flash_check(sector_num, page_num))                                                               // 判断是否有数据 这里是冗余的保护 防止有人没擦除就写入
    116e:	fd842583          	lw	a1,-40(s0)
    1172:	fdc42503          	lw	a0,-36(s0)
    1176:	3b09                	jal	e88 <flash_check>
    1178:	87aa                	mv	a5,a0
    117a:	c791                	beqz	a5,1186 <flash_write_page_from_buffer+0x8c>
D:/Backup/桌面/Seekfree_CH32V307VCT6_Opensource_Library/libraries/zf_driver/zf_driver_flash.c:251
        flash_erase_sector(sector_num, page_num);                                                       // 擦除这一页
    117c:	fd842583          	lw	a1,-40(s0)
    1180:	fdc42503          	lw	a0,-36(s0)
    1184:	33e5                	jal	f6c <flash_erase_sector>
D:/Backup/桌面/Seekfree_CH32V307VCT6_Opensource_Library/libraries/zf_driver/zf_driver_flash.c:253

    uint32 primask = interrupt_global_disable();
    1186:	563070ef          	jal	ra,8ee8 <interrupt_global_disable>
    118a:	fea42023          	sw	a0,-32(s0)
D:/Backup/桌面/Seekfree_CH32V307VCT6_Opensource_Library/libraries/zf_driver/zf_driver_flash.c:254
    clock_reset();                      // 复位时钟
    118e:	2e4060ef          	jal	ra,7472 <clock_reset>
D:/Backup/桌面/Seekfree_CH32V307VCT6_Opensource_Library/libraries/zf_driver/zf_driver_flash.c:255
    clock_set_freq(SYSTEM_CLOCK_120M);          // 设置系统频率为120Mhz
    1192:	072717b7          	lui	a5,0x7271
    1196:	e0078513          	addi	a0,a5,-512 # 7270e00 <_data_lma+0x724d98c>
    119a:	34e060ef          	jal	ra,74e8 <clock_set_freq>
D:/Backup/桌面/Seekfree_CH32V307VCT6_Opensource_Library/libraries/zf_driver/zf_driver_flash.c:257

    FLASH_Unlock();                                                                                     // 解锁 Flash
    119e:	09e0a0ef          	jal	ra,b23c <FLASH_Unlock>
D:/Backup/桌面/Seekfree_CH32V307VCT6_Opensource_Library/libraries/zf_driver/zf_driver_flash.c:258
    while(len < FLASH_DATA_BUFFER_SIZE)                                                                 // 根据长度
    11a2:	a0a9                	j	11ec <flash_write_page_from_buffer+0xf2>
D:/Backup/桌面/Seekfree_CH32V307VCT6_Opensource_Library/libraries/zf_driver/zf_driver_flash.c:260
    {
        gFlashStatus = FLASH_ProgramWord(flash_addr, flash_union_buffer[len].uint32_type);              // 按字 32bit 写入数据
    11a4:	fe645703          	lhu	a4,-26(s0)
    11a8:	200007b7          	lui	a5,0x20000
    11ac:	070a                	slli	a4,a4,0x2
    11ae:	65478793          	addi	a5,a5,1620 # 20000654 <flash_union_buffer>
    11b2:	97ba                	add	a5,a5,a4
    11b4:	439c                	lw	a5,0(a5)
    11b6:	85be                	mv	a1,a5
    11b8:	fe842503          	lw	a0,-24(s0)
    11bc:	13e0a0ef          	jal	ra,b2fa <FLASH_ProgramWord>
    11c0:	872a                	mv	a4,a0
    11c2:	80e1a623          	sw	a4,-2036(gp) # 2000039c <gFlashStatus.4542>
D:/Backup/桌面/Seekfree_CH32V307VCT6_Opensource_Library/libraries/zf_driver/zf_driver_flash.c:261
        if(gFlashStatus != FLASH_COMPLETE)                                                              // 反复确认操作是否成功
    11c6:	80c1a703          	lw	a4,-2036(gp) # 2000039c <gFlashStatus.4542>
    11ca:	4791                	li	a5,4
    11cc:	00f70663          	beq	a4,a5,11d8 <flash_write_page_from_buffer+0xde>
D:/Backup/桌面/Seekfree_CH32V307VCT6_Opensource_Library/libraries/zf_driver/zf_driver_flash.c:263
        {
            return_state = 1;
    11d0:	4785                	li	a5,1
    11d2:	fef407a3          	sb	a5,-17(s0)
D:/Backup/桌面/Seekfree_CH32V307VCT6_Opensource_Library/libraries/zf_driver/zf_driver_flash.c:264
            break;
    11d6:	a00d                	j	11f8 <flash_write_page_from_buffer+0xfe>
D:/Backup/桌面/Seekfree_CH32V307VCT6_Opensource_Library/libraries/zf_driver/zf_driver_flash.c:267
        }

        len++;                                                                                          // 长度自增
    11d8:	fe645783          	lhu	a5,-26(s0)
    11dc:	0785                	addi	a5,a5,1
    11de:	fef41323          	sh	a5,-26(s0)
D:/Backup/桌面/Seekfree_CH32V307VCT6_Opensource_Library/libraries/zf_driver/zf_driver_flash.c:268
        flash_addr += 4;                                                                                // 地址自增
    11e2:	fe842783          	lw	a5,-24(s0)
    11e6:	0791                	addi	a5,a5,4
    11e8:	fef42423          	sw	a5,-24(s0)
D:/Backup/桌面/Seekfree_CH32V307VCT6_Opensource_Library/libraries/zf_driver/zf_driver_flash.c:258
    while(len < FLASH_DATA_BUFFER_SIZE)                                                                 // 根据长度
    11ec:	fe645703          	lhu	a4,-26(s0)
    11f0:	0ff00793          	li	a5,255
    11f4:	fae7f8e3          	bgeu	a5,a4,11a4 <flash_write_page_from_buffer+0xaa>
D:/Backup/桌面/Seekfree_CH32V307VCT6_Opensource_Library/libraries/zf_driver/zf_driver_flash.c:270
    }
    FLASH_Lock();                                                                                       // 锁定 Flash
    11f8:	06e0a0ef          	jal	ra,b266 <FLASH_Lock>
D:/Backup/桌面/Seekfree_CH32V307VCT6_Opensource_Library/libraries/zf_driver/zf_driver_flash.c:272

    clock_reset();                      // 复位时钟
    11fc:	276060ef          	jal	ra,7472 <clock_reset>
D:/Backup/桌面/Seekfree_CH32V307VCT6_Opensource_Library/libraries/zf_driver/zf_driver_flash.c:273
    clock_set_freq(system_clock);       // 设置回原来的系统频率
    1200:	83c1a783          	lw	a5,-1988(gp) # 200003cc <system_clock>
    1204:	853e                	mv	a0,a5
    1206:	2e2060ef          	jal	ra,74e8 <clock_set_freq>
D:/Backup/桌面/Seekfree_CH32V307VCT6_Opensource_Library/libraries/zf_driver/zf_driver_flash.c:274
    interrupt_global_enable(primask);
    120a:	fe042503          	lw	a0,-32(s0)
    120e:	4a9070ef          	jal	ra,8eb6 <interrupt_global_enable>
D:/Backup/桌面/Seekfree_CH32V307VCT6_Opensource_Library/libraries/zf_driver/zf_driver_flash.c:276

    return return_state;
    1212:	fef44783          	lbu	a5,-17(s0)
D:/Backup/桌面/Seekfree_CH32V307VCT6_Opensource_Library/libraries/zf_driver/zf_driver_flash.c:277
}
    1216:	853e                	mv	a0,a5
    1218:	50b2                	lw	ra,44(sp)
    121a:	5422                	lw	s0,40(sp)
    121c:	6145                	addi	sp,sp,48
    121e:	8082                	ret

00001220 <gpio_set_level>:
gpio_set_level():
D:/Backup/桌面/Seekfree_CH32V307VCT6_Opensource_Library/libraries/zf_driver/zf_driver_gpio.c:50
// 参数说明     dat         引脚的电平状态，输出时有效 0：低电平 1：高电平
// 返回参数     void
// 使用示例     gpio_set_level(D0, 0);//D0输出低电平
//-------------------------------------------------------------------------------------------------------------------
void gpio_set_level(gpio_pin_enum pin, uint8 dat)
{
    1220:	1101                	addi	sp,sp,-32
    1222:	ce22                	sw	s0,28(sp)
    1224:	1000                	addi	s0,sp,32
    1226:	fea42623          	sw	a0,-20(s0)
    122a:	87ae                	mv	a5,a1
    122c:	fef405a3          	sb	a5,-21(s0)
D:/Backup/桌面/Seekfree_CH32V307VCT6_Opensource_Library/libraries/zf_driver/zf_driver_gpio.c:51
    if(dat)
    1230:	feb44783          	lbu	a5,-21(s0)
    1234:	cb85                	beqz	a5,1264 <gpio_set_level+0x44>
D:/Backup/桌面/Seekfree_CH32V307VCT6_Opensource_Library/libraries/zf_driver/zf_driver_gpio.c:53
    {
        gpio_high(pin);                                                         // 输出高电平
    1236:	fec42783          	lw	a5,-20(s0)
    123a:	8bbd                	andi	a5,a5,15
    123c:	4705                	li	a4,1
    123e:	00f717b3          	sll	a5,a4,a5
    1242:	01079693          	slli	a3,a5,0x10
    1246:	82c1                	srli	a3,a3,0x10
    1248:	fec42783          	lw	a5,-20(s0)
    124c:	0057d713          	srli	a4,a5,0x5
    1250:	200007b7          	lui	a5,0x20000
    1254:	070a                	slli	a4,a4,0x2
    1256:	00c78793          	addi	a5,a5,12 # 2000000c <gpio_group>
    125a:	97ba                	add	a5,a5,a4
    125c:	439c                	lw	a5,0(a5)
    125e:	8736                	mv	a4,a3
    1260:	cb98                	sw	a4,16(a5)
D:/Backup/桌面/Seekfree_CH32V307VCT6_Opensource_Library/libraries/zf_driver/zf_driver_gpio.c:59
    }
    else
    {
        gpio_low(pin);                                                          // 输出低电平
    }
}
    1262:	a03d                	j	1290 <gpio_set_level+0x70>
D:/Backup/桌面/Seekfree_CH32V307VCT6_Opensource_Library/libraries/zf_driver/zf_driver_gpio.c:57
        gpio_low(pin);                                                          // 输出低电平
    1264:	fec42783          	lw	a5,-20(s0)
    1268:	8bbd                	andi	a5,a5,15
    126a:	4705                	li	a4,1
    126c:	00f717b3          	sll	a5,a4,a5
    1270:	01079693          	slli	a3,a5,0x10
    1274:	82c1                	srli	a3,a3,0x10
    1276:	fec42783          	lw	a5,-20(s0)
    127a:	0057d713          	srli	a4,a5,0x5
    127e:	200007b7          	lui	a5,0x20000
    1282:	070a                	slli	a4,a4,0x2
    1284:	00c78793          	addi	a5,a5,12 # 2000000c <gpio_group>
    1288:	97ba                	add	a5,a5,a4
    128a:	439c                	lw	a5,0(a5)
    128c:	8736                	mv	a4,a3
    128e:	cbd8                	sw	a4,20(a5)
D:/Backup/桌面/Seekfree_CH32V307VCT6_Opensource_Library/libraries/zf_driver/zf_driver_gpio.c:59
}
    1290:	0001                	nop
    1292:	4472                	lw	s0,28(sp)
    1294:	6105                	addi	sp,sp,32
    1296:	8082                	ret

00001298 <gpio_get_level>:
gpio_get_level():
D:/Backup/桌面/Seekfree_CH32V307VCT6_Opensource_Library/libraries/zf_driver/zf_driver_gpio.c:68
// 参数说明     pin         选择的引脚 (可选择范围由 common.h 内GPIO_PIN_enum枚举值确定)
// 返回参数     uint8       0：低电平 1：高电平
// 使用示例     uint8 status = gpio_get_level(D0);//获取D0引脚电平
//-------------------------------------------------------------------------------------------------------------------
uint8 gpio_get_level(gpio_pin_enum pin)
{
    1298:	1101                	addi	sp,sp,-32
    129a:	ce22                	sw	s0,28(sp)
    129c:	1000                	addi	s0,sp,32
    129e:	fea42623          	sw	a0,-20(s0)
D:/Backup/桌面/Seekfree_CH32V307VCT6_Opensource_Library/libraries/zf_driver/zf_driver_gpio.c:69
    return ((gpio_group[(pin & 0xE0) >> 5]->INDR & (((uint16)0x0001) << (pin & 0x1F))) ? 1 : 0);
    12a2:	fec42783          	lw	a5,-20(s0)
    12a6:	8395                	srli	a5,a5,0x5
    12a8:	0077f713          	andi	a4,a5,7
    12ac:	200007b7          	lui	a5,0x20000
    12b0:	070a                	slli	a4,a4,0x2
    12b2:	00c78793          	addi	a5,a5,12 # 2000000c <gpio_group>
    12b6:	97ba                	add	a5,a5,a4
    12b8:	439c                	lw	a5,0(a5)
    12ba:	479c                	lw	a5,8(a5)
    12bc:	fec42703          	lw	a4,-20(s0)
    12c0:	8b7d                	andi	a4,a4,31
    12c2:	4685                	li	a3,1
    12c4:	00e69733          	sll	a4,a3,a4
    12c8:	8ff9                	and	a5,a5,a4
    12ca:	00f037b3          	snez	a5,a5
    12ce:	0ff7f793          	andi	a5,a5,255
D:/Backup/桌面/Seekfree_CH32V307VCT6_Opensource_Library/libraries/zf_driver/zf_driver_gpio.c:70
}
    12d2:	853e                	mv	a0,a5
    12d4:	4472                	lw	s0,28(sp)
    12d6:	6105                	addi	sp,sp,32
    12d8:	8082                	ret

000012da <gpio_init>:
gpio_init():
D:/Backup/桌面/Seekfree_CH32V307VCT6_Opensource_Library/libraries/zf_driver/zf_driver_gpio.c:126
// 参数说明     pinconf     引脚配置（可设置参数由zf_gpio.h文件内GPIOSPEED_enum与GPIOMODE_enum枚举值确定，多个条件使用 | 相或）
// 返回参数     void
// 使用示例     gpio_init(D0, GPO, 1, GPIO_PIN_CONFIG);//D0初始化为GPIO功能、输出模式、输出高电平、速度100MHZ 推挽输出
//-------------------------------------------------------------------------------------------------------------------
void gpio_init (gpio_pin_enum pin, gpio_dir_enum dir, const uint8 dat, gpio_mode_enum mode)
{
    12da:	7179                	addi	sp,sp,-48
    12dc:	d606                	sw	ra,44(sp)
    12de:	d422                	sw	s0,40(sp)
    12e0:	1800                	addi	s0,sp,48
    12e2:	fca42e23          	sw	a0,-36(s0)
    12e6:	fcb42c23          	sw	a1,-40(s0)
    12ea:	87b2                	mv	a5,a2
    12ec:	fcd42823          	sw	a3,-48(s0)
    12f0:	fcf40ba3          	sb	a5,-41(s0)
D:/Backup/桌面/Seekfree_CH32V307VCT6_Opensource_Library/libraries/zf_driver/zf_driver_gpio.c:127
    GPIO_InitTypeDef GPIO_InitStructure = {0};
    12f4:	fe042023          	sw	zero,-32(s0)
    12f8:	fe042223          	sw	zero,-28(s0)
    12fc:	fe042423          	sw	zero,-24(s0)
D:/Backup/桌面/Seekfree_CH32V307VCT6_Opensource_Library/libraries/zf_driver/zf_driver_gpio.c:128
    uint8 io_group = (pin & 0xE0) >> 5;
    1300:	fdc42783          	lw	a5,-36(s0)
    1304:	8395                	srli	a5,a5,0x5
    1306:	0ff7f793          	andi	a5,a5,255
    130a:	8b9d                	andi	a5,a5,7
    130c:	fef407a3          	sb	a5,-17(s0)
D:/Backup/桌面/Seekfree_CH32V307VCT6_Opensource_Library/libraries/zf_driver/zf_driver_gpio.c:129
    uint8 io_pin = pin & 0x1F;
    1310:	fdc42783          	lw	a5,-36(s0)
    1314:	0ff7f793          	andi	a5,a5,255
    1318:	8bfd                	andi	a5,a5,31
    131a:	fef40723          	sb	a5,-18(s0)
D:/Backup/桌面/Seekfree_CH32V307VCT6_Opensource_Library/libraries/zf_driver/zf_driver_gpio.c:132

    // GPIO总线使能
    if(0 == io_group)      RCC_APB2PeriphClockCmd(RCC_APB2Periph_GPIOA, ENABLE);
    131e:	fef44783          	lbu	a5,-17(s0)
    1322:	e791                	bnez	a5,132e <gpio_init+0x54>
D:/Backup/桌面/Seekfree_CH32V307VCT6_Opensource_Library/libraries/zf_driver/zf_driver_gpio.c:132 (discriminator 1)
    1324:	4585                	li	a1,1
    1326:	4511                	li	a0,4
    1328:	16d0a0ef          	jal	ra,bc94 <RCC_APB2PeriphClockCmd>
    132c:	a891                	j	1380 <gpio_init+0xa6>
D:/Backup/桌面/Seekfree_CH32V307VCT6_Opensource_Library/libraries/zf_driver/zf_driver_gpio.c:133
    else if(1 == io_group) RCC_APB2PeriphClockCmd(RCC_APB2Periph_GPIOB, ENABLE);
    132e:	fef44703          	lbu	a4,-17(s0)
    1332:	4785                	li	a5,1
    1334:	00f71763          	bne	a4,a5,1342 <gpio_init+0x68>
D:/Backup/桌面/Seekfree_CH32V307VCT6_Opensource_Library/libraries/zf_driver/zf_driver_gpio.c:133 (discriminator 1)
    1338:	4585                	li	a1,1
    133a:	4521                	li	a0,8
    133c:	1590a0ef          	jal	ra,bc94 <RCC_APB2PeriphClockCmd>
    1340:	a081                	j	1380 <gpio_init+0xa6>
D:/Backup/桌面/Seekfree_CH32V307VCT6_Opensource_Library/libraries/zf_driver/zf_driver_gpio.c:134
    else if(2 == io_group) RCC_APB2PeriphClockCmd(RCC_APB2Periph_GPIOC, ENABLE);
    1342:	fef44703          	lbu	a4,-17(s0)
    1346:	4789                	li	a5,2
    1348:	00f71763          	bne	a4,a5,1356 <gpio_init+0x7c>
D:/Backup/桌面/Seekfree_CH32V307VCT6_Opensource_Library/libraries/zf_driver/zf_driver_gpio.c:134 (discriminator 1)
    134c:	4585                	li	a1,1
    134e:	4541                	li	a0,16
    1350:	1450a0ef          	jal	ra,bc94 <RCC_APB2PeriphClockCmd>
    1354:	a035                	j	1380 <gpio_init+0xa6>
D:/Backup/桌面/Seekfree_CH32V307VCT6_Opensource_Library/libraries/zf_driver/zf_driver_gpio.c:135
    else if(3 == io_group) RCC_APB2PeriphClockCmd(RCC_APB2Periph_GPIOD, ENABLE);
    1356:	fef44703          	lbu	a4,-17(s0)
    135a:	478d                	li	a5,3
    135c:	00f71863          	bne	a4,a5,136c <gpio_init+0x92>
D:/Backup/桌面/Seekfree_CH32V307VCT6_Opensource_Library/libraries/zf_driver/zf_driver_gpio.c:135 (discriminator 1)
    1360:	4585                	li	a1,1
    1362:	02000513          	li	a0,32
    1366:	12f0a0ef          	jal	ra,bc94 <RCC_APB2PeriphClockCmd>
    136a:	a819                	j	1380 <gpio_init+0xa6>
D:/Backup/桌面/Seekfree_CH32V307VCT6_Opensource_Library/libraries/zf_driver/zf_driver_gpio.c:136
    else if(4 == io_group) RCC_APB2PeriphClockCmd(RCC_APB2Periph_GPIOE, ENABLE);
    136c:	fef44703          	lbu	a4,-17(s0)
    1370:	4791                	li	a5,4
    1372:	00f71763          	bne	a4,a5,1380 <gpio_init+0xa6>
D:/Backup/桌面/Seekfree_CH32V307VCT6_Opensource_Library/libraries/zf_driver/zf_driver_gpio.c:136 (discriminator 1)
    1376:	4585                	li	a1,1
    1378:	04000513          	li	a0,64
    137c:	1190a0ef          	jal	ra,bc94 <RCC_APB2PeriphClockCmd>
D:/Backup/桌面/Seekfree_CH32V307VCT6_Opensource_Library/libraries/zf_driver/zf_driver_gpio.c:139

    // 设置引脚号
    GPIO_InitStructure.GPIO_Pin = (uint16)(1 << io_pin);
    1380:	fee44783          	lbu	a5,-18(s0)
    1384:	4705                	li	a4,1
    1386:	00f717b3          	sll	a5,a4,a5
    138a:	07c2                	slli	a5,a5,0x10
    138c:	83c1                	srli	a5,a5,0x10
    138e:	fef41023          	sh	a5,-32(s0)
D:/Backup/桌面/Seekfree_CH32V307VCT6_Opensource_Library/libraries/zf_driver/zf_driver_gpio.c:142

    // 只有输出需要设置速度
    if(GPO == dir)
    1392:	fd842703          	lw	a4,-40(s0)
    1396:	4785                	li	a5,1
    1398:	02f71763          	bne	a4,a5,13c6 <gpio_init+0xec>
D:/Backup/桌面/Seekfree_CH32V307VCT6_Opensource_Library/libraries/zf_driver/zf_driver_gpio.c:144
    {
        if((uint16)mode >> 8 == 0) GPIO_InitStructure.GPIO_Speed = (GPIOSpeed_TypeDef)(GPIO_Speed_50MHz);    // 防止没有填写这个参数,默认设置50Mhz
    139c:	fd042783          	lw	a5,-48(s0)
    13a0:	07c2                	slli	a5,a5,0x10
    13a2:	83c1                	srli	a5,a5,0x10
    13a4:	83a1                	srli	a5,a5,0x8
    13a6:	07c2                	slli	a5,a5,0x10
    13a8:	83c1                	srli	a5,a5,0x10
    13aa:	e789                	bnez	a5,13b4 <gpio_init+0xda>
D:/Backup/桌面/Seekfree_CH32V307VCT6_Opensource_Library/libraries/zf_driver/zf_driver_gpio.c:144 (discriminator 1)
    13ac:	478d                	li	a5,3
    13ae:	fef42223          	sw	a5,-28(s0)
    13b2:	a811                	j	13c6 <gpio_init+0xec>
D:/Backup/桌面/Seekfree_CH32V307VCT6_Opensource_Library/libraries/zf_driver/zf_driver_gpio.c:145
        else GPIO_InitStructure.GPIO_Speed = (gpio_speed_enum)((uint16)mode >> 8);                           // 已经填写了该参数。根据值来设置
    13b4:	fd042783          	lw	a5,-48(s0)
    13b8:	07c2                	slli	a5,a5,0x10
    13ba:	83c1                	srli	a5,a5,0x10
    13bc:	83a1                	srli	a5,a5,0x8
    13be:	07c2                	slli	a5,a5,0x10
    13c0:	83c1                	srli	a5,a5,0x10
    13c2:	fef42223          	sw	a5,-28(s0)
D:/Backup/桌面/Seekfree_CH32V307VCT6_Opensource_Library/libraries/zf_driver/zf_driver_gpio.c:149
    }

    // 设置模式
    GPIO_InitStructure.GPIO_Mode = (GPIOMode_TypeDef)((uint16)mode & 0xFF);
    13c6:	fd042783          	lw	a5,-48(s0)
    13ca:	07c2                	slli	a5,a5,0x10
    13cc:	83c1                	srli	a5,a5,0x10
    13ce:	0ff7f793          	andi	a5,a5,255
    13d2:	fef42423          	sw	a5,-24(s0)
D:/Backup/桌面/Seekfree_CH32V307VCT6_Opensource_Library/libraries/zf_driver/zf_driver_gpio.c:150
    GPIO_Init(gpio_group[io_group], &GPIO_InitStructure);
    13d6:	fef44703          	lbu	a4,-17(s0)
    13da:	200007b7          	lui	a5,0x20000
    13de:	070a                	slli	a4,a4,0x2
    13e0:	00c78793          	addi	a5,a5,12 # 2000000c <gpio_group>
    13e4:	97ba                	add	a5,a5,a4
    13e6:	439c                	lw	a5,0(a5)
    13e8:	fe040713          	addi	a4,s0,-32
    13ec:	85ba                	mv	a1,a4
    13ee:	853e                	mv	a0,a5
    13f0:	0860a0ef          	jal	ra,b476 <GPIO_Init>
D:/Backup/桌面/Seekfree_CH32V307VCT6_Opensource_Library/libraries/zf_driver/zf_driver_gpio.c:153

    // 只有输出需要设置引脚状态
    if(GPO == dir)
    13f4:	fd842703          	lw	a4,-40(s0)
    13f8:	4785                	li	a5,1
    13fa:	02f71963          	bne	a4,a5,142c <gpio_init+0x152>
D:/Backup/桌面/Seekfree_CH32V307VCT6_Opensource_Library/libraries/zf_driver/zf_driver_gpio.c:155
    {
        GPIO_WriteBit(gpio_group[io_group], (uint16)(1 << io_pin), dat);
    13fe:	fef44703          	lbu	a4,-17(s0)
    1402:	200007b7          	lui	a5,0x20000
    1406:	070a                	slli	a4,a4,0x2
    1408:	00c78793          	addi	a5,a5,12 # 2000000c <gpio_group>
    140c:	97ba                	add	a5,a5,a4
    140e:	4394                	lw	a3,0(a5)
    1410:	fee44783          	lbu	a5,-18(s0)
    1414:	4705                	li	a4,1
    1416:	00f717b3          	sll	a5,a4,a5
    141a:	07c2                	slli	a5,a5,0x10
    141c:	83c1                	srli	a5,a5,0x10
    141e:	fd744703          	lbu	a4,-41(s0)
    1422:	863a                	mv	a2,a4
    1424:	85be                	mv	a1,a5
    1426:	8536                	mv	a0,a3
    1428:	2780a0ef          	jal	ra,b6a0 <GPIO_WriteBit>
D:/Backup/桌面/Seekfree_CH32V307VCT6_Opensource_Library/libraries/zf_driver/zf_driver_gpio.c:157
    }
}
    142c:	0001                	nop
    142e:	50b2                	lw	ra,44(sp)
    1430:	5422                	lw	s0,40(sp)
    1432:	6145                	addi	sp,sp,48
    1434:	8082                	ret

00001436 <pit_init>:
pit_init():
D:/Backup/桌面/Seekfree_CH32V307VCT6_Opensource_Library/libraries/zf_driver/zf_driver_pit.c:103
// 参数说明     us          定时周期(1-65535)
// 返回参数     void
// 备注信息           pit_init(TIMER_1, 5); 使用定时器1作为5ms一次的周期中断
//-------------------------------------------------------------------------------------------------------------------
void pit_init (pit_index_enum pit_n, uint32 period)
{
    1436:	711d                	addi	sp,sp,-96
    1438:	ce86                	sw	ra,92(sp)
    143a:	cca2                	sw	s0,88(sp)
    143c:	1080                	addi	s0,sp,96
    143e:	faa42623          	sw	a0,-84(s0)
    1442:	fab42423          	sw	a1,-88(s0)
D:/Backup/桌面/Seekfree_CH32V307VCT6_Opensource_Library/libraries/zf_driver/zf_driver_pit.c:109

    // 如果程序在输出了断言信息 并且提示出错位置在这里
    // 就去查看你在什么地方调用这个函数 检查你的传入参数
    // 这里是检查是否有重复使用定时器
    // 比如初始化了 TIM1_PWM 然后又初始化成 TIM1_PIT 这种用法是不允许的
    zf_assert(timer_funciton_check((timer_index_enum)pit_n, TIMER_FUNCTION_TIMER));
    1446:	4585                	li	a1,1
    1448:	fac42503          	lw	a0,-84(s0)
    144c:	3af010ef          	jal	ra,2ffa <timer_funciton_check>
    1450:	87aa                	mv	a5,a0
    1452:	873e                	mv	a4,a5
    1454:	06d00613          	li	a2,109
    1458:	0001f7b7          	lui	a5,0x1f
    145c:	51078593          	addi	a1,a5,1296 # 1f510 <_sbrk+0x10e>
    1460:	853a                	mv	a0,a4
    1462:	117060ef          	jal	ra,7d78 <debug_assert_handler>
D:/Backup/桌面/Seekfree_CH32V307VCT6_Opensource_Library/libraries/zf_driver/zf_driver_pit.c:111
    // 如果是这一行报错 那我就得问问你为什么周期写的是 0
    zf_assert(period!=0);
    1466:	fa842783          	lw	a5,-88(s0)
    146a:	00f037b3          	snez	a5,a5
    146e:	0ff7f793          	andi	a5,a5,255
    1472:	873e                	mv	a4,a5
    1474:	06f00613          	li	a2,111
    1478:	0001f7b7          	lui	a5,0x1f
    147c:	51078593          	addi	a1,a5,1296 # 1f510 <_sbrk+0x10e>
    1480:	853a                	mv	a0,a4
    1482:	0f7060ef          	jal	ra,7d78 <debug_assert_handler>
D:/Backup/桌面/Seekfree_CH32V307VCT6_Opensource_Library/libraries/zf_driver/zf_driver_pit.c:113

    uint16 freq_div = (period >> 15);                                           // 计算预分频
    1486:	fa842783          	lw	a5,-88(s0)
    148a:	83bd                	srli	a5,a5,0xf
    148c:	fef41523          	sh	a5,-22(s0)
D:/Backup/桌面/Seekfree_CH32V307VCT6_Opensource_Library/libraries/zf_driver/zf_driver_pit.c:114
    uint16 period_temp = (period / (freq_div+1));                               // 计算自动重装载值
    1490:	fea45783          	lhu	a5,-22(s0)
    1494:	0785                	addi	a5,a5,1
    1496:	873e                	mv	a4,a5
    1498:	fa842783          	lw	a5,-88(s0)
    149c:	02e7d7b3          	divu	a5,a5,a4
    14a0:	fef41423          	sh	a5,-24(s0)
D:/Backup/桌面/Seekfree_CH32V307VCT6_Opensource_Library/libraries/zf_driver/zf_driver_pit.c:116

    timer_clock_enable(pit_n);                                                  // 使能时钟
    14a4:	fac42503          	lw	a0,-84(s0)
    14a8:	3b9010ef          	jal	ra,3060 <timer_clock_enable>
D:/Backup/桌面/Seekfree_CH32V307VCT6_Opensource_Library/libraries/zf_driver/zf_driver_pit.c:119


    TIM_TypeDef *tim_index = TIM1;
    14ac:	400137b7          	lui	a5,0x40013
    14b0:	c0078793          	addi	a5,a5,-1024 # 40012c00 <_eusrstack+0x20002c00>
    14b4:	fef42623          	sw	a5,-20(s0)
D:/Backup/桌面/Seekfree_CH32V307VCT6_Opensource_Library/libraries/zf_driver/zf_driver_pit.c:120
    switch(pit_n)
    14b8:	fac42703          	lw	a4,-84(s0)
    14bc:	47a5                	li	a5,9
    14be:	08e7ed63          	bltu	a5,a4,1558 <pit_init+0x122>
    14c2:	fac42783          	lw	a5,-84(s0)
    14c6:	00279713          	slli	a4,a5,0x2
    14ca:	000207b7          	lui	a5,0x20
    14ce:	33078793          	addi	a5,a5,816 # 20330 <_sbrk+0xf2e>
    14d2:	97ba                	add	a5,a5,a4
    14d4:	439c                	lw	a5,0(a5)
    14d6:	8782                	jr	a5
D:/Backup/桌面/Seekfree_CH32V307VCT6_Opensource_Library/libraries/zf_driver/zf_driver_pit.c:122
    {
        case TIM_1:  tim_index = ((TIM_TypeDef *)TIM1_BASE);    break;
    14d8:	400137b7          	lui	a5,0x40013
    14dc:	c0078793          	addi	a5,a5,-1024 # 40012c00 <_eusrstack+0x20002c00>
    14e0:	fef42623          	sw	a5,-20(s0)
    14e4:	a895                	j	1558 <pit_init+0x122>
D:/Backup/桌面/Seekfree_CH32V307VCT6_Opensource_Library/libraries/zf_driver/zf_driver_pit.c:123
        case TIM_2:  tim_index = ((TIM_TypeDef *)TIM2_BASE);    break;
    14e6:	400007b7          	lui	a5,0x40000
    14ea:	fef42623          	sw	a5,-20(s0)
    14ee:	a0ad                	j	1558 <pit_init+0x122>
D:/Backup/桌面/Seekfree_CH32V307VCT6_Opensource_Library/libraries/zf_driver/zf_driver_pit.c:124
        case TIM_3:  tim_index = ((TIM_TypeDef *)TIM3_BASE);    break;
    14f0:	400007b7          	lui	a5,0x40000
    14f4:	40078793          	addi	a5,a5,1024 # 40000400 <_eusrstack+0x1fff0400>
    14f8:	fef42623          	sw	a5,-20(s0)
    14fc:	a8b1                	j	1558 <pit_init+0x122>
D:/Backup/桌面/Seekfree_CH32V307VCT6_Opensource_Library/libraries/zf_driver/zf_driver_pit.c:125
        case TIM_4:  tim_index = ((TIM_TypeDef *)TIM4_BASE);    break;
    14fe:	400017b7          	lui	a5,0x40001
    1502:	80078793          	addi	a5,a5,-2048 # 40000800 <_eusrstack+0x1fff0800>
    1506:	fef42623          	sw	a5,-20(s0)
    150a:	a0b9                	j	1558 <pit_init+0x122>
D:/Backup/桌面/Seekfree_CH32V307VCT6_Opensource_Library/libraries/zf_driver/zf_driver_pit.c:126
        case TIM_5:  tim_index = ((TIM_TypeDef *)TIM5_BASE);    break;
    150c:	400017b7          	lui	a5,0x40001
    1510:	c0078793          	addi	a5,a5,-1024 # 40000c00 <_eusrstack+0x1fff0c00>
    1514:	fef42623          	sw	a5,-20(s0)
    1518:	a081                	j	1558 <pit_init+0x122>
D:/Backup/桌面/Seekfree_CH32V307VCT6_Opensource_Library/libraries/zf_driver/zf_driver_pit.c:127
        case TIM_6:  tim_index = ((TIM_TypeDef *)TIM6_BASE);    break;
    151a:	400017b7          	lui	a5,0x40001
    151e:	fef42623          	sw	a5,-20(s0)
    1522:	a81d                	j	1558 <pit_init+0x122>
D:/Backup/桌面/Seekfree_CH32V307VCT6_Opensource_Library/libraries/zf_driver/zf_driver_pit.c:128
        case TIM_7:  tim_index = ((TIM_TypeDef *)TIM7_BASE);    break;
    1524:	400017b7          	lui	a5,0x40001
    1528:	40078793          	addi	a5,a5,1024 # 40001400 <_eusrstack+0x1fff1400>
    152c:	fef42623          	sw	a5,-20(s0)
    1530:	a025                	j	1558 <pit_init+0x122>
D:/Backup/桌面/Seekfree_CH32V307VCT6_Opensource_Library/libraries/zf_driver/zf_driver_pit.c:129
        case TIM_8:  tim_index = ((TIM_TypeDef *)TIM8_BASE);    break;
    1532:	400137b7          	lui	a5,0x40013
    1536:	40078793          	addi	a5,a5,1024 # 40013400 <_eusrstack+0x20003400>
    153a:	fef42623          	sw	a5,-20(s0)
    153e:	a829                	j	1558 <pit_init+0x122>
D:/Backup/桌面/Seekfree_CH32V307VCT6_Opensource_Library/libraries/zf_driver/zf_driver_pit.c:130
        case TIM_9:  tim_index = ((TIM_TypeDef *)TIM9_BASE);    break;
    1540:	400157b7          	lui	a5,0x40015
    1544:	c0078793          	addi	a5,a5,-1024 # 40014c00 <_eusrstack+0x20004c00>
    1548:	fef42623          	sw	a5,-20(s0)
    154c:	a031                	j	1558 <pit_init+0x122>
D:/Backup/桌面/Seekfree_CH32V307VCT6_Opensource_Library/libraries/zf_driver/zf_driver_pit.c:131
        case TIM_10: tim_index = ((TIM_TypeDef *)TIM10_BASE);   break;
    154e:	400157b7          	lui	a5,0x40015
    1552:	fef42623          	sw	a5,-20(s0)
    1556:	0001                	nop
D:/Backup/桌面/Seekfree_CH32V307VCT6_Opensource_Library/libraries/zf_driver/zf_driver_pit.c:135
    }


    TIM_TimeBaseInitTypeDef  TIM_TimeBaseStructure = {0};
    1558:	fc042e23          	sw	zero,-36(s0)
    155c:	fe042023          	sw	zero,-32(s0)
    1560:	fe041223          	sh	zero,-28(s0)
D:/Backup/桌面/Seekfree_CH32V307VCT6_Opensource_Library/libraries/zf_driver/zf_driver_pit.c:136
    TIM_TimeBaseStructure.TIM_Period = period_temp;
    1564:	fe845783          	lhu	a5,-24(s0)
    1568:	fef41023          	sh	a5,-32(s0)
D:/Backup/桌面/Seekfree_CH32V307VCT6_Opensource_Library/libraries/zf_driver/zf_driver_pit.c:137
    TIM_TimeBaseStructure.TIM_Prescaler = freq_div;                             // 分频值
    156c:	fea45783          	lhu	a5,-22(s0)
    1570:	fcf41e23          	sh	a5,-36(s0)
D:/Backup/桌面/Seekfree_CH32V307VCT6_Opensource_Library/libraries/zf_driver/zf_driver_pit.c:138
    TIM_TimeBaseStructure.TIM_ClockDivision = TIM_CKD_DIV1;                     // 设置时钟分割:TDTS = Tck_tim
    1574:	fe041123          	sh	zero,-30(s0)
D:/Backup/桌面/Seekfree_CH32V307VCT6_Opensource_Library/libraries/zf_driver/zf_driver_pit.c:139
    TIM_TimeBaseStructure.TIM_CounterMode = TIM_CounterMode_Up;                 // TIM向上计数模式
    1578:	fc041f23          	sh	zero,-34(s0)
D:/Backup/桌面/Seekfree_CH32V307VCT6_Opensource_Library/libraries/zf_driver/zf_driver_pit.c:140
    TIM_TimeBaseStructure.TIM_RepetitionCounter = 0;                            // 重复计数器设置为0
    157c:	fe040223          	sb	zero,-28(s0)
D:/Backup/桌面/Seekfree_CH32V307VCT6_Opensource_Library/libraries/zf_driver/zf_driver_pit.c:141
    TIM_TimeBaseInit(tim_index, &TIM_TimeBaseStructure);                        // 根据指定的参数初始化TIMx的时间基数单位
    1580:	fdc40793          	addi	a5,s0,-36
    1584:	85be                	mv	a1,a5
    1586:	fec42503          	lw	a0,-20(s0)
    158a:	1eb0a0ef          	jal	ra,bf74 <TIM_TimeBaseInit>
D:/Backup/桌面/Seekfree_CH32V307VCT6_Opensource_Library/libraries/zf_driver/zf_driver_pit.c:142
    TIM_ITConfig(tim_index,TIM_IT_Update,ENABLE );                              // 使能指定的TIM中断,允许更新中断
    158e:	4605                	li	a2,1
    1590:	4585                	li	a1,1
    1592:	fec42503          	lw	a0,-20(s0)
    1596:	3200b0ef          	jal	ra,c8b6 <TIM_ITConfig>
D:/Backup/桌面/Seekfree_CH32V307VCT6_Opensource_Library/libraries/zf_driver/zf_driver_pit.c:143
    TIM_ClearITPendingBit(tim_index, TIM_IT_Update);
    159a:	4585                	li	a1,1
    159c:	fec42503          	lw	a0,-20(s0)
    15a0:	71a0b0ef          	jal	ra,ccba <TIM_ClearITPendingBit>
D:/Backup/桌面/Seekfree_CH32V307VCT6_Opensource_Library/libraries/zf_driver/zf_driver_pit.c:145

    const uint32  irq_index[10] =
    15a4:	0001f7b7          	lui	a5,0x1f
    15a8:	4e87ae03          	lw	t3,1256(a5) # 1f4e8 <_sbrk+0xe6>
    15ac:	4e878713          	addi	a4,a5,1256
    15b0:	00472303          	lw	t1,4(a4)
    15b4:	4e878713          	addi	a4,a5,1256
    15b8:	00872883          	lw	a7,8(a4)
    15bc:	4e878713          	addi	a4,a5,1256
    15c0:	00c72803          	lw	a6,12(a4)
    15c4:	4e878713          	addi	a4,a5,1256
    15c8:	4b08                	lw	a0,16(a4)
    15ca:	4e878713          	addi	a4,a5,1256
    15ce:	4b4c                	lw	a1,20(a4)
    15d0:	4e878713          	addi	a4,a5,1256
    15d4:	4f10                	lw	a2,24(a4)
    15d6:	4e878713          	addi	a4,a5,1256
    15da:	4f54                	lw	a3,28(a4)
    15dc:	4e878713          	addi	a4,a5,1256
    15e0:	5318                	lw	a4,32(a4)
    15e2:	4e878793          	addi	a5,a5,1256
    15e6:	53dc                	lw	a5,36(a5)
    15e8:	fbc42a23          	sw	t3,-76(s0)
    15ec:	fa642c23          	sw	t1,-72(s0)
    15f0:	fb142e23          	sw	a7,-68(s0)
    15f4:	fd042023          	sw	a6,-64(s0)
    15f8:	fca42223          	sw	a0,-60(s0)
    15fc:	fcb42423          	sw	a1,-56(s0)
    1600:	fcc42623          	sw	a2,-52(s0)
    1604:	fcd42823          	sw	a3,-48(s0)
    1608:	fce42a23          	sw	a4,-44(s0)
    160c:	fcf42c23          	sw	a5,-40(s0)
D:/Backup/桌面/Seekfree_CH32V307VCT6_Opensource_Library/libraries/zf_driver/zf_driver_pit.c:159
        TIM8_UP_IRQn,
        TIM9_UP_IRQn,
        TIM10_UP_IRQn
    };

    interrupt_set_priority((IRQn_Type)irq_index[(uint8)pit_n], 0x03);           // 设置中断优先级
    1610:	fac42783          	lw	a5,-84(s0)
    1614:	0ff7f793          	andi	a5,a5,255
    1618:	078a                	slli	a5,a5,0x2
    161a:	ff040713          	addi	a4,s0,-16
    161e:	97ba                	add	a5,a5,a4
    1620:	fc47a783          	lw	a5,-60(a5)
    1624:	458d                	li	a1,3
    1626:	853e                	mv	a0,a5
    1628:	065070ef          	jal	ra,8e8c <interrupt_set_priority>
D:/Backup/桌面/Seekfree_CH32V307VCT6_Opensource_Library/libraries/zf_driver/zf_driver_pit.c:160
    interrupt_enable((IRQn_Type)irq_index[pit_n]);                              // 使能中断
    162c:	fac42783          	lw	a5,-84(s0)
    1630:	078a                	slli	a5,a5,0x2
    1632:	ff040713          	addi	a4,s0,-16
    1636:	97ba                	add	a5,a5,a4
    1638:	fc47a783          	lw	a5,-60(a5)
    163c:	853e                	mv	a0,a5
    163e:	013070ef          	jal	ra,8e50 <interrupt_enable>
D:/Backup/桌面/Seekfree_CH32V307VCT6_Opensource_Library/libraries/zf_driver/zf_driver_pit.c:162

    TIM_Cmd(tim_index, ENABLE);                                                 // 使能定时器
    1642:	4585                	li	a1,1
    1644:	fec42503          	lw	a0,-20(s0)
    1648:	1b60b0ef          	jal	ra,c7fe <TIM_Cmd>
D:/Backup/桌面/Seekfree_CH32V307VCT6_Opensource_Library/libraries/zf_driver/zf_driver_pit.c:163
}
    164c:	0001                	nop
    164e:	40f6                	lw	ra,92(sp)
    1650:	4466                	lw	s0,88(sp)
    1652:	6125                	addi	sp,sp,96
    1654:	8082                	ret

00001656 <pwm_set_duty>:
pwm_set_duty():
D:/Backup/桌面/Seekfree_CH32V307VCT6_Opensource_Library/libraries/zf_driver/zf_driver_pwm.c:51
// 返回参数     void
// 使用示例     pwm_set_duty(TIM10_PWM_CH4_C15, 5000);   //定时器10 通道4 使用引脚C15 占空比为百分之 5000/PWM_DUTY_MAX*100
//                              PWM_DUTY_MAX在zf_pwm.h文件中 默认为10000
//-------------------------------------------------------------------------------------------------------------------
void pwm_set_duty(pwm_channel_enum pin, uint32 duty)
{
    1656:	7179                	addi	sp,sp,-48
    1658:	d606                	sw	ra,44(sp)
    165a:	d422                	sw	s0,40(sp)
    165c:	1800                	addi	s0,sp,48
    165e:	fca42e23          	sw	a0,-36(s0)
    1662:	fcb42c23          	sw	a1,-40(s0)
D:/Backup/桌面/Seekfree_CH32V307VCT6_Opensource_Library/libraries/zf_driver/zf_driver_pwm.c:53
    // 如果是这一行报错 那你得去看看最大占空比是限定的多少 占空比写入错误
    zf_assert(PWM_DUTY_MAX >= duty);                            // 占空比写入错误
    1666:	fd842703          	lw	a4,-40(s0)
    166a:	6789                	lui	a5,0x2
    166c:	71178793          	addi	a5,a5,1809 # 2711 <soft_iic_read_8bit_registers+0x93>
    1670:	00f737b3          	sltu	a5,a4,a5
    1674:	0ff7f793          	andi	a5,a5,255
    1678:	873e                	mv	a4,a5
    167a:	03500613          	li	a2,53
    167e:	0001f7b7          	lui	a5,0x1f
    1682:	56c78593          	addi	a1,a5,1388 # 1f56c <_sbrk+0x16a>
    1686:	853a                	mv	a0,a4
    1688:	6f0060ef          	jal	ra,7d78 <debug_assert_handler>
D:/Backup/桌面/Seekfree_CH32V307VCT6_Opensource_Library/libraries/zf_driver/zf_driver_pwm.c:57



    TIM_TypeDef *tim_index = TIM1;
    168c:	400137b7          	lui	a5,0x40013
    1690:	c0078793          	addi	a5,a5,-1024 # 40012c00 <_eusrstack+0x20002c00>
    1694:	fef42623          	sw	a5,-20(s0)
D:/Backup/桌面/Seekfree_CH32V307VCT6_Opensource_Library/libraries/zf_driver/zf_driver_pwm.c:58
    switch((pin & 0xF0000) >> 16)                               // 获取TIM编号
    1698:	fdc42783          	lw	a5,-36(s0)
    169c:	83c1                	srli	a5,a5,0x10
    169e:	8bbd                	andi	a5,a5,15
    16a0:	4725                	li	a4,9
    16a2:	06f76f63          	bltu	a4,a5,1720 <pwm_set_duty+0xca>
    16a6:	00279713          	slli	a4,a5,0x2
    16aa:	000207b7          	lui	a5,0x20
    16ae:	35878793          	addi	a5,a5,856 # 20358 <_sbrk+0xf56>
    16b2:	97ba                	add	a5,a5,a4
    16b4:	439c                	lw	a5,0(a5)
    16b6:	8782                	jr	a5
D:/Backup/桌面/Seekfree_CH32V307VCT6_Opensource_Library/libraries/zf_driver/zf_driver_pwm.c:60
    {
        case 0: tim_index = TIM1;    break;
    16b8:	400137b7          	lui	a5,0x40013
    16bc:	c0078793          	addi	a5,a5,-1024 # 40012c00 <_eusrstack+0x20002c00>
    16c0:	fef42623          	sw	a5,-20(s0)
    16c4:	a8b1                	j	1720 <pwm_set_duty+0xca>
D:/Backup/桌面/Seekfree_CH32V307VCT6_Opensource_Library/libraries/zf_driver/zf_driver_pwm.c:61
        case 1: tim_index = TIM2;    break;
    16c6:	400007b7          	lui	a5,0x40000
    16ca:	fef42623          	sw	a5,-20(s0)
    16ce:	a889                	j	1720 <pwm_set_duty+0xca>
D:/Backup/桌面/Seekfree_CH32V307VCT6_Opensource_Library/libraries/zf_driver/zf_driver_pwm.c:62
        case 2: tim_index = TIM3;    break;
    16d0:	400007b7          	lui	a5,0x40000
    16d4:	40078793          	addi	a5,a5,1024 # 40000400 <_eusrstack+0x1fff0400>
    16d8:	fef42623          	sw	a5,-20(s0)
    16dc:	a091                	j	1720 <pwm_set_duty+0xca>
D:/Backup/桌面/Seekfree_CH32V307VCT6_Opensource_Library/libraries/zf_driver/zf_driver_pwm.c:63
        case 3: tim_index = TIM4;    break;
    16de:	400017b7          	lui	a5,0x40001
    16e2:	80078793          	addi	a5,a5,-2048 # 40000800 <_eusrstack+0x1fff0800>
    16e6:	fef42623          	sw	a5,-20(s0)
    16ea:	a81d                	j	1720 <pwm_set_duty+0xca>
D:/Backup/桌面/Seekfree_CH32V307VCT6_Opensource_Library/libraries/zf_driver/zf_driver_pwm.c:64
        case 4: tim_index = TIM5;    break;
    16ec:	400017b7          	lui	a5,0x40001
    16f0:	c0078793          	addi	a5,a5,-1024 # 40000c00 <_eusrstack+0x1fff0c00>
    16f4:	fef42623          	sw	a5,-20(s0)
    16f8:	a025                	j	1720 <pwm_set_duty+0xca>
D:/Backup/桌面/Seekfree_CH32V307VCT6_Opensource_Library/libraries/zf_driver/zf_driver_pwm.c:65
        case 7: tim_index = TIM8;    break;
    16fa:	400137b7          	lui	a5,0x40013
    16fe:	40078793          	addi	a5,a5,1024 # 40013400 <_eusrstack+0x20003400>
    1702:	fef42623          	sw	a5,-20(s0)
    1706:	a829                	j	1720 <pwm_set_duty+0xca>
D:/Backup/桌面/Seekfree_CH32V307VCT6_Opensource_Library/libraries/zf_driver/zf_driver_pwm.c:66
        case 8: tim_index = TIM9;    break;
    1708:	400157b7          	lui	a5,0x40015
    170c:	c0078793          	addi	a5,a5,-1024 # 40014c00 <_eusrstack+0x20004c00>
    1710:	fef42623          	sw	a5,-20(s0)
    1714:	a031                	j	1720 <pwm_set_duty+0xca>
D:/Backup/桌面/Seekfree_CH32V307VCT6_Opensource_Library/libraries/zf_driver/zf_driver_pwm.c:67
        case 9: tim_index = TIM10;   break;
    1716:	400157b7          	lui	a5,0x40015
    171a:	fef42623          	sw	a5,-20(s0)
    171e:	0001                	nop
D:/Backup/桌面/Seekfree_CH32V307VCT6_Opensource_Library/libraries/zf_driver/zf_driver_pwm.c:74


    uint16 match_temp;
    uint16 period_temp;

    period_temp = tim_index->ATRLR;                             // 获取定时器的周期值
    1720:	fec42783          	lw	a5,-20(s0)
    1724:	02c7d783          	lhu	a5,44(a5) # 4001502c <_eusrstack+0x2000502c>
    1728:	fef41523          	sh	a5,-22(s0)
D:/Backup/桌面/Seekfree_CH32V307VCT6_Opensource_Library/libraries/zf_driver/zf_driver_pwm.c:75
    match_temp = period_temp * duty / PWM_DUTY_MAX;             // 占空比
    172c:	fea45703          	lhu	a4,-22(s0)
    1730:	fd842783          	lw	a5,-40(s0)
    1734:	02f70733          	mul	a4,a4,a5
    1738:	6789                	lui	a5,0x2
    173a:	71078793          	addi	a5,a5,1808 # 2710 <soft_iic_read_8bit_registers+0x92>
    173e:	02f757b3          	divu	a5,a4,a5
    1742:	fef41423          	sh	a5,-24(s0)
D:/Backup/桌面/Seekfree_CH32V307VCT6_Opensource_Library/libraries/zf_driver/zf_driver_pwm.c:79



    if(((pin>>8) & 0x03) == 0x00)                               // 通道选择
    1746:	fdc42783          	lw	a5,-36(s0)
    174a:	83a1                	srli	a5,a5,0x8
    174c:	8b8d                	andi	a5,a5,3
    174e:	eb81                	bnez	a5,175e <pwm_set_duty+0x108>
D:/Backup/桌面/Seekfree_CH32V307VCT6_Opensource_Library/libraries/zf_driver/zf_driver_pwm.c:81
    {
        tim_index->CH1CVR = match_temp;
    1750:	fec42783          	lw	a5,-20(s0)
    1754:	fe845703          	lhu	a4,-24(s0)
    1758:	02e79a23          	sh	a4,52(a5)
D:/Backup/桌面/Seekfree_CH32V307VCT6_Opensource_Library/libraries/zf_driver/zf_driver_pwm.c:96
    else if(((pin>>8) & 0x03) == 0x03)                          // 通道选择
    {
        tim_index->CH4CVR = match_temp;
    }

}
    175c:	a8a9                	j	17b6 <pwm_set_duty+0x160>
D:/Backup/桌面/Seekfree_CH32V307VCT6_Opensource_Library/libraries/zf_driver/zf_driver_pwm.c:83
    else if(((pin>>8) & 0x03) == 0x01)                          // 通道选择
    175e:	fdc42783          	lw	a5,-36(s0)
    1762:	83a1                	srli	a5,a5,0x8
    1764:	0037f713          	andi	a4,a5,3
    1768:	4785                	li	a5,1
    176a:	00f71963          	bne	a4,a5,177c <pwm_set_duty+0x126>
D:/Backup/桌面/Seekfree_CH32V307VCT6_Opensource_Library/libraries/zf_driver/zf_driver_pwm.c:85
        tim_index->CH2CVR = match_temp;
    176e:	fec42783          	lw	a5,-20(s0)
    1772:	fe845703          	lhu	a4,-24(s0)
    1776:	02e79c23          	sh	a4,56(a5)
D:/Backup/桌面/Seekfree_CH32V307VCT6_Opensource_Library/libraries/zf_driver/zf_driver_pwm.c:96
}
    177a:	a835                	j	17b6 <pwm_set_duty+0x160>
D:/Backup/桌面/Seekfree_CH32V307VCT6_Opensource_Library/libraries/zf_driver/zf_driver_pwm.c:87
    else if(((pin>>8) & 0x03) == 0x02)                          // 通道选择
    177c:	fdc42783          	lw	a5,-36(s0)
    1780:	83a1                	srli	a5,a5,0x8
    1782:	0037f713          	andi	a4,a5,3
    1786:	4789                	li	a5,2
    1788:	00f71963          	bne	a4,a5,179a <pwm_set_duty+0x144>
D:/Backup/桌面/Seekfree_CH32V307VCT6_Opensource_Library/libraries/zf_driver/zf_driver_pwm.c:89
        tim_index->CH3CVR = match_temp;
    178c:	fec42783          	lw	a5,-20(s0)
    1790:	fe845703          	lhu	a4,-24(s0)
    1794:	02e79e23          	sh	a4,60(a5)
D:/Backup/桌面/Seekfree_CH32V307VCT6_Opensource_Library/libraries/zf_driver/zf_driver_pwm.c:96
}
    1798:	a839                	j	17b6 <pwm_set_duty+0x160>
D:/Backup/桌面/Seekfree_CH32V307VCT6_Opensource_Library/libraries/zf_driver/zf_driver_pwm.c:91
    else if(((pin>>8) & 0x03) == 0x03)                          // 通道选择
    179a:	fdc42783          	lw	a5,-36(s0)
    179e:	83a1                	srli	a5,a5,0x8
    17a0:	0037f713          	andi	a4,a5,3
    17a4:	478d                	li	a5,3
    17a6:	00f71863          	bne	a4,a5,17b6 <pwm_set_duty+0x160>
D:/Backup/桌面/Seekfree_CH32V307VCT6_Opensource_Library/libraries/zf_driver/zf_driver_pwm.c:93
        tim_index->CH4CVR = match_temp;
    17aa:	fec42783          	lw	a5,-20(s0)
    17ae:	fe845703          	lhu	a4,-24(s0)
    17b2:	04e79023          	sh	a4,64(a5)
D:/Backup/桌面/Seekfree_CH32V307VCT6_Opensource_Library/libraries/zf_driver/zf_driver_pwm.c:96
}
    17b6:	0001                	nop
    17b8:	50b2                	lw	ra,44(sp)
    17ba:	5422                	lw	s0,40(sp)
    17bc:	6145                	addi	sp,sp,48
    17be:	8082                	ret

000017c0 <pwm_init>:
pwm_init():
D:/Backup/桌面/Seekfree_CH32V307VCT6_Opensource_Library/libraries/zf_driver/zf_driver_pwm.c:167
// 返回参数     void
// 使用示例     pwm_init(PWM1_CH1_A8, 50, 5000);   //初始化PWM1 通道1 使用引脚A8  输出PWM频率50HZ   占空比为百分之 5000/PWM_DUTY_MAX*100
//                              PWM_DUTY_MAX在zf_pwm.h文件中 默认为10000
//-------------------------------------------------------------------------------------------------------------------
void pwm_init(pwm_channel_enum pin, uint32 freq, uint32 duty)
{
    17c0:	715d                	addi	sp,sp,-80
    17c2:	c686                	sw	ra,76(sp)
    17c4:	c4a2                	sw	s0,72(sp)
    17c6:	0880                	addi	s0,sp,80
    17c8:	faa42e23          	sw	a0,-68(s0)
    17cc:	fab42c23          	sw	a1,-72(s0)
    17d0:	fac42a23          	sw	a2,-76(s0)
D:/Backup/桌面/Seekfree_CH32V307VCT6_Opensource_Library/libraries/zf_driver/zf_driver_pwm.c:173

    // 如果程序在输出了断言信息 并且提示出错位置在这里
    // 就去查看你在什么地方调用这个函数 检查你的传入参数
    // 这里是检查是否有重复使用定时器
    // 比如初始化了 TIM1_PIT 然后又初始化成 TIM1_PWM 这种用法是不允许的
    zf_assert(timer_funciton_check((timer_index_enum)(pin>>16), TIMER_FUNCTION_PWM));
    17d4:	fbc42783          	lw	a5,-68(s0)
    17d8:	83c1                	srli	a5,a5,0x10
    17da:	458d                	li	a1,3
    17dc:	853e                	mv	a0,a5
